{
	"src/kipu-bank-v2.sol": {
		"KipuBankV2": {
			"abi": [
				{
					"inputs": [
						{
							"internalType": "uint256",
							"name": "_withdrawalThresholdUSD",
							"type": "uint256"
						},
						{
							"internalType": "uint256",
							"name": "_bankCapUSD",
							"type": "uint256"
						},
						{
							"internalType": "address",
							"name": "_ethPriceFeed",
							"type": "address"
						}
					],
					"stateMutability": "nonpayable",
					"type": "constructor"
				},
				{
					"inputs": [],
					"name": "AccessControlBadConfirmation",
					"type": "error"
				},
				{
					"inputs": [
						{
							"internalType": "address",
							"name": "account",
							"type": "address"
						},
						{
							"internalType": "bytes32",
							"name": "neededRole",
							"type": "bytes32"
						}
					],
					"name": "AccessControlUnauthorizedAccount",
					"type": "error"
				},
				{
					"inputs": [
						{
							"internalType": "uint256",
							"name": "requestedUSD",
							"type": "uint256"
						},
						{
							"internalType": "uint256",
							"name": "availableUSD",
							"type": "uint256"
						}
					],
					"name": "KipuBank__BankCapExceeded",
					"type": "error"
				},
				{
					"inputs": [],
					"name": "KipuBank__ETHTransferFailed",
					"type": "error"
				},
				{
					"inputs": [
						{
							"internalType": "uint256",
							"name": "requestedAmount",
							"type": "uint256"
						},
						{
							"internalType": "uint256",
							"name": "availableBalance",
							"type": "uint256"
						}
					],
					"name": "KipuBank__InsufficientBalance",
					"type": "error"
				},
				{
					"inputs": [],
					"name": "KipuBank__InvalidPriceData",
					"type": "error"
				},
				{
					"inputs": [
						{
							"internalType": "address",
							"name": "token",
							"type": "address"
						}
					],
					"name": "KipuBank__TokenAlreadySupported",
					"type": "error"
				},
				{
					"inputs": [
						{
							"internalType": "address",
							"name": "token",
							"type": "address"
						}
					],
					"name": "KipuBank__TokenNotSupported",
					"type": "error"
				},
				{
					"inputs": [],
					"name": "KipuBank__TransferFailed",
					"type": "error"
				},
				{
					"inputs": [
						{
							"internalType": "uint256",
							"name": "requestedUSD",
							"type": "uint256"
						},
						{
							"internalType": "uint256",
							"name": "thresholdUSD",
							"type": "uint256"
						}
					],
					"name": "KipuBank__WithdrawalThresholdExceeded",
					"type": "error"
				},
				{
					"inputs": [],
					"name": "KipuBank__ZeroAmount",
					"type": "error"
				},
				{
					"inputs": [],
					"name": "ReentrancyGuardReentrantCall",
					"type": "error"
				},
				{
					"inputs": [
						{
							"internalType": "address",
							"name": "token",
							"type": "address"
						}
					],
					"name": "SafeERC20FailedOperation",
					"type": "error"
				},
				{
					"anonymous": false,
					"inputs": [
						{
							"indexed": true,
							"internalType": "address",
							"name": "user",
							"type": "address"
						},
						{
							"indexed": true,
							"internalType": "address",
							"name": "token",
							"type": "address"
						},
						{
							"indexed": false,
							"internalType": "uint256",
							"name": "amount",
							"type": "uint256"
						},
						{
							"indexed": false,
							"internalType": "uint256",
							"name": "usdValue",
							"type": "uint256"
						}
					],
					"name": "DepositMade",
					"type": "event"
				},
				{
					"anonymous": false,
					"inputs": [
						{
							"indexed": true,
							"internalType": "bytes32",
							"name": "role",
							"type": "bytes32"
						},
						{
							"indexed": true,
							"internalType": "bytes32",
							"name": "previousAdminRole",
							"type": "bytes32"
						},
						{
							"indexed": true,
							"internalType": "bytes32",
							"name": "newAdminRole",
							"type": "bytes32"
						}
					],
					"name": "RoleAdminChanged",
					"type": "event"
				},
				{
					"anonymous": false,
					"inputs": [
						{
							"indexed": true,
							"internalType": "bytes32",
							"name": "role",
							"type": "bytes32"
						},
						{
							"indexed": true,
							"internalType": "address",
							"name": "account",
							"type": "address"
						},
						{
							"indexed": true,
							"internalType": "address",
							"name": "sender",
							"type": "address"
						}
					],
					"name": "RoleGranted",
					"type": "event"
				},
				{
					"anonymous": false,
					"inputs": [
						{
							"indexed": true,
							"internalType": "bytes32",
							"name": "role",
							"type": "bytes32"
						},
						{
							"indexed": true,
							"internalType": "address",
							"name": "account",
							"type": "address"
						},
						{
							"indexed": true,
							"internalType": "address",
							"name": "sender",
							"type": "address"
						}
					],
					"name": "RoleRevoked",
					"type": "event"
				},
				{
					"anonymous": false,
					"inputs": [
						{
							"indexed": true,
							"internalType": "address",
							"name": "token",
							"type": "address"
						},
						{
							"indexed": true,
							"internalType": "address",
							"name": "priceFeed",
							"type": "address"
						}
					],
					"name": "TokenAdded",
					"type": "event"
				},
				{
					"anonymous": false,
					"inputs": [
						{
							"indexed": true,
							"internalType": "address",
							"name": "token",
							"type": "address"
						}
					],
					"name": "TokenRemoved",
					"type": "event"
				},
				{
					"anonymous": false,
					"inputs": [
						{
							"indexed": true,
							"internalType": "address",
							"name": "user",
							"type": "address"
						},
						{
							"indexed": true,
							"internalType": "address",
							"name": "token",
							"type": "address"
						},
						{
							"indexed": false,
							"internalType": "uint256",
							"name": "amount",
							"type": "uint256"
						},
						{
							"indexed": false,
							"internalType": "uint256",
							"name": "usdValue",
							"type": "uint256"
						}
					],
					"name": "WithdrawalMade",
					"type": "event"
				},
				{
					"stateMutability": "payable",
					"type": "fallback"
				},
				{
					"inputs": [],
					"name": "ADMIN_ROLE",
					"outputs": [
						{
							"internalType": "bytes32",
							"name": "",
							"type": "bytes32"
						}
					],
					"stateMutability": "view",
					"type": "function"
				},
				{
					"inputs": [],
					"name": "DEFAULT_ADMIN_ROLE",
					"outputs": [
						{
							"internalType": "bytes32",
							"name": "",
							"type": "bytes32"
						}
					],
					"stateMutability": "view",
					"type": "function"
				},
				{
					"inputs": [
						{
							"internalType": "address",
							"name": "token",
							"type": "address"
						},
						{
							"internalType": "address",
							"name": "priceFeed",
							"type": "address"
						}
					],
					"name": "addTokenSupport",
					"outputs": [],
					"stateMutability": "nonpayable",
					"type": "function"
				},
				{
					"inputs": [],
					"name": "depositETH",
					"outputs": [],
					"stateMutability": "payable",
					"type": "function"
				},
				{
					"inputs": [
						{
							"internalType": "address",
							"name": "token",
							"type": "address"
						},
						{
							"internalType": "uint256",
							"name": "amount",
							"type": "uint256"
						}
					],
					"name": "depositToken",
					"outputs": [],
					"stateMutability": "nonpayable",
					"type": "function"
				},
				{
					"inputs": [],
					"name": "getAvailableBankCapUSD",
					"outputs": [
						{
							"internalType": "uint256",
							"name": "",
							"type": "uint256"
						}
					],
					"stateMutability": "view",
					"type": "function"
				},
				{
					"inputs": [
						{
							"internalType": "address",
							"name": "user",
							"type": "address"
						},
						{
							"internalType": "address",
							"name": "token",
							"type": "address"
						}
					],
					"name": "getBalance",
					"outputs": [
						{
							"internalType": "uint256",
							"name": "",
							"type": "uint256"
						}
					],
					"stateMutability": "view",
					"type": "function"
				},
				{
					"inputs": [
						{
							"internalType": "address",
							"name": "user",
							"type": "address"
						},
						{
							"internalType": "address",
							"name": "token",
							"type": "address"
						}
					],
					"name": "getBalanceUSD",
					"outputs": [
						{
							"internalType": "uint256",
							"name": "",
							"type": "uint256"
						}
					],
					"stateMutability": "view",
					"type": "function"
				},
				{
					"inputs": [
						{
							"internalType": "address",
							"name": "token",
							"type": "address"
						}
					],
					"name": "getPriceFeed",
					"outputs": [
						{
							"internalType": "address",
							"name": "",
							"type": "address"
						}
					],
					"stateMutability": "view",
					"type": "function"
				},
				{
					"inputs": [
						{
							"internalType": "bytes32",
							"name": "role",
							"type": "bytes32"
						}
					],
					"name": "getRoleAdmin",
					"outputs": [
						{
							"internalType": "bytes32",
							"name": "",
							"type": "bytes32"
						}
					],
					"stateMutability": "view",
					"type": "function"
				},
				{
					"inputs": [],
					"name": "getSupportedTokens",
					"outputs": [
						{
							"internalType": "address[]",
							"name": "",
							"type": "address[]"
						}
					],
					"stateMutability": "view",
					"type": "function"
				},
				{
					"inputs": [
						{
							"internalType": "address",
							"name": "token",
							"type": "address"
						}
					],
					"name": "getTotalDeposits",
					"outputs": [
						{
							"internalType": "uint256",
							"name": "",
							"type": "uint256"
						}
					],
					"stateMutability": "view",
					"type": "function"
				},
				{
					"inputs": [],
					"name": "getTotalDepositsUSD",
					"outputs": [
						{
							"internalType": "uint256",
							"name": "",
							"type": "uint256"
						}
					],
					"stateMutability": "view",
					"type": "function"
				},
				{
					"inputs": [
						{
							"internalType": "bytes32",
							"name": "role",
							"type": "bytes32"
						},
						{
							"internalType": "address",
							"name": "account",
							"type": "address"
						}
					],
					"name": "grantRole",
					"outputs": [],
					"stateMutability": "nonpayable",
					"type": "function"
				},
				{
					"inputs": [
						{
							"internalType": "bytes32",
							"name": "role",
							"type": "bytes32"
						},
						{
							"internalType": "address",
							"name": "account",
							"type": "address"
						}
					],
					"name": "hasRole",
					"outputs": [
						{
							"internalType": "bool",
							"name": "",
							"type": "bool"
						}
					],
					"stateMutability": "view",
					"type": "function"
				},
				{
					"inputs": [],
					"name": "i_bankCapUSD",
					"outputs": [
						{
							"internalType": "uint256",
							"name": "",
							"type": "uint256"
						}
					],
					"stateMutability": "view",
					"type": "function"
				},
				{
					"inputs": [],
					"name": "i_withdrawalThresholdUSD",
					"outputs": [
						{
							"internalType": "uint256",
							"name": "",
							"type": "uint256"
						}
					],
					"stateMutability": "view",
					"type": "function"
				},
				{
					"inputs": [
						{
							"internalType": "address",
							"name": "token",
							"type": "address"
						}
					],
					"name": "isTokenSupported",
					"outputs": [
						{
							"internalType": "bool",
							"name": "",
							"type": "bool"
						}
					],
					"stateMutability": "view",
					"type": "function"
				},
				{
					"inputs": [
						{
							"internalType": "address",
							"name": "token",
							"type": "address"
						}
					],
					"name": "removeTokenSupport",
					"outputs": [],
					"stateMutability": "nonpayable",
					"type": "function"
				},
				{
					"inputs": [
						{
							"internalType": "bytes32",
							"name": "role",
							"type": "bytes32"
						},
						{
							"internalType": "address",
							"name": "callerConfirmation",
							"type": "address"
						}
					],
					"name": "renounceRole",
					"outputs": [],
					"stateMutability": "nonpayable",
					"type": "function"
				},
				{
					"inputs": [
						{
							"internalType": "bytes32",
							"name": "role",
							"type": "bytes32"
						},
						{
							"internalType": "address",
							"name": "account",
							"type": "address"
						}
					],
					"name": "revokeRole",
					"outputs": [],
					"stateMutability": "nonpayable",
					"type": "function"
				},
				{
					"inputs": [],
					"name": "s_depositCount",
					"outputs": [
						{
							"internalType": "uint256",
							"name": "",
							"type": "uint256"
						}
					],
					"stateMutability": "view",
					"type": "function"
				},
				{
					"inputs": [],
					"name": "s_withdrawalCount",
					"outputs": [
						{
							"internalType": "uint256",
							"name": "",
							"type": "uint256"
						}
					],
					"stateMutability": "view",
					"type": "function"
				},
				{
					"inputs": [
						{
							"internalType": "bytes4",
							"name": "interfaceId",
							"type": "bytes4"
						}
					],
					"name": "supportsInterface",
					"outputs": [
						{
							"internalType": "bool",
							"name": "",
							"type": "bool"
						}
					],
					"stateMutability": "view",
					"type": "function"
				},
				{
					"inputs": [
						{
							"internalType": "uint256",
							"name": "amount",
							"type": "uint256"
						}
					],
					"name": "withdrawETH",
					"outputs": [],
					"stateMutability": "nonpayable",
					"type": "function"
				},
				{
					"inputs": [
						{
							"internalType": "address",
							"name": "token",
							"type": "address"
						},
						{
							"internalType": "uint256",
							"name": "amount",
							"type": "uint256"
						}
					],
					"name": "withdrawToken",
					"outputs": [],
					"stateMutability": "nonpayable",
					"type": "function"
				},
				{
					"stateMutability": "payable",
					"type": "receive"
				}
			],
			"devdoc": {
				"errors": {
					"AccessControlBadConfirmation()": [
						{
							"details": "The caller of a function is not the expected one. NOTE: Don't confuse with {AccessControlUnauthorizedAccount}."
						}
					],
					"AccessControlUnauthorizedAccount(address,bytes32)": [
						{
							"details": "The `account` is missing a role."
						}
					],
					"ReentrancyGuardReentrantCall()": [
						{
							"details": "Unauthorized reentrant call."
						}
					],
					"SafeERC20FailedOperation(address)": [
						{
							"details": "An operation with an ERC-20 token failed."
						}
					]
				},
				"events": {
					"DepositMade(address,address,uint256,uint256)": {
						"params": {
							"amount": "Monto en decimales nativos del token (wei para ETH).",
							"token": "Token depositado (address(0) = ETH).",
							"usdValue": "Valor equivalente en USD (18 decimales).",
							"user": "Cuenta que deposita."
						}
					},
					"RoleAdminChanged(bytes32,bytes32,bytes32)": {
						"details": "Emitted when `newAdminRole` is set as ``role``'s admin role, replacing `previousAdminRole` `DEFAULT_ADMIN_ROLE` is the starting admin for all roles, despite {RoleAdminChanged} not being emitted to signal this."
					},
					"RoleGranted(bytes32,address,address)": {
						"details": "Emitted when `account` is granted `role`. `sender` is the account that originated the contract call. This account bears the admin role (for the granted role). Expected in cases where the role was granted using the internal {AccessControl-_grantRole}."
					},
					"RoleRevoked(bytes32,address,address)": {
						"details": "Emitted when `account` is revoked `role`. `sender` is the account that originated the contract call:   - if using `revokeRole`, it is the admin role bearer   - if using `renounceRole`, it is the role bearer (i.e. `account`)"
					},
					"WithdrawalMade(address,address,uint256,uint256)": {
						"params": {
							"amount": "Monto en decimales nativos del token (wei para ETH).",
							"token": "Token retirado (address(0) = ETH).",
							"usdValue": "Valor equivalente en USD (18 decimales).",
							"user": "Cuenta que retira."
						}
					}
				},
				"kind": "dev",
				"methods": {
					"addTokenSupport(address,address)": {
						"params": {
							"priceFeed": "Dirección del oráculo TOKEN/USD (Chainlink).",
							"token": "Dirección del token."
						}
					},
					"constructor": {
						"params": {
							"_bankCapUSD": "Cap global de depósitos en USD (18 decimales).",
							"_ethPriceFeed": "Dirección del feed Chainlink ETH/USD.",
							"_withdrawalThresholdUSD": "Umbral por retiro en USD (18 decimales)."
						}
					},
					"depositToken(address,uint256)": {
						"params": {
							"amount": "Monto a depositar (en decimales nativos del token).",
							"token": "Dirección del token ERC-20."
						}
					},
					"getBalance(address,address)": {
						"params": {
							"token": "Token (address(0) = ETH).",
							"user": "Dirección del usuario."
						}
					},
					"getBalanceUSD(address,address)": {
						"params": {
							"token": "Token (address(0) = ETH).",
							"user": "Dirección del usuario."
						}
					},
					"getRoleAdmin(bytes32)": {
						"details": "Returns the admin role that controls `role`. See {grantRole} and {revokeRole}. To change a role's admin, use {_setRoleAdmin}."
					},
					"getTotalDeposits(address)": {
						"params": {
							"token": "Token."
						}
					},
					"grantRole(bytes32,address)": {
						"details": "Grants `role` to `account`. If `account` had not been already granted `role`, emits a {RoleGranted} event. Requirements: - the caller must have ``role``'s admin role. May emit a {RoleGranted} event."
					},
					"hasRole(bytes32,address)": {
						"details": "Returns `true` if `account` has been granted `role`."
					},
					"removeTokenSupport(address)": {
						"params": {
							"token": "Dirección del token a deshabilitar."
						}
					},
					"renounceRole(bytes32,address)": {
						"details": "Revokes `role` from the calling account. Roles are often managed via {grantRole} and {revokeRole}: this function's purpose is to provide a mechanism for accounts to lose their privileges if they are compromised (such as when a trusted device is misplaced). If the calling account had been revoked `role`, emits a {RoleRevoked} event. Requirements: - the caller must be `callerConfirmation`. May emit a {RoleRevoked} event."
					},
					"revokeRole(bytes32,address)": {
						"details": "Revokes `role` from `account`. If `account` had been granted `role`, emits a {RoleRevoked} event. Requirements: - the caller must have ``role``'s admin role. May emit a {RoleRevoked} event."
					},
					"supportsInterface(bytes4)": {
						"details": "Returns true if this contract implements the interface defined by `interfaceId`. See the corresponding https://eips.ethereum.org/EIPS/eip-165#how-interfaces-are-identified[ERC section] to learn more about how these ids are created. This function call must use less than 30 000 gas."
					},
					"withdrawETH(uint256)": {
						"params": {
							"amount": "Monto en wei a retirar."
						}
					},
					"withdrawToken(address,uint256)": {
						"params": {
							"amount": "Monto a retirar (en decimales nativos del token).",
							"token": "Dirección del token."
						}
					}
				},
				"stateVariables": {
					"USDC_DECIMALS": {
						"details": "Normalizamos saldos a 6 decimales para facilidad de sumas por token."
					},
					"i_bankCapUSD": {
						"details": "Inmutable: se define en el constructor, no puede cambiar."
					},
					"i_withdrawalThresholdUSD": {
						"details": "Inmutable: se define en el constructor, no puede cambiar."
					}
				},
				"version": 1
			},
			"evm": {
				"assembly": "    /* \"src/kipu-bank-v2.sol\":513:19575  contract KipuBankV2 is AccessControl, ReentrancyGuard {... */\n  mstore(0x40, 0xc0)\n    /* \"src/kipu-bank-v2.sol\":5788:6576  constructor(... */\n  callvalue\n  dup1\n  iszero\n  tag_1\n  jumpi\n  0x00\n  dup1\n  revert\ntag_1:\n  pop\n  mload(0x40)\n  sub(codesize, bytecodeSize)\n  dup1\n  bytecodeSize\n  dup4\n  codecopy\n  dup2\n  dup2\n  add\n  0x40\n  mstore\n  dup2\n  add\n  swap1\n  tag_2\n  swap2\n  swap1\n  tag_3\n  jump\t// in\ntag_2:\n    /* \"@openzeppelin/contracts/utils/ReentrancyGuard.sol\":1857:1858  1 */\n  0x01\n    /* \"@openzeppelin/contracts/utils/ReentrancyGuard.sol\":2061:2068  _status */\n  dup1\n    /* \"@openzeppelin/contracts/utils/ReentrancyGuard.sol\":2061:2082  _status = NOT_ENTERED */\n  dup2\n  swap1\n  sstore\n  pop\n    /* \"src/kipu-bank-v2.sol\":6033:6034  0 */\n  0x00\n    /* \"src/kipu-bank-v2.sol\":6006:6029  _withdrawalThresholdUSD */\n  dup4\n    /* \"src/kipu-bank-v2.sol\":6006:6034  _withdrawalThresholdUSD == 0 */\n  eq\n    /* \"src/kipu-bank-v2.sol\":6006:6054  _withdrawalThresholdUSD == 0 || _bankCapUSD == 0 */\n  dup1\n  tag_8\n  jumpi\n  pop\n    /* \"src/kipu-bank-v2.sol\":6053:6054  0 */\n  0x00\n    /* \"src/kipu-bank-v2.sol\":6038:6049  _bankCapUSD */\n  dup3\n    /* \"src/kipu-bank-v2.sol\":6038:6054  _bankCapUSD == 0 */\n  eq\n    /* \"src/kipu-bank-v2.sol\":6006:6054  _withdrawalThresholdUSD == 0 || _bankCapUSD == 0 */\ntag_8:\n    /* \"src/kipu-bank-v2.sol\":6002:6112  if (_withdrawalThresholdUSD == 0 || _bankCapUSD == 0) {... */\n  iszero\n  tag_9\n  jumpi\n    /* \"src/kipu-bank-v2.sol\":6078:6100  KipuBank__ZeroAmount() */\n  mload(0x40)\n  0x3f36295200000000000000000000000000000000000000000000000000000000\n  dup2\n  mstore\n  0x04\n  add\n  mload(0x40)\n  dup1\n  swap2\n  sub\n  swap1\n  revert\n    /* \"src/kipu-bank-v2.sol\":6002:6112  if (_withdrawalThresholdUSD == 0 || _bankCapUSD == 0) {... */\ntag_9:\n    /* \"src/kipu-bank-v2.sol\":6151:6174  _withdrawalThresholdUSD */\n  dup3\n    /* \"src/kipu-bank-v2.sol\":6124:6174  i_withdrawalThresholdUSD = _withdrawalThresholdUSD */\n  0x80\n  dup2\n  dup2\n  mstore\n  pop\n  pop\n    /* \"src/kipu-bank-v2.sol\":6200:6211  _bankCapUSD */\n  dup2\n    /* \"src/kipu-bank-v2.sol\":6185:6211  i_bankCapUSD = _bankCapUSD */\n  0xa0\n  dup2\n  dup2\n  mstore\n  pop\n  pop\n    /* \"src/kipu-bank-v2.sol\":6292:6334  _grantRole(DEFAULT_ADMIN_ROLE, msg.sender) */\n  tag_10\n    /* \"@openzeppelin/contracts/access/AccessControl.sol\":2241:2245  0x00 */\n  0x00\n    /* \"src/kipu-bank-v2.sol\":6303:6321  DEFAULT_ADMIN_ROLE */\n  dup1\n  shl\n    /* \"src/kipu-bank-v2.sol\":6323:6333  msg.sender */\n  caller\n    /* \"src/kipu-bank-v2.sol\":6292:6302  _grantRole */\n  shl(0x20, tag_11)\n    /* \"src/kipu-bank-v2.sol\":6292:6334  _grantRole(DEFAULT_ADMIN_ROLE, msg.sender) */\n  0x20\n  shr\n  jump\t// in\ntag_10:\n  pop\n    /* \"src/kipu-bank-v2.sol\":6345:6379  _grantRole(ADMIN_ROLE, msg.sender) */\n  tag_12\n    /* \"src/kipu-bank-v2.sol\":923:946  keccak256(\"ADMIN_ROLE\") */\n  0xa49807205ce4d355092ef5a8a18f56e8913cf4a201fbe287825b095693c21775\n    /* \"src/kipu-bank-v2.sol\":6368:6378  msg.sender */\n  caller\n    /* \"src/kipu-bank-v2.sol\":6345:6355  _grantRole */\n  shl(0x20, tag_11)\n    /* \"src/kipu-bank-v2.sol\":6345:6379  _grantRole(ADMIN_ROLE, msg.sender) */\n  0x20\n  shr\n  jump\t// in\ntag_12:\n  pop\n    /* \"src/kipu-bank-v2.sol\":6509:6522  _ethPriceFeed */\n  dup1\n    /* \"src/kipu-bank-v2.sol\":6460:6472  s_priceFeeds */\n  0x04\n    /* \"src/kipu-bank-v2.sol\":6460:6484  s_priceFeeds[NATIVE_ETH] */\n  0x00\n    /* \"src/kipu-bank-v2.sol\":1899:1900  0 */\n  dup1\n    /* \"src/kipu-bank-v2.sol\":6460:6484  s_priceFeeds[NATIVE_ETH] */\n  0xffffffffffffffffffffffffffffffffffffffff\n  and\n  0xffffffffffffffffffffffffffffffffffffffff\n  and\n  dup2\n  mstore\n  0x20\n  add\n  swap1\n  dup2\n  mstore\n  0x20\n  add\n  0x00\n  keccak256\n  0x00\n    /* \"src/kipu-bank-v2.sol\":6460:6523  s_priceFeeds[NATIVE_ETH] = AggregatorV3Interface(_ethPriceFeed) */\n  0x0100\n  exp\n  dup2\n  sload\n  dup2\n  0xffffffffffffffffffffffffffffffffffffffff\n  mul\n  not\n  and\n  swap1\n  dup4\n  0xffffffffffffffffffffffffffffffffffffffff\n  and\n  mul\n  or\n  swap1\n  sstore\n  pop\n    /* \"src/kipu-bank-v2.sol\":6534:6551  s_supportedTokens */\n  0x05\n    /* \"src/kipu-bank-v2.sol\":1899:1900  0 */\n  0x00\n    /* \"src/kipu-bank-v2.sol\":6534:6568  s_supportedTokens.push(NATIVE_ETH) */\n  swap1\n  dup1\n  0x01\n  dup2\n  sload\n  add\n  dup1\n  dup3\n  sstore\n  dup1\n  swap2\n  pop\n  pop\n  0x01\n  swap1\n  sub\n  swap1\n  0x00\n  mstore\n  keccak256(0x00, 0x20)\n  add\n  0x00\n  swap1\n  swap2\n  swap1\n  swap2\n  swap1\n  swap2\n  0x0100\n  exp\n  dup2\n  sload\n  dup2\n  0xffffffffffffffffffffffffffffffffffffffff\n  mul\n  not\n  and\n  swap1\n  dup4\n  0xffffffffffffffffffffffffffffffffffffffff\n  and\n  mul\n  or\n  swap1\n  sstore\n  pop\n    /* \"src/kipu-bank-v2.sol\":5788:6576  constructor(... */\n  pop\n  pop\n  pop\n    /* \"src/kipu-bank-v2.sol\":513:19575  contract KipuBankV2 is AccessControl, ReentrancyGuard {... */\n  jump(tag_14)\n    /* \"@openzeppelin/contracts/access/AccessControl.sol\":6155:6471  function _grantRole(bytes32 role, address account) internal virtual returns (bool) {... */\ntag_11:\n    /* \"@openzeppelin/contracts/access/AccessControl.sol\":6232:6236  bool */\n  0x00\n    /* \"@openzeppelin/contracts/access/AccessControl.sol\":6253:6275  hasRole(role, account) */\n  tag_16\n    /* \"@openzeppelin/contracts/access/AccessControl.sol\":6261:6265  role */\n  dup4\n    /* \"@openzeppelin/contracts/access/AccessControl.sol\":6267:6274  account */\n  dup4\n    /* \"@openzeppelin/contracts/access/AccessControl.sol\":6253:6260  hasRole */\n  shl(0x20, tag_17)\n    /* \"@openzeppelin/contracts/access/AccessControl.sol\":6253:6275  hasRole(role, account) */\n  0x20\n  shr\n  jump\t// in\ntag_16:\n    /* \"@openzeppelin/contracts/access/AccessControl.sol\":6248:6465  if (!hasRole(role, account)) {... */\n  tag_18\n  jumpi\n    /* \"@openzeppelin/contracts/access/AccessControl.sol\":6323:6327  true */\n  0x01\n    /* \"@openzeppelin/contracts/access/AccessControl.sol\":6291:6297  _roles */\n  0x00\n    /* \"@openzeppelin/contracts/access/AccessControl.sol\":6291:6303  _roles[role] */\n  dup1\n    /* \"@openzeppelin/contracts/access/AccessControl.sol\":6298:6302  role */\n  dup6\n    /* \"@openzeppelin/contracts/access/AccessControl.sol\":6291:6303  _roles[role] */\n  dup2\n  mstore\n  0x20\n  add\n  swap1\n  dup2\n  mstore\n  0x20\n  add\n  0x00\n  keccak256\n    /* \"@openzeppelin/contracts/access/AccessControl.sol\":6291:6311  _roles[role].hasRole */\n  0x00\n  add\n    /* \"@openzeppelin/contracts/access/AccessControl.sol\":6291:6320  _roles[role].hasRole[account] */\n  0x00\n    /* \"@openzeppelin/contracts/access/AccessControl.sol\":6312:6319  account */\n  dup5\n    /* \"@openzeppelin/contracts/access/AccessControl.sol\":6291:6320  _roles[role].hasRole[account] */\n  0xffffffffffffffffffffffffffffffffffffffff\n  and\n  0xffffffffffffffffffffffffffffffffffffffff\n  and\n  dup2\n  mstore\n  0x20\n  add\n  swap1\n  dup2\n  mstore\n  0x20\n  add\n  0x00\n  keccak256\n  0x00\n    /* \"@openzeppelin/contracts/access/AccessControl.sol\":6291:6327  _roles[role].hasRole[account] = true */\n  0x0100\n  exp\n  dup2\n  sload\n  dup2\n  0xff\n  mul\n  not\n  and\n  swap1\n  dup4\n  iszero\n  iszero\n  mul\n  or\n  swap1\n  sstore\n  pop\n    /* \"@openzeppelin/contracts/access/AccessControl.sol\":6373:6385  _msgSender() */\n  tag_19\n    /* \"@openzeppelin/contracts/access/AccessControl.sol\":6373:6383  _msgSender */\n  shl(0x20, tag_20)\n    /* \"@openzeppelin/contracts/access/AccessControl.sol\":6373:6385  _msgSender() */\n  0x20\n  shr\n  jump\t// in\ntag_19:\n    /* \"@openzeppelin/contracts/access/AccessControl.sol\":6346:6386  RoleGranted(role, account, _msgSender()) */\n  0xffffffffffffffffffffffffffffffffffffffff\n  and\n    /* \"@openzeppelin/contracts/access/AccessControl.sol\":6364:6371  account */\n  dup3\n    /* \"@openzeppelin/contracts/access/AccessControl.sol\":6346:6386  RoleGranted(role, account, _msgSender()) */\n  0xffffffffffffffffffffffffffffffffffffffff\n  and\n    /* \"@openzeppelin/contracts/access/AccessControl.sol\":6358:6362  role */\n  dup5\n    /* \"@openzeppelin/contracts/access/AccessControl.sol\":6346:6386  RoleGranted(role, account, _msgSender()) */\n  0x2f8788117e7eff1d82e926ec794901d17c78024a50270940304540a733656f0d\n  mload(0x40)\n  mload(0x40)\n  dup1\n  swap2\n  sub\n  swap1\n  log4\n    /* \"@openzeppelin/contracts/access/AccessControl.sol\":6407:6411  true */\n  0x01\n    /* \"@openzeppelin/contracts/access/AccessControl.sol\":6400:6411  return true */\n  swap1\n  pop\n  jump(tag_15)\n    /* \"@openzeppelin/contracts/access/AccessControl.sol\":6248:6465  if (!hasRole(role, account)) {... */\ntag_18:\n    /* \"@openzeppelin/contracts/access/AccessControl.sol\":6449:6454  false */\n  0x00\n    /* \"@openzeppelin/contracts/access/AccessControl.sol\":6442:6454  return false */\n  swap1\n  pop\n    /* \"@openzeppelin/contracts/access/AccessControl.sol\":6155:6471  function _grantRole(bytes32 role, address account) internal virtual returns (bool) {... */\ntag_15:\n  swap3\n  swap2\n  pop\n  pop\n  jump\t// out\n    /* \"@openzeppelin/contracts/access/AccessControl.sol\":2830:2966  function hasRole(bytes32 role, address account) public view virtual returns (bool) {... */\ntag_17:\n    /* \"@openzeppelin/contracts/access/AccessControl.sol\":2907:2911  bool */\n  0x00\n    /* \"@openzeppelin/contracts/access/AccessControl.sol\":2930:2936  _roles */\n  dup1\n    /* \"@openzeppelin/contracts/access/AccessControl.sol\":2930:2942  _roles[role] */\n  0x00\n    /* \"@openzeppelin/contracts/access/AccessControl.sol\":2937:2941  role */\n  dup5\n    /* \"@openzeppelin/contracts/access/AccessControl.sol\":2930:2942  _roles[role] */\n  dup2\n  mstore\n  0x20\n  add\n  swap1\n  dup2\n  mstore\n  0x20\n  add\n  0x00\n  keccak256\n    /* \"@openzeppelin/contracts/access/AccessControl.sol\":2930:2950  _roles[role].hasRole */\n  0x00\n  add\n    /* \"@openzeppelin/contracts/access/AccessControl.sol\":2930:2959  _roles[role].hasRole[account] */\n  0x00\n    /* \"@openzeppelin/contracts/access/AccessControl.sol\":2951:2958  account */\n  dup4\n    /* \"@openzeppelin/contracts/access/AccessControl.sol\":2930:2959  _roles[role].hasRole[account] */\n  0xffffffffffffffffffffffffffffffffffffffff\n  and\n  0xffffffffffffffffffffffffffffffffffffffff\n  and\n  dup2\n  mstore\n  0x20\n  add\n  swap1\n  dup2\n  mstore\n  0x20\n  add\n  0x00\n  keccak256\n  0x00\n  swap1\n  sload\n  swap1\n  0x0100\n  exp\n  swap1\n  div\n  0xff\n  and\n    /* \"@openzeppelin/contracts/access/AccessControl.sol\":2923:2959  return _roles[role].hasRole[account] */\n  swap1\n  pop\n    /* \"@openzeppelin/contracts/access/AccessControl.sol\":2830:2966  function hasRole(bytes32 role, address account) public view virtual returns (bool) {... */\n  swap3\n  swap2\n  pop\n  pop\n  jump\t// out\n    /* \"@openzeppelin/contracts/utils/Context.sol\":656:752  function _msgSender() internal view virtual returns (address) {... */\ntag_20:\n    /* \"@openzeppelin/contracts/utils/Context.sol\":709:716  address */\n  0x00\n    /* \"@openzeppelin/contracts/utils/Context.sol\":735:745  msg.sender */\n  caller\n    /* \"@openzeppelin/contracts/utils/Context.sol\":728:745  return msg.sender */\n  swap1\n  pop\n    /* \"@openzeppelin/contracts/utils/Context.sol\":656:752  function _msgSender() internal view virtual returns (address) {... */\n  swap1\n  jump\t// out\n    /* \"#utility.yul\":88:205   */\ntag_25:\n    /* \"#utility.yul\":197:198   */\n  0x00\n    /* \"#utility.yul\":194:195   */\n  dup1\n    /* \"#utility.yul\":187:199   */\n  revert\n    /* \"#utility.yul\":334:411   */\ntag_27:\n    /* \"#utility.yul\":371:378   */\n  0x00\n    /* \"#utility.yul\":400:405   */\n  dup2\n    /* \"#utility.yul\":389:405   */\n  swap1\n  pop\n    /* \"#utility.yul\":334:411   */\n  swap2\n  swap1\n  pop\n  jump\t// out\n    /* \"#utility.yul\":417:539   */\ntag_28:\n    /* \"#utility.yul\":490:514   */\n  tag_40\n    /* \"#utility.yul\":508:513   */\n  dup2\n    /* \"#utility.yul\":490:514   */\n  tag_27\n  jump\t// in\ntag_40:\n    /* \"#utility.yul\":483:488   */\n  dup2\n    /* \"#utility.yul\":480:515   */\n  eq\n    /* \"#utility.yul\":470:533   */\n  tag_41\n  jumpi\n    /* \"#utility.yul\":529:530   */\n  0x00\n    /* \"#utility.yul\":526:527   */\n  dup1\n    /* \"#utility.yul\":519:531   */\n  revert\n    /* \"#utility.yul\":470:533   */\ntag_41:\n    /* \"#utility.yul\":417:539   */\n  pop\n  jump\t// out\n    /* \"#utility.yul\":545:688   */\ntag_29:\n    /* \"#utility.yul\":602:607   */\n  0x00\n    /* \"#utility.yul\":633:639   */\n  dup2\n    /* \"#utility.yul\":627:640   */\n  mload\n    /* \"#utility.yul\":618:640   */\n  swap1\n  pop\n    /* \"#utility.yul\":649:682   */\n  tag_43\n    /* \"#utility.yul\":676:681   */\n  dup2\n    /* \"#utility.yul\":649:682   */\n  tag_28\n  jump\t// in\ntag_43:\n    /* \"#utility.yul\":545:688   */\n  swap3\n  swap2\n  pop\n  pop\n  jump\t// out\n    /* \"#utility.yul\":694:820   */\ntag_30:\n    /* \"#utility.yul\":731:738   */\n  0x00\n    /* \"#utility.yul\":771:813   */\n  0xffffffffffffffffffffffffffffffffffffffff\n    /* \"#utility.yul\":764:769   */\n  dup3\n    /* \"#utility.yul\":760:814   */\n  and\n    /* \"#utility.yul\":749:814   */\n  swap1\n  pop\n    /* \"#utility.yul\":694:820   */\n  swap2\n  swap1\n  pop\n  jump\t// out\n    /* \"#utility.yul\":826:922   */\ntag_31:\n    /* \"#utility.yul\":863:870   */\n  0x00\n    /* \"#utility.yul\":892:916   */\n  tag_46\n    /* \"#utility.yul\":910:915   */\n  dup3\n    /* \"#utility.yul\":892:916   */\n  tag_30\n  jump\t// in\ntag_46:\n    /* \"#utility.yul\":881:916   */\n  swap1\n  pop\n    /* \"#utility.yul\":826:922   */\n  swap2\n  swap1\n  pop\n  jump\t// out\n    /* \"#utility.yul\":928:1050   */\ntag_32:\n    /* \"#utility.yul\":1001:1025   */\n  tag_48\n    /* \"#utility.yul\":1019:1024   */\n  dup2\n    /* \"#utility.yul\":1001:1025   */\n  tag_31\n  jump\t// in\ntag_48:\n    /* \"#utility.yul\":994:999   */\n  dup2\n    /* \"#utility.yul\":991:1026   */\n  eq\n    /* \"#utility.yul\":981:1044   */\n  tag_49\n  jumpi\n    /* \"#utility.yul\":1040:1041   */\n  0x00\n    /* \"#utility.yul\":1037:1038   */\n  dup1\n    /* \"#utility.yul\":1030:1042   */\n  revert\n    /* \"#utility.yul\":981:1044   */\ntag_49:\n    /* \"#utility.yul\":928:1050   */\n  pop\n  jump\t// out\n    /* \"#utility.yul\":1056:1199   */\ntag_33:\n    /* \"#utility.yul\":1113:1118   */\n  0x00\n    /* \"#utility.yul\":1144:1150   */\n  dup2\n    /* \"#utility.yul\":1138:1151   */\n  mload\n    /* \"#utility.yul\":1129:1151   */\n  swap1\n  pop\n    /* \"#utility.yul\":1160:1193   */\n  tag_51\n    /* \"#utility.yul\":1187:1192   */\n  dup2\n    /* \"#utility.yul\":1160:1193   */\n  tag_32\n  jump\t// in\ntag_51:\n    /* \"#utility.yul\":1056:1199   */\n  swap3\n  swap2\n  pop\n  pop\n  jump\t// out\n    /* \"#utility.yul\":1205:1868   */\ntag_3:\n    /* \"#utility.yul\":1293:1299   */\n  0x00\n    /* \"#utility.yul\":1301:1307   */\n  dup1\n    /* \"#utility.yul\":1309:1315   */\n  0x00\n    /* \"#utility.yul\":1358:1360   */\n  0x60\n    /* \"#utility.yul\":1346:1355   */\n  dup5\n    /* \"#utility.yul\":1337:1344   */\n  dup7\n    /* \"#utility.yul\":1333:1356   */\n  sub\n    /* \"#utility.yul\":1329:1361   */\n  slt\n    /* \"#utility.yul\":1326:1445   */\n  iszero\n  tag_53\n  jumpi\n    /* \"#utility.yul\":1364:1443   */\n  tag_54\n  tag_25\n  jump\t// in\ntag_54:\n    /* \"#utility.yul\":1326:1445   */\ntag_53:\n    /* \"#utility.yul\":1484:1485   */\n  0x00\n    /* \"#utility.yul\":1509:1573   */\n  tag_55\n    /* \"#utility.yul\":1565:1572   */\n  dup7\n    /* \"#utility.yul\":1556:1562   */\n  dup3\n    /* \"#utility.yul\":1545:1554   */\n  dup8\n    /* \"#utility.yul\":1541:1563   */\n  add\n    /* \"#utility.yul\":1509:1573   */\n  tag_29\n  jump\t// in\ntag_55:\n    /* \"#utility.yul\":1499:1573   */\n  swap4\n  pop\n    /* \"#utility.yul\":1455:1583   */\n  pop\n    /* \"#utility.yul\":1622:1624   */\n  0x20\n    /* \"#utility.yul\":1648:1712   */\n  tag_56\n    /* \"#utility.yul\":1704:1711   */\n  dup7\n    /* \"#utility.yul\":1695:1701   */\n  dup3\n    /* \"#utility.yul\":1684:1693   */\n  dup8\n    /* \"#utility.yul\":1680:1702   */\n  add\n    /* \"#utility.yul\":1648:1712   */\n  tag_29\n  jump\t// in\ntag_56:\n    /* \"#utility.yul\":1638:1712   */\n  swap3\n  pop\n    /* \"#utility.yul\":1593:1722   */\n  pop\n    /* \"#utility.yul\":1761:1763   */\n  0x40\n    /* \"#utility.yul\":1787:1851   */\n  tag_57\n    /* \"#utility.yul\":1843:1850   */\n  dup7\n    /* \"#utility.yul\":1834:1840   */\n  dup3\n    /* \"#utility.yul\":1823:1832   */\n  dup8\n    /* \"#utility.yul\":1819:1841   */\n  add\n    /* \"#utility.yul\":1787:1851   */\n  tag_33\n  jump\t// in\ntag_57:\n    /* \"#utility.yul\":1777:1851   */\n  swap2\n  pop\n    /* \"#utility.yul\":1732:1861   */\n  pop\n    /* \"#utility.yul\":1205:1868   */\n  swap3\n  pop\n  swap3\n  pop\n  swap3\n  jump\t// out\n    /* \"src/kipu-bank-v2.sol\":513:19575  contract KipuBankV2 is AccessControl, ReentrancyGuard {... */\ntag_14:\n  mload(0x80)\n  mload(0xa0)\n  codecopy(0x00, dataOffset(sub_0), dataSize(sub_0))\n  0x00\n  assignImmutable(\"0x67ee31144bea895314df7c8383b1a0e40c613448def41da1afb11ff52a2021aa\")\n  0x00\n  assignImmutable(\"0xf586532c52cafa07782ab6085737addf284f0cc1dede3aa9b2bdba9d5551b7a5\")\n  return(0x00, dataSize(sub_0))\nstop\n\nsub_0: assembly {\n        /* \"src/kipu-bank-v2.sol\":513:19575  contract KipuBankV2 is AccessControl, ReentrancyGuard {... */\n      mstore(0x40, 0x80)\n      jumpi(tag_1, lt(calldatasize, 0x04))\n      shr(0xe0, calldataload(0x00))\n      dup1\n      0x83e397b8\n      gt\n      tag_29\n      jumpi\n      dup1\n      0xd15f58fb\n      gt\n      tag_30\n      jumpi\n      dup1\n      0xd547741f\n      gt\n      tag_31\n      jumpi\n      dup1\n      0xd547741f\n      eq\n      tag_25\n      jumpi\n      dup1\n      0xe62615c6\n      eq\n      tag_26\n      jumpi\n      dup1\n      0xf14210a6\n      eq\n      tag_27\n      jumpi\n      dup1\n      0xf6326fb3\n      eq\n      tag_28\n      jumpi\n      jump(tag_2)\n    tag_31:\n      dup1\n      0xd15f58fb\n      eq\n      tag_22\n      jumpi\n      dup1\n      0xd3c7c2c7\n      eq\n      tag_23\n      jumpi\n      dup1\n      0xd4fac45d\n      eq\n      tag_24\n      jumpi\n      jump(tag_2)\n    tag_30:\n      dup1\n      0x83e397b8\n      eq\n      tag_16\n      jumpi\n      dup1\n      0x91d14854\n      eq\n      tag_17\n      jumpi\n      dup1\n      0x9e281a98\n      eq\n      tag_18\n      jumpi\n      dup1\n      0xa217fddf\n      eq\n      tag_19\n      jumpi\n      dup1\n      0xb2343b1c\n      eq\n      tag_20\n      jumpi\n      dup1\n      0xcac2e25f\n      eq\n      tag_21\n      jumpi\n      jump(tag_2)\n    tag_29:\n      dup1\n      0x2f2ff15d\n      gt\n      tag_32\n      jumpi\n      dup1\n      0x5b6cca80\n      gt\n      tag_33\n      jumpi\n      dup1\n      0x5b6cca80\n      eq\n      tag_12\n      jumpi\n      dup1\n      0x5ccf7ac4\n      eq\n      tag_13\n      jumpi\n      dup1\n      0x75151b63\n      eq\n      tag_14\n      jumpi\n      dup1\n      0x75b238fc\n      eq\n      tag_15\n      jumpi\n      jump(tag_2)\n    tag_33:\n      dup1\n      0x2f2ff15d\n      eq\n      tag_9\n      jumpi\n      dup1\n      0x338b5dea\n      eq\n      tag_10\n      jumpi\n      dup1\n      0x36568abe\n      eq\n      tag_11\n      jumpi\n      jump(tag_2)\n    tag_32:\n      dup1\n      0x01ffc9a7\n      eq\n      tag_3\n      jumpi\n      dup1\n      0x0251cfa1\n      eq\n      tag_4\n      jumpi\n      dup1\n      0x08133237\n      eq\n      tag_5\n      jumpi\n      dup1\n      0x0ccee433\n      eq\n      tag_6\n      jumpi\n      dup1\n      0x248a9ca3\n      eq\n      tag_7\n      jumpi\n      dup1\n      0x2ba8d939\n      eq\n      tag_8\n      jumpi\n      jump(tag_2)\n    tag_1:\n      jumpi(tag_2, calldatasize)\n        /* \"src/kipu-bank-v2.sol\":6883:6914  _deposit(NATIVE_ETH, msg.value) */\n      tag_36\n        /* \"src/kipu-bank-v2.sol\":1899:1900  0 */\n      0x00\n        /* \"src/kipu-bank-v2.sol\":6904:6913  msg.value */\n      callvalue\n        /* \"src/kipu-bank-v2.sol\":6883:6891  _deposit */\n      tag_37\n        /* \"src/kipu-bank-v2.sol\":6883:6914  _deposit(NATIVE_ETH, msg.value) */\n      jump\t// in\n    tag_36:\n        /* \"src/kipu-bank-v2.sol\":513:19575  contract KipuBankV2 is AccessControl, ReentrancyGuard {... */\n      stop\n    tag_2:\n        /* \"src/kipu-bank-v2.sol\":7054:7080  KipuBank__TransferFailed() */\n      mload(0x40)\n      0x2ae871a500000000000000000000000000000000000000000000000000000000\n      dup2\n      mstore\n      0x04\n      add\n      mload(0x40)\n      dup1\n      swap2\n      sub\n      swap1\n      revert\n        /* \"@openzeppelin/contracts/access/AccessControl.sol\":2541:2743  function supportsInterface(bytes4 interfaceId) public view virtual override returns (bool) {... */\n    tag_3:\n      callvalue\n      dup1\n      iszero\n      tag_40\n      jumpi\n      0x00\n      dup1\n      revert\n    tag_40:\n      pop\n      tag_41\n      0x04\n      dup1\n      calldatasize\n      sub\n      dup2\n      add\n      swap1\n      tag_42\n      swap2\n      swap1\n      tag_43\n      jump\t// in\n    tag_42:\n      tag_44\n      jump\t// in\n    tag_41:\n      mload(0x40)\n      tag_45\n      swap2\n      swap1\n      tag_46\n      jump\t// in\n    tag_45:\n      mload(0x40)\n      dup1\n      swap2\n      sub\n      swap1\n      return\n        /* \"src/kipu-bank-v2.sol\":18182:18332  function getTotalDeposits(address token) external view returns (uint256) {... */\n    tag_4:\n      callvalue\n      dup1\n      iszero\n      tag_47\n      jumpi\n      0x00\n      dup1\n      revert\n    tag_47:\n      pop\n      tag_48\n      0x04\n      dup1\n      calldatasize\n      sub\n      dup2\n      add\n      swap1\n      tag_49\n      swap2\n      swap1\n      tag_50\n      jump\t// in\n    tag_49:\n      tag_51\n      jump\t// in\n    tag_48:\n      mload(0x40)\n      tag_52\n      swap2\n      swap1\n      tag_53\n      jump\t// in\n    tag_52:\n      mload(0x40)\n      dup1\n      swap2\n      sub\n      swap1\n      return\n        /* \"src/kipu-bank-v2.sol\":18679:18889  function getAvailableBankCapUSD() external view returns (uint256) {... */\n    tag_5:\n      callvalue\n      dup1\n      iszero\n      tag_54\n      jumpi\n      0x00\n      dup1\n      revert\n    tag_54:\n      pop\n      tag_55\n      tag_56\n      jump\t// in\n    tag_55:\n      mload(0x40)\n      tag_57\n      swap2\n      swap1\n      tag_53\n      jump\t// in\n    tag_57:\n      mload(0x40)\n      dup1\n      swap2\n      sub\n      swap1\n      return\n        /* \"src/kipu-bank-v2.sol\":1341:1378  uint256 public immutable i_bankCapUSD */\n    tag_6:\n      callvalue\n      dup1\n      iszero\n      tag_58\n      jumpi\n      0x00\n      dup1\n      revert\n    tag_58:\n      pop\n      tag_59\n      tag_60\n      jump\t// in\n    tag_59:\n      mload(0x40)\n      tag_61\n      swap2\n      swap1\n      tag_53\n      jump\t// in\n    tag_61:\n      mload(0x40)\n      dup1\n      swap2\n      sub\n      swap1\n      return\n        /* \"@openzeppelin/contracts/access/AccessControl.sol\":3786:3906  function getRoleAdmin(bytes32 role) public view virtual returns (bytes32) {... */\n    tag_7:\n      callvalue\n      dup1\n      iszero\n      tag_62\n      jumpi\n      0x00\n      dup1\n      revert\n    tag_62:\n      pop\n      tag_63\n      0x04\n      dup1\n      calldatasize\n      sub\n      dup2\n      add\n      swap1\n      tag_64\n      swap2\n      swap1\n      tag_65\n      jump\t// in\n    tag_64:\n      tag_66\n      jump\t// in\n    tag_63:\n      mload(0x40)\n      tag_67\n      swap2\n      swap1\n      tag_68\n      jump\t// in\n    tag_67:\n      mload(0x40)\n      dup1\n      swap2\n      sub\n      swap1\n      return\n        /* \"src/kipu-bank-v2.sol\":9887:10601  function removeTokenSupport(address token) external onlyRole(ADMIN_ROLE) {... */\n    tag_8:\n      callvalue\n      dup1\n      iszero\n      tag_69\n      jumpi\n      0x00\n      dup1\n      revert\n    tag_69:\n      pop\n      tag_70\n      0x04\n      dup1\n      calldatasize\n      sub\n      dup2\n      add\n      swap1\n      tag_71\n      swap2\n      swap1\n      tag_50\n      jump\t// in\n    tag_71:\n      tag_72\n      jump\t// in\n    tag_70:\n      stop\n        /* \"@openzeppelin/contracts/access/AccessControl.sol\":4202:4338  function grantRole(bytes32 role, address account) public virtual onlyRole(getRoleAdmin(role)) {... */\n    tag_9:\n      callvalue\n      dup1\n      iszero\n      tag_73\n      jumpi\n      0x00\n      dup1\n      revert\n    tag_73:\n      pop\n      tag_74\n      0x04\n      dup1\n      calldatasize\n      sub\n      dup2\n      add\n      swap1\n      tag_75\n      swap2\n      swap1\n      tag_76\n      jump\t// in\n    tag_75:\n      tag_77\n      jump\t// in\n    tag_74:\n      stop\n        /* \"src/kipu-bank-v2.sol\":7717:8322  function depositToken(address token, uint256 amount) external nonReentrant {... */\n    tag_10:\n      callvalue\n      dup1\n      iszero\n      tag_78\n      jumpi\n      0x00\n      dup1\n      revert\n    tag_78:\n      pop\n      tag_79\n      0x04\n      dup1\n      calldatasize\n      sub\n      dup2\n      add\n      swap1\n      tag_80\n      swap2\n      swap1\n      tag_81\n      jump\t// in\n    tag_80:\n      tag_82\n      jump\t// in\n    tag_79:\n      stop\n        /* \"@openzeppelin/contracts/access/AccessControl.sol\":5304:5549  function renounceRole(bytes32 role, address callerConfirmation) public virtual {... */\n    tag_11:\n      callvalue\n      dup1\n      iszero\n      tag_83\n      jumpi\n      0x00\n      dup1\n      revert\n    tag_83:\n      pop\n      tag_84\n      0x04\n      dup1\n      calldatasize\n      sub\n      dup2\n      add\n      swap1\n      tag_85\n      swap2\n      swap1\n      tag_76\n      jump\t// in\n    tag_85:\n      tag_86\n      jump\t// in\n    tag_84:\n      stop\n        /* \"src/kipu-bank-v2.sol\":19447:19570  function getPriceFeed(address token) external view returns (address) {... */\n    tag_12:\n      callvalue\n      dup1\n      iszero\n      tag_87\n      jumpi\n      0x00\n      dup1\n      revert\n    tag_87:\n      pop\n      tag_88\n      0x04\n      dup1\n      calldatasize\n      sub\n      dup2\n      add\n      swap1\n      tag_89\n      swap2\n      swap1\n      tag_50\n      jump\t// in\n    tag_89:\n      tag_90\n      jump\t// in\n    tag_88:\n      mload(0x40)\n      tag_91\n      swap2\n      swap1\n      tag_92\n      jump\t// in\n    tag_91:\n      mload(0x40)\n      dup1\n      swap2\n      sub\n      swap1\n      return\n        /* \"src/kipu-bank-v2.sol\":9244:9727  function addTokenSupport(address token, address priceFeed) ... */\n    tag_13:\n      callvalue\n      dup1\n      iszero\n      tag_93\n      jumpi\n      0x00\n      dup1\n      revert\n    tag_93:\n      pop\n      tag_94\n      0x04\n      dup1\n      calldatasize\n      sub\n      dup2\n      add\n      swap1\n      tag_95\n      swap2\n      swap1\n      tag_96\n      jump\t// in\n    tag_95:\n      tag_97\n      jump\t// in\n    tag_94:\n      stop\n        /* \"src/kipu-bank-v2.sol\":19206:19344  function isTokenSupported(address token) external view returns (bool) {... */\n    tag_14:\n      callvalue\n      dup1\n      iszero\n      tag_98\n      jumpi\n      0x00\n      dup1\n      revert\n    tag_98:\n      pop\n      tag_99\n      0x04\n      dup1\n      calldatasize\n      sub\n      dup2\n      add\n      swap1\n      tag_100\n      swap2\n      swap1\n      tag_50\n      jump\t// in\n    tag_100:\n      tag_101\n      jump\t// in\n    tag_99:\n      mload(0x40)\n      tag_102\n      swap2\n      swap1\n      tag_46\n      jump\t// in\n    tag_102:\n      mload(0x40)\n      dup1\n      swap2\n      sub\n      swap1\n      return\n        /* \"src/kipu-bank-v2.sol\":886:946  bytes32 public constant ADMIN_ROLE = keccak256(\"ADMIN_ROLE\") */\n    tag_15:\n      callvalue\n      dup1\n      iszero\n      tag_103\n      jumpi\n      0x00\n      dup1\n      revert\n    tag_103:\n      pop\n      tag_104\n      tag_105\n      jump\t// in\n    tag_104:\n      mload(0x40)\n      tag_106\n      swap2\n      swap1\n      tag_68\n      jump\t// in\n    tag_106:\n      mload(0x40)\n      dup1\n      swap2\n      sub\n      swap1\n      return\n        /* \"src/kipu-bank-v2.sol\":18450:18561  function getTotalDepositsUSD() external view returns (uint256) {... */\n    tag_16:\n      callvalue\n      dup1\n      iszero\n      tag_107\n      jumpi\n      0x00\n      dup1\n      revert\n    tag_107:\n      pop\n      tag_108\n      tag_109\n      jump\t// in\n    tag_108:\n      mload(0x40)\n      tag_110\n      swap2\n      swap1\n      tag_53\n      jump\t// in\n    tag_110:\n      mload(0x40)\n      dup1\n      swap2\n      sub\n      swap1\n      return\n        /* \"@openzeppelin/contracts/access/AccessControl.sol\":2830:2966  function hasRole(bytes32 role, address account) public view virtual returns (bool) {... */\n    tag_17:\n      callvalue\n      dup1\n      iszero\n      tag_111\n      jumpi\n      0x00\n      dup1\n      revert\n    tag_111:\n      pop\n      tag_112\n      0x04\n      dup1\n      calldatasize\n      sub\n      dup2\n      add\n      swap1\n      tag_113\n      swap2\n      swap1\n      tag_76\n      jump\t// in\n    tag_113:\n      tag_114\n      jump\t// in\n    tag_112:\n      mload(0x40)\n      tag_115\n      swap2\n      swap1\n      tag_46\n      jump\t// in\n    tag_115:\n      mload(0x40)\n      dup1\n      swap2\n      sub\n      swap1\n      return\n        /* \"src/kipu-bank-v2.sol\":8789:9042  function withdrawToken(address token, uint256 amount) external nonReentrant {... */\n    tag_18:\n      callvalue\n      dup1\n      iszero\n      tag_116\n      jumpi\n      0x00\n      dup1\n      revert\n    tag_116:\n      pop\n      tag_117\n      0x04\n      dup1\n      calldatasize\n      sub\n      dup2\n      add\n      swap1\n      tag_118\n      swap2\n      swap1\n      tag_81\n      jump\t// in\n    tag_118:\n      tag_119\n      jump\t// in\n    tag_117:\n      stop\n        /* \"@openzeppelin/contracts/access/AccessControl.sol\":2196:2245  bytes32 public constant DEFAULT_ADMIN_ROLE = 0x00 */\n    tag_19:\n      callvalue\n      dup1\n      iszero\n      tag_120\n      jumpi\n      0x00\n      dup1\n      revert\n    tag_120:\n      pop\n      tag_121\n      tag_122\n      jump\t// in\n    tag_121:\n      mload(0x40)\n      tag_123\n      swap2\n      swap1\n      tag_68\n      jump\t// in\n    tag_123:\n      mload(0x40)\n      dup1\n      swap2\n      sub\n      swap1\n      return\n        /* \"src/kipu-bank-v2.sol\":2695:2727  uint256 public s_withdrawalCount */\n    tag_20:\n      callvalue\n      dup1\n      iszero\n      tag_124\n      jumpi\n      0x00\n      dup1\n      revert\n    tag_124:\n      pop\n      tag_125\n      tag_126\n      jump\t// in\n    tag_125:\n      mload(0x40)\n      tag_127\n      swap2\n      swap1\n      tag_53\n      jump\t// in\n    tag_127:\n      mload(0x40)\n      dup1\n      swap2\n      sub\n      swap1\n      return\n        /* \"src/kipu-bank-v2.sol\":2588:2617  uint256 public s_depositCount */\n    tag_21:\n      callvalue\n      dup1\n      iszero\n      tag_128\n      jumpi\n      0x00\n      dup1\n      revert\n    tag_128:\n      pop\n      tag_129\n      tag_130\n      jump\t// in\n    tag_129:\n      mload(0x40)\n      tag_131\n      swap2\n      swap1\n      tag_53\n      jump\t// in\n    tag_131:\n      mload(0x40)\n      dup1\n      swap2\n      sub\n      swap1\n      return\n        /* \"src/kipu-bank-v2.sol\":1113:1162  uint256 public immutable i_withdrawalThresholdUSD */\n    tag_22:\n      callvalue\n      dup1\n      iszero\n      tag_132\n      jumpi\n      0x00\n      dup1\n      revert\n    tag_132:\n      pop\n      tag_133\n      tag_134\n      jump\t// in\n    tag_133:\n      mload(0x40)\n      tag_135\n      swap2\n      swap1\n      tag_53\n      jump\t// in\n    tag_135:\n      mload(0x40)\n      dup1\n      swap2\n      sub\n      swap1\n      return\n        /* \"src/kipu-bank-v2.sol\":18985:19099  function getSupportedTokens() external view returns (address[] memory) {... */\n    tag_23:\n      callvalue\n      dup1\n      iszero\n      tag_136\n      jumpi\n      0x00\n      dup1\n      revert\n    tag_136:\n      pop\n      tag_137\n      tag_138\n      jump\t// in\n    tag_137:\n      mload(0x40)\n      tag_139\n      swap2\n      swap1\n      tag_140\n      jump\t// in\n    tag_139:\n      mload(0x40)\n      dup1\n      swap2\n      sub\n      swap1\n      return\n        /* \"src/kipu-bank-v2.sol\":17312:17565  function getBalance(address user, address token) external view returns (uint256) {... */\n    tag_24:\n      callvalue\n      dup1\n      iszero\n      tag_141\n      jumpi\n      0x00\n      dup1\n      revert\n    tag_141:\n      pop\n      tag_142\n      0x04\n      dup1\n      calldatasize\n      sub\n      dup2\n      add\n      swap1\n      tag_143\n      swap2\n      swap1\n      tag_96\n      jump\t// in\n    tag_143:\n      tag_144\n      jump\t// in\n    tag_142:\n      mload(0x40)\n      tag_145\n      swap2\n      swap1\n      tag_53\n      jump\t// in\n    tag_145:\n      mload(0x40)\n      dup1\n      swap2\n      sub\n      swap1\n      return\n        /* \"@openzeppelin/contracts/access/AccessControl.sol\":4618:4756  function revokeRole(bytes32 role, address account) public virtual onlyRole(getRoleAdmin(role)) {... */\n    tag_25:\n      callvalue\n      dup1\n      iszero\n      tag_146\n      jumpi\n      0x00\n      dup1\n      revert\n    tag_146:\n      pop\n      tag_147\n      0x04\n      dup1\n      calldatasize\n      sub\n      dup2\n      add\n      swap1\n      tag_148\n      swap2\n      swap1\n      tag_76\n      jump\t// in\n    tag_148:\n      tag_149\n      jump\t// in\n    tag_147:\n      stop\n        /* \"src/kipu-bank-v2.sol\":17740:18045  function getBalanceUSD(address user, address token) external view returns (uint256) {... */\n    tag_26:\n      callvalue\n      dup1\n      iszero\n      tag_150\n      jumpi\n      0x00\n      dup1\n      revert\n    tag_150:\n      pop\n      tag_151\n      0x04\n      dup1\n      calldatasize\n      sub\n      dup2\n      add\n      swap1\n      tag_152\n      swap2\n      swap1\n      tag_96\n      jump\t// in\n    tag_152:\n      tag_153\n      jump\t// in\n    tag_151:\n      mload(0x40)\n      tag_154\n      swap2\n      swap1\n      tag_53\n      jump\t// in\n    tag_154:\n      mload(0x40)\n      dup1\n      swap2\n      sub\n      swap1\n      return\n        /* \"src/kipu-bank-v2.sol\":8434:8598  function withdrawETH(uint256 amount) external nonReentrant {... */\n    tag_27:\n      callvalue\n      dup1\n      iszero\n      tag_155\n      jumpi\n      0x00\n      dup1\n      revert\n    tag_155:\n      pop\n      tag_156\n      0x04\n      dup1\n      calldatasize\n      sub\n      dup2\n      add\n      swap1\n      tag_157\n      swap2\n      swap1\n      tag_158\n      jump\t// in\n    tag_157:\n      tag_159\n      jump\t// in\n    tag_156:\n      stop\n        /* \"src/kipu-bank-v2.sol\":7352:7514  function depositETH() external payable nonReentrant {... */\n    tag_28:\n      tag_160\n      tag_161\n      jump\t// in\n    tag_160:\n      stop\n        /* \"src/kipu-bank-v2.sol\":11237:12055  function _deposit(address token, uint256 amount) private {... */\n    tag_37:\n        /* \"src/kipu-bank-v2.sol\":11324:11340  uint256 usdValue */\n      0x00\n        /* \"src/kipu-bank-v2.sol\":11343:11370  _getUSDValue(token, amount) */\n      tag_163\n        /* \"src/kipu-bank-v2.sol\":11356:11361  token */\n      dup4\n        /* \"src/kipu-bank-v2.sol\":11363:11369  amount */\n      dup4\n        /* \"src/kipu-bank-v2.sol\":11343:11355  _getUSDValue */\n      tag_164\n        /* \"src/kipu-bank-v2.sol\":11343:11370  _getUSDValue(token, amount) */\n      jump\t// in\n    tag_163:\n        /* \"src/kipu-bank-v2.sol\":11324:11370  uint256 usdValue = _getUSDValue(token, amount) */\n      swap1\n      pop\n        /* \"src/kipu-bank-v2.sol\":11399:11422  uint256 currentTotalUSD */\n      0x00\n        /* \"src/kipu-bank-v2.sol\":11425:11447  _getTotalDepositsUSD() */\n      tag_165\n        /* \"src/kipu-bank-v2.sol\":11425:11445  _getTotalDepositsUSD */\n      tag_166\n        /* \"src/kipu-bank-v2.sol\":11425:11447  _getTotalDepositsUSD() */\n      jump\t// in\n    tag_165:\n        /* \"src/kipu-bank-v2.sol\":11399:11447  uint256 currentTotalUSD = _getTotalDepositsUSD() */\n      swap1\n      pop\n        /* \"src/kipu-bank-v2.sol\":11517:11529  i_bankCapUSD */\n      immutable(\"0x67ee31144bea895314df7c8383b1a0e40c613448def41da1afb11ff52a2021aa\")\n        /* \"src/kipu-bank-v2.sol\":11506:11514  usdValue */\n      dup3\n        /* \"src/kipu-bank-v2.sol\":11488:11503  currentTotalUSD */\n      dup3\n        /* \"src/kipu-bank-v2.sol\":11488:11514  currentTotalUSD + usdValue */\n      tag_167\n      swap2\n      swap1\n      tag_168\n      jump\t// in\n    tag_167:\n        /* \"src/kipu-bank-v2.sol\":11488:11529  currentTotalUSD + usdValue > i_bankCapUSD */\n      gt\n        /* \"src/kipu-bank-v2.sol\":11484:11682  if (currentTotalUSD + usdValue > i_bankCapUSD) {... */\n      iszero\n      tag_169\n      jumpi\n        /* \"src/kipu-bank-v2.sol\":11597:11605  usdValue */\n      dup2\n        /* \"src/kipu-bank-v2.sol\":11640:11655  currentTotalUSD */\n      dup2\n        /* \"src/kipu-bank-v2.sol\":11625:11637  i_bankCapUSD */\n      immutable(\"0x67ee31144bea895314df7c8383b1a0e40c613448def41da1afb11ff52a2021aa\")\n        /* \"src/kipu-bank-v2.sol\":11625:11655  i_bankCapUSD - currentTotalUSD */\n      tag_170\n      swap2\n      swap1\n      tag_171\n      jump\t// in\n    tag_170:\n        /* \"src/kipu-bank-v2.sol\":11553:11670  KipuBank__BankCapExceeded(... */\n      mload(0x40)\n      0x639847a700000000000000000000000000000000000000000000000000000000\n      dup2\n      mstore\n      0x04\n      add\n      tag_172\n      swap3\n      swap2\n      swap1\n      tag_173\n      jump\t// in\n    tag_172:\n      mload(0x40)\n      dup1\n      swap2\n      sub\n      swap1\n      revert\n        /* \"src/kipu-bank-v2.sol\":11484:11682  if (currentTotalUSD + usdValue > i_bankCapUSD) {... */\n    tag_169:\n        /* \"src/kipu-bank-v2.sol\":11744:11768  uint256 normalizedAmount */\n      0x00\n        /* \"src/kipu-bank-v2.sol\":11771:11802  _normalizeToUSDC(token, amount) */\n      tag_174\n        /* \"src/kipu-bank-v2.sol\":11788:11793  token */\n      dup6\n        /* \"src/kipu-bank-v2.sol\":11795:11801  amount */\n      dup6\n        /* \"src/kipu-bank-v2.sol\":11771:11787  _normalizeToUSDC */\n      tag_175\n        /* \"src/kipu-bank-v2.sol\":11771:11802  _normalizeToUSDC(token, amount) */\n      jump\t// in\n    tag_174:\n        /* \"src/kipu-bank-v2.sol\":11744:11802  uint256 normalizedAmount = _normalizeToUSDC(token, amount) */\n      swap1\n      pop\n        /* \"src/kipu-bank-v2.sol\":11859:11875  normalizedAmount */\n      dup1\n        /* \"src/kipu-bank-v2.sol\":11826:11836  s_deposits */\n      0x02\n        /* \"src/kipu-bank-v2.sol\":11826:11848  s_deposits[msg.sender] */\n      0x00\n        /* \"src/kipu-bank-v2.sol\":11837:11847  msg.sender */\n      caller\n        /* \"src/kipu-bank-v2.sol\":11826:11848  s_deposits[msg.sender] */\n      0xffffffffffffffffffffffffffffffffffffffff\n      and\n      0xffffffffffffffffffffffffffffffffffffffff\n      and\n      dup2\n      mstore\n      0x20\n      add\n      swap1\n      dup2\n      mstore\n      0x20\n      add\n      0x00\n      keccak256\n        /* \"src/kipu-bank-v2.sol\":11826:11855  s_deposits[msg.sender][token] */\n      0x00\n        /* \"src/kipu-bank-v2.sol\":11849:11854  token */\n      dup8\n        /* \"src/kipu-bank-v2.sol\":11826:11855  s_deposits[msg.sender][token] */\n      0xffffffffffffffffffffffffffffffffffffffff\n      and\n      0xffffffffffffffffffffffffffffffffffffffff\n      and\n      dup2\n      mstore\n      0x20\n      add\n      swap1\n      dup2\n      mstore\n      0x20\n      add\n      0x00\n      keccak256\n      0x00\n        /* \"src/kipu-bank-v2.sol\":11826:11875  s_deposits[msg.sender][token] += normalizedAmount */\n      dup3\n      dup3\n      sload\n      tag_176\n      swap2\n      swap1\n      tag_168\n      jump\t// in\n    tag_176:\n      swap3\n      pop\n      pop\n      dup2\n      swap1\n      sstore\n      pop\n        /* \"src/kipu-bank-v2.sol\":11912:11928  normalizedAmount */\n      dup1\n        /* \"src/kipu-bank-v2.sol\":11886:11901  s_totalDeposits */\n      0x03\n        /* \"src/kipu-bank-v2.sol\":11886:11908  s_totalDeposits[token] */\n      0x00\n        /* \"src/kipu-bank-v2.sol\":11902:11907  token */\n      dup8\n        /* \"src/kipu-bank-v2.sol\":11886:11908  s_totalDeposits[token] */\n      0xffffffffffffffffffffffffffffffffffffffff\n      and\n      0xffffffffffffffffffffffffffffffffffffffff\n      and\n      dup2\n      mstore\n      0x20\n      add\n      swap1\n      dup2\n      mstore\n      0x20\n      add\n      0x00\n      keccak256\n      0x00\n        /* \"src/kipu-bank-v2.sol\":11886:11928  s_totalDeposits[token] += normalizedAmount */\n      dup3\n      dup3\n      sload\n      tag_177\n      swap2\n      swap1\n      tag_168\n      jump\t// in\n    tag_177:\n      swap3\n      pop\n      pop\n      dup2\n      swap1\n      sstore\n      pop\n        /* \"src/kipu-bank-v2.sol\":11939:11953  s_depositCount */\n      0x06\n      0x00\n        /* \"src/kipu-bank-v2.sol\":11939:11955  s_depositCount++ */\n      dup2\n      sload\n      dup1\n      swap3\n      swap2\n      swap1\n      tag_178\n      swap1\n      tag_179\n      jump\t// in\n    tag_178:\n      swap2\n      swap1\n      pop\n      sstore\n      pop\n        /* \"src/kipu-bank-v2.sol\":12023:12028  token */\n      dup5\n        /* \"src/kipu-bank-v2.sol\":11999:12047  DepositMade(msg.sender, token, amount, usdValue) */\n      0xffffffffffffffffffffffffffffffffffffffff\n      and\n        /* \"src/kipu-bank-v2.sol\":12011:12021  msg.sender */\n      caller\n        /* \"src/kipu-bank-v2.sol\":11999:12047  DepositMade(msg.sender, token, amount, usdValue) */\n      0xffffffffffffffffffffffffffffffffffffffff\n      and\n      0x57bad7e3c9efecf6e1f60bbd846b999e9da4a409224287a8df09779f2330135e\n        /* \"src/kipu-bank-v2.sol\":12030:12036  amount */\n      dup7\n        /* \"src/kipu-bank-v2.sol\":12038:12046  usdValue */\n      dup7\n        /* \"src/kipu-bank-v2.sol\":11999:12047  DepositMade(msg.sender, token, amount, usdValue) */\n      mload(0x40)\n      tag_180\n      swap3\n      swap2\n      swap1\n      tag_173\n      jump\t// in\n    tag_180:\n      mload(0x40)\n      dup1\n      swap2\n      sub\n      swap1\n      log3\n        /* \"src/kipu-bank-v2.sol\":11294:12055  {... */\n      pop\n      pop\n      pop\n        /* \"src/kipu-bank-v2.sol\":11237:12055  function _deposit(address token, uint256 amount) private {... */\n      pop\n      pop\n      jump\t// out\n        /* \"@openzeppelin/contracts/access/AccessControl.sol\":2541:2743  function supportsInterface(bytes4 interfaceId) public view virtual override returns (bool) {... */\n    tag_44:\n        /* \"@openzeppelin/contracts/access/AccessControl.sol\":2626:2630  bool */\n      0x00\n        /* \"@openzeppelin/contracts/access/AccessControl.sol\":2664:2696  type(IAccessControl).interfaceId */\n      0x7965db0b00000000000000000000000000000000000000000000000000000000\n        /* \"@openzeppelin/contracts/access/AccessControl.sol\":2649:2696  interfaceId == type(IAccessControl).interfaceId */\n      not(0xffffffffffffffffffffffffffffffffffffffffffffffffffffffff)\n      and\n        /* \"@openzeppelin/contracts/access/AccessControl.sol\":2649:2660  interfaceId */\n      dup3\n        /* \"@openzeppelin/contracts/access/AccessControl.sol\":2649:2696  interfaceId == type(IAccessControl).interfaceId */\n      not(0xffffffffffffffffffffffffffffffffffffffffffffffffffffffff)\n      and\n      eq\n        /* \"@openzeppelin/contracts/access/AccessControl.sol\":2649:2736  interfaceId == type(IAccessControl).interfaceId || super.supportsInterface(interfaceId) */\n      dup1\n      tag_182\n      jumpi\n      pop\n        /* \"@openzeppelin/contracts/access/AccessControl.sol\":2700:2736  super.supportsInterface(interfaceId) */\n      tag_183\n        /* \"@openzeppelin/contracts/access/AccessControl.sol\":2724:2735  interfaceId */\n      dup3\n        /* \"@openzeppelin/contracts/access/AccessControl.sol\":2700:2723  super.supportsInterface */\n      tag_184\n        /* \"@openzeppelin/contracts/access/AccessControl.sol\":2700:2736  super.supportsInterface(interfaceId) */\n      jump\t// in\n    tag_183:\n        /* \"@openzeppelin/contracts/access/AccessControl.sol\":2649:2736  interfaceId == type(IAccessControl).interfaceId || super.supportsInterface(interfaceId) */\n    tag_182:\n        /* \"@openzeppelin/contracts/access/AccessControl.sol\":2642:2736  return interfaceId == type(IAccessControl).interfaceId || super.supportsInterface(interfaceId) */\n      swap1\n      pop\n        /* \"@openzeppelin/contracts/access/AccessControl.sol\":2541:2743  function supportsInterface(bytes4 interfaceId) public view virtual override returns (bool) {... */\n      swap2\n      swap1\n      pop\n      jump\t// out\n        /* \"src/kipu-bank-v2.sol\":18182:18332  function getTotalDeposits(address token) external view returns (uint256) {... */\n    tag_51:\n        /* \"src/kipu-bank-v2.sol\":18246:18253  uint256 */\n      0x00\n        /* \"src/kipu-bank-v2.sol\":18273:18324  _denormalizeFromUSDC(token, s_totalDeposits[token]) */\n      tag_186\n        /* \"src/kipu-bank-v2.sol\":18294:18299  token */\n      dup3\n        /* \"src/kipu-bank-v2.sol\":18301:18316  s_totalDeposits */\n      0x03\n        /* \"src/kipu-bank-v2.sol\":18301:18323  s_totalDeposits[token] */\n      0x00\n        /* \"src/kipu-bank-v2.sol\":18317:18322  token */\n      dup6\n        /* \"src/kipu-bank-v2.sol\":18301:18323  s_totalDeposits[token] */\n      0xffffffffffffffffffffffffffffffffffffffff\n      and\n      0xffffffffffffffffffffffffffffffffffffffff\n      and\n      dup2\n      mstore\n      0x20\n      add\n      swap1\n      dup2\n      mstore\n      0x20\n      add\n      0x00\n      keccak256\n      sload\n        /* \"src/kipu-bank-v2.sol\":18273:18293  _denormalizeFromUSDC */\n      tag_187\n        /* \"src/kipu-bank-v2.sol\":18273:18324  _denormalizeFromUSDC(token, s_totalDeposits[token]) */\n      jump\t// in\n    tag_186:\n        /* \"src/kipu-bank-v2.sol\":18266:18324  return _denormalizeFromUSDC(token, s_totalDeposits[token]) */\n      swap1\n      pop\n        /* \"src/kipu-bank-v2.sol\":18182:18332  function getTotalDeposits(address token) external view returns (uint256) {... */\n      swap2\n      swap1\n      pop\n      jump\t// out\n        /* \"src/kipu-bank-v2.sol\":18679:18889  function getAvailableBankCapUSD() external view returns (uint256) {... */\n    tag_56:\n        /* \"src/kipu-bank-v2.sol\":18736:18743  uint256 */\n      0x00\n        /* \"src/kipu-bank-v2.sol\":18756:18776  uint256 currentTotal */\n      dup1\n        /* \"src/kipu-bank-v2.sol\":18779:18801  _getTotalDepositsUSD() */\n      tag_189\n        /* \"src/kipu-bank-v2.sol\":18779:18799  _getTotalDepositsUSD */\n      tag_166\n        /* \"src/kipu-bank-v2.sol\":18779:18801  _getTotalDepositsUSD() */\n      jump\t// in\n    tag_189:\n        /* \"src/kipu-bank-v2.sol\":18756:18801  uint256 currentTotal = _getTotalDepositsUSD() */\n      swap1\n      pop\n        /* \"src/kipu-bank-v2.sol\":18835:18847  i_bankCapUSD */\n      immutable(\"0x67ee31144bea895314df7c8383b1a0e40c613448def41da1afb11ff52a2021aa\")\n        /* \"src/kipu-bank-v2.sol\":18819:18831  currentTotal */\n      dup2\n        /* \"src/kipu-bank-v2.sol\":18819:18847  currentTotal >= i_bankCapUSD */\n      lt\n      iszero\n        /* \"src/kipu-bank-v2.sol\":18819:18881  currentTotal >= i_bankCapUSD ? 0 : i_bankCapUSD - currentTotal */\n      tag_190\n      jumpi\n        /* \"src/kipu-bank-v2.sol\":18869:18881  currentTotal */\n      dup1\n        /* \"src/kipu-bank-v2.sol\":18854:18866  i_bankCapUSD */\n      immutable(\"0x67ee31144bea895314df7c8383b1a0e40c613448def41da1afb11ff52a2021aa\")\n        /* \"src/kipu-bank-v2.sol\":18854:18881  i_bankCapUSD - currentTotal */\n      tag_191\n      swap2\n      swap1\n      tag_171\n      jump\t// in\n    tag_191:\n        /* \"src/kipu-bank-v2.sol\":18819:18881  currentTotal >= i_bankCapUSD ? 0 : i_bankCapUSD - currentTotal */\n      jump(tag_192)\n    tag_190:\n        /* \"src/kipu-bank-v2.sol\":18850:18851  0 */\n      0x00\n        /* \"src/kipu-bank-v2.sol\":18819:18881  currentTotal >= i_bankCapUSD ? 0 : i_bankCapUSD - currentTotal */\n    tag_192:\n        /* \"src/kipu-bank-v2.sol\":18812:18881  return currentTotal >= i_bankCapUSD ? 0 : i_bankCapUSD - currentTotal */\n      swap2\n      pop\n      pop\n        /* \"src/kipu-bank-v2.sol\":18679:18889  function getAvailableBankCapUSD() external view returns (uint256) {... */\n      swap1\n      jump\t// out\n        /* \"src/kipu-bank-v2.sol\":1341:1378  uint256 public immutable i_bankCapUSD */\n    tag_60:\n      immutable(\"0x67ee31144bea895314df7c8383b1a0e40c613448def41da1afb11ff52a2021aa\")\n      dup2\n      jump\t// out\n        /* \"@openzeppelin/contracts/access/AccessControl.sol\":3786:3906  function getRoleAdmin(bytes32 role) public view virtual returns (bytes32) {... */\n    tag_66:\n        /* \"@openzeppelin/contracts/access/AccessControl.sol\":3851:3858  bytes32 */\n      0x00\n        /* \"@openzeppelin/contracts/access/AccessControl.sol\":3877:3883  _roles */\n      dup1\n        /* \"@openzeppelin/contracts/access/AccessControl.sol\":3877:3889  _roles[role] */\n      0x00\n        /* \"@openzeppelin/contracts/access/AccessControl.sol\":3884:3888  role */\n      dup4\n        /* \"@openzeppelin/contracts/access/AccessControl.sol\":3877:3889  _roles[role] */\n      dup2\n      mstore\n      0x20\n      add\n      swap1\n      dup2\n      mstore\n      0x20\n      add\n      0x00\n      keccak256\n        /* \"@openzeppelin/contracts/access/AccessControl.sol\":3877:3899  _roles[role].adminRole */\n      0x01\n      add\n      sload\n        /* \"@openzeppelin/contracts/access/AccessControl.sol\":3870:3899  return _roles[role].adminRole */\n      swap1\n      pop\n        /* \"@openzeppelin/contracts/access/AccessControl.sol\":3786:3906  function getRoleAdmin(bytes32 role) public view virtual returns (bytes32) {... */\n      swap2\n      swap1\n      pop\n      jump\t// out\n        /* \"src/kipu-bank-v2.sol\":9887:10601  function removeTokenSupport(address token) external onlyRole(ADMIN_ROLE) {... */\n    tag_72:\n        /* \"src/kipu-bank-v2.sol\":923:946  keccak256(\"ADMIN_ROLE\") */\n      0xa49807205ce4d355092ef5a8a18f56e8913cf4a201fbe287825b095693c21775\n        /* \"@openzeppelin/contracts/access/AccessControl.sol\":2473:2489  _checkRole(role) */\n      tag_195\n        /* \"@openzeppelin/contracts/access/AccessControl.sol\":2484:2488  role */\n      dup2\n        /* \"@openzeppelin/contracts/access/AccessControl.sol\":2473:2483  _checkRole */\n      tag_196\n        /* \"@openzeppelin/contracts/access/AccessControl.sol\":2473:2489  _checkRole(role) */\n      jump\t// in\n    tag_195:\n        /* \"src/kipu-bank-v2.sol\":10015:10016  0 */\n      0x00\n        /* \"src/kipu-bank-v2.sol\":9975:10017  address(s_priceFeeds[token]) == address(0) */\n      0xffffffffffffffffffffffffffffffffffffffff\n      and\n        /* \"src/kipu-bank-v2.sol\":9983:9995  s_priceFeeds */\n      0x04\n        /* \"src/kipu-bank-v2.sol\":9983:10002  s_priceFeeds[token] */\n      0x00\n        /* \"src/kipu-bank-v2.sol\":9996:10001  token */\n      dup5\n        /* \"src/kipu-bank-v2.sol\":9983:10002  s_priceFeeds[token] */\n      0xffffffffffffffffffffffffffffffffffffffff\n      and\n      0xffffffffffffffffffffffffffffffffffffffff\n      and\n      dup2\n      mstore\n      0x20\n      add\n      swap1\n      dup2\n      mstore\n      0x20\n      add\n      0x00\n      keccak256\n      0x00\n      swap1\n      sload\n      swap1\n      0x0100\n      exp\n      swap1\n      div\n      0xffffffffffffffffffffffffffffffffffffffff\n      and\n        /* \"src/kipu-bank-v2.sol\":9975:10017  address(s_priceFeeds[token]) == address(0) */\n      0xffffffffffffffffffffffffffffffffffffffff\n      and\n      sub\n        /* \"src/kipu-bank-v2.sol\":9971:10087  if (address(s_priceFeeds[token]) == address(0)) {... */\n      tag_198\n      jumpi\n        /* \"src/kipu-bank-v2.sol\":10069:10074  token */\n      dup2\n        /* \"src/kipu-bank-v2.sol\":10041:10075  KipuBank__TokenNotSupported(token) */\n      mload(0x40)\n      0xf9968b3a00000000000000000000000000000000000000000000000000000000\n      dup2\n      mstore\n      0x04\n      add\n      tag_199\n      swap2\n      swap1\n      tag_92\n      jump\t// in\n    tag_199:\n      mload(0x40)\n      dup1\n      swap2\n      sub\n      swap1\n      revert\n        /* \"src/kipu-bank-v2.sol\":9971:10087  if (address(s_priceFeeds[token]) == address(0)) {... */\n    tag_198:\n        /* \"src/kipu-bank-v2.sol\":10126:10127  0 */\n      0x00\n        /* \"src/kipu-bank-v2.sol\":10101:10116  s_totalDeposits */\n      0x03\n        /* \"src/kipu-bank-v2.sol\":10101:10123  s_totalDeposits[token] */\n      0x00\n        /* \"src/kipu-bank-v2.sol\":10117:10122  token */\n      dup5\n        /* \"src/kipu-bank-v2.sol\":10101:10123  s_totalDeposits[token] */\n      0xffffffffffffffffffffffffffffffffffffffff\n      and\n      0xffffffffffffffffffffffffffffffffffffffff\n      and\n      dup2\n      mstore\n      0x20\n      add\n      swap1\n      dup2\n      mstore\n      0x20\n      add\n      0x00\n      keccak256\n      sload\n        /* \"src/kipu-bank-v2.sol\":10101:10127  s_totalDeposits[token] > 0 */\n      gt\n        /* \"src/kipu-bank-v2.sol\":10097:10219  if (s_totalDeposits[token] > 0) {... */\n      iszero\n      tag_200\n      jumpi\n        /* \"src/kipu-bank-v2.sol\":10181:10182  0 */\n      0x00\n        /* \"src/kipu-bank-v2.sol\":10184:10199  s_totalDeposits */\n      0x03\n        /* \"src/kipu-bank-v2.sol\":10184:10206  s_totalDeposits[token] */\n      0x00\n        /* \"src/kipu-bank-v2.sol\":10200:10205  token */\n      dup5\n        /* \"src/kipu-bank-v2.sol\":10184:10206  s_totalDeposits[token] */\n      0xffffffffffffffffffffffffffffffffffffffff\n      and\n      0xffffffffffffffffffffffffffffffffffffffff\n      and\n      dup2\n      mstore\n      0x20\n      add\n      swap1\n      dup2\n      mstore\n      0x20\n      add\n      0x00\n      keccak256\n      sload\n        /* \"src/kipu-bank-v2.sol\":10151:10207  KipuBank__InsufficientBalance(0, s_totalDeposits[token]) */\n      mload(0x40)\n      0x61965c4e00000000000000000000000000000000000000000000000000000000\n      dup2\n      mstore\n      0x04\n      add\n      tag_201\n      swap3\n      swap2\n      swap1\n      tag_202\n      jump\t// in\n    tag_201:\n      mload(0x40)\n      dup1\n      swap2\n      sub\n      swap1\n      revert\n        /* \"src/kipu-bank-v2.sol\":10097:10219  if (s_totalDeposits[token] > 0) {... */\n    tag_200:\n        /* \"src/kipu-bank-v2.sol\":10238:10250  s_priceFeeds */\n      0x04\n        /* \"src/kipu-bank-v2.sol\":10238:10257  s_priceFeeds[token] */\n      0x00\n        /* \"src/kipu-bank-v2.sol\":10251:10256  token */\n      dup4\n        /* \"src/kipu-bank-v2.sol\":10238:10257  s_priceFeeds[token] */\n      0xffffffffffffffffffffffffffffffffffffffff\n      and\n      0xffffffffffffffffffffffffffffffffffffffff\n      and\n      dup2\n      mstore\n      0x20\n      add\n      swap1\n      dup2\n      mstore\n      0x20\n      add\n      0x00\n      keccak256\n      0x00\n        /* \"src/kipu-bank-v2.sol\":10231:10257  delete s_priceFeeds[token] */\n      0x0100\n      exp\n      dup2\n      sload\n      swap1\n      0xffffffffffffffffffffffffffffffffffffffff\n      mul\n      not\n      and\n      swap1\n      sstore\n        /* \"src/kipu-bank-v2.sol\":10275:10284  uint256 i */\n      0x00\n        /* \"src/kipu-bank-v2.sol\":10270:10557  for (uint256 i = 0; i < s_supportedTokens.length; i++) {... */\n    tag_203:\n        /* \"src/kipu-bank-v2.sol\":10294:10311  s_supportedTokens */\n      0x05\n        /* \"src/kipu-bank-v2.sol\":10294:10318  s_supportedTokens.length */\n      dup1\n      sload\n      swap1\n      pop\n        /* \"src/kipu-bank-v2.sol\":10290:10291  i */\n      dup2\n        /* \"src/kipu-bank-v2.sol\":10290:10318  i < s_supportedTokens.length */\n      lt\n        /* \"src/kipu-bank-v2.sol\":10270:10557  for (uint256 i = 0; i < s_supportedTokens.length; i++) {... */\n      iszero\n      tag_204\n      jumpi\n        /* \"src/kipu-bank-v2.sol\":10368:10373  token */\n      dup3\n        /* \"src/kipu-bank-v2.sol\":10344:10373  s_supportedTokens[i] == token */\n      0xffffffffffffffffffffffffffffffffffffffff\n      and\n        /* \"src/kipu-bank-v2.sol\":10344:10361  s_supportedTokens */\n      0x05\n        /* \"src/kipu-bank-v2.sol\":10362:10363  i */\n      dup3\n        /* \"src/kipu-bank-v2.sol\":10344:10364  s_supportedTokens[i] */\n      dup2\n      sload\n      dup2\n      lt\n      tag_206\n      jumpi\n      tag_207\n      tag_208\n      jump\t// in\n    tag_207:\n    tag_206:\n      swap1\n      0x00\n      mstore\n      keccak256(0x00, 0x20)\n      add\n      0x00\n      swap1\n      sload\n      swap1\n      0x0100\n      exp\n      swap1\n      div\n      0xffffffffffffffffffffffffffffffffffffffff\n      and\n        /* \"src/kipu-bank-v2.sol\":10344:10373  s_supportedTokens[i] == token */\n      0xffffffffffffffffffffffffffffffffffffffff\n      and\n      sub\n        /* \"src/kipu-bank-v2.sol\":10340:10546  if (s_supportedTokens[i] == token) {... */\n      tag_210\n      jumpi\n        /* \"src/kipu-bank-v2.sol\":10417:10434  s_supportedTokens */\n      0x05\n        /* \"src/kipu-bank-v2.sol\":10462:10463  1 */\n      0x01\n        /* \"src/kipu-bank-v2.sol\":10435:10452  s_supportedTokens */\n      0x05\n        /* \"src/kipu-bank-v2.sol\":10435:10459  s_supportedTokens.length */\n      dup1\n      sload\n      swap1\n      pop\n        /* \"src/kipu-bank-v2.sol\":10435:10463  s_supportedTokens.length - 1 */\n      tag_211\n      swap2\n      swap1\n      tag_171\n      jump\t// in\n    tag_211:\n        /* \"src/kipu-bank-v2.sol\":10417:10464  s_supportedTokens[s_supportedTokens.length - 1] */\n      dup2\n      sload\n      dup2\n      lt\n      tag_212\n      jumpi\n      tag_213\n      tag_208\n      jump\t// in\n    tag_213:\n    tag_212:\n      swap1\n      0x00\n      mstore\n      keccak256(0x00, 0x20)\n      add\n      0x00\n      swap1\n      sload\n      swap1\n      0x0100\n      exp\n      swap1\n      div\n      0xffffffffffffffffffffffffffffffffffffffff\n      and\n        /* \"src/kipu-bank-v2.sol\":10394:10411  s_supportedTokens */\n      0x05\n        /* \"src/kipu-bank-v2.sol\":10412:10413  i */\n      dup3\n        /* \"src/kipu-bank-v2.sol\":10394:10414  s_supportedTokens[i] */\n      dup2\n      sload\n      dup2\n      lt\n      tag_215\n      jumpi\n      tag_216\n      tag_208\n      jump\t// in\n    tag_216:\n    tag_215:\n      swap1\n      0x00\n      mstore\n      keccak256(0x00, 0x20)\n      add\n      0x00\n        /* \"src/kipu-bank-v2.sol\":10394:10464  s_supportedTokens[i] = s_supportedTokens[s_supportedTokens.length - 1] */\n      0x0100\n      exp\n      dup2\n      sload\n      dup2\n      0xffffffffffffffffffffffffffffffffffffffff\n      mul\n      not\n      and\n      swap1\n      dup4\n      0xffffffffffffffffffffffffffffffffffffffff\n      and\n      mul\n      or\n      swap1\n      sstore\n      pop\n        /* \"src/kipu-bank-v2.sol\":10483:10500  s_supportedTokens */\n      0x05\n        /* \"src/kipu-bank-v2.sol\":10483:10506  s_supportedTokens.pop() */\n      dup1\n      sload\n      dup1\n      tag_218\n      jumpi\n      tag_219\n      tag_220\n      jump\t// in\n    tag_219:\n    tag_218:\n      0x01\n      swap1\n      sub\n      dup2\n      dup2\n      swap1\n      0x00\n      mstore\n      keccak256(0x00, 0x20)\n      add\n      exp(0x0100, 0x00)\n      dup2\n      sload\n      swap1\n      0xffffffffffffffffffffffffffffffffffffffff\n      mul\n      not\n      and\n      swap1\n      sstore\n      swap1\n      sstore\n        /* \"src/kipu-bank-v2.sol\":10525:10530  break */\n      jump(tag_204)\n        /* \"src/kipu-bank-v2.sol\":10340:10546  if (s_supportedTokens[i] == token) {... */\n    tag_210:\n        /* \"src/kipu-bank-v2.sol\":10320:10323  i++ */\n      dup1\n      dup1\n      0x01\n      add\n      swap2\n      pop\n      pop\n        /* \"src/kipu-bank-v2.sol\":10270:10557  for (uint256 i = 0; i < s_supportedTokens.length; i++) {... */\n      jump(tag_203)\n    tag_204:\n      pop\n        /* \"src/kipu-bank-v2.sol\":10587:10592  token */\n      dup2\n        /* \"src/kipu-bank-v2.sol\":10574:10593  TokenRemoved(token) */\n      0xffffffffffffffffffffffffffffffffffffffff\n      and\n      0x4c910b69fe65a61f7531b9c5042b2329ca7179c77290aa7e2eb3afa3c8511fd3\n      mload(0x40)\n      mload(0x40)\n      dup1\n      swap2\n      sub\n      swap1\n      log2\n        /* \"src/kipu-bank-v2.sol\":9887:10601  function removeTokenSupport(address token) external onlyRole(ADMIN_ROLE) {... */\n      pop\n      pop\n      jump\t// out\n        /* \"@openzeppelin/contracts/access/AccessControl.sol\":4202:4338  function grantRole(bytes32 role, address account) public virtual onlyRole(getRoleAdmin(role)) {... */\n    tag_77:\n        /* \"@openzeppelin/contracts/access/AccessControl.sol\":4276:4294  getRoleAdmin(role) */\n      tag_222\n        /* \"@openzeppelin/contracts/access/AccessControl.sol\":4289:4293  role */\n      dup3\n        /* \"@openzeppelin/contracts/access/AccessControl.sol\":4276:4288  getRoleAdmin */\n      tag_66\n        /* \"@openzeppelin/contracts/access/AccessControl.sol\":4276:4294  getRoleAdmin(role) */\n      jump\t// in\n    tag_222:\n        /* \"@openzeppelin/contracts/access/AccessControl.sol\":2473:2489  _checkRole(role) */\n      tag_224\n        /* \"@openzeppelin/contracts/access/AccessControl.sol\":2484:2488  role */\n      dup2\n        /* \"@openzeppelin/contracts/access/AccessControl.sol\":2473:2483  _checkRole */\n      tag_196\n        /* \"@openzeppelin/contracts/access/AccessControl.sol\":2473:2489  _checkRole(role) */\n      jump\t// in\n    tag_224:\n        /* \"@openzeppelin/contracts/access/AccessControl.sol\":4306:4331  _grantRole(role, account) */\n      tag_226\n        /* \"@openzeppelin/contracts/access/AccessControl.sol\":4317:4321  role */\n      dup4\n        /* \"@openzeppelin/contracts/access/AccessControl.sol\":4323:4330  account */\n      dup4\n        /* \"@openzeppelin/contracts/access/AccessControl.sol\":4306:4316  _grantRole */\n      tag_227\n        /* \"@openzeppelin/contracts/access/AccessControl.sol\":4306:4331  _grantRole(role, account) */\n      jump\t// in\n    tag_226:\n      pop\n        /* \"@openzeppelin/contracts/access/AccessControl.sol\":4202:4338  function grantRole(bytes32 role, address account) public virtual onlyRole(getRoleAdmin(role)) {... */\n      pop\n      pop\n      pop\n      jump\t// out\n        /* \"src/kipu-bank-v2.sol\":7717:8322  function depositToken(address token, uint256 amount) external nonReentrant {... */\n    tag_82:\n        /* \"@openzeppelin/contracts/utils/ReentrancyGuard.sol\":2500:2521  _nonReentrantBefore() */\n      tag_229\n        /* \"@openzeppelin/contracts/utils/ReentrancyGuard.sol\":2500:2519  _nonReentrantBefore */\n      tag_230\n        /* \"@openzeppelin/contracts/utils/ReentrancyGuard.sol\":2500:2521  _nonReentrantBefore() */\n      jump\t// in\n    tag_229:\n        /* \"src/kipu-bank-v2.sol\":7817:7818  0 */\n      0x00\n        /* \"src/kipu-bank-v2.sol\":7807:7813  amount */\n      dup2\n        /* \"src/kipu-bank-v2.sol\":7807:7818  amount == 0 */\n      sub\n        /* \"src/kipu-bank-v2.sol\":7803:7849  if (amount == 0) revert KipuBank__ZeroAmount() */\n      tag_232\n      jumpi\n        /* \"src/kipu-bank-v2.sol\":7827:7849  KipuBank__ZeroAmount() */\n      mload(0x40)\n      0x3f36295200000000000000000000000000000000000000000000000000000000\n      dup2\n      mstore\n      0x04\n      add\n      mload(0x40)\n      dup1\n      swap2\n      sub\n      swap1\n      revert\n        /* \"src/kipu-bank-v2.sol\":7803:7849  if (amount == 0) revert KipuBank__ZeroAmount() */\n    tag_232:\n        /* \"src/kipu-bank-v2.sol\":1899:1900  0 */\n      0x00\n        /* \"src/kipu-bank-v2.sol\":7864:7883  token == NATIVE_ETH */\n      0xffffffffffffffffffffffffffffffffffffffff\n      and\n        /* \"src/kipu-bank-v2.sol\":7864:7869  token */\n      dup3\n        /* \"src/kipu-bank-v2.sol\":7864:7883  token == NATIVE_ETH */\n      0xffffffffffffffffffffffffffffffffffffffff\n      and\n      sub\n        /* \"src/kipu-bank-v2.sol\":7860:7926  if (token == NATIVE_ETH) revert KipuBank__TokenNotSupported(token) */\n      tag_233\n      jumpi\n        /* \"src/kipu-bank-v2.sol\":7920:7925  token */\n      dup2\n        /* \"src/kipu-bank-v2.sol\":7892:7926  KipuBank__TokenNotSupported(token) */\n      mload(0x40)\n      0xf9968b3a00000000000000000000000000000000000000000000000000000000\n      dup2\n      mstore\n      0x04\n      add\n      tag_234\n      swap2\n      swap1\n      tag_92\n      jump\t// in\n    tag_234:\n      mload(0x40)\n      dup1\n      swap2\n      sub\n      swap1\n      revert\n        /* \"src/kipu-bank-v2.sol\":7860:7926  if (token == NATIVE_ETH) revert KipuBank__TokenNotSupported(token) */\n    tag_233:\n        /* \"src/kipu-bank-v2.sol\":7981:7982  0 */\n      0x00\n        /* \"src/kipu-bank-v2.sol\":7941:7983  address(s_priceFeeds[token]) == address(0) */\n      0xffffffffffffffffffffffffffffffffffffffff\n      and\n        /* \"src/kipu-bank-v2.sol\":7949:7961  s_priceFeeds */\n      0x04\n        /* \"src/kipu-bank-v2.sol\":7949:7968  s_priceFeeds[token] */\n      0x00\n        /* \"src/kipu-bank-v2.sol\":7962:7967  token */\n      dup5\n        /* \"src/kipu-bank-v2.sol\":7949:7968  s_priceFeeds[token] */\n      0xffffffffffffffffffffffffffffffffffffffff\n      and\n      0xffffffffffffffffffffffffffffffffffffffff\n      and\n      dup2\n      mstore\n      0x20\n      add\n      swap1\n      dup2\n      mstore\n      0x20\n      add\n      0x00\n      keccak256\n      0x00\n      swap1\n      sload\n      swap1\n      0x0100\n      exp\n      swap1\n      div\n      0xffffffffffffffffffffffffffffffffffffffff\n      and\n        /* \"src/kipu-bank-v2.sol\":7941:7983  address(s_priceFeeds[token]) == address(0) */\n      0xffffffffffffffffffffffffffffffffffffffff\n      and\n      sub\n        /* \"src/kipu-bank-v2.sol\":7937:8053  if (address(s_priceFeeds[token]) == address(0)) {... */\n      tag_235\n      jumpi\n        /* \"src/kipu-bank-v2.sol\":8035:8040  token */\n      dup2\n        /* \"src/kipu-bank-v2.sol\":8007:8041  KipuBank__TokenNotSupported(token) */\n      mload(0x40)\n      0xf9968b3a00000000000000000000000000000000000000000000000000000000\n      dup2\n      mstore\n      0x04\n      add\n      tag_236\n      swap2\n      swap1\n      tag_92\n      jump\t// in\n    tag_236:\n      mload(0x40)\n      dup1\n      swap2\n      sub\n      swap1\n      revert\n        /* \"src/kipu-bank-v2.sol\":7937:8053  if (address(s_priceFeeds[token]) == address(0)) {... */\n    tag_235:\n        /* \"src/kipu-bank-v2.sol\":8215:8280  IERC20(token).safeTransferFrom(msg.sender, address(this), amount) */\n      tag_237\n        /* \"src/kipu-bank-v2.sol\":8246:8256  msg.sender */\n      caller\n        /* \"src/kipu-bank-v2.sol\":8266:8270  this */\n      address\n        /* \"src/kipu-bank-v2.sol\":8273:8279  amount */\n      dup4\n        /* \"src/kipu-bank-v2.sol\":8222:8227  token */\n      dup6\n        /* \"src/kipu-bank-v2.sol\":8215:8245  IERC20(token).safeTransferFrom */\n      0xffffffffffffffffffffffffffffffffffffffff\n      and\n      tag_238\n      swap1\n        /* \"src/kipu-bank-v2.sol\":8215:8280  IERC20(token).safeTransferFrom(msg.sender, address(this), amount) */\n      swap4\n      swap3\n      swap2\n      swap1\n      0xffffffff\n      and\n      jump\t// in\n    tag_237:\n        /* \"src/kipu-bank-v2.sol\":8291:8314  _deposit(token, amount) */\n      tag_239\n        /* \"src/kipu-bank-v2.sol\":8300:8305  token */\n      dup3\n        /* \"src/kipu-bank-v2.sol\":8307:8313  amount */\n      dup3\n        /* \"src/kipu-bank-v2.sol\":8291:8299  _deposit */\n      tag_37\n        /* \"src/kipu-bank-v2.sol\":8291:8314  _deposit(token, amount) */\n      jump\t// in\n    tag_239:\n        /* \"@openzeppelin/contracts/utils/ReentrancyGuard.sol\":2542:2562  _nonReentrantAfter() */\n      tag_240\n        /* \"@openzeppelin/contracts/utils/ReentrancyGuard.sol\":2542:2560  _nonReentrantAfter */\n      tag_241\n        /* \"@openzeppelin/contracts/utils/ReentrancyGuard.sol\":2542:2562  _nonReentrantAfter() */\n      jump\t// in\n    tag_240:\n        /* \"src/kipu-bank-v2.sol\":7717:8322  function depositToken(address token, uint256 amount) external nonReentrant {... */\n      pop\n      pop\n      jump\t// out\n        /* \"@openzeppelin/contracts/access/AccessControl.sol\":5304:5549  function renounceRole(bytes32 role, address callerConfirmation) public virtual {... */\n    tag_86:\n        /* \"@openzeppelin/contracts/access/AccessControl.sol\":5419:5431  _msgSender() */\n      tag_243\n        /* \"@openzeppelin/contracts/access/AccessControl.sol\":5419:5429  _msgSender */\n      tag_244\n        /* \"@openzeppelin/contracts/access/AccessControl.sol\":5419:5431  _msgSender() */\n      jump\t// in\n    tag_243:\n        /* \"@openzeppelin/contracts/access/AccessControl.sol\":5397:5431  callerConfirmation != _msgSender() */\n      0xffffffffffffffffffffffffffffffffffffffff\n      and\n        /* \"@openzeppelin/contracts/access/AccessControl.sol\":5397:5415  callerConfirmation */\n      dup2\n        /* \"@openzeppelin/contracts/access/AccessControl.sol\":5397:5431  callerConfirmation != _msgSender() */\n      0xffffffffffffffffffffffffffffffffffffffff\n      and\n      eq\n        /* \"@openzeppelin/contracts/access/AccessControl.sol\":5393:5495  if (callerConfirmation != _msgSender()) {... */\n      tag_245\n      jumpi\n        /* \"@openzeppelin/contracts/access/AccessControl.sol\":5454:5484  AccessControlBadConfirmation() */\n      mload(0x40)\n      0x6697b23200000000000000000000000000000000000000000000000000000000\n      dup2\n      mstore\n      0x04\n      add\n      mload(0x40)\n      dup1\n      swap2\n      sub\n      swap1\n      revert\n        /* \"@openzeppelin/contracts/access/AccessControl.sol\":5393:5495  if (callerConfirmation != _msgSender()) {... */\n    tag_245:\n        /* \"@openzeppelin/contracts/access/AccessControl.sol\":5505:5542  _revokeRole(role, callerConfirmation) */\n      tag_246\n        /* \"@openzeppelin/contracts/access/AccessControl.sol\":5517:5521  role */\n      dup3\n        /* \"@openzeppelin/contracts/access/AccessControl.sol\":5523:5541  callerConfirmation */\n      dup3\n        /* \"@openzeppelin/contracts/access/AccessControl.sol\":5505:5516  _revokeRole */\n      tag_247\n        /* \"@openzeppelin/contracts/access/AccessControl.sol\":5505:5542  _revokeRole(role, callerConfirmation) */\n      jump\t// in\n    tag_246:\n      pop\n        /* \"@openzeppelin/contracts/access/AccessControl.sol\":5304:5549  function renounceRole(bytes32 role, address callerConfirmation) public virtual {... */\n      pop\n      pop\n      jump\t// out\n        /* \"src/kipu-bank-v2.sol\":19447:19570  function getPriceFeed(address token) external view returns (address) {... */\n    tag_90:\n        /* \"src/kipu-bank-v2.sol\":19507:19514  address */\n      0x00\n        /* \"src/kipu-bank-v2.sol\":19542:19554  s_priceFeeds */\n      0x04\n        /* \"src/kipu-bank-v2.sol\":19542:19561  s_priceFeeds[token] */\n      0x00\n        /* \"src/kipu-bank-v2.sol\":19555:19560  token */\n      dup4\n        /* \"src/kipu-bank-v2.sol\":19542:19561  s_priceFeeds[token] */\n      0xffffffffffffffffffffffffffffffffffffffff\n      and\n      0xffffffffffffffffffffffffffffffffffffffff\n      and\n      dup2\n      mstore\n      0x20\n      add\n      swap1\n      dup2\n      mstore\n      0x20\n      add\n      0x00\n      keccak256\n      0x00\n      swap1\n      sload\n      swap1\n      0x0100\n      exp\n      swap1\n      div\n      0xffffffffffffffffffffffffffffffffffffffff\n      and\n        /* \"src/kipu-bank-v2.sol\":19527:19562  return address(s_priceFeeds[token]) */\n      swap1\n      pop\n        /* \"src/kipu-bank-v2.sol\":19447:19570  function getPriceFeed(address token) external view returns (address) {... */\n      swap2\n      swap1\n      pop\n      jump\t// out\n        /* \"src/kipu-bank-v2.sol\":9244:9727  function addTokenSupport(address token, address priceFeed) ... */\n    tag_97:\n        /* \"src/kipu-bank-v2.sol\":923:946  keccak256(\"ADMIN_ROLE\") */\n      0xa49807205ce4d355092ef5a8a18f56e8913cf4a201fbe287825b095693c21775\n        /* \"@openzeppelin/contracts/access/AccessControl.sol\":2473:2489  _checkRole(role) */\n      tag_250\n        /* \"@openzeppelin/contracts/access/AccessControl.sol\":2484:2488  role */\n      dup2\n        /* \"@openzeppelin/contracts/access/AccessControl.sol\":2473:2483  _checkRole */\n      tag_196\n        /* \"@openzeppelin/contracts/access/AccessControl.sol\":2473:2489  _checkRole(role) */\n      jump\t// in\n    tag_250:\n        /* \"src/kipu-bank-v2.sol\":1899:1900  0 */\n      0x00\n        /* \"src/kipu-bank-v2.sol\":9374:9393  token == NATIVE_ETH */\n      0xffffffffffffffffffffffffffffffffffffffff\n      and\n        /* \"src/kipu-bank-v2.sol\":9374:9379  token */\n      dup4\n        /* \"src/kipu-bank-v2.sol\":9374:9393  token == NATIVE_ETH */\n      0xffffffffffffffffffffffffffffffffffffffff\n      and\n      sub\n        /* \"src/kipu-bank-v2.sol\":9370:9436  if (token == NATIVE_ETH) revert KipuBank__TokenNotSupported(token) */\n      tag_252\n      jumpi\n        /* \"src/kipu-bank-v2.sol\":9430:9435  token */\n      dup3\n        /* \"src/kipu-bank-v2.sol\":9402:9436  KipuBank__TokenNotSupported(token) */\n      mload(0x40)\n      0xf9968b3a00000000000000000000000000000000000000000000000000000000\n      dup2\n      mstore\n      0x04\n      add\n      tag_253\n      swap2\n      swap1\n      tag_92\n      jump\t// in\n    tag_253:\n      mload(0x40)\n      dup1\n      swap2\n      sub\n      swap1\n      revert\n        /* \"src/kipu-bank-v2.sol\":9370:9436  if (token == NATIVE_ETH) revert KipuBank__TokenNotSupported(token) */\n    tag_252:\n        /* \"src/kipu-bank-v2.sol\":9491:9492  0 */\n      0x00\n        /* \"src/kipu-bank-v2.sol\":9451:9493  address(s_priceFeeds[token]) != address(0) */\n      0xffffffffffffffffffffffffffffffffffffffff\n      and\n        /* \"src/kipu-bank-v2.sol\":9459:9471  s_priceFeeds */\n      0x04\n        /* \"src/kipu-bank-v2.sol\":9459:9478  s_priceFeeds[token] */\n      0x00\n        /* \"src/kipu-bank-v2.sol\":9472:9477  token */\n      dup6\n        /* \"src/kipu-bank-v2.sol\":9459:9478  s_priceFeeds[token] */\n      0xffffffffffffffffffffffffffffffffffffffff\n      and\n      0xffffffffffffffffffffffffffffffffffffffff\n      and\n      dup2\n      mstore\n      0x20\n      add\n      swap1\n      dup2\n      mstore\n      0x20\n      add\n      0x00\n      keccak256\n      0x00\n      swap1\n      sload\n      swap1\n      0x0100\n      exp\n      swap1\n      div\n      0xffffffffffffffffffffffffffffffffffffffff\n      and\n        /* \"src/kipu-bank-v2.sol\":9451:9493  address(s_priceFeeds[token]) != address(0) */\n      0xffffffffffffffffffffffffffffffffffffffff\n      and\n      eq\n        /* \"src/kipu-bank-v2.sol\":9447:9567  if (address(s_priceFeeds[token]) != address(0)) {... */\n      tag_254\n      jumpi\n        /* \"src/kipu-bank-v2.sol\":9549:9554  token */\n      dup3\n        /* \"src/kipu-bank-v2.sol\":9517:9555  KipuBank__TokenAlreadySupported(token) */\n      mload(0x40)\n      0xc2a2f47500000000000000000000000000000000000000000000000000000000\n      dup2\n      mstore\n      0x04\n      add\n      tag_255\n      swap2\n      swap1\n      tag_92\n      jump\t// in\n    tag_255:\n      mload(0x40)\n      dup1\n      swap2\n      sub\n      swap1\n      revert\n        /* \"src/kipu-bank-v2.sol\":9447:9567  if (address(s_priceFeeds[token]) != address(0)) {... */\n    tag_254:\n        /* \"src/kipu-bank-v2.sol\":9623:9632  priceFeed */\n      dup2\n        /* \"src/kipu-bank-v2.sol\":9579:9591  s_priceFeeds */\n      0x04\n        /* \"src/kipu-bank-v2.sol\":9579:9598  s_priceFeeds[token] */\n      0x00\n        /* \"src/kipu-bank-v2.sol\":9592:9597  token */\n      dup6\n        /* \"src/kipu-bank-v2.sol\":9579:9598  s_priceFeeds[token] */\n      0xffffffffffffffffffffffffffffffffffffffff\n      and\n      0xffffffffffffffffffffffffffffffffffffffff\n      and\n      dup2\n      mstore\n      0x20\n      add\n      swap1\n      dup2\n      mstore\n      0x20\n      add\n      0x00\n      keccak256\n      0x00\n        /* \"src/kipu-bank-v2.sol\":9579:9633  s_priceFeeds[token] = AggregatorV3Interface(priceFeed) */\n      0x0100\n      exp\n      dup2\n      sload\n      dup2\n      0xffffffffffffffffffffffffffffffffffffffff\n      mul\n      not\n      and\n      swap1\n      dup4\n      0xffffffffffffffffffffffffffffffffffffffff\n      and\n      mul\n      or\n      swap1\n      sstore\n      pop\n        /* \"src/kipu-bank-v2.sol\":9644:9661  s_supportedTokens */\n      0x05\n        /* \"src/kipu-bank-v2.sol\":9667:9672  token */\n      dup4\n        /* \"src/kipu-bank-v2.sol\":9644:9673  s_supportedTokens.push(token) */\n      swap1\n      dup1\n      0x01\n      dup2\n      sload\n      add\n      dup1\n      dup3\n      sstore\n      dup1\n      swap2\n      pop\n      pop\n      0x01\n      swap1\n      sub\n      swap1\n      0x00\n      mstore\n      keccak256(0x00, 0x20)\n      add\n      0x00\n      swap1\n      swap2\n      swap1\n      swap2\n      swap1\n      swap2\n      0x0100\n      exp\n      dup2\n      sload\n      dup2\n      0xffffffffffffffffffffffffffffffffffffffff\n      mul\n      not\n      and\n      swap1\n      dup4\n      0xffffffffffffffffffffffffffffffffffffffff\n      and\n      mul\n      or\n      swap1\n      sstore\n      pop\n        /* \"src/kipu-bank-v2.sol\":9709:9718  priceFeed */\n      dup2\n        /* \"src/kipu-bank-v2.sol\":9691:9719  TokenAdded(token, priceFeed) */\n      0xffffffffffffffffffffffffffffffffffffffff\n      and\n        /* \"src/kipu-bank-v2.sol\":9702:9707  token */\n      dup4\n        /* \"src/kipu-bank-v2.sol\":9691:9719  TokenAdded(token, priceFeed) */\n      0xffffffffffffffffffffffffffffffffffffffff\n      and\n      0xdffbd9ded1c09446f09377de547142dcce7dc541c8b0b028142b1eba7026b9e7\n      mload(0x40)\n      mload(0x40)\n      dup1\n      swap2\n      sub\n      swap1\n      log3\n        /* \"src/kipu-bank-v2.sol\":9244:9727  function addTokenSupport(address token, address priceFeed) ... */\n      pop\n      pop\n      pop\n      jump\t// out\n        /* \"src/kipu-bank-v2.sol\":19206:19344  function isTokenSupported(address token) external view returns (bool) {... */\n    tag_101:\n        /* \"src/kipu-bank-v2.sol\":19270:19274  bool */\n      0x00\n        /* \"src/kipu-bank-v2.sol\":19334:19335  0 */\n      dup1\n        /* \"src/kipu-bank-v2.sol\":19294:19336  address(s_priceFeeds[token]) != address(0) */\n      0xffffffffffffffffffffffffffffffffffffffff\n      and\n        /* \"src/kipu-bank-v2.sol\":19302:19314  s_priceFeeds */\n      0x04\n        /* \"src/kipu-bank-v2.sol\":19302:19321  s_priceFeeds[token] */\n      0x00\n        /* \"src/kipu-bank-v2.sol\":19315:19320  token */\n      dup5\n        /* \"src/kipu-bank-v2.sol\":19302:19321  s_priceFeeds[token] */\n      0xffffffffffffffffffffffffffffffffffffffff\n      and\n      0xffffffffffffffffffffffffffffffffffffffff\n      and\n      dup2\n      mstore\n      0x20\n      add\n      swap1\n      dup2\n      mstore\n      0x20\n      add\n      0x00\n      keccak256\n      0x00\n      swap1\n      sload\n      swap1\n      0x0100\n      exp\n      swap1\n      div\n      0xffffffffffffffffffffffffffffffffffffffff\n      and\n        /* \"src/kipu-bank-v2.sol\":19294:19336  address(s_priceFeeds[token]) != address(0) */\n      0xffffffffffffffffffffffffffffffffffffffff\n      and\n      eq\n      iszero\n        /* \"src/kipu-bank-v2.sol\":19287:19336  return address(s_priceFeeds[token]) != address(0) */\n      swap1\n      pop\n        /* \"src/kipu-bank-v2.sol\":19206:19344  function isTokenSupported(address token) external view returns (bool) {... */\n      swap2\n      swap1\n      pop\n      jump\t// out\n        /* \"src/kipu-bank-v2.sol\":886:946  bytes32 public constant ADMIN_ROLE = keccak256(\"ADMIN_ROLE\") */\n    tag_105:\n        /* \"src/kipu-bank-v2.sol\":923:946  keccak256(\"ADMIN_ROLE\") */\n      0xa49807205ce4d355092ef5a8a18f56e8913cf4a201fbe287825b095693c21775\n        /* \"src/kipu-bank-v2.sol\":886:946  bytes32 public constant ADMIN_ROLE = keccak256(\"ADMIN_ROLE\") */\n      dup2\n      jump\t// out\n        /* \"src/kipu-bank-v2.sol\":18450:18561  function getTotalDepositsUSD() external view returns (uint256) {... */\n    tag_109:\n        /* \"src/kipu-bank-v2.sol\":18504:18511  uint256 */\n      0x00\n        /* \"src/kipu-bank-v2.sol\":18531:18553  _getTotalDepositsUSD() */\n      tag_259\n        /* \"src/kipu-bank-v2.sol\":18531:18551  _getTotalDepositsUSD */\n      tag_166\n        /* \"src/kipu-bank-v2.sol\":18531:18553  _getTotalDepositsUSD() */\n      jump\t// in\n    tag_259:\n        /* \"src/kipu-bank-v2.sol\":18524:18553  return _getTotalDepositsUSD() */\n      swap1\n      pop\n        /* \"src/kipu-bank-v2.sol\":18450:18561  function getTotalDepositsUSD() external view returns (uint256) {... */\n      swap1\n      jump\t// out\n        /* \"@openzeppelin/contracts/access/AccessControl.sol\":2830:2966  function hasRole(bytes32 role, address account) public view virtual returns (bool) {... */\n    tag_114:\n        /* \"@openzeppelin/contracts/access/AccessControl.sol\":2907:2911  bool */\n      0x00\n        /* \"@openzeppelin/contracts/access/AccessControl.sol\":2930:2936  _roles */\n      dup1\n        /* \"@openzeppelin/contracts/access/AccessControl.sol\":2930:2942  _roles[role] */\n      0x00\n        /* \"@openzeppelin/contracts/access/AccessControl.sol\":2937:2941  role */\n      dup5\n        /* \"@openzeppelin/contracts/access/AccessControl.sol\":2930:2942  _roles[role] */\n      dup2\n      mstore\n      0x20\n      add\n      swap1\n      dup2\n      mstore\n      0x20\n      add\n      0x00\n      keccak256\n        /* \"@openzeppelin/contracts/access/AccessControl.sol\":2930:2950  _roles[role].hasRole */\n      0x00\n      add\n        /* \"@openzeppelin/contracts/access/AccessControl.sol\":2930:2959  _roles[role].hasRole[account] */\n      0x00\n        /* \"@openzeppelin/contracts/access/AccessControl.sol\":2951:2958  account */\n      dup4\n        /* \"@openzeppelin/contracts/access/AccessControl.sol\":2930:2959  _roles[role].hasRole[account] */\n      0xffffffffffffffffffffffffffffffffffffffff\n      and\n      0xffffffffffffffffffffffffffffffffffffffff\n      and\n      dup2\n      mstore\n      0x20\n      add\n      swap1\n      dup2\n      mstore\n      0x20\n      add\n      0x00\n      keccak256\n      0x00\n      swap1\n      sload\n      swap1\n      0x0100\n      exp\n      swap1\n      div\n      0xff\n      and\n        /* \"@openzeppelin/contracts/access/AccessControl.sol\":2923:2959  return _roles[role].hasRole[account] */\n      swap1\n      pop\n        /* \"@openzeppelin/contracts/access/AccessControl.sol\":2830:2966  function hasRole(bytes32 role, address account) public view virtual returns (bool) {... */\n      swap3\n      swap2\n      pop\n      pop\n      jump\t// out\n        /* \"src/kipu-bank-v2.sol\":8789:9042  function withdrawToken(address token, uint256 amount) external nonReentrant {... */\n    tag_119:\n        /* \"@openzeppelin/contracts/utils/ReentrancyGuard.sol\":2500:2521  _nonReentrantBefore() */\n      tag_262\n        /* \"@openzeppelin/contracts/utils/ReentrancyGuard.sol\":2500:2519  _nonReentrantBefore */\n      tag_230\n        /* \"@openzeppelin/contracts/utils/ReentrancyGuard.sol\":2500:2521  _nonReentrantBefore() */\n      jump\t// in\n    tag_262:\n        /* \"src/kipu-bank-v2.sol\":8890:8891  0 */\n      0x00\n        /* \"src/kipu-bank-v2.sol\":8880:8886  amount */\n      dup2\n        /* \"src/kipu-bank-v2.sol\":8880:8891  amount == 0 */\n      sub\n        /* \"src/kipu-bank-v2.sol\":8876:8922  if (amount == 0) revert KipuBank__ZeroAmount() */\n      tag_264\n      jumpi\n        /* \"src/kipu-bank-v2.sol\":8900:8922  KipuBank__ZeroAmount() */\n      mload(0x40)\n      0x3f36295200000000000000000000000000000000000000000000000000000000\n      dup2\n      mstore\n      0x04\n      add\n      mload(0x40)\n      dup1\n      swap2\n      sub\n      swap1\n      revert\n        /* \"src/kipu-bank-v2.sol\":8876:8922  if (amount == 0) revert KipuBank__ZeroAmount() */\n    tag_264:\n        /* \"src/kipu-bank-v2.sol\":1899:1900  0 */\n      0x00\n        /* \"src/kipu-bank-v2.sol\":8937:8956  token == NATIVE_ETH */\n      0xffffffffffffffffffffffffffffffffffffffff\n      and\n        /* \"src/kipu-bank-v2.sol\":8937:8942  token */\n      dup3\n        /* \"src/kipu-bank-v2.sol\":8937:8956  token == NATIVE_ETH */\n      0xffffffffffffffffffffffffffffffffffffffff\n      and\n      sub\n        /* \"src/kipu-bank-v2.sol\":8933:8999  if (token == NATIVE_ETH) revert KipuBank__TokenNotSupported(token) */\n      tag_265\n      jumpi\n        /* \"src/kipu-bank-v2.sol\":8993:8998  token */\n      dup2\n        /* \"src/kipu-bank-v2.sol\":8965:8999  KipuBank__TokenNotSupported(token) */\n      mload(0x40)\n      0xf9968b3a00000000000000000000000000000000000000000000000000000000\n      dup2\n      mstore\n      0x04\n      add\n      tag_266\n      swap2\n      swap1\n      tag_92\n      jump\t// in\n    tag_266:\n      mload(0x40)\n      dup1\n      swap2\n      sub\n      swap1\n      revert\n        /* \"src/kipu-bank-v2.sol\":8933:8999  if (token == NATIVE_ETH) revert KipuBank__TokenNotSupported(token) */\n    tag_265:\n        /* \"src/kipu-bank-v2.sol\":9010:9034  _withdraw(token, amount) */\n      tag_267\n        /* \"src/kipu-bank-v2.sol\":9020:9025  token */\n      dup3\n        /* \"src/kipu-bank-v2.sol\":9027:9033  amount */\n      dup3\n        /* \"src/kipu-bank-v2.sol\":9010:9019  _withdraw */\n      tag_268\n        /* \"src/kipu-bank-v2.sol\":9010:9034  _withdraw(token, amount) */\n      jump\t// in\n    tag_267:\n        /* \"@openzeppelin/contracts/utils/ReentrancyGuard.sol\":2542:2562  _nonReentrantAfter() */\n      tag_269\n        /* \"@openzeppelin/contracts/utils/ReentrancyGuard.sol\":2542:2560  _nonReentrantAfter */\n      tag_241\n        /* \"@openzeppelin/contracts/utils/ReentrancyGuard.sol\":2542:2562  _nonReentrantAfter() */\n      jump\t// in\n    tag_269:\n        /* \"src/kipu-bank-v2.sol\":8789:9042  function withdrawToken(address token, uint256 amount) external nonReentrant {... */\n      pop\n      pop\n      jump\t// out\n        /* \"@openzeppelin/contracts/access/AccessControl.sol\":2196:2245  bytes32 public constant DEFAULT_ADMIN_ROLE = 0x00 */\n    tag_122:\n        /* \"@openzeppelin/contracts/access/AccessControl.sol\":2241:2245  0x00 */\n      0x00\n        /* \"@openzeppelin/contracts/access/AccessControl.sol\":2196:2245  bytes32 public constant DEFAULT_ADMIN_ROLE = 0x00 */\n      dup1\n      shl\n      dup2\n      jump\t// out\n        /* \"src/kipu-bank-v2.sol\":2695:2727  uint256 public s_withdrawalCount */\n    tag_126:\n      sload(0x07)\n      dup2\n      jump\t// out\n        /* \"src/kipu-bank-v2.sol\":2588:2617  uint256 public s_depositCount */\n    tag_130:\n      sload(0x06)\n      dup2\n      jump\t// out\n        /* \"src/kipu-bank-v2.sol\":1113:1162  uint256 public immutable i_withdrawalThresholdUSD */\n    tag_134:\n      immutable(\"0xf586532c52cafa07782ab6085737addf284f0cc1dede3aa9b2bdba9d5551b7a5\")\n      dup2\n      jump\t// out\n        /* \"src/kipu-bank-v2.sol\":18985:19099  function getSupportedTokens() external view returns (address[] memory) {... */\n    tag_138:\n        /* \"src/kipu-bank-v2.sol\":19038:19054  address[] memory */\n      0x60\n        /* \"src/kipu-bank-v2.sol\":19074:19091  s_supportedTokens */\n      0x05\n        /* \"src/kipu-bank-v2.sol\":19067:19091  return s_supportedTokens */\n      dup1\n      sload\n      dup1\n      0x20\n      mul\n      0x20\n      add\n      mload(0x40)\n      swap1\n      dup2\n      add\n      0x40\n      mstore\n      dup1\n      swap3\n      swap2\n      swap1\n      dup2\n      dup2\n      mstore\n      0x20\n      add\n      dup3\n      dup1\n      sload\n      dup1\n      iszero\n      tag_271\n      jumpi\n      0x20\n      mul\n      dup3\n      add\n      swap2\n      swap1\n      0x00\n      mstore\n      keccak256(0x00, 0x20)\n      swap1\n    tag_272:\n      dup2\n      0x00\n      swap1\n      sload\n      swap1\n      0x0100\n      exp\n      swap1\n      div\n      0xffffffffffffffffffffffffffffffffffffffff\n      and\n      0xffffffffffffffffffffffffffffffffffffffff\n      and\n      dup2\n      mstore\n      0x20\n      add\n      swap1\n      0x01\n      add\n      swap1\n      dup1\n      dup4\n      gt\n      tag_272\n      jumpi\n    tag_271:\n      pop\n      pop\n      pop\n      pop\n      pop\n      swap1\n      pop\n        /* \"src/kipu-bank-v2.sol\":18985:19099  function getSupportedTokens() external view returns (address[] memory) {... */\n      swap1\n      jump\t// out\n        /* \"src/kipu-bank-v2.sol\":17312:17565  function getBalance(address user, address token) external view returns (uint256) {... */\n    tag_144:\n        /* \"src/kipu-bank-v2.sol\":17384:17391  uint256 */\n      0x00\n        /* \"src/kipu-bank-v2.sol\":17404:17429  uint256 normalizedBalance */\n      dup1\n        /* \"src/kipu-bank-v2.sol\":17432:17442  s_deposits */\n      0x02\n        /* \"src/kipu-bank-v2.sol\":17432:17448  s_deposits[user] */\n      0x00\n        /* \"src/kipu-bank-v2.sol\":17443:17447  user */\n      dup6\n        /* \"src/kipu-bank-v2.sol\":17432:17448  s_deposits[user] */\n      0xffffffffffffffffffffffffffffffffffffffff\n      and\n      0xffffffffffffffffffffffffffffffffffffffff\n      and\n      dup2\n      mstore\n      0x20\n      add\n      swap1\n      dup2\n      mstore\n      0x20\n      add\n      0x00\n      keccak256\n        /* \"src/kipu-bank-v2.sol\":17432:17455  s_deposits[user][token] */\n      0x00\n        /* \"src/kipu-bank-v2.sol\":17449:17454  token */\n      dup5\n        /* \"src/kipu-bank-v2.sol\":17432:17455  s_deposits[user][token] */\n      0xffffffffffffffffffffffffffffffffffffffff\n      and\n      0xffffffffffffffffffffffffffffffffffffffff\n      and\n      dup2\n      mstore\n      0x20\n      add\n      swap1\n      dup2\n      mstore\n      0x20\n      add\n      0x00\n      keccak256\n      sload\n        /* \"src/kipu-bank-v2.sol\":17404:17455  uint256 normalizedBalance = s_deposits[user][token] */\n      swap1\n      pop\n        /* \"src/kipu-bank-v2.sol\":17493:17539  _denormalizeFromUSDC(token, normalizedBalance) */\n      tag_274\n        /* \"src/kipu-bank-v2.sol\":17514:17519  token */\n      dup4\n        /* \"src/kipu-bank-v2.sol\":17521:17538  normalizedBalance */\n      dup3\n        /* \"src/kipu-bank-v2.sol\":17493:17513  _denormalizeFromUSDC */\n      tag_187\n        /* \"src/kipu-bank-v2.sol\":17493:17539  _denormalizeFromUSDC(token, normalizedBalance) */\n      jump\t// in\n    tag_274:\n        /* \"src/kipu-bank-v2.sol\":17486:17539  return _denormalizeFromUSDC(token, normalizedBalance) */\n      swap2\n      pop\n      pop\n        /* \"src/kipu-bank-v2.sol\":17312:17565  function getBalance(address user, address token) external view returns (uint256) {... */\n      swap3\n      swap2\n      pop\n      pop\n      jump\t// out\n        /* \"@openzeppelin/contracts/access/AccessControl.sol\":4618:4756  function revokeRole(bytes32 role, address account) public virtual onlyRole(getRoleAdmin(role)) {... */\n    tag_149:\n        /* \"@openzeppelin/contracts/access/AccessControl.sol\":4693:4711  getRoleAdmin(role) */\n      tag_275\n        /* \"@openzeppelin/contracts/access/AccessControl.sol\":4706:4710  role */\n      dup3\n        /* \"@openzeppelin/contracts/access/AccessControl.sol\":4693:4705  getRoleAdmin */\n      tag_66\n        /* \"@openzeppelin/contracts/access/AccessControl.sol\":4693:4711  getRoleAdmin(role) */\n      jump\t// in\n    tag_275:\n        /* \"@openzeppelin/contracts/access/AccessControl.sol\":2473:2489  _checkRole(role) */\n      tag_277\n        /* \"@openzeppelin/contracts/access/AccessControl.sol\":2484:2488  role */\n      dup2\n        /* \"@openzeppelin/contracts/access/AccessControl.sol\":2473:2483  _checkRole */\n      tag_196\n        /* \"@openzeppelin/contracts/access/AccessControl.sol\":2473:2489  _checkRole(role) */\n      jump\t// in\n    tag_277:\n        /* \"@openzeppelin/contracts/access/AccessControl.sol\":4723:4749  _revokeRole(role, account) */\n      tag_279\n        /* \"@openzeppelin/contracts/access/AccessControl.sol\":4735:4739  role */\n      dup4\n        /* \"@openzeppelin/contracts/access/AccessControl.sol\":4741:4748  account */\n      dup4\n        /* \"@openzeppelin/contracts/access/AccessControl.sol\":4723:4734  _revokeRole */\n      tag_247\n        /* \"@openzeppelin/contracts/access/AccessControl.sol\":4723:4749  _revokeRole(role, account) */\n      jump\t// in\n    tag_279:\n      pop\n        /* \"@openzeppelin/contracts/access/AccessControl.sol\":4618:4756  function revokeRole(bytes32 role, address account) public virtual onlyRole(getRoleAdmin(role)) {... */\n      pop\n      pop\n      pop\n      jump\t// out\n        /* \"src/kipu-bank-v2.sol\":17740:18045  function getBalanceUSD(address user, address token) external view returns (uint256) {... */\n    tag_153:\n        /* \"src/kipu-bank-v2.sol\":17815:17822  uint256 */\n      0x00\n        /* \"src/kipu-bank-v2.sol\":17835:17860  uint256 normalizedBalance */\n      dup1\n        /* \"src/kipu-bank-v2.sol\":17863:17873  s_deposits */\n      0x02\n        /* \"src/kipu-bank-v2.sol\":17863:17879  s_deposits[user] */\n      0x00\n        /* \"src/kipu-bank-v2.sol\":17874:17878  user */\n      dup6\n        /* \"src/kipu-bank-v2.sol\":17863:17879  s_deposits[user] */\n      0xffffffffffffffffffffffffffffffffffffffff\n      and\n      0xffffffffffffffffffffffffffffffffffffffff\n      and\n      dup2\n      mstore\n      0x20\n      add\n      swap1\n      dup2\n      mstore\n      0x20\n      add\n      0x00\n      keccak256\n        /* \"src/kipu-bank-v2.sol\":17863:17886  s_deposits[user][token] */\n      0x00\n        /* \"src/kipu-bank-v2.sol\":17880:17885  token */\n      dup5\n        /* \"src/kipu-bank-v2.sol\":17863:17886  s_deposits[user][token] */\n      0xffffffffffffffffffffffffffffffffffffffff\n      and\n      0xffffffffffffffffffffffffffffffffffffffff\n      and\n      dup2\n      mstore\n      0x20\n      add\n      swap1\n      dup2\n      mstore\n      0x20\n      add\n      0x00\n      keccak256\n      sload\n        /* \"src/kipu-bank-v2.sol\":17835:17886  uint256 normalizedBalance = s_deposits[user][token] */\n      swap1\n      pop\n        /* \"src/kipu-bank-v2.sol\":17917:17937  uint256 nativeAmount */\n      0x00\n        /* \"src/kipu-bank-v2.sol\":17940:17986  _denormalizeFromUSDC(token, normalizedBalance) */\n      tag_281\n        /* \"src/kipu-bank-v2.sol\":17961:17966  token */\n      dup5\n        /* \"src/kipu-bank-v2.sol\":17968:17985  normalizedBalance */\n      dup4\n        /* \"src/kipu-bank-v2.sol\":17940:17960  _denormalizeFromUSDC */\n      tag_187\n        /* \"src/kipu-bank-v2.sol\":17940:17986  _denormalizeFromUSDC(token, normalizedBalance) */\n      jump\t// in\n    tag_281:\n        /* \"src/kipu-bank-v2.sol\":17917:17986  uint256 nativeAmount = _denormalizeFromUSDC(token, normalizedBalance) */\n      swap1\n      pop\n        /* \"src/kipu-bank-v2.sol\":18004:18037  _getUSDValue(token, nativeAmount) */\n      tag_282\n        /* \"src/kipu-bank-v2.sol\":18017:18022  token */\n      dup5\n        /* \"src/kipu-bank-v2.sol\":18024:18036  nativeAmount */\n      dup3\n        /* \"src/kipu-bank-v2.sol\":18004:18016  _getUSDValue */\n      tag_164\n        /* \"src/kipu-bank-v2.sol\":18004:18037  _getUSDValue(token, nativeAmount) */\n      jump\t// in\n    tag_282:\n        /* \"src/kipu-bank-v2.sol\":17997:18037  return _getUSDValue(token, nativeAmount) */\n      swap3\n      pop\n      pop\n      pop\n        /* \"src/kipu-bank-v2.sol\":17740:18045  function getBalanceUSD(address user, address token) external view returns (uint256) {... */\n      swap3\n      swap2\n      pop\n      pop\n      jump\t// out\n        /* \"src/kipu-bank-v2.sol\":8434:8598  function withdrawETH(uint256 amount) external nonReentrant {... */\n    tag_159:\n        /* \"@openzeppelin/contracts/utils/ReentrancyGuard.sol\":2500:2521  _nonReentrantBefore() */\n      tag_284\n        /* \"@openzeppelin/contracts/utils/ReentrancyGuard.sol\":2500:2519  _nonReentrantBefore */\n      tag_230\n        /* \"@openzeppelin/contracts/utils/ReentrancyGuard.sol\":2500:2521  _nonReentrantBefore() */\n      jump\t// in\n    tag_284:\n        /* \"src/kipu-bank-v2.sol\":8518:8519  0 */\n      0x00\n        /* \"src/kipu-bank-v2.sol\":8508:8514  amount */\n      dup2\n        /* \"src/kipu-bank-v2.sol\":8508:8519  amount == 0 */\n      sub\n        /* \"src/kipu-bank-v2.sol\":8504:8550  if (amount == 0) revert KipuBank__ZeroAmount() */\n      tag_286\n      jumpi\n        /* \"src/kipu-bank-v2.sol\":8528:8550  KipuBank__ZeroAmount() */\n      mload(0x40)\n      0x3f36295200000000000000000000000000000000000000000000000000000000\n      dup2\n      mstore\n      0x04\n      add\n      mload(0x40)\n      dup1\n      swap2\n      sub\n      swap1\n      revert\n        /* \"src/kipu-bank-v2.sol\":8504:8550  if (amount == 0) revert KipuBank__ZeroAmount() */\n    tag_286:\n        /* \"src/kipu-bank-v2.sol\":8561:8590  _withdraw(NATIVE_ETH, amount) */\n      tag_287\n        /* \"src/kipu-bank-v2.sol\":1899:1900  0 */\n      0x00\n        /* \"src/kipu-bank-v2.sol\":8583:8589  amount */\n      dup3\n        /* \"src/kipu-bank-v2.sol\":8561:8570  _withdraw */\n      tag_268\n        /* \"src/kipu-bank-v2.sol\":8561:8590  _withdraw(NATIVE_ETH, amount) */\n      jump\t// in\n    tag_287:\n        /* \"@openzeppelin/contracts/utils/ReentrancyGuard.sol\":2542:2562  _nonReentrantAfter() */\n      tag_288\n        /* \"@openzeppelin/contracts/utils/ReentrancyGuard.sol\":2542:2560  _nonReentrantAfter */\n      tag_241\n        /* \"@openzeppelin/contracts/utils/ReentrancyGuard.sol\":2542:2562  _nonReentrantAfter() */\n      jump\t// in\n    tag_288:\n        /* \"src/kipu-bank-v2.sol\":8434:8598  function withdrawETH(uint256 amount) external nonReentrant {... */\n      pop\n      jump\t// out\n        /* \"src/kipu-bank-v2.sol\":7352:7514  function depositETH() external payable nonReentrant {... */\n    tag_161:\n        /* \"@openzeppelin/contracts/utils/ReentrancyGuard.sol\":2500:2521  _nonReentrantBefore() */\n      tag_290\n        /* \"@openzeppelin/contracts/utils/ReentrancyGuard.sol\":2500:2519  _nonReentrantBefore */\n      tag_230\n        /* \"@openzeppelin/contracts/utils/ReentrancyGuard.sol\":2500:2521  _nonReentrantBefore() */\n      jump\t// in\n    tag_290:\n        /* \"src/kipu-bank-v2.sol\":7432:7433  0 */\n      0x00\n        /* \"src/kipu-bank-v2.sol\":7419:7428  msg.value */\n      callvalue\n        /* \"src/kipu-bank-v2.sol\":7419:7433  msg.value == 0 */\n      sub\n        /* \"src/kipu-bank-v2.sol\":7415:7464  if (msg.value == 0) revert KipuBank__ZeroAmount() */\n      tag_292\n      jumpi\n        /* \"src/kipu-bank-v2.sol\":7442:7464  KipuBank__ZeroAmount() */\n      mload(0x40)\n      0x3f36295200000000000000000000000000000000000000000000000000000000\n      dup2\n      mstore\n      0x04\n      add\n      mload(0x40)\n      dup1\n      swap2\n      sub\n      swap1\n      revert\n        /* \"src/kipu-bank-v2.sol\":7415:7464  if (msg.value == 0) revert KipuBank__ZeroAmount() */\n    tag_292:\n        /* \"src/kipu-bank-v2.sol\":7475:7506  _deposit(NATIVE_ETH, msg.value) */\n      tag_293\n        /* \"src/kipu-bank-v2.sol\":1899:1900  0 */\n      0x00\n        /* \"src/kipu-bank-v2.sol\":7496:7505  msg.value */\n      callvalue\n        /* \"src/kipu-bank-v2.sol\":7475:7483  _deposit */\n      tag_37\n        /* \"src/kipu-bank-v2.sol\":7475:7506  _deposit(NATIVE_ETH, msg.value) */\n      jump\t// in\n    tag_293:\n        /* \"@openzeppelin/contracts/utils/ReentrancyGuard.sol\":2542:2562  _nonReentrantAfter() */\n      tag_294\n        /* \"@openzeppelin/contracts/utils/ReentrancyGuard.sol\":2542:2560  _nonReentrantAfter */\n      tag_241\n        /* \"@openzeppelin/contracts/utils/ReentrancyGuard.sol\":2542:2562  _nonReentrantAfter() */\n      jump\t// in\n    tag_294:\n        /* \"src/kipu-bank-v2.sol\":7352:7514  function depositETH() external payable nonReentrant {... */\n      jump\t// out\n        /* \"src/kipu-bank-v2.sol\":13883:14613  function _getUSDValue(address token, uint256 amount) private view returns (uint256) {... */\n    tag_164:\n        /* \"src/kipu-bank-v2.sol\":13958:13965  uint256 */\n      0x00\n        /* \"src/kipu-bank-v2.sol\":13978:14009  AggregatorV3Interface priceFeed */\n      dup1\n        /* \"src/kipu-bank-v2.sol\":14012:14024  s_priceFeeds */\n      0x04\n        /* \"src/kipu-bank-v2.sol\":14012:14031  s_priceFeeds[token] */\n      0x00\n        /* \"src/kipu-bank-v2.sol\":14025:14030  token */\n      dup6\n        /* \"src/kipu-bank-v2.sol\":14012:14031  s_priceFeeds[token] */\n      0xffffffffffffffffffffffffffffffffffffffff\n      and\n      0xffffffffffffffffffffffffffffffffffffffff\n      and\n      dup2\n      mstore\n      0x20\n      add\n      swap1\n      dup2\n      mstore\n      0x20\n      add\n      0x00\n      keccak256\n      0x00\n      swap1\n      sload\n      swap1\n      0x0100\n      exp\n      swap1\n      div\n      0xffffffffffffffffffffffffffffffffffffffff\n      and\n        /* \"src/kipu-bank-v2.sol\":13978:14031  AggregatorV3Interface priceFeed = s_priceFeeds[token] */\n      swap1\n      pop\n        /* \"src/kipu-bank-v2.sol\":14057:14069  int256 price */\n      0x00\n        /* \"src/kipu-bank-v2.sol\":14079:14088  priceFeed */\n      dup2\n        /* \"src/kipu-bank-v2.sol\":14079:14104  priceFeed.latestRoundData */\n      0xffffffffffffffffffffffffffffffffffffffff\n      and\n      0xfeaf968c\n        /* \"src/kipu-bank-v2.sol\":14079:14106  priceFeed.latestRoundData() */\n      mload(0x40)\n      dup2\n      0xffffffff\n      and\n      0xe0\n      shl\n      dup2\n      mstore\n      0x04\n      add\n      0xa0\n      mload(0x40)\n      dup1\n      dup4\n      sub\n      dup2\n      dup7\n      gas\n      staticcall\n      iszero\n      dup1\n      iszero\n      tag_297\n      jumpi\n      returndatasize\n      0x00\n      dup1\n      returndatacopy\n      revert(0x00, returndatasize)\n    tag_297:\n      pop\n      pop\n      pop\n      pop\n      mload(0x40)\n      returndatasize\n      not(0x1f)\n      0x1f\n      dup3\n      add\n      and\n      dup3\n      add\n      dup1\n      0x40\n      mstore\n      pop\n      dup2\n      add\n      swap1\n      tag_298\n      swap2\n      swap1\n      tag_299\n      jump\t// in\n    tag_298:\n        /* \"src/kipu-bank-v2.sol\":14054:14106  (, int256 price, , , ) = priceFeed.latestRoundData() */\n      pop\n      pop\n      pop\n      swap2\n      pop\n      pop\n        /* \"src/kipu-bank-v2.sol\":14130:14131  0 */\n      0x00\n        /* \"src/kipu-bank-v2.sol\":14121:14126  price */\n      dup2\n        /* \"src/kipu-bank-v2.sol\":14121:14131  price <= 0 */\n      sgt\n        /* \"src/kipu-bank-v2.sol\":14117:14168  if (price <= 0) revert KipuBank__InvalidPriceData() */\n      tag_300\n      jumpi\n        /* \"src/kipu-bank-v2.sol\":14140:14168  KipuBank__InvalidPriceData() */\n      mload(0x40)\n      0x804b984b00000000000000000000000000000000000000000000000000000000\n      dup2\n      mstore\n      0x04\n      add\n      mload(0x40)\n      dup1\n      swap2\n      sub\n      swap1\n      revert\n        /* \"src/kipu-bank-v2.sol\":14117:14168  if (price <= 0) revert KipuBank__InvalidPriceData() */\n    tag_300:\n        /* \"src/kipu-bank-v2.sol\":14241:14260  uint8 tokenDecimals */\n      0x00\n        /* \"src/kipu-bank-v2.sol\":1899:1900  0 */\n      dup1\n        /* \"src/kipu-bank-v2.sol\":14263:14282  token == NATIVE_ETH */\n      0xffffffffffffffffffffffffffffffffffffffff\n      and\n        /* \"src/kipu-bank-v2.sol\":14263:14268  token */\n      dup7\n        /* \"src/kipu-bank-v2.sol\":14263:14282  token == NATIVE_ETH */\n      0xffffffffffffffffffffffffffffffffffffffff\n      and\n      eq\n        /* \"src/kipu-bank-v2.sol\":14263:14322  token == NATIVE_ETH ? 18 : IERC20Metadata(token).decimals() */\n      tag_301\n      jumpi\n        /* \"src/kipu-bank-v2.sol\":14305:14310  token */\n      dup6\n        /* \"src/kipu-bank-v2.sol\":14290:14320  IERC20Metadata(token).decimals */\n      0xffffffffffffffffffffffffffffffffffffffff\n      and\n      0x313ce567\n        /* \"src/kipu-bank-v2.sol\":14290:14322  IERC20Metadata(token).decimals() */\n      mload(0x40)\n      dup2\n      0xffffffff\n      and\n      0xe0\n      shl\n      dup2\n      mstore\n      0x04\n      add\n      0x20\n      mload(0x40)\n      dup1\n      dup4\n      sub\n      dup2\n      dup7\n      gas\n      staticcall\n      iszero\n      dup1\n      iszero\n      tag_303\n      jumpi\n      returndatasize\n      0x00\n      dup1\n      returndatacopy\n      revert(0x00, returndatasize)\n    tag_303:\n      pop\n      pop\n      pop\n      pop\n      mload(0x40)\n      returndatasize\n      not(0x1f)\n      0x1f\n      dup3\n      add\n      and\n      dup3\n      add\n      dup1\n      0x40\n      mstore\n      pop\n      dup2\n      add\n      swap1\n      tag_304\n      swap2\n      swap1\n      tag_305\n      jump\t// in\n    tag_304:\n        /* \"src/kipu-bank-v2.sol\":14263:14322  token == NATIVE_ETH ? 18 : IERC20Metadata(token).decimals() */\n      jump(tag_306)\n    tag_301:\n        /* \"src/kipu-bank-v2.sol\":14285:14287  18 */\n      0x12\n        /* \"src/kipu-bank-v2.sol\":14263:14322  token == NATIVE_ETH ? 18 : IERC20Metadata(token).decimals() */\n    tag_306:\n        /* \"src/kipu-bank-v2.sol\":14241:14322  uint8 tokenDecimals = token == NATIVE_ETH ? 18 : IERC20Metadata(token).decimals() */\n      swap1\n      pop\n        /* \"src/kipu-bank-v2.sol\":14333:14356  uint8 priceFeedDecimals */\n      0x00\n        /* \"src/kipu-bank-v2.sol\":14359:14368  priceFeed */\n      dup4\n        /* \"src/kipu-bank-v2.sol\":14359:14377  priceFeed.decimals */\n      0xffffffffffffffffffffffffffffffffffffffff\n      and\n      0x313ce567\n        /* \"src/kipu-bank-v2.sol\":14359:14379  priceFeed.decimals() */\n      mload(0x40)\n      dup2\n      0xffffffff\n      and\n      0xe0\n      shl\n      dup2\n      mstore\n      0x04\n      add\n      0x20\n      mload(0x40)\n      dup1\n      dup4\n      sub\n      dup2\n      dup7\n      gas\n      staticcall\n      iszero\n      dup1\n      iszero\n      tag_308\n      jumpi\n      returndatasize\n      0x00\n      dup1\n      returndatacopy\n      revert(0x00, returndatasize)\n    tag_308:\n      pop\n      pop\n      pop\n      pop\n      mload(0x40)\n      returndatasize\n      not(0x1f)\n      0x1f\n      dup3\n      add\n      and\n      dup3\n      add\n      dup1\n      0x40\n      mstore\n      pop\n      dup2\n      add\n      swap1\n      tag_309\n      swap2\n      swap1\n      tag_305\n      jump\t// in\n    tag_309:\n        /* \"src/kipu-bank-v2.sol\":14333:14379  uint8 priceFeedDecimals = priceFeed.decimals() */\n      swap1\n      pop\n        /* \"src/kipu-bank-v2.sol\":14587:14604  priceFeedDecimals */\n      dup1\n        /* \"src/kipu-bank-v2.sol\":14583:14585  10 */\n      0x0a\n        /* \"src/kipu-bank-v2.sol\":14583:14604  10**priceFeedDecimals */\n      tag_310\n      swap2\n      swap1\n      tag_311\n      jump\t// in\n    tag_310:\n        /* \"src/kipu-bank-v2.sol\":14567:14580  tokenDecimals */\n      dup3\n        /* \"src/kipu-bank-v2.sol\":14563:14565  10 */\n      0x0a\n        /* \"src/kipu-bank-v2.sol\":14563:14580  10**tokenDecimals */\n      tag_312\n      swap2\n      swap1\n      tag_311\n      jump\t// in\n    tag_312:\n        /* \"src/kipu-bank-v2.sol\":14563:14604  10**tokenDecimals * 10**priceFeedDecimals */\n      tag_313\n      swap2\n      swap1\n      tag_314\n      jump\t// in\n    tag_313:\n        /* \"src/kipu-bank-v2.sol\":1748:1750  18 */\n      0x12\n        /* \"src/kipu-bank-v2.sol\":14525:14527  10 */\n      0x0a\n        /* \"src/kipu-bank-v2.sol\":14525:14541  10**USD_DECIMALS */\n      tag_315\n      swap2\n      swap1\n      tag_311\n      jump\t// in\n    tag_315:\n        /* \"src/kipu-bank-v2.sol\":14516:14521  price */\n      dup5\n        /* \"src/kipu-bank-v2.sol\":14499:14505  amount */\n      dup9\n        /* \"src/kipu-bank-v2.sol\":14499:14522  amount * uint256(price) */\n      tag_316\n      swap2\n      swap1\n      tag_314\n      jump\t// in\n    tag_316:\n        /* \"src/kipu-bank-v2.sol\":14499:14541  amount * uint256(price) * 10**USD_DECIMALS */\n      tag_317\n      swap2\n      swap1\n      tag_314\n      jump\t// in\n    tag_317:\n        /* \"src/kipu-bank-v2.sol\":14498:14605  (amount * uint256(price) * 10**USD_DECIMALS) / ... */\n      tag_318\n      swap2\n      swap1\n      tag_319\n      jump\t// in\n    tag_318:\n        /* \"src/kipu-bank-v2.sol\":14491:14605  return (amount * uint256(price) * 10**USD_DECIMALS) / ... */\n      swap5\n      pop\n      pop\n      pop\n      pop\n      pop\n        /* \"src/kipu-bank-v2.sol\":13883:14613  function _getUSDValue(address token, uint256 amount) private view returns (uint256) {... */\n      swap3\n      swap2\n      pop\n      pop\n      jump\t// out\n        /* \"src/kipu-bank-v2.sol\":15437:16132  function _getTotalDepositsUSD() private view returns (uint256) {... */\n    tag_166:\n        /* \"src/kipu-bank-v2.sol\":15491:15498  uint256 */\n      0x00\n        /* \"src/kipu-bank-v2.sol\":15511:15527  uint256 totalUSD */\n      dup1\n        /* \"src/kipu-bank-v2.sol\":15530:15531  0 */\n      0x00\n        /* \"src/kipu-bank-v2.sol\":15511:15531  uint256 totalUSD = 0 */\n      swap1\n      pop\n        /* \"src/kipu-bank-v2.sol\":15557:15566  uint256 i */\n      0x00\n        /* \"src/kipu-bank-v2.sol\":15552:16089  for (uint256 i = 0; i < s_supportedTokens.length; i++) {... */\n    tag_321:\n        /* \"src/kipu-bank-v2.sol\":15576:15593  s_supportedTokens */\n      0x05\n        /* \"src/kipu-bank-v2.sol\":15576:15600  s_supportedTokens.length */\n      dup1\n      sload\n      swap1\n      pop\n        /* \"src/kipu-bank-v2.sol\":15572:15573  i */\n      dup2\n        /* \"src/kipu-bank-v2.sol\":15572:15600  i < s_supportedTokens.length */\n      lt\n        /* \"src/kipu-bank-v2.sol\":15552:16089  for (uint256 i = 0; i < s_supportedTokens.length; i++) {... */\n      iszero\n      tag_322\n      jumpi\n        /* \"src/kipu-bank-v2.sol\":15622:15635  address token */\n      0x00\n        /* \"src/kipu-bank-v2.sol\":15638:15655  s_supportedTokens */\n      0x05\n        /* \"src/kipu-bank-v2.sol\":15656:15657  i */\n      dup3\n        /* \"src/kipu-bank-v2.sol\":15638:15658  s_supportedTokens[i] */\n      dup2\n      sload\n      dup2\n      lt\n      tag_324\n      jumpi\n      tag_325\n      tag_208\n      jump\t// in\n    tag_325:\n    tag_324:\n      swap1\n      0x00\n      mstore\n      keccak256(0x00, 0x20)\n      add\n      0x00\n      swap1\n      sload\n      swap1\n      0x0100\n      exp\n      swap1\n      div\n      0xffffffffffffffffffffffffffffffffffffffff\n      and\n        /* \"src/kipu-bank-v2.sol\":15622:15658  address token = s_supportedTokens[i] */\n      swap1\n      pop\n        /* \"src/kipu-bank-v2.sol\":15673:15697  uint256 normalizedAmount */\n      0x00\n        /* \"src/kipu-bank-v2.sol\":15700:15715  s_totalDeposits */\n      0x03\n        /* \"src/kipu-bank-v2.sol\":15700:15722  s_totalDeposits[token] */\n      0x00\n        /* \"src/kipu-bank-v2.sol\":15716:15721  token */\n      dup4\n        /* \"src/kipu-bank-v2.sol\":15700:15722  s_totalDeposits[token] */\n      0xffffffffffffffffffffffffffffffffffffffff\n      and\n      0xffffffffffffffffffffffffffffffffffffffff\n      and\n      dup2\n      mstore\n      0x20\n      add\n      swap1\n      dup2\n      mstore\n      0x20\n      add\n      0x00\n      keccak256\n      sload\n        /* \"src/kipu-bank-v2.sol\":15673:15722  uint256 normalizedAmount = s_totalDeposits[token] */\n      swap1\n      pop\n        /* \"src/kipu-bank-v2.sol\":15785:15786  0 */\n      0x00\n        /* \"src/kipu-bank-v2.sol\":15766:15782  normalizedAmount */\n      dup2\n        /* \"src/kipu-bank-v2.sol\":15766:15786  normalizedAmount > 0 */\n      gt\n        /* \"src/kipu-bank-v2.sol\":15762:16078  if (normalizedAmount > 0) {... */\n      iszero\n      tag_327\n      jumpi\n        /* \"src/kipu-bank-v2.sol\":15874:15894  uint256 nativeAmount */\n      0x00\n        /* \"src/kipu-bank-v2.sol\":15897:15942  _denormalizeFromUSDC(token, normalizedAmount) */\n      tag_328\n        /* \"src/kipu-bank-v2.sol\":15918:15923  token */\n      dup4\n        /* \"src/kipu-bank-v2.sol\":15925:15941  normalizedAmount */\n      dup4\n        /* \"src/kipu-bank-v2.sol\":15897:15917  _denormalizeFromUSDC */\n      tag_187\n        /* \"src/kipu-bank-v2.sol\":15897:15942  _denormalizeFromUSDC(token, normalizedAmount) */\n      jump\t// in\n    tag_328:\n        /* \"src/kipu-bank-v2.sol\":15874:15942  uint256 nativeAmount = _denormalizeFromUSDC(token, normalizedAmount) */\n      swap1\n      pop\n        /* \"src/kipu-bank-v2.sol\":16029:16062  _getUSDValue(token, nativeAmount) */\n      tag_329\n        /* \"src/kipu-bank-v2.sol\":16042:16047  token */\n      dup4\n        /* \"src/kipu-bank-v2.sol\":16049:16061  nativeAmount */\n      dup3\n        /* \"src/kipu-bank-v2.sol\":16029:16041  _getUSDValue */\n      tag_164\n        /* \"src/kipu-bank-v2.sol\":16029:16062  _getUSDValue(token, nativeAmount) */\n      jump\t// in\n    tag_329:\n        /* \"src/kipu-bank-v2.sol\":16017:16062  totalUSD += _getUSDValue(token, nativeAmount) */\n      dup6\n      tag_330\n      swap2\n      swap1\n      tag_168\n      jump\t// in\n    tag_330:\n      swap5\n      pop\n        /* \"src/kipu-bank-v2.sol\":15788:16078  {... */\n      pop\n        /* \"src/kipu-bank-v2.sol\":15762:16078  if (normalizedAmount > 0) {... */\n    tag_327:\n        /* \"src/kipu-bank-v2.sol\":15607:16089  {... */\n      pop\n      pop\n        /* \"src/kipu-bank-v2.sol\":15602:15605  i++ */\n      dup1\n      dup1\n      0x01\n      add\n      swap2\n      pop\n      pop\n        /* \"src/kipu-bank-v2.sol\":15552:16089  for (uint256 i = 0; i < s_supportedTokens.length; i++) {... */\n      jump(tag_321)\n    tag_322:\n      pop\n        /* \"src/kipu-bank-v2.sol\":16116:16124  totalUSD */\n      dup1\n        /* \"src/kipu-bank-v2.sol\":16109:16124  return totalUSD */\n      swap2\n      pop\n      pop\n        /* \"src/kipu-bank-v2.sol\":15437:16132  function _getTotalDepositsUSD() private view returns (uint256) {... */\n      swap1\n      jump\t// out\n        /* \"src/kipu-bank-v2.sol\":14864:15332  function _normalizeToUSDC(address token, uint256 amount) private view returns (uint256) {... */\n    tag_175:\n        /* \"src/kipu-bank-v2.sol\":14943:14950  uint256 */\n      0x00\n        /* \"src/kipu-bank-v2.sol\":14963:14982  uint8 tokenDecimals */\n      dup1\n        /* \"src/kipu-bank-v2.sol\":1899:1900  0 */\n      0x00\n        /* \"src/kipu-bank-v2.sol\":14985:15004  token == NATIVE_ETH */\n      0xffffffffffffffffffffffffffffffffffffffff\n      and\n        /* \"src/kipu-bank-v2.sol\":14985:14990  token */\n      dup5\n        /* \"src/kipu-bank-v2.sol\":14985:15004  token == NATIVE_ETH */\n      0xffffffffffffffffffffffffffffffffffffffff\n      and\n      eq\n        /* \"src/kipu-bank-v2.sol\":14985:15044  token == NATIVE_ETH ? 18 : IERC20Metadata(token).decimals() */\n      tag_332\n      jumpi\n        /* \"src/kipu-bank-v2.sol\":15027:15032  token */\n      dup4\n        /* \"src/kipu-bank-v2.sol\":15012:15042  IERC20Metadata(token).decimals */\n      0xffffffffffffffffffffffffffffffffffffffff\n      and\n      0x313ce567\n        /* \"src/kipu-bank-v2.sol\":15012:15044  IERC20Metadata(token).decimals() */\n      mload(0x40)\n      dup2\n      0xffffffff\n      and\n      0xe0\n      shl\n      dup2\n      mstore\n      0x04\n      add\n      0x20\n      mload(0x40)\n      dup1\n      dup4\n      sub\n      dup2\n      dup7\n      gas\n      staticcall\n      iszero\n      dup1\n      iszero\n      tag_334\n      jumpi\n      returndatasize\n      0x00\n      dup1\n      returndatacopy\n      revert(0x00, returndatasize)\n    tag_334:\n      pop\n      pop\n      pop\n      pop\n      mload(0x40)\n      returndatasize\n      not(0x1f)\n      0x1f\n      dup3\n      add\n      and\n      dup3\n      add\n      dup1\n      0x40\n      mstore\n      pop\n      dup2\n      add\n      swap1\n      tag_335\n      swap2\n      swap1\n      tag_305\n      jump\t// in\n    tag_335:\n        /* \"src/kipu-bank-v2.sol\":14985:15044  token == NATIVE_ETH ? 18 : IERC20Metadata(token).decimals() */\n      jump(tag_336)\n    tag_332:\n        /* \"src/kipu-bank-v2.sol\":15007:15009  18 */\n      0x12\n        /* \"src/kipu-bank-v2.sol\":14985:15044  token == NATIVE_ETH ? 18 : IERC20Metadata(token).decimals() */\n    tag_336:\n        /* \"src/kipu-bank-v2.sol\":14963:15044  uint8 tokenDecimals = token == NATIVE_ETH ? 18 : IERC20Metadata(token).decimals() */\n      swap1\n      pop\n        /* \"src/kipu-bank-v2.sol\":1596:1597  6 */\n      0x06\n        /* \"src/kipu-bank-v2.sol\":15069:15098  tokenDecimals > USDC_DECIMALS */\n      0xff\n      and\n        /* \"src/kipu-bank-v2.sol\":15069:15082  tokenDecimals */\n      dup2\n        /* \"src/kipu-bank-v2.sol\":15069:15098  tokenDecimals > USDC_DECIMALS */\n      0xff\n      and\n      gt\n        /* \"src/kipu-bank-v2.sol\":15065:15301  if (tokenDecimals > USDC_DECIMALS) {... */\n      iszero\n      tag_337\n      jumpi\n        /* \"src/kipu-bank-v2.sol\":1596:1597  6 */\n      0x06\n        /* \"src/kipu-bank-v2.sol\":15137:15150  tokenDecimals */\n      dup2\n        /* \"src/kipu-bank-v2.sol\":15137:15166  tokenDecimals - USDC_DECIMALS */\n      tag_338\n      swap2\n      swap1\n      tag_339\n      jump\t// in\n    tag_338:\n        /* \"src/kipu-bank-v2.sol\":15132:15134  10 */\n      0x0a\n        /* \"src/kipu-bank-v2.sol\":15132:15167  10**(tokenDecimals - USDC_DECIMALS) */\n      tag_340\n      swap2\n      swap1\n      tag_311\n      jump\t// in\n    tag_340:\n        /* \"src/kipu-bank-v2.sol\":15122:15128  amount */\n      dup4\n        /* \"src/kipu-bank-v2.sol\":15122:15168  amount / (10**(tokenDecimals - USDC_DECIMALS)) */\n      tag_341\n      swap2\n      swap1\n      tag_319\n      jump\t// in\n    tag_341:\n        /* \"src/kipu-bank-v2.sol\":15115:15168  return amount / (10**(tokenDecimals - USDC_DECIMALS)) */\n      swap2\n      pop\n      pop\n      jump(tag_331)\n        /* \"src/kipu-bank-v2.sol\":15065:15301  if (tokenDecimals > USDC_DECIMALS) {... */\n    tag_337:\n        /* \"src/kipu-bank-v2.sol\":1596:1597  6 */\n      0x06\n        /* \"src/kipu-bank-v2.sol\":15190:15219  tokenDecimals < USDC_DECIMALS */\n      0xff\n      and\n        /* \"src/kipu-bank-v2.sol\":15190:15203  tokenDecimals */\n      dup2\n        /* \"src/kipu-bank-v2.sol\":15190:15219  tokenDecimals < USDC_DECIMALS */\n      0xff\n      and\n      lt\n        /* \"src/kipu-bank-v2.sol\":15186:15301  if (tokenDecimals < USDC_DECIMALS) {... */\n      iszero\n      tag_343\n      jumpi\n        /* \"src/kipu-bank-v2.sol\":15274:15287  tokenDecimals */\n      dup1\n        /* \"src/kipu-bank-v2.sol\":1596:1597  6 */\n      0x06\n        /* \"src/kipu-bank-v2.sol\":15258:15287  USDC_DECIMALS - tokenDecimals */\n      tag_344\n      swap2\n      swap1\n      tag_339\n      jump\t// in\n    tag_344:\n        /* \"src/kipu-bank-v2.sol\":15253:15255  10 */\n      0x0a\n        /* \"src/kipu-bank-v2.sol\":15253:15288  10**(USDC_DECIMALS - tokenDecimals) */\n      tag_345\n      swap2\n      swap1\n      tag_311\n      jump\t// in\n    tag_345:\n        /* \"src/kipu-bank-v2.sol\":15243:15249  amount */\n      dup4\n        /* \"src/kipu-bank-v2.sol\":15243:15289  amount * (10**(USDC_DECIMALS - tokenDecimals)) */\n      tag_346\n      swap2\n      swap1\n      tag_314\n      jump\t// in\n    tag_346:\n        /* \"src/kipu-bank-v2.sol\":15236:15289  return amount * (10**(USDC_DECIMALS - tokenDecimals)) */\n      swap2\n      pop\n      pop\n      jump(tag_331)\n        /* \"src/kipu-bank-v2.sol\":15186:15301  if (tokenDecimals < USDC_DECIMALS) {... */\n    tag_343:\n        /* \"src/kipu-bank-v2.sol\":15318:15324  amount */\n      dup3\n        /* \"src/kipu-bank-v2.sol\":15311:15324  return amount */\n      swap2\n      pop\n      pop\n        /* \"src/kipu-bank-v2.sol\":14864:15332  function _normalizeToUSDC(address token, uint256 amount) private view returns (uint256) {... */\n    tag_331:\n      swap3\n      swap2\n      pop\n      pop\n      jump\t// out\n        /* \"@openzeppelin/contracts/utils/introspection/ERC165.sol\":730:876  function supportsInterface(bytes4 interfaceId) public view virtual returns (bool) {... */\n    tag_184:\n        /* \"@openzeppelin/contracts/utils/introspection/ERC165.sol\":806:810  bool */\n      0x00\n        /* \"@openzeppelin/contracts/utils/introspection/ERC165.sol\":844:869  type(IERC165).interfaceId */\n      0x01ffc9a700000000000000000000000000000000000000000000000000000000\n        /* \"@openzeppelin/contracts/utils/introspection/ERC165.sol\":829:869  interfaceId == type(IERC165).interfaceId */\n      not(0xffffffffffffffffffffffffffffffffffffffffffffffffffffffff)\n      and\n        /* \"@openzeppelin/contracts/utils/introspection/ERC165.sol\":829:840  interfaceId */\n      dup3\n        /* \"@openzeppelin/contracts/utils/introspection/ERC165.sol\":829:869  interfaceId == type(IERC165).interfaceId */\n      not(0xffffffffffffffffffffffffffffffffffffffffffffffffffffffff)\n      and\n      eq\n        /* \"@openzeppelin/contracts/utils/introspection/ERC165.sol\":822:869  return interfaceId == type(IERC165).interfaceId */\n      swap1\n      pop\n        /* \"@openzeppelin/contracts/utils/introspection/ERC165.sol\":730:876  function supportsInterface(bytes4 interfaceId) public view virtual returns (bool) {... */\n      swap2\n      swap1\n      pop\n      jump\t// out\n        /* \"src/kipu-bank-v2.sol\":16381:16929  function _denormalizeFromUSDC(address token, uint256 normalizedAmount) ... */\n    tag_187:\n        /* \"src/kipu-bank-v2.sol\":16504:16511  uint256 */\n      0x00\n        /* \"src/kipu-bank-v2.sol\":16530:16549  uint8 tokenDecimals */\n      dup1\n        /* \"src/kipu-bank-v2.sol\":1899:1900  0 */\n      0x00\n        /* \"src/kipu-bank-v2.sol\":16552:16571  token == NATIVE_ETH */\n      0xffffffffffffffffffffffffffffffffffffffff\n      and\n        /* \"src/kipu-bank-v2.sol\":16552:16557  token */\n      dup5\n        /* \"src/kipu-bank-v2.sol\":16552:16571  token == NATIVE_ETH */\n      0xffffffffffffffffffffffffffffffffffffffff\n      and\n      eq\n        /* \"src/kipu-bank-v2.sol\":16552:16611  token == NATIVE_ETH ? 18 : IERC20Metadata(token).decimals() */\n      tag_349\n      jumpi\n        /* \"src/kipu-bank-v2.sol\":16594:16599  token */\n      dup4\n        /* \"src/kipu-bank-v2.sol\":16579:16609  IERC20Metadata(token).decimals */\n      0xffffffffffffffffffffffffffffffffffffffff\n      and\n      0x313ce567\n        /* \"src/kipu-bank-v2.sol\":16579:16611  IERC20Metadata(token).decimals() */\n      mload(0x40)\n      dup2\n      0xffffffff\n      and\n      0xe0\n      shl\n      dup2\n      mstore\n      0x04\n      add\n      0x20\n      mload(0x40)\n      dup1\n      dup4\n      sub\n      dup2\n      dup7\n      gas\n      staticcall\n      iszero\n      dup1\n      iszero\n      tag_351\n      jumpi\n      returndatasize\n      0x00\n      dup1\n      returndatacopy\n      revert(0x00, returndatasize)\n    tag_351:\n      pop\n      pop\n      pop\n      pop\n      mload(0x40)\n      returndatasize\n      not(0x1f)\n      0x1f\n      dup3\n      add\n      and\n      dup3\n      add\n      dup1\n      0x40\n      mstore\n      pop\n      dup2\n      add\n      swap1\n      tag_352\n      swap2\n      swap1\n      tag_305\n      jump\t// in\n    tag_352:\n        /* \"src/kipu-bank-v2.sol\":16552:16611  token == NATIVE_ETH ? 18 : IERC20Metadata(token).decimals() */\n      jump(tag_353)\n    tag_349:\n        /* \"src/kipu-bank-v2.sol\":16574:16576  18 */\n      0x12\n        /* \"src/kipu-bank-v2.sol\":16552:16611  token == NATIVE_ETH ? 18 : IERC20Metadata(token).decimals() */\n    tag_353:\n        /* \"src/kipu-bank-v2.sol\":16530:16611  uint8 tokenDecimals = token == NATIVE_ETH ? 18 : IERC20Metadata(token).decimals() */\n      swap1\n      pop\n        /* \"src/kipu-bank-v2.sol\":1596:1597  6 */\n      0x06\n        /* \"src/kipu-bank-v2.sol\":16636:16665  tokenDecimals > USDC_DECIMALS */\n      0xff\n      and\n        /* \"src/kipu-bank-v2.sol\":16636:16649  tokenDecimals */\n      dup2\n        /* \"src/kipu-bank-v2.sol\":16636:16665  tokenDecimals > USDC_DECIMALS */\n      0xff\n      and\n      gt\n        /* \"src/kipu-bank-v2.sol\":16632:16888  if (tokenDecimals > USDC_DECIMALS) {... */\n      iszero\n      tag_354\n      jumpi\n        /* \"src/kipu-bank-v2.sol\":1596:1597  6 */\n      0x06\n        /* \"src/kipu-bank-v2.sol\":16714:16727  tokenDecimals */\n      dup2\n        /* \"src/kipu-bank-v2.sol\":16714:16743  tokenDecimals - USDC_DECIMALS */\n      tag_355\n      swap2\n      swap1\n      tag_339\n      jump\t// in\n    tag_355:\n        /* \"src/kipu-bank-v2.sol\":16709:16711  10 */\n      0x0a\n        /* \"src/kipu-bank-v2.sol\":16709:16744  10**(tokenDecimals - USDC_DECIMALS) */\n      tag_356\n      swap2\n      swap1\n      tag_311\n      jump\t// in\n    tag_356:\n        /* \"src/kipu-bank-v2.sol\":16689:16705  normalizedAmount */\n      dup4\n        /* \"src/kipu-bank-v2.sol\":16689:16745  normalizedAmount * (10**(tokenDecimals - USDC_DECIMALS)) */\n      tag_357\n      swap2\n      swap1\n      tag_314\n      jump\t// in\n    tag_357:\n        /* \"src/kipu-bank-v2.sol\":16682:16745  return normalizedAmount * (10**(tokenDecimals - USDC_DECIMALS)) */\n      swap2\n      pop\n      pop\n      jump(tag_348)\n        /* \"src/kipu-bank-v2.sol\":16632:16888  if (tokenDecimals > USDC_DECIMALS) {... */\n    tag_354:\n        /* \"src/kipu-bank-v2.sol\":1596:1597  6 */\n      0x06\n        /* \"src/kipu-bank-v2.sol\":16767:16796  tokenDecimals < USDC_DECIMALS */\n      0xff\n      and\n        /* \"src/kipu-bank-v2.sol\":16767:16780  tokenDecimals */\n      dup2\n        /* \"src/kipu-bank-v2.sol\":16767:16796  tokenDecimals < USDC_DECIMALS */\n      0xff\n      and\n      lt\n        /* \"src/kipu-bank-v2.sol\":16763:16888  if (tokenDecimals < USDC_DECIMALS) {... */\n      iszero\n      tag_359\n      jumpi\n        /* \"src/kipu-bank-v2.sol\":16861:16874  tokenDecimals */\n      dup1\n        /* \"src/kipu-bank-v2.sol\":1596:1597  6 */\n      0x06\n        /* \"src/kipu-bank-v2.sol\":16845:16874  USDC_DECIMALS - tokenDecimals */\n      tag_360\n      swap2\n      swap1\n      tag_339\n      jump\t// in\n    tag_360:\n        /* \"src/kipu-bank-v2.sol\":16840:16842  10 */\n      0x0a\n        /* \"src/kipu-bank-v2.sol\":16840:16875  10**(USDC_DECIMALS - tokenDecimals) */\n      tag_361\n      swap2\n      swap1\n      tag_311\n      jump\t// in\n    tag_361:\n        /* \"src/kipu-bank-v2.sol\":16820:16836  normalizedAmount */\n      dup4\n        /* \"src/kipu-bank-v2.sol\":16820:16876  normalizedAmount / (10**(USDC_DECIMALS - tokenDecimals)) */\n      tag_362\n      swap2\n      swap1\n      tag_319\n      jump\t// in\n    tag_362:\n        /* \"src/kipu-bank-v2.sol\":16813:16876  return normalizedAmount / (10**(USDC_DECIMALS - tokenDecimals)) */\n      swap2\n      pop\n      pop\n      jump(tag_348)\n        /* \"src/kipu-bank-v2.sol\":16763:16888  if (tokenDecimals < USDC_DECIMALS) {... */\n    tag_359:\n        /* \"src/kipu-bank-v2.sol\":16905:16921  normalizedAmount */\n      dup3\n        /* \"src/kipu-bank-v2.sol\":16898:16921  return normalizedAmount */\n      swap2\n      pop\n      pop\n        /* \"src/kipu-bank-v2.sol\":16381:16929  function _denormalizeFromUSDC(address token, uint256 normalizedAmount) ... */\n    tag_348:\n      swap3\n      swap2\n      pop\n      pop\n      jump\t// out\n        /* \"@openzeppelin/contracts/access/AccessControl.sol\":3175:3278  function _checkRole(bytes32 role) internal view virtual {... */\n    tag_196:\n        /* \"@openzeppelin/contracts/access/AccessControl.sol\":3241:3271  _checkRole(role, _msgSender()) */\n      tag_364\n        /* \"@openzeppelin/contracts/access/AccessControl.sol\":3252:3256  role */\n      dup2\n        /* \"@openzeppelin/contracts/access/AccessControl.sol\":3258:3270  _msgSender() */\n      tag_365\n        /* \"@openzeppelin/contracts/access/AccessControl.sol\":3258:3268  _msgSender */\n      tag_244\n        /* \"@openzeppelin/contracts/access/AccessControl.sol\":3258:3270  _msgSender() */\n      jump\t// in\n    tag_365:\n        /* \"@openzeppelin/contracts/access/AccessControl.sol\":3241:3251  _checkRole */\n      tag_366\n        /* \"@openzeppelin/contracts/access/AccessControl.sol\":3241:3271  _checkRole(role, _msgSender()) */\n      jump\t// in\n    tag_364:\n        /* \"@openzeppelin/contracts/access/AccessControl.sol\":3175:3278  function _checkRole(bytes32 role) internal view virtual {... */\n      pop\n      jump\t// out\n        /* \"@openzeppelin/contracts/access/AccessControl.sol\":6155:6471  function _grantRole(bytes32 role, address account) internal virtual returns (bool) {... */\n    tag_227:\n        /* \"@openzeppelin/contracts/access/AccessControl.sol\":6232:6236  bool */\n      0x00\n        /* \"@openzeppelin/contracts/access/AccessControl.sol\":6253:6275  hasRole(role, account) */\n      tag_368\n        /* \"@openzeppelin/contracts/access/AccessControl.sol\":6261:6265  role */\n      dup4\n        /* \"@openzeppelin/contracts/access/AccessControl.sol\":6267:6274  account */\n      dup4\n        /* \"@openzeppelin/contracts/access/AccessControl.sol\":6253:6260  hasRole */\n      tag_114\n        /* \"@openzeppelin/contracts/access/AccessControl.sol\":6253:6275  hasRole(role, account) */\n      jump\t// in\n    tag_368:\n        /* \"@openzeppelin/contracts/access/AccessControl.sol\":6248:6465  if (!hasRole(role, account)) {... */\n      tag_369\n      jumpi\n        /* \"@openzeppelin/contracts/access/AccessControl.sol\":6323:6327  true */\n      0x01\n        /* \"@openzeppelin/contracts/access/AccessControl.sol\":6291:6297  _roles */\n      0x00\n        /* \"@openzeppelin/contracts/access/AccessControl.sol\":6291:6303  _roles[role] */\n      dup1\n        /* \"@openzeppelin/contracts/access/AccessControl.sol\":6298:6302  role */\n      dup6\n        /* \"@openzeppelin/contracts/access/AccessControl.sol\":6291:6303  _roles[role] */\n      dup2\n      mstore\n      0x20\n      add\n      swap1\n      dup2\n      mstore\n      0x20\n      add\n      0x00\n      keccak256\n        /* \"@openzeppelin/contracts/access/AccessControl.sol\":6291:6311  _roles[role].hasRole */\n      0x00\n      add\n        /* \"@openzeppelin/contracts/access/AccessControl.sol\":6291:6320  _roles[role].hasRole[account] */\n      0x00\n        /* \"@openzeppelin/contracts/access/AccessControl.sol\":6312:6319  account */\n      dup5\n        /* \"@openzeppelin/contracts/access/AccessControl.sol\":6291:6320  _roles[role].hasRole[account] */\n      0xffffffffffffffffffffffffffffffffffffffff\n      and\n      0xffffffffffffffffffffffffffffffffffffffff\n      and\n      dup2\n      mstore\n      0x20\n      add\n      swap1\n      dup2\n      mstore\n      0x20\n      add\n      0x00\n      keccak256\n      0x00\n        /* \"@openzeppelin/contracts/access/AccessControl.sol\":6291:6327  _roles[role].hasRole[account] = true */\n      0x0100\n      exp\n      dup2\n      sload\n      dup2\n      0xff\n      mul\n      not\n      and\n      swap1\n      dup4\n      iszero\n      iszero\n      mul\n      or\n      swap1\n      sstore\n      pop\n        /* \"@openzeppelin/contracts/access/AccessControl.sol\":6373:6385  _msgSender() */\n      tag_370\n        /* \"@openzeppelin/contracts/access/AccessControl.sol\":6373:6383  _msgSender */\n      tag_244\n        /* \"@openzeppelin/contracts/access/AccessControl.sol\":6373:6385  _msgSender() */\n      jump\t// in\n    tag_370:\n        /* \"@openzeppelin/contracts/access/AccessControl.sol\":6346:6386  RoleGranted(role, account, _msgSender()) */\n      0xffffffffffffffffffffffffffffffffffffffff\n      and\n        /* \"@openzeppelin/contracts/access/AccessControl.sol\":6364:6371  account */\n      dup3\n        /* \"@openzeppelin/contracts/access/AccessControl.sol\":6346:6386  RoleGranted(role, account, _msgSender()) */\n      0xffffffffffffffffffffffffffffffffffffffff\n      and\n        /* \"@openzeppelin/contracts/access/AccessControl.sol\":6358:6362  role */\n      dup5\n        /* \"@openzeppelin/contracts/access/AccessControl.sol\":6346:6386  RoleGranted(role, account, _msgSender()) */\n      0x2f8788117e7eff1d82e926ec794901d17c78024a50270940304540a733656f0d\n      mload(0x40)\n      mload(0x40)\n      dup1\n      swap2\n      sub\n      swap1\n      log4\n        /* \"@openzeppelin/contracts/access/AccessControl.sol\":6407:6411  true */\n      0x01\n        /* \"@openzeppelin/contracts/access/AccessControl.sol\":6400:6411  return true */\n      swap1\n      pop\n      jump(tag_367)\n        /* \"@openzeppelin/contracts/access/AccessControl.sol\":6248:6465  if (!hasRole(role, account)) {... */\n    tag_369:\n        /* \"@openzeppelin/contracts/access/AccessControl.sol\":6449:6454  false */\n      0x00\n        /* \"@openzeppelin/contracts/access/AccessControl.sol\":6442:6454  return false */\n      swap1\n      pop\n        /* \"@openzeppelin/contracts/access/AccessControl.sol\":6155:6471  function _grantRole(bytes32 role, address account) internal virtual returns (bool) {... */\n    tag_367:\n      swap3\n      swap2\n      pop\n      pop\n      jump\t// out\n        /* \"@openzeppelin/contracts/utils/ReentrancyGuard.sol\":2575:2882  function _nonReentrantBefore() private {... */\n    tag_230:\n        /* \"@openzeppelin/contracts/utils/ReentrancyGuard.sol\":1899:1900  2 */\n      0x02\n        /* \"@openzeppelin/contracts/utils/ReentrancyGuard.sol\":2702:2709  _status */\n      sload(0x01)\n        /* \"@openzeppelin/contracts/utils/ReentrancyGuard.sol\":2702:2720  _status == ENTERED */\n      sub\n        /* \"@openzeppelin/contracts/utils/ReentrancyGuard.sol\":2698:2784  if (_status == ENTERED) {... */\n      tag_373\n      jumpi\n        /* \"@openzeppelin/contracts/utils/ReentrancyGuard.sol\":2743:2773  ReentrancyGuardReentrantCall() */\n      mload(0x40)\n      0x3ee5aeb500000000000000000000000000000000000000000000000000000000\n      dup2\n      mstore\n      0x04\n      add\n      mload(0x40)\n      dup1\n      swap2\n      sub\n      swap1\n      revert\n        /* \"@openzeppelin/contracts/utils/ReentrancyGuard.sol\":2698:2784  if (_status == ENTERED) {... */\n    tag_373:\n        /* \"@openzeppelin/contracts/utils/ReentrancyGuard.sol\":1899:1900  2 */\n      0x02\n        /* \"@openzeppelin/contracts/utils/ReentrancyGuard.sol\":2858:2865  _status */\n      0x01\n        /* \"@openzeppelin/contracts/utils/ReentrancyGuard.sol\":2858:2875  _status = ENTERED */\n      dup2\n      swap1\n      sstore\n      pop\n        /* \"@openzeppelin/contracts/utils/ReentrancyGuard.sol\":2575:2882  function _nonReentrantBefore() private {... */\n      jump\t// out\n        /* \"@openzeppelin/contracts/token/ERC20/utils/SafeERC20.sol\":1618:1806  function safeTransferFrom(IERC20 token, address from, address to, uint256 value) internal {... */\n    tag_238:\n        /* \"@openzeppelin/contracts/token/ERC20/utils/SafeERC20.sol\":1718:1799  _callOptionalReturn(token, abi.encodeCall(token.transferFrom, (from, to, value))) */\n      tag_375\n        /* \"@openzeppelin/contracts/token/ERC20/utils/SafeERC20.sol\":1738:1743  token */\n      dup5\n        /* \"@openzeppelin/contracts/token/ERC20/utils/SafeERC20.sol\":1760:1765  token */\n      dup6\n        /* \"@openzeppelin/contracts/token/ERC20/utils/SafeERC20.sol\":1760:1778  token.transferFrom */\n      0xffffffffffffffffffffffffffffffffffffffff\n      and\n      0x23b872dd\n        /* \"@openzeppelin/contracts/token/ERC20/utils/SafeERC20.sol\":1781:1785  from */\n      dup7\n        /* \"@openzeppelin/contracts/token/ERC20/utils/SafeERC20.sol\":1787:1789  to */\n      dup7\n        /* \"@openzeppelin/contracts/token/ERC20/utils/SafeERC20.sol\":1791:1796  value */\n      dup7\n        /* \"@openzeppelin/contracts/token/ERC20/utils/SafeERC20.sol\":1745:1798  abi.encodeCall(token.transferFrom, (from, to, value)) */\n      add(0x24, mload(0x40))\n      tag_376\n      swap4\n      swap3\n      swap2\n      swap1\n      tag_377\n      jump\t// in\n    tag_376:\n      mload(0x40)\n      0x20\n      dup2\n      dup4\n      sub\n      sub\n      dup2\n      mstore\n      swap1\n      0x40\n      mstore\n      swap2\n      pop\n      0xe0\n      shl\n      0x20\n      dup3\n      add\n      dup1\n      mload\n      0xffffffffffffffffffffffffffffffffffffffffffffffffffffffff\n      dup4\n      dup2\n      dup4\n      and\n      or\n      dup4\n      mstore\n      pop\n      pop\n      pop\n      pop\n        /* \"@openzeppelin/contracts/token/ERC20/utils/SafeERC20.sol\":1718:1737  _callOptionalReturn */\n      tag_378\n        /* \"@openzeppelin/contracts/token/ERC20/utils/SafeERC20.sol\":1718:1799  _callOptionalReturn(token, abi.encodeCall(token.transferFrom, (from, to, value))) */\n      jump\t// in\n    tag_375:\n        /* \"@openzeppelin/contracts/token/ERC20/utils/SafeERC20.sol\":1618:1806  function safeTransferFrom(IERC20 token, address from, address to, uint256 value) internal {... */\n      pop\n      pop\n      pop\n      pop\n      jump\t// out\n        /* \"@openzeppelin/contracts/utils/ReentrancyGuard.sol\":2888:3096  function _nonReentrantAfter() private {... */\n    tag_241:\n        /* \"@openzeppelin/contracts/utils/ReentrancyGuard.sol\":1857:1858  1 */\n      0x01\n        /* \"@openzeppelin/contracts/utils/ReentrancyGuard.sol\":3068:3075  _status */\n      dup1\n        /* \"@openzeppelin/contracts/utils/ReentrancyGuard.sol\":3068:3089  _status = NOT_ENTERED */\n      dup2\n      swap1\n      sstore\n      pop\n        /* \"@openzeppelin/contracts/utils/ReentrancyGuard.sol\":2888:3096  function _nonReentrantAfter() private {... */\n      jump\t// out\n        /* \"@openzeppelin/contracts/utils/Context.sol\":656:752  function _msgSender() internal view virtual returns (address) {... */\n    tag_244:\n        /* \"@openzeppelin/contracts/utils/Context.sol\":709:716  address */\n      0x00\n        /* \"@openzeppelin/contracts/utils/Context.sol\":735:745  msg.sender */\n      caller\n        /* \"@openzeppelin/contracts/utils/Context.sol\":728:745  return msg.sender */\n      swap1\n      pop\n        /* \"@openzeppelin/contracts/utils/Context.sol\":656:752  function _msgSender() internal view virtual returns (address) {... */\n      swap1\n      jump\t// out\n        /* \"@openzeppelin/contracts/access/AccessControl.sol\":6708:7025  function _revokeRole(bytes32 role, address account) internal virtual returns (bool) {... */\n    tag_247:\n        /* \"@openzeppelin/contracts/access/AccessControl.sol\":6786:6790  bool */\n      0x00\n        /* \"@openzeppelin/contracts/access/AccessControl.sol\":6806:6828  hasRole(role, account) */\n      tag_382\n        /* \"@openzeppelin/contracts/access/AccessControl.sol\":6814:6818  role */\n      dup4\n        /* \"@openzeppelin/contracts/access/AccessControl.sol\":6820:6827  account */\n      dup4\n        /* \"@openzeppelin/contracts/access/AccessControl.sol\":6806:6813  hasRole */\n      tag_114\n        /* \"@openzeppelin/contracts/access/AccessControl.sol\":6806:6828  hasRole(role, account) */\n      jump\t// in\n    tag_382:\n        /* \"@openzeppelin/contracts/access/AccessControl.sol\":6802:7019  if (hasRole(role, account)) {... */\n      iszero\n      tag_383\n      jumpi\n        /* \"@openzeppelin/contracts/access/AccessControl.sol\":6876:6881  false */\n      0x00\n        /* \"@openzeppelin/contracts/access/AccessControl.sol\":6844:6850  _roles */\n      dup1\n        /* \"@openzeppelin/contracts/access/AccessControl.sol\":6844:6856  _roles[role] */\n      0x00\n        /* \"@openzeppelin/contracts/access/AccessControl.sol\":6851:6855  role */\n      dup6\n        /* \"@openzeppelin/contracts/access/AccessControl.sol\":6844:6856  _roles[role] */\n      dup2\n      mstore\n      0x20\n      add\n      swap1\n      dup2\n      mstore\n      0x20\n      add\n      0x00\n      keccak256\n        /* \"@openzeppelin/contracts/access/AccessControl.sol\":6844:6864  _roles[role].hasRole */\n      0x00\n      add\n        /* \"@openzeppelin/contracts/access/AccessControl.sol\":6844:6873  _roles[role].hasRole[account] */\n      0x00\n        /* \"@openzeppelin/contracts/access/AccessControl.sol\":6865:6872  account */\n      dup5\n        /* \"@openzeppelin/contracts/access/AccessControl.sol\":6844:6873  _roles[role].hasRole[account] */\n      0xffffffffffffffffffffffffffffffffffffffff\n      and\n      0xffffffffffffffffffffffffffffffffffffffff\n      and\n      dup2\n      mstore\n      0x20\n      add\n      swap1\n      dup2\n      mstore\n      0x20\n      add\n      0x00\n      keccak256\n      0x00\n        /* \"@openzeppelin/contracts/access/AccessControl.sol\":6844:6881  _roles[role].hasRole[account] = false */\n      0x0100\n      exp\n      dup2\n      sload\n      dup2\n      0xff\n      mul\n      not\n      and\n      swap1\n      dup4\n      iszero\n      iszero\n      mul\n      or\n      swap1\n      sstore\n      pop\n        /* \"@openzeppelin/contracts/access/AccessControl.sol\":6927:6939  _msgSender() */\n      tag_384\n        /* \"@openzeppelin/contracts/access/AccessControl.sol\":6927:6937  _msgSender */\n      tag_244\n        /* \"@openzeppelin/contracts/access/AccessControl.sol\":6927:6939  _msgSender() */\n      jump\t// in\n    tag_384:\n        /* \"@openzeppelin/contracts/access/AccessControl.sol\":6900:6940  RoleRevoked(role, account, _msgSender()) */\n      0xffffffffffffffffffffffffffffffffffffffff\n      and\n        /* \"@openzeppelin/contracts/access/AccessControl.sol\":6918:6925  account */\n      dup3\n        /* \"@openzeppelin/contracts/access/AccessControl.sol\":6900:6940  RoleRevoked(role, account, _msgSender()) */\n      0xffffffffffffffffffffffffffffffffffffffff\n      and\n        /* \"@openzeppelin/contracts/access/AccessControl.sol\":6912:6916  role */\n      dup5\n        /* \"@openzeppelin/contracts/access/AccessControl.sol\":6900:6940  RoleRevoked(role, account, _msgSender()) */\n      0xf6391f5c32d9c69d2a47ea670b442974b53935d1edc7fd64eb21e047a839171b\n      mload(0x40)\n      mload(0x40)\n      dup1\n      swap2\n      sub\n      swap1\n      log4\n        /* \"@openzeppelin/contracts/access/AccessControl.sol\":6961:6965  true */\n      0x01\n        /* \"@openzeppelin/contracts/access/AccessControl.sol\":6954:6965  return true */\n      swap1\n      pop\n      jump(tag_381)\n        /* \"@openzeppelin/contracts/access/AccessControl.sol\":6802:7019  if (hasRole(role, account)) {... */\n    tag_383:\n        /* \"@openzeppelin/contracts/access/AccessControl.sol\":7003:7008  false */\n      0x00\n        /* \"@openzeppelin/contracts/access/AccessControl.sol\":6996:7008  return false */\n      swap1\n      pop\n        /* \"@openzeppelin/contracts/access/AccessControl.sol\":6708:7025  function _revokeRole(bytes32 role, address account) internal virtual returns (bool) {... */\n    tag_381:\n      swap3\n      swap2\n      pop\n      pop\n      jump\t// out\n        /* \"src/kipu-bank-v2.sol\":12256:13419  function _withdraw(address token, uint256 amount) private {... */\n    tag_268:\n        /* \"src/kipu-bank-v2.sol\":12344:12368  uint256 normalizedAmount */\n      0x00\n        /* \"src/kipu-bank-v2.sol\":12371:12402  _normalizeToUSDC(token, amount) */\n      tag_387\n        /* \"src/kipu-bank-v2.sol\":12388:12393  token */\n      dup4\n        /* \"src/kipu-bank-v2.sol\":12395:12401  amount */\n      dup4\n        /* \"src/kipu-bank-v2.sol\":12371:12387  _normalizeToUSDC */\n      tag_175\n        /* \"src/kipu-bank-v2.sol\":12371:12402  _normalizeToUSDC(token, amount) */\n      jump\t// in\n    tag_387:\n        /* \"src/kipu-bank-v2.sol\":12344:12402  uint256 normalizedAmount = _normalizeToUSDC(token, amount) */\n      swap1\n      pop\n        /* \"src/kipu-bank-v2.sol\":12413:12432  uint256 userBalance */\n      0x00\n        /* \"src/kipu-bank-v2.sol\":12435:12445  s_deposits */\n      0x02\n        /* \"src/kipu-bank-v2.sol\":12435:12457  s_deposits[msg.sender] */\n      0x00\n        /* \"src/kipu-bank-v2.sol\":12446:12456  msg.sender */\n      caller\n        /* \"src/kipu-bank-v2.sol\":12435:12457  s_deposits[msg.sender] */\n      0xffffffffffffffffffffffffffffffffffffffff\n      and\n      0xffffffffffffffffffffffffffffffffffffffff\n      and\n      dup2\n      mstore\n      0x20\n      add\n      swap1\n      dup2\n      mstore\n      0x20\n      add\n      0x00\n      keccak256\n        /* \"src/kipu-bank-v2.sol\":12435:12464  s_deposits[msg.sender][token] */\n      0x00\n        /* \"src/kipu-bank-v2.sol\":12458:12463  token */\n      dup6\n        /* \"src/kipu-bank-v2.sol\":12435:12464  s_deposits[msg.sender][token] */\n      0xffffffffffffffffffffffffffffffffffffffff\n      and\n      0xffffffffffffffffffffffffffffffffffffffff\n      and\n      dup2\n      mstore\n      0x20\n      add\n      swap1\n      dup2\n      mstore\n      0x20\n      add\n      0x00\n      keccak256\n      sload\n        /* \"src/kipu-bank-v2.sol\":12413:12464  uint256 userBalance = s_deposits[msg.sender][token] */\n      swap1\n      pop\n        /* \"src/kipu-bank-v2.sol\":12508:12519  userBalance */\n      dup1\n        /* \"src/kipu-bank-v2.sol\":12489:12505  normalizedAmount */\n      dup3\n        /* \"src/kipu-bank-v2.sol\":12489:12519  normalizedAmount > userBalance */\n      gt\n        /* \"src/kipu-bank-v2.sol\":12485:12615  if (normalizedAmount > userBalance) {... */\n      iszero\n      tag_388\n      jumpi\n        /* \"src/kipu-bank-v2.sol\":12573:12589  normalizedAmount */\n      dup2\n        /* \"src/kipu-bank-v2.sol\":12591:12602  userBalance */\n      dup2\n        /* \"src/kipu-bank-v2.sol\":12543:12603  KipuBank__InsufficientBalance(normalizedAmount, userBalance) */\n      mload(0x40)\n      0x61965c4e00000000000000000000000000000000000000000000000000000000\n      dup2\n      mstore\n      0x04\n      add\n      tag_389\n      swap3\n      swap2\n      swap1\n      tag_173\n      jump\t// in\n    tag_389:\n      mload(0x40)\n      dup1\n      swap2\n      sub\n      swap1\n      revert\n        /* \"src/kipu-bank-v2.sol\":12485:12615  if (normalizedAmount > userBalance) {... */\n    tag_388:\n        /* \"src/kipu-bank-v2.sol\":12627:12643  uint256 usdValue */\n      0x00\n        /* \"src/kipu-bank-v2.sol\":12646:12673  _getUSDValue(token, amount) */\n      tag_390\n        /* \"src/kipu-bank-v2.sol\":12659:12664  token */\n      dup6\n        /* \"src/kipu-bank-v2.sol\":12666:12672  amount */\n      dup6\n        /* \"src/kipu-bank-v2.sol\":12646:12658  _getUSDValue */\n      tag_164\n        /* \"src/kipu-bank-v2.sol\":12646:12673  _getUSDValue(token, amount) */\n      jump\t// in\n    tag_390:\n        /* \"src/kipu-bank-v2.sol\":12627:12673  uint256 usdValue = _getUSDValue(token, amount) */\n      swap1\n      pop\n        /* \"src/kipu-bank-v2.sol\":12710:12734  i_withdrawalThresholdUSD */\n      immutable(\"0xf586532c52cafa07782ab6085737addf284f0cc1dede3aa9b2bdba9d5551b7a5\")\n        /* \"src/kipu-bank-v2.sol\":12699:12707  usdValue */\n      dup2\n        /* \"src/kipu-bank-v2.sol\":12699:12734  usdValue > i_withdrawalThresholdUSD */\n      gt\n        /* \"src/kipu-bank-v2.sol\":12695:12892  if (usdValue > i_withdrawalThresholdUSD) {... */\n      iszero\n      tag_391\n      jumpi\n        /* \"src/kipu-bank-v2.sol\":12814:12822  usdValue */\n      dup1\n        /* \"src/kipu-bank-v2.sol\":12841:12865  i_withdrawalThresholdUSD */\n      immutable(\"0xf586532c52cafa07782ab6085737addf284f0cc1dede3aa9b2bdba9d5551b7a5\")\n        /* \"src/kipu-bank-v2.sol\":12758:12880  KipuBank__WithdrawalThresholdExceeded(... */\n      mload(0x40)\n      0x2d05fcba00000000000000000000000000000000000000000000000000000000\n      dup2\n      mstore\n      0x04\n      add\n      tag_392\n      swap3\n      swap2\n      swap1\n      tag_173\n      jump\t// in\n    tag_392:\n      mload(0x40)\n      dup1\n      swap2\n      sub\n      swap1\n      revert\n        /* \"src/kipu-bank-v2.sol\":12695:12892  if (usdValue > i_withdrawalThresholdUSD) {... */\n    tag_391:\n        /* \"src/kipu-bank-v2.sol\":12957:12973  normalizedAmount */\n      dup3\n        /* \"src/kipu-bank-v2.sol\":12924:12934  s_deposits */\n      0x02\n        /* \"src/kipu-bank-v2.sol\":12924:12946  s_deposits[msg.sender] */\n      0x00\n        /* \"src/kipu-bank-v2.sol\":12935:12945  msg.sender */\n      caller\n        /* \"src/kipu-bank-v2.sol\":12924:12946  s_deposits[msg.sender] */\n      0xffffffffffffffffffffffffffffffffffffffff\n      and\n      0xffffffffffffffffffffffffffffffffffffffff\n      and\n      dup2\n      mstore\n      0x20\n      add\n      swap1\n      dup2\n      mstore\n      0x20\n      add\n      0x00\n      keccak256\n        /* \"src/kipu-bank-v2.sol\":12924:12953  s_deposits[msg.sender][token] */\n      0x00\n        /* \"src/kipu-bank-v2.sol\":12947:12952  token */\n      dup8\n        /* \"src/kipu-bank-v2.sol\":12924:12953  s_deposits[msg.sender][token] */\n      0xffffffffffffffffffffffffffffffffffffffff\n      and\n      0xffffffffffffffffffffffffffffffffffffffff\n      and\n      dup2\n      mstore\n      0x20\n      add\n      swap1\n      dup2\n      mstore\n      0x20\n      add\n      0x00\n      keccak256\n      0x00\n        /* \"src/kipu-bank-v2.sol\":12924:12973  s_deposits[msg.sender][token] -= normalizedAmount */\n      dup3\n      dup3\n      sload\n      tag_393\n      swap2\n      swap1\n      tag_171\n      jump\t// in\n    tag_393:\n      swap3\n      pop\n      pop\n      dup2\n      swap1\n      sstore\n      pop\n        /* \"src/kipu-bank-v2.sol\":13010:13026  normalizedAmount */\n      dup3\n        /* \"src/kipu-bank-v2.sol\":12984:12999  s_totalDeposits */\n      0x03\n        /* \"src/kipu-bank-v2.sol\":12984:13006  s_totalDeposits[token] */\n      0x00\n        /* \"src/kipu-bank-v2.sol\":13000:13005  token */\n      dup8\n        /* \"src/kipu-bank-v2.sol\":12984:13006  s_totalDeposits[token] */\n      0xffffffffffffffffffffffffffffffffffffffff\n      and\n      0xffffffffffffffffffffffffffffffffffffffff\n      and\n      dup2\n      mstore\n      0x20\n      add\n      swap1\n      dup2\n      mstore\n      0x20\n      add\n      0x00\n      keccak256\n      0x00\n        /* \"src/kipu-bank-v2.sol\":12984:13026  s_totalDeposits[token] -= normalizedAmount */\n      dup3\n      dup3\n      sload\n      tag_394\n      swap2\n      swap1\n      tag_171\n      jump\t// in\n    tag_394:\n      swap3\n      pop\n      pop\n      dup2\n      swap1\n      sstore\n      pop\n        /* \"src/kipu-bank-v2.sol\":13037:13054  s_withdrawalCount */\n      0x07\n      0x00\n        /* \"src/kipu-bank-v2.sol\":13037:13056  s_withdrawalCount++ */\n      dup2\n      sload\n      dup1\n      swap3\n      swap2\n      swap1\n      tag_395\n      swap1\n      tag_179\n      jump\t// in\n    tag_395:\n      swap2\n      swap1\n      pop\n      sstore\n      pop\n        /* \"src/kipu-bank-v2.sol\":1899:1900  0 */\n      0x00\n        /* \"src/kipu-bank-v2.sol\":13098:13117  token == NATIVE_ETH */\n      0xffffffffffffffffffffffffffffffffffffffff\n      and\n        /* \"src/kipu-bank-v2.sol\":13098:13103  token */\n      dup6\n        /* \"src/kipu-bank-v2.sol\":13098:13117  token == NATIVE_ETH */\n      0xffffffffffffffffffffffffffffffffffffffff\n      and\n      sub\n        /* \"src/kipu-bank-v2.sol\":13094:13343  if (token == NATIVE_ETH) {... */\n      tag_396\n      jumpi\n        /* \"src/kipu-bank-v2.sol\":13135:13147  bool success */\n      0x00\n        /* \"src/kipu-bank-v2.sol\":13153:13163  msg.sender */\n      caller\n        /* \"src/kipu-bank-v2.sol\":13153:13168  msg.sender.call */\n      0xffffffffffffffffffffffffffffffffffffffff\n      and\n        /* \"src/kipu-bank-v2.sol\":13176:13182  amount */\n      dup6\n        /* \"src/kipu-bank-v2.sol\":13153:13187  msg.sender.call{value: amount}(\"\") */\n      mload(0x40)\n      tag_397\n      swap1\n      tag_398\n      jump\t// in\n    tag_397:\n      0x00\n      mload(0x40)\n      dup1\n      dup4\n      sub\n      dup2\n      dup6\n      dup8\n      gas\n      call\n      swap3\n      pop\n      pop\n      pop\n      returndatasize\n      dup1\n      0x00\n      dup2\n      eq\n      tag_401\n      jumpi\n      mload(0x40)\n      swap2\n      pop\n      and(add(returndatasize, 0x3f), not(0x1f))\n      dup3\n      add\n      0x40\n      mstore\n      returndatasize\n      dup3\n      mstore\n      returndatasize\n      0x00\n      0x20\n      dup5\n      add\n      returndatacopy\n      jump(tag_400)\n    tag_401:\n      0x60\n      swap2\n      pop\n    tag_400:\n      pop\n        /* \"src/kipu-bank-v2.sol\":13134:13187  (bool success, ) = msg.sender.call{value: amount}(\"\") */\n      pop\n      swap1\n      pop\n        /* \"src/kipu-bank-v2.sol\":13207:13214  success */\n      dup1\n        /* \"src/kipu-bank-v2.sol\":13202:13252  if (!success) revert KipuBank__ETHTransferFailed() */\n      tag_402\n      jumpi\n        /* \"src/kipu-bank-v2.sol\":13223:13252  KipuBank__ETHTransferFailed() */\n      mload(0x40)\n      0xe35d8600000000000000000000000000000000000000000000000000000000\n      dup2\n      mstore\n      0x04\n      add\n      mload(0x40)\n      dup1\n      swap2\n      sub\n      swap1\n      revert\n        /* \"src/kipu-bank-v2.sol\":13202:13252  if (!success) revert KipuBank__ETHTransferFailed() */\n    tag_402:\n        /* \"src/kipu-bank-v2.sol\":13119:13264  {... */\n      pop\n        /* \"src/kipu-bank-v2.sol\":13094:13343  if (token == NATIVE_ETH) {... */\n      jump(tag_403)\n    tag_396:\n        /* \"src/kipu-bank-v2.sol\":13285:13331  IERC20(token).safeTransfer(msg.sender, amount) */\n      tag_404\n        /* \"src/kipu-bank-v2.sol\":13312:13322  msg.sender */\n      caller\n        /* \"src/kipu-bank-v2.sol\":13324:13330  amount */\n      dup6\n        /* \"src/kipu-bank-v2.sol\":13292:13297  token */\n      dup8\n        /* \"src/kipu-bank-v2.sol\":13285:13311  IERC20(token).safeTransfer */\n      0xffffffffffffffffffffffffffffffffffffffff\n      and\n      tag_405\n      swap1\n        /* \"src/kipu-bank-v2.sol\":13285:13331  IERC20(token).safeTransfer(msg.sender, amount) */\n      swap3\n      swap2\n      swap1\n      0xffffffff\n      and\n      jump\t// in\n    tag_404:\n        /* \"src/kipu-bank-v2.sol\":13094:13343  if (token == NATIVE_ETH) {... */\n    tag_403:\n        /* \"src/kipu-bank-v2.sol\":13387:13392  token */\n      dup5\n        /* \"src/kipu-bank-v2.sol\":13360:13411  WithdrawalMade(msg.sender, token, amount, usdValue) */\n      0xffffffffffffffffffffffffffffffffffffffff\n      and\n        /* \"src/kipu-bank-v2.sol\":13375:13385  msg.sender */\n      caller\n        /* \"src/kipu-bank-v2.sol\":13360:13411  WithdrawalMade(msg.sender, token, amount, usdValue) */\n      0xffffffffffffffffffffffffffffffffffffffff\n      and\n      0xde1d532173c6de1e3937c7af1cb92745c738980729f53ac451a725f929f3b798\n        /* \"src/kipu-bank-v2.sol\":13394:13400  amount */\n      dup7\n        /* \"src/kipu-bank-v2.sol\":13402:13410  usdValue */\n      dup5\n        /* \"src/kipu-bank-v2.sol\":13360:13411  WithdrawalMade(msg.sender, token, amount, usdValue) */\n      mload(0x40)\n      tag_406\n      swap3\n      swap2\n      swap1\n      tag_173\n      jump\t// in\n    tag_406:\n      mload(0x40)\n      dup1\n      swap2\n      sub\n      swap1\n      log3\n        /* \"src/kipu-bank-v2.sol\":12314:13419  {... */\n      pop\n      pop\n      pop\n        /* \"src/kipu-bank-v2.sol\":12256:13419  function _withdraw(address token, uint256 amount) private {... */\n      pop\n      pop\n      jump\t// out\n        /* \"@openzeppelin/contracts/access/AccessControl.sol\":3408:3605  function _checkRole(bytes32 role, address account) internal view virtual {... */\n    tag_366:\n        /* \"@openzeppelin/contracts/access/AccessControl.sol\":3496:3518  hasRole(role, account) */\n      tag_408\n        /* \"@openzeppelin/contracts/access/AccessControl.sol\":3504:3508  role */\n      dup3\n        /* \"@openzeppelin/contracts/access/AccessControl.sol\":3510:3517  account */\n      dup3\n        /* \"@openzeppelin/contracts/access/AccessControl.sol\":3496:3503  hasRole */\n      tag_114\n        /* \"@openzeppelin/contracts/access/AccessControl.sol\":3496:3518  hasRole(role, account) */\n      jump\t// in\n    tag_408:\n        /* \"@openzeppelin/contracts/access/AccessControl.sol\":3491:3599  if (!hasRole(role, account)) {... */\n      tag_409\n      jumpi\n        /* \"@openzeppelin/contracts/access/AccessControl.sol\":3574:3581  account */\n      dup1\n        /* \"@openzeppelin/contracts/access/AccessControl.sol\":3583:3587  role */\n      dup3\n        /* \"@openzeppelin/contracts/access/AccessControl.sol\":3541:3588  AccessControlUnauthorizedAccount(account, role) */\n      mload(0x40)\n      0xe2517d3f00000000000000000000000000000000000000000000000000000000\n      dup2\n      mstore\n      0x04\n      add\n      tag_410\n      swap3\n      swap2\n      swap1\n      tag_411\n      jump\t// in\n    tag_410:\n      mload(0x40)\n      dup1\n      swap2\n      sub\n      swap1\n      revert\n        /* \"@openzeppelin/contracts/access/AccessControl.sol\":3491:3599  if (!hasRole(role, account)) {... */\n    tag_409:\n        /* \"@openzeppelin/contracts/access/AccessControl.sol\":3408:3605  function _checkRole(bytes32 role, address account) internal view virtual {... */\n      pop\n      pop\n      jump\t// out\n        /* \"@openzeppelin/contracts/token/ERC20/utils/SafeERC20.sol\":8370:9090  function _callOptionalReturn(IERC20 token, bytes memory data) private {... */\n    tag_378:\n        /* \"@openzeppelin/contracts/token/ERC20/utils/SafeERC20.sol\":8450:8468  uint256 returnSize */\n      0x00\n        /* \"@openzeppelin/contracts/token/ERC20/utils/SafeERC20.sol\":8478:8497  uint256 returnValue */\n      dup1\n        /* \"@openzeppelin/contracts/token/ERC20/utils/SafeERC20.sol\":8616:8620  0x20 */\n      0x20\n        /* \"@openzeppelin/contracts/token/ERC20/utils/SafeERC20.sol\":8613:8614  0 */\n      0x00\n        /* \"@openzeppelin/contracts/token/ERC20/utils/SafeERC20.sol\":8606:8610  data */\n      dup5\n        /* \"@openzeppelin/contracts/token/ERC20/utils/SafeERC20.sol\":8600:8611  mload(data) */\n      mload\n        /* \"@openzeppelin/contracts/token/ERC20/utils/SafeERC20.sol\":8593:8597  0x20 */\n      0x20\n        /* \"@openzeppelin/contracts/token/ERC20/utils/SafeERC20.sol\":8587:8591  data */\n      dup7\n        /* \"@openzeppelin/contracts/token/ERC20/utils/SafeERC20.sol\":8583:8598  add(data, 0x20) */\n      add\n        /* \"@openzeppelin/contracts/token/ERC20/utils/SafeERC20.sol\":8580:8581  0 */\n      0x00\n        /* \"@openzeppelin/contracts/token/ERC20/utils/SafeERC20.sol\":8573:8578  token */\n      dup9\n        /* \"@openzeppelin/contracts/token/ERC20/utils/SafeERC20.sol\":8566:8571  gas() */\n      gas\n        /* \"@openzeppelin/contracts/token/ERC20/utils/SafeERC20.sol\":8561:8621  call(gas(), token, 0, add(data, 0x20), mload(data), 0, 0x20) */\n      call\n        /* \"@openzeppelin/contracts/token/ERC20/utils/SafeERC20.sol\":8673:8680  success */\n      dup1\n        /* \"@openzeppelin/contracts/token/ERC20/utils/SafeERC20.sol\":8663:8839  if iszero(success) {... */\n      tag_413\n      jumpi\n        /* \"@openzeppelin/contracts/token/ERC20/utils/SafeERC20.sol\":8717:8721  0x40 */\n      0x40\n        /* \"@openzeppelin/contracts/token/ERC20/utils/SafeERC20.sol\":8711:8722  mload(0x40) */\n      mload\n        /* \"@openzeppelin/contracts/token/ERC20/utils/SafeERC20.sol\":8762:8778  returndatasize() */\n      returndatasize\n        /* \"@openzeppelin/contracts/token/ERC20/utils/SafeERC20.sol\":8759:8760  0 */\n      0x00\n        /* \"@openzeppelin/contracts/token/ERC20/utils/SafeERC20.sol\":8754:8757  ptr */\n      dup3\n        /* \"@openzeppelin/contracts/token/ERC20/utils/SafeERC20.sol\":8739:8779  returndatacopy(ptr, 0, returndatasize()) */\n      returndatacopy\n        /* \"@openzeppelin/contracts/token/ERC20/utils/SafeERC20.sol\":8808:8824  returndatasize() */\n      returndatasize\n        /* \"@openzeppelin/contracts/token/ERC20/utils/SafeERC20.sol\":8803:8806  ptr */\n      dup2\n        /* \"@openzeppelin/contracts/token/ERC20/utils/SafeERC20.sol\":8796:8825  revert(ptr, returndatasize()) */\n      revert\n        /* \"@openzeppelin/contracts/token/ERC20/utils/SafeERC20.sol\":8663:8839  if iszero(success) {... */\n    tag_413:\n        /* \"@openzeppelin/contracts/token/ERC20/utils/SafeERC20.sol\":8866:8882  returndatasize() */\n      returndatasize\n        /* \"@openzeppelin/contracts/token/ERC20/utils/SafeERC20.sol\":8852:8882  returnSize := returndatasize() */\n      swap3\n      pop\n        /* \"@openzeppelin/contracts/token/ERC20/utils/SafeERC20.sol\":8916:8917  0 */\n      0x00\n        /* \"@openzeppelin/contracts/token/ERC20/utils/SafeERC20.sol\":8910:8918  mload(0) */\n      mload\n        /* \"@openzeppelin/contracts/token/ERC20/utils/SafeERC20.sol\":8895:8918  returnValue := mload(0) */\n      swap2\n      pop\n        /* \"@openzeppelin/contracts/token/ERC20/utils/SafeERC20.sol\":8532:8928  {... */\n      pop\n        /* \"@openzeppelin/contracts/token/ERC20/utils/SafeERC20.sol\":8956:8957  0 */\n      0x00\n        /* \"@openzeppelin/contracts/token/ERC20/utils/SafeERC20.sol\":8942:8952  returnSize */\n      dup3\n        /* \"@openzeppelin/contracts/token/ERC20/utils/SafeERC20.sol\":8942:8957  returnSize == 0 */\n      eq\n        /* \"@openzeppelin/contracts/token/ERC20/utils/SafeERC20.sol\":8942:9010  returnSize == 0 ? address(token).code.length == 0 : returnValue != 1 */\n      tag_414\n      jumpi\n        /* \"@openzeppelin/contracts/token/ERC20/utils/SafeERC20.sol\":9009:9010  1 */\n      0x01\n        /* \"@openzeppelin/contracts/token/ERC20/utils/SafeERC20.sol\":8994:9005  returnValue */\n      dup2\n        /* \"@openzeppelin/contracts/token/ERC20/utils/SafeERC20.sol\":8994:9010  returnValue != 1 */\n      eq\n      iszero\n        /* \"@openzeppelin/contracts/token/ERC20/utils/SafeERC20.sol\":8942:9010  returnSize == 0 ? address(token).code.length == 0 : returnValue != 1 */\n      jump(tag_415)\n    tag_414:\n        /* \"@openzeppelin/contracts/token/ERC20/utils/SafeERC20.sol\":8990:8991  0 */\n      0x00\n        /* \"@openzeppelin/contracts/token/ERC20/utils/SafeERC20.sol\":8968:8973  token */\n      dup5\n        /* \"@openzeppelin/contracts/token/ERC20/utils/SafeERC20.sol\":8960:8986  address(token).code.length */\n      0xffffffffffffffffffffffffffffffffffffffff\n      and\n      extcodesize\n        /* \"@openzeppelin/contracts/token/ERC20/utils/SafeERC20.sol\":8960:8991  address(token).code.length == 0 */\n      eq\n        /* \"@openzeppelin/contracts/token/ERC20/utils/SafeERC20.sol\":8942:9010  returnSize == 0 ? address(token).code.length == 0 : returnValue != 1 */\n    tag_415:\n        /* \"@openzeppelin/contracts/token/ERC20/utils/SafeERC20.sol\":8938:9084  if (returnSize == 0 ? address(token).code.length == 0 : returnValue != 1) {... */\n      iszero\n      tag_416\n      jumpi\n        /* \"@openzeppelin/contracts/token/ERC20/utils/SafeERC20.sol\":9066:9071  token */\n      dup4\n        /* \"@openzeppelin/contracts/token/ERC20/utils/SafeERC20.sol\":9033:9073  SafeERC20FailedOperation(address(token)) */\n      mload(0x40)\n      0x5274afe700000000000000000000000000000000000000000000000000000000\n      dup2\n      mstore\n      0x04\n      add\n      tag_417\n      swap2\n      swap1\n      tag_92\n      jump\t// in\n    tag_417:\n      mload(0x40)\n      dup1\n      swap2\n      sub\n      swap1\n      revert\n        /* \"@openzeppelin/contracts/token/ERC20/utils/SafeERC20.sol\":8938:9084  if (returnSize == 0 ? address(token).code.length == 0 : returnValue != 1) {... */\n    tag_416:\n        /* \"@openzeppelin/contracts/token/ERC20/utils/SafeERC20.sol\":8440:9090  {... */\n      pop\n      pop\n        /* \"@openzeppelin/contracts/token/ERC20/utils/SafeERC20.sol\":8370:9090  function _callOptionalReturn(IERC20 token, bytes memory data) private {... */\n      pop\n      pop\n      jump\t// out\n        /* \"@openzeppelin/contracts/token/ERC20/utils/SafeERC20.sol\":1219:1379  function safeTransfer(IERC20 token, address to, uint256 value) internal {... */\n    tag_405:\n        /* \"@openzeppelin/contracts/token/ERC20/utils/SafeERC20.sol\":1301:1372  _callOptionalReturn(token, abi.encodeCall(token.transfer, (to, value))) */\n      tag_419\n        /* \"@openzeppelin/contracts/token/ERC20/utils/SafeERC20.sol\":1321:1326  token */\n      dup4\n        /* \"@openzeppelin/contracts/token/ERC20/utils/SafeERC20.sol\":1343:1348  token */\n      dup5\n        /* \"@openzeppelin/contracts/token/ERC20/utils/SafeERC20.sol\":1343:1357  token.transfer */\n      0xffffffffffffffffffffffffffffffffffffffff\n      and\n      0xa9059cbb\n        /* \"@openzeppelin/contracts/token/ERC20/utils/SafeERC20.sol\":1360:1362  to */\n      dup6\n        /* \"@openzeppelin/contracts/token/ERC20/utils/SafeERC20.sol\":1364:1369  value */\n      dup6\n        /* \"@openzeppelin/contracts/token/ERC20/utils/SafeERC20.sol\":1328:1371  abi.encodeCall(token.transfer, (to, value)) */\n      add(0x24, mload(0x40))\n      tag_420\n      swap3\n      swap2\n      swap1\n      tag_421\n      jump\t// in\n    tag_420:\n      mload(0x40)\n      0x20\n      dup2\n      dup4\n      sub\n      sub\n      dup2\n      mstore\n      swap1\n      0x40\n      mstore\n      swap2\n      pop\n      0xe0\n      shl\n      0x20\n      dup3\n      add\n      dup1\n      mload\n      0xffffffffffffffffffffffffffffffffffffffffffffffffffffffff\n      dup4\n      dup2\n      dup4\n      and\n      or\n      dup4\n      mstore\n      pop\n      pop\n      pop\n      pop\n        /* \"@openzeppelin/contracts/token/ERC20/utils/SafeERC20.sol\":1301:1320  _callOptionalReturn */\n      tag_378\n        /* \"@openzeppelin/contracts/token/ERC20/utils/SafeERC20.sol\":1301:1372  _callOptionalReturn(token, abi.encodeCall(token.transfer, (to, value))) */\n      jump\t// in\n    tag_419:\n        /* \"@openzeppelin/contracts/token/ERC20/utils/SafeERC20.sol\":1219:1379  function safeTransfer(IERC20 token, address to, uint256 value) internal {... */\n      pop\n      pop\n      pop\n      jump\t// out\n        /* \"#utility.yul\":88:205   */\n    tag_423:\n        /* \"#utility.yul\":197:198   */\n      0x00\n        /* \"#utility.yul\":194:195   */\n      dup1\n        /* \"#utility.yul\":187:199   */\n      revert\n        /* \"#utility.yul\":334:483   */\n    tag_425:\n        /* \"#utility.yul\":370:377   */\n      0x00\n        /* \"#utility.yul\":410:476   */\n      0xffffffff00000000000000000000000000000000000000000000000000000000\n        /* \"#utility.yul\":403:408   */\n      dup3\n        /* \"#utility.yul\":399:477   */\n      and\n        /* \"#utility.yul\":388:477   */\n      swap1\n      pop\n        /* \"#utility.yul\":334:483   */\n      swap2\n      swap1\n      pop\n      jump\t// out\n        /* \"#utility.yul\":489:609   */\n    tag_426:\n        /* \"#utility.yul\":561:584   */\n      tag_478\n        /* \"#utility.yul\":578:583   */\n      dup2\n        /* \"#utility.yul\":561:584   */\n      tag_425\n      jump\t// in\n    tag_478:\n        /* \"#utility.yul\":554:559   */\n      dup2\n        /* \"#utility.yul\":551:585   */\n      eq\n        /* \"#utility.yul\":541:603   */\n      tag_479\n      jumpi\n        /* \"#utility.yul\":599:600   */\n      0x00\n        /* \"#utility.yul\":596:597   */\n      dup1\n        /* \"#utility.yul\":589:601   */\n      revert\n        /* \"#utility.yul\":541:603   */\n    tag_479:\n        /* \"#utility.yul\":489:609   */\n      pop\n      jump\t// out\n        /* \"#utility.yul\":615:752   */\n    tag_427:\n        /* \"#utility.yul\":660:665   */\n      0x00\n        /* \"#utility.yul\":698:704   */\n      dup2\n        /* \"#utility.yul\":685:705   */\n      calldataload\n        /* \"#utility.yul\":676:705   */\n      swap1\n      pop\n        /* \"#utility.yul\":714:746   */\n      tag_481\n        /* \"#utility.yul\":740:745   */\n      dup2\n        /* \"#utility.yul\":714:746   */\n      tag_426\n      jump\t// in\n    tag_481:\n        /* \"#utility.yul\":615:752   */\n      swap3\n      swap2\n      pop\n      pop\n      jump\t// out\n        /* \"#utility.yul\":758:1085   */\n    tag_43:\n        /* \"#utility.yul\":816:822   */\n      0x00\n        /* \"#utility.yul\":865:867   */\n      0x20\n        /* \"#utility.yul\":853:862   */\n      dup3\n        /* \"#utility.yul\":844:851   */\n      dup5\n        /* \"#utility.yul\":840:863   */\n      sub\n        /* \"#utility.yul\":836:868   */\n      slt\n        /* \"#utility.yul\":833:952   */\n      iszero\n      tag_483\n      jumpi\n        /* \"#utility.yul\":871:950   */\n      tag_484\n      tag_423\n      jump\t// in\n    tag_484:\n        /* \"#utility.yul\":833:952   */\n    tag_483:\n        /* \"#utility.yul\":991:992   */\n      0x00\n        /* \"#utility.yul\":1016:1068   */\n      tag_485\n        /* \"#utility.yul\":1060:1067   */\n      dup5\n        /* \"#utility.yul\":1051:1057   */\n      dup3\n        /* \"#utility.yul\":1040:1049   */\n      dup6\n        /* \"#utility.yul\":1036:1058   */\n      add\n        /* \"#utility.yul\":1016:1068   */\n      tag_427\n      jump\t// in\n    tag_485:\n        /* \"#utility.yul\":1006:1068   */\n      swap2\n      pop\n        /* \"#utility.yul\":962:1078   */\n      pop\n        /* \"#utility.yul\":758:1085   */\n      swap3\n      swap2\n      pop\n      pop\n      jump\t// out\n        /* \"#utility.yul\":1091:1181   */\n    tag_428:\n        /* \"#utility.yul\":1125:1132   */\n      0x00\n        /* \"#utility.yul\":1168:1173   */\n      dup2\n        /* \"#utility.yul\":1161:1174   */\n      iszero\n        /* \"#utility.yul\":1154:1175   */\n      iszero\n        /* \"#utility.yul\":1143:1175   */\n      swap1\n      pop\n        /* \"#utility.yul\":1091:1181   */\n      swap2\n      swap1\n      pop\n      jump\t// out\n        /* \"#utility.yul\":1187:1296   */\n    tag_429:\n        /* \"#utility.yul\":1268:1289   */\n      tag_488\n        /* \"#utility.yul\":1283:1288   */\n      dup2\n        /* \"#utility.yul\":1268:1289   */\n      tag_428\n      jump\t// in\n    tag_488:\n        /* \"#utility.yul\":1263:1266   */\n      dup3\n        /* \"#utility.yul\":1256:1290   */\n      mstore\n        /* \"#utility.yul\":1187:1296   */\n      pop\n      pop\n      jump\t// out\n        /* \"#utility.yul\":1302:1512   */\n    tag_46:\n        /* \"#utility.yul\":1389:1393   */\n      0x00\n        /* \"#utility.yul\":1427:1429   */\n      0x20\n        /* \"#utility.yul\":1416:1425   */\n      dup3\n        /* \"#utility.yul\":1412:1430   */\n      add\n        /* \"#utility.yul\":1404:1430   */\n      swap1\n      pop\n        /* \"#utility.yul\":1440:1505   */\n      tag_490\n        /* \"#utility.yul\":1502:1503   */\n      0x00\n        /* \"#utility.yul\":1491:1500   */\n      dup4\n        /* \"#utility.yul\":1487:1504   */\n      add\n        /* \"#utility.yul\":1478:1484   */\n      dup5\n        /* \"#utility.yul\":1440:1505   */\n      tag_429\n      jump\t// in\n    tag_490:\n        /* \"#utility.yul\":1302:1512   */\n      swap3\n      swap2\n      pop\n      pop\n      jump\t// out\n        /* \"#utility.yul\":1518:1644   */\n    tag_430:\n        /* \"#utility.yul\":1555:1562   */\n      0x00\n        /* \"#utility.yul\":1595:1637   */\n      0xffffffffffffffffffffffffffffffffffffffff\n        /* \"#utility.yul\":1588:1593   */\n      dup3\n        /* \"#utility.yul\":1584:1638   */\n      and\n        /* \"#utility.yul\":1573:1638   */\n      swap1\n      pop\n        /* \"#utility.yul\":1518:1644   */\n      swap2\n      swap1\n      pop\n      jump\t// out\n        /* \"#utility.yul\":1650:1746   */\n    tag_431:\n        /* \"#utility.yul\":1687:1694   */\n      0x00\n        /* \"#utility.yul\":1716:1740   */\n      tag_493\n        /* \"#utility.yul\":1734:1739   */\n      dup3\n        /* \"#utility.yul\":1716:1740   */\n      tag_430\n      jump\t// in\n    tag_493:\n        /* \"#utility.yul\":1705:1740   */\n      swap1\n      pop\n        /* \"#utility.yul\":1650:1746   */\n      swap2\n      swap1\n      pop\n      jump\t// out\n        /* \"#utility.yul\":1752:1874   */\n    tag_432:\n        /* \"#utility.yul\":1825:1849   */\n      tag_495\n        /* \"#utility.yul\":1843:1848   */\n      dup2\n        /* \"#utility.yul\":1825:1849   */\n      tag_431\n      jump\t// in\n    tag_495:\n        /* \"#utility.yul\":1818:1823   */\n      dup2\n        /* \"#utility.yul\":1815:1850   */\n      eq\n        /* \"#utility.yul\":1805:1868   */\n      tag_496\n      jumpi\n        /* \"#utility.yul\":1864:1865   */\n      0x00\n        /* \"#utility.yul\":1861:1862   */\n      dup1\n        /* \"#utility.yul\":1854:1866   */\n      revert\n        /* \"#utility.yul\":1805:1868   */\n    tag_496:\n        /* \"#utility.yul\":1752:1874   */\n      pop\n      jump\t// out\n        /* \"#utility.yul\":1880:2019   */\n    tag_433:\n        /* \"#utility.yul\":1926:1931   */\n      0x00\n        /* \"#utility.yul\":1964:1970   */\n      dup2\n        /* \"#utility.yul\":1951:1971   */\n      calldataload\n        /* \"#utility.yul\":1942:1971   */\n      swap1\n      pop\n        /* \"#utility.yul\":1980:2013   */\n      tag_498\n        /* \"#utility.yul\":2007:2012   */\n      dup2\n        /* \"#utility.yul\":1980:2013   */\n      tag_432\n      jump\t// in\n    tag_498:\n        /* \"#utility.yul\":1880:2019   */\n      swap3\n      swap2\n      pop\n      pop\n      jump\t// out\n        /* \"#utility.yul\":2025:2354   */\n    tag_50:\n        /* \"#utility.yul\":2084:2090   */\n      0x00\n        /* \"#utility.yul\":2133:2135   */\n      0x20\n        /* \"#utility.yul\":2121:2130   */\n      dup3\n        /* \"#utility.yul\":2112:2119   */\n      dup5\n        /* \"#utility.yul\":2108:2131   */\n      sub\n        /* \"#utility.yul\":2104:2136   */\n      slt\n        /* \"#utility.yul\":2101:2220   */\n      iszero\n      tag_500\n      jumpi\n        /* \"#utility.yul\":2139:2218   */\n      tag_501\n      tag_423\n      jump\t// in\n    tag_501:\n        /* \"#utility.yul\":2101:2220   */\n    tag_500:\n        /* \"#utility.yul\":2259:2260   */\n      0x00\n        /* \"#utility.yul\":2284:2337   */\n      tag_502\n        /* \"#utility.yul\":2329:2336   */\n      dup5\n        /* \"#utility.yul\":2320:2326   */\n      dup3\n        /* \"#utility.yul\":2309:2318   */\n      dup6\n        /* \"#utility.yul\":2305:2327   */\n      add\n        /* \"#utility.yul\":2284:2337   */\n      tag_433\n      jump\t// in\n    tag_502:\n        /* \"#utility.yul\":2274:2337   */\n      swap2\n      pop\n        /* \"#utility.yul\":2230:2347   */\n      pop\n        /* \"#utility.yul\":2025:2354   */\n      swap3\n      swap2\n      pop\n      pop\n      jump\t// out\n        /* \"#utility.yul\":2360:2437   */\n    tag_434:\n        /* \"#utility.yul\":2397:2404   */\n      0x00\n        /* \"#utility.yul\":2426:2431   */\n      dup2\n        /* \"#utility.yul\":2415:2431   */\n      swap1\n      pop\n        /* \"#utility.yul\":2360:2437   */\n      swap2\n      swap1\n      pop\n      jump\t// out\n        /* \"#utility.yul\":2443:2561   */\n    tag_435:\n        /* \"#utility.yul\":2530:2554   */\n      tag_505\n        /* \"#utility.yul\":2548:2553   */\n      dup2\n        /* \"#utility.yul\":2530:2554   */\n      tag_434\n      jump\t// in\n    tag_505:\n        /* \"#utility.yul\":2525:2528   */\n      dup3\n        /* \"#utility.yul\":2518:2555   */\n      mstore\n        /* \"#utility.yul\":2443:2561   */\n      pop\n      pop\n      jump\t// out\n        /* \"#utility.yul\":2567:2789   */\n    tag_53:\n        /* \"#utility.yul\":2660:2664   */\n      0x00\n        /* \"#utility.yul\":2698:2700   */\n      0x20\n        /* \"#utility.yul\":2687:2696   */\n      dup3\n        /* \"#utility.yul\":2683:2701   */\n      add\n        /* \"#utility.yul\":2675:2701   */\n      swap1\n      pop\n        /* \"#utility.yul\":2711:2782   */\n      tag_507\n        /* \"#utility.yul\":2779:2780   */\n      0x00\n        /* \"#utility.yul\":2768:2777   */\n      dup4\n        /* \"#utility.yul\":2764:2781   */\n      add\n        /* \"#utility.yul\":2755:2761   */\n      dup5\n        /* \"#utility.yul\":2711:2782   */\n      tag_435\n      jump\t// in\n    tag_507:\n        /* \"#utility.yul\":2567:2789   */\n      swap3\n      swap2\n      pop\n      pop\n      jump\t// out\n        /* \"#utility.yul\":2795:2872   */\n    tag_436:\n        /* \"#utility.yul\":2832:2839   */\n      0x00\n        /* \"#utility.yul\":2861:2866   */\n      dup2\n        /* \"#utility.yul\":2850:2866   */\n      swap1\n      pop\n        /* \"#utility.yul\":2795:2872   */\n      swap2\n      swap1\n      pop\n      jump\t// out\n        /* \"#utility.yul\":2878:3000   */\n    tag_437:\n        /* \"#utility.yul\":2951:2975   */\n      tag_510\n        /* \"#utility.yul\":2969:2974   */\n      dup2\n        /* \"#utility.yul\":2951:2975   */\n      tag_436\n      jump\t// in\n    tag_510:\n        /* \"#utility.yul\":2944:2949   */\n      dup2\n        /* \"#utility.yul\":2941:2976   */\n      eq\n        /* \"#utility.yul\":2931:2994   */\n      tag_511\n      jumpi\n        /* \"#utility.yul\":2990:2991   */\n      0x00\n        /* \"#utility.yul\":2987:2988   */\n      dup1\n        /* \"#utility.yul\":2980:2992   */\n      revert\n        /* \"#utility.yul\":2931:2994   */\n    tag_511:\n        /* \"#utility.yul\":2878:3000   */\n      pop\n      jump\t// out\n        /* \"#utility.yul\":3006:3145   */\n    tag_438:\n        /* \"#utility.yul\":3052:3057   */\n      0x00\n        /* \"#utility.yul\":3090:3096   */\n      dup2\n        /* \"#utility.yul\":3077:3097   */\n      calldataload\n        /* \"#utility.yul\":3068:3097   */\n      swap1\n      pop\n        /* \"#utility.yul\":3106:3139   */\n      tag_513\n        /* \"#utility.yul\":3133:3138   */\n      dup2\n        /* \"#utility.yul\":3106:3139   */\n      tag_437\n      jump\t// in\n    tag_513:\n        /* \"#utility.yul\":3006:3145   */\n      swap3\n      swap2\n      pop\n      pop\n      jump\t// out\n        /* \"#utility.yul\":3151:3480   */\n    tag_65:\n        /* \"#utility.yul\":3210:3216   */\n      0x00\n        /* \"#utility.yul\":3259:3261   */\n      0x20\n        /* \"#utility.yul\":3247:3256   */\n      dup3\n        /* \"#utility.yul\":3238:3245   */\n      dup5\n        /* \"#utility.yul\":3234:3257   */\n      sub\n        /* \"#utility.yul\":3230:3262   */\n      slt\n        /* \"#utility.yul\":3227:3346   */\n      iszero\n      tag_515\n      jumpi\n        /* \"#utility.yul\":3265:3344   */\n      tag_516\n      tag_423\n      jump\t// in\n    tag_516:\n        /* \"#utility.yul\":3227:3346   */\n    tag_515:\n        /* \"#utility.yul\":3385:3386   */\n      0x00\n        /* \"#utility.yul\":3410:3463   */\n      tag_517\n        /* \"#utility.yul\":3455:3462   */\n      dup5\n        /* \"#utility.yul\":3446:3452   */\n      dup3\n        /* \"#utility.yul\":3435:3444   */\n      dup6\n        /* \"#utility.yul\":3431:3453   */\n      add\n        /* \"#utility.yul\":3410:3463   */\n      tag_438\n      jump\t// in\n    tag_517:\n        /* \"#utility.yul\":3400:3463   */\n      swap2\n      pop\n        /* \"#utility.yul\":3356:3473   */\n      pop\n        /* \"#utility.yul\":3151:3480   */\n      swap3\n      swap2\n      pop\n      pop\n      jump\t// out\n        /* \"#utility.yul\":3486:3604   */\n    tag_439:\n        /* \"#utility.yul\":3573:3597   */\n      tag_519\n        /* \"#utility.yul\":3591:3596   */\n      dup2\n        /* \"#utility.yul\":3573:3597   */\n      tag_436\n      jump\t// in\n    tag_519:\n        /* \"#utility.yul\":3568:3571   */\n      dup3\n        /* \"#utility.yul\":3561:3598   */\n      mstore\n        /* \"#utility.yul\":3486:3604   */\n      pop\n      pop\n      jump\t// out\n        /* \"#utility.yul\":3610:3832   */\n    tag_68:\n        /* \"#utility.yul\":3703:3707   */\n      0x00\n        /* \"#utility.yul\":3741:3743   */\n      0x20\n        /* \"#utility.yul\":3730:3739   */\n      dup3\n        /* \"#utility.yul\":3726:3744   */\n      add\n        /* \"#utility.yul\":3718:3744   */\n      swap1\n      pop\n        /* \"#utility.yul\":3754:3825   */\n      tag_521\n        /* \"#utility.yul\":3822:3823   */\n      0x00\n        /* \"#utility.yul\":3811:3820   */\n      dup4\n        /* \"#utility.yul\":3807:3824   */\n      add\n        /* \"#utility.yul\":3798:3804   */\n      dup5\n        /* \"#utility.yul\":3754:3825   */\n      tag_439\n      jump\t// in\n    tag_521:\n        /* \"#utility.yul\":3610:3832   */\n      swap3\n      swap2\n      pop\n      pop\n      jump\t// out\n        /* \"#utility.yul\":3838:4312   */\n    tag_76:\n        /* \"#utility.yul\":3906:3912   */\n      0x00\n        /* \"#utility.yul\":3914:3920   */\n      dup1\n        /* \"#utility.yul\":3963:3965   */\n      0x40\n        /* \"#utility.yul\":3951:3960   */\n      dup4\n        /* \"#utility.yul\":3942:3949   */\n      dup6\n        /* \"#utility.yul\":3938:3961   */\n      sub\n        /* \"#utility.yul\":3934:3966   */\n      slt\n        /* \"#utility.yul\":3931:4050   */\n      iszero\n      tag_523\n      jumpi\n        /* \"#utility.yul\":3969:4048   */\n      tag_524\n      tag_423\n      jump\t// in\n    tag_524:\n        /* \"#utility.yul\":3931:4050   */\n    tag_523:\n        /* \"#utility.yul\":4089:4090   */\n      0x00\n        /* \"#utility.yul\":4114:4167   */\n      tag_525\n        /* \"#utility.yul\":4159:4166   */\n      dup6\n        /* \"#utility.yul\":4150:4156   */\n      dup3\n        /* \"#utility.yul\":4139:4148   */\n      dup7\n        /* \"#utility.yul\":4135:4157   */\n      add\n        /* \"#utility.yul\":4114:4167   */\n      tag_438\n      jump\t// in\n    tag_525:\n        /* \"#utility.yul\":4104:4167   */\n      swap3\n      pop\n        /* \"#utility.yul\":4060:4177   */\n      pop\n        /* \"#utility.yul\":4216:4218   */\n      0x20\n        /* \"#utility.yul\":4242:4295   */\n      tag_526\n        /* \"#utility.yul\":4287:4294   */\n      dup6\n        /* \"#utility.yul\":4278:4284   */\n      dup3\n        /* \"#utility.yul\":4267:4276   */\n      dup7\n        /* \"#utility.yul\":4263:4285   */\n      add\n        /* \"#utility.yul\":4242:4295   */\n      tag_433\n      jump\t// in\n    tag_526:\n        /* \"#utility.yul\":4232:4295   */\n      swap2\n      pop\n        /* \"#utility.yul\":4187:4305   */\n      pop\n        /* \"#utility.yul\":3838:4312   */\n      swap3\n      pop\n      swap3\n      swap1\n      pop\n      jump\t// out\n        /* \"#utility.yul\":4318:4440   */\n    tag_440:\n        /* \"#utility.yul\":4391:4415   */\n      tag_528\n        /* \"#utility.yul\":4409:4414   */\n      dup2\n        /* \"#utility.yul\":4391:4415   */\n      tag_434\n      jump\t// in\n    tag_528:\n        /* \"#utility.yul\":4384:4389   */\n      dup2\n        /* \"#utility.yul\":4381:4416   */\n      eq\n        /* \"#utility.yul\":4371:4434   */\n      tag_529\n      jumpi\n        /* \"#utility.yul\":4430:4431   */\n      0x00\n        /* \"#utility.yul\":4427:4428   */\n      dup1\n        /* \"#utility.yul\":4420:4432   */\n      revert\n        /* \"#utility.yul\":4371:4434   */\n    tag_529:\n        /* \"#utility.yul\":4318:4440   */\n      pop\n      jump\t// out\n        /* \"#utility.yul\":4446:4585   */\n    tag_441:\n        /* \"#utility.yul\":4492:4497   */\n      0x00\n        /* \"#utility.yul\":4530:4536   */\n      dup2\n        /* \"#utility.yul\":4517:4537   */\n      calldataload\n        /* \"#utility.yul\":4508:4537   */\n      swap1\n      pop\n        /* \"#utility.yul\":4546:4579   */\n      tag_531\n        /* \"#utility.yul\":4573:4578   */\n      dup2\n        /* \"#utility.yul\":4546:4579   */\n      tag_440\n      jump\t// in\n    tag_531:\n        /* \"#utility.yul\":4446:4585   */\n      swap3\n      swap2\n      pop\n      pop\n      jump\t// out\n        /* \"#utility.yul\":4591:5065   */\n    tag_81:\n        /* \"#utility.yul\":4659:4665   */\n      0x00\n        /* \"#utility.yul\":4667:4673   */\n      dup1\n        /* \"#utility.yul\":4716:4718   */\n      0x40\n        /* \"#utility.yul\":4704:4713   */\n      dup4\n        /* \"#utility.yul\":4695:4702   */\n      dup6\n        /* \"#utility.yul\":4691:4714   */\n      sub\n        /* \"#utility.yul\":4687:4719   */\n      slt\n        /* \"#utility.yul\":4684:4803   */\n      iszero\n      tag_533\n      jumpi\n        /* \"#utility.yul\":4722:4801   */\n      tag_534\n      tag_423\n      jump\t// in\n    tag_534:\n        /* \"#utility.yul\":4684:4803   */\n    tag_533:\n        /* \"#utility.yul\":4842:4843   */\n      0x00\n        /* \"#utility.yul\":4867:4920   */\n      tag_535\n        /* \"#utility.yul\":4912:4919   */\n      dup6\n        /* \"#utility.yul\":4903:4909   */\n      dup3\n        /* \"#utility.yul\":4892:4901   */\n      dup7\n        /* \"#utility.yul\":4888:4910   */\n      add\n        /* \"#utility.yul\":4867:4920   */\n      tag_433\n      jump\t// in\n    tag_535:\n        /* \"#utility.yul\":4857:4920   */\n      swap3\n      pop\n        /* \"#utility.yul\":4813:4930   */\n      pop\n        /* \"#utility.yul\":4969:4971   */\n      0x20\n        /* \"#utility.yul\":4995:5048   */\n      tag_536\n        /* \"#utility.yul\":5040:5047   */\n      dup6\n        /* \"#utility.yul\":5031:5037   */\n      dup3\n        /* \"#utility.yul\":5020:5029   */\n      dup7\n        /* \"#utility.yul\":5016:5038   */\n      add\n        /* \"#utility.yul\":4995:5048   */\n      tag_441\n      jump\t// in\n    tag_536:\n        /* \"#utility.yul\":4985:5048   */\n      swap2\n      pop\n        /* \"#utility.yul\":4940:5058   */\n      pop\n        /* \"#utility.yul\":4591:5065   */\n      swap3\n      pop\n      swap3\n      swap1\n      pop\n      jump\t// out\n        /* \"#utility.yul\":5071:5189   */\n    tag_442:\n        /* \"#utility.yul\":5158:5182   */\n      tag_538\n        /* \"#utility.yul\":5176:5181   */\n      dup2\n        /* \"#utility.yul\":5158:5182   */\n      tag_431\n      jump\t// in\n    tag_538:\n        /* \"#utility.yul\":5153:5156   */\n      dup3\n        /* \"#utility.yul\":5146:5183   */\n      mstore\n        /* \"#utility.yul\":5071:5189   */\n      pop\n      pop\n      jump\t// out\n        /* \"#utility.yul\":5195:5417   */\n    tag_92:\n        /* \"#utility.yul\":5288:5292   */\n      0x00\n        /* \"#utility.yul\":5326:5328   */\n      0x20\n        /* \"#utility.yul\":5315:5324   */\n      dup3\n        /* \"#utility.yul\":5311:5329   */\n      add\n        /* \"#utility.yul\":5303:5329   */\n      swap1\n      pop\n        /* \"#utility.yul\":5339:5410   */\n      tag_540\n        /* \"#utility.yul\":5407:5408   */\n      0x00\n        /* \"#utility.yul\":5396:5405   */\n      dup4\n        /* \"#utility.yul\":5392:5409   */\n      add\n        /* \"#utility.yul\":5383:5389   */\n      dup5\n        /* \"#utility.yul\":5339:5410   */\n      tag_442\n      jump\t// in\n    tag_540:\n        /* \"#utility.yul\":5195:5417   */\n      swap3\n      swap2\n      pop\n      pop\n      jump\t// out\n        /* \"#utility.yul\":5423:5897   */\n    tag_96:\n        /* \"#utility.yul\":5491:5497   */\n      0x00\n        /* \"#utility.yul\":5499:5505   */\n      dup1\n        /* \"#utility.yul\":5548:5550   */\n      0x40\n        /* \"#utility.yul\":5536:5545   */\n      dup4\n        /* \"#utility.yul\":5527:5534   */\n      dup6\n        /* \"#utility.yul\":5523:5546   */\n      sub\n        /* \"#utility.yul\":5519:5551   */\n      slt\n        /* \"#utility.yul\":5516:5635   */\n      iszero\n      tag_542\n      jumpi\n        /* \"#utility.yul\":5554:5633   */\n      tag_543\n      tag_423\n      jump\t// in\n    tag_543:\n        /* \"#utility.yul\":5516:5635   */\n    tag_542:\n        /* \"#utility.yul\":5674:5675   */\n      0x00\n        /* \"#utility.yul\":5699:5752   */\n      tag_544\n        /* \"#utility.yul\":5744:5751   */\n      dup6\n        /* \"#utility.yul\":5735:5741   */\n      dup3\n        /* \"#utility.yul\":5724:5733   */\n      dup7\n        /* \"#utility.yul\":5720:5742   */\n      add\n        /* \"#utility.yul\":5699:5752   */\n      tag_433\n      jump\t// in\n    tag_544:\n        /* \"#utility.yul\":5689:5752   */\n      swap3\n      pop\n        /* \"#utility.yul\":5645:5762   */\n      pop\n        /* \"#utility.yul\":5801:5803   */\n      0x20\n        /* \"#utility.yul\":5827:5880   */\n      tag_545\n        /* \"#utility.yul\":5872:5879   */\n      dup6\n        /* \"#utility.yul\":5863:5869   */\n      dup3\n        /* \"#utility.yul\":5852:5861   */\n      dup7\n        /* \"#utility.yul\":5848:5870   */\n      add\n        /* \"#utility.yul\":5827:5880   */\n      tag_433\n      jump\t// in\n    tag_545:\n        /* \"#utility.yul\":5817:5880   */\n      swap2\n      pop\n        /* \"#utility.yul\":5772:5890   */\n      pop\n        /* \"#utility.yul\":5423:5897   */\n      swap3\n      pop\n      swap3\n      swap1\n      pop\n      jump\t// out\n        /* \"#utility.yul\":5903:6017   */\n    tag_443:\n        /* \"#utility.yul\":5970:5976   */\n      0x00\n        /* \"#utility.yul\":6004:6009   */\n      dup2\n        /* \"#utility.yul\":5998:6010   */\n      mload\n        /* \"#utility.yul\":5988:6010   */\n      swap1\n      pop\n        /* \"#utility.yul\":5903:6017   */\n      swap2\n      swap1\n      pop\n      jump\t// out\n        /* \"#utility.yul\":6023:6207   */\n    tag_444:\n        /* \"#utility.yul\":6122:6133   */\n      0x00\n        /* \"#utility.yul\":6156:6162   */\n      dup3\n        /* \"#utility.yul\":6151:6154   */\n      dup3\n        /* \"#utility.yul\":6144:6163   */\n      mstore\n        /* \"#utility.yul\":6196:6200   */\n      0x20\n        /* \"#utility.yul\":6191:6194   */\n      dup3\n        /* \"#utility.yul\":6187:6201   */\n      add\n        /* \"#utility.yul\":6172:6201   */\n      swap1\n      pop\n        /* \"#utility.yul\":6023:6207   */\n      swap3\n      swap2\n      pop\n      pop\n      jump\t// out\n        /* \"#utility.yul\":6213:6345   */\n    tag_445:\n        /* \"#utility.yul\":6280:6284   */\n      0x00\n        /* \"#utility.yul\":6303:6306   */\n      dup2\n        /* \"#utility.yul\":6295:6306   */\n      swap1\n      pop\n        /* \"#utility.yul\":6333:6337   */\n      0x20\n        /* \"#utility.yul\":6328:6331   */\n      dup3\n        /* \"#utility.yul\":6324:6338   */\n      add\n        /* \"#utility.yul\":6316:6338   */\n      swap1\n      pop\n        /* \"#utility.yul\":6213:6345   */\n      swap2\n      swap1\n      pop\n      jump\t// out\n        /* \"#utility.yul\":6351:6459   */\n    tag_446:\n        /* \"#utility.yul\":6428:6452   */\n      tag_550\n        /* \"#utility.yul\":6446:6451   */\n      dup2\n        /* \"#utility.yul\":6428:6452   */\n      tag_431\n      jump\t// in\n    tag_550:\n        /* \"#utility.yul\":6423:6426   */\n      dup3\n        /* \"#utility.yul\":6416:6453   */\n      mstore\n        /* \"#utility.yul\":6351:6459   */\n      pop\n      pop\n      jump\t// out\n        /* \"#utility.yul\":6465:6644   */\n    tag_447:\n        /* \"#utility.yul\":6534:6544   */\n      0x00\n        /* \"#utility.yul\":6555:6601   */\n      tag_552\n        /* \"#utility.yul\":6597:6600   */\n      dup4\n        /* \"#utility.yul\":6589:6595   */\n      dup4\n        /* \"#utility.yul\":6555:6601   */\n      tag_446\n      jump\t// in\n    tag_552:\n        /* \"#utility.yul\":6633:6637   */\n      0x20\n        /* \"#utility.yul\":6628:6631   */\n      dup4\n        /* \"#utility.yul\":6624:6638   */\n      add\n        /* \"#utility.yul\":6610:6638   */\n      swap1\n      pop\n        /* \"#utility.yul\":6465:6644   */\n      swap3\n      swap2\n      pop\n      pop\n      jump\t// out\n        /* \"#utility.yul\":6650:6763   */\n    tag_448:\n        /* \"#utility.yul\":6720:6724   */\n      0x00\n        /* \"#utility.yul\":6752:6756   */\n      0x20\n        /* \"#utility.yul\":6747:6750   */\n      dup3\n        /* \"#utility.yul\":6743:6757   */\n      add\n        /* \"#utility.yul\":6735:6757   */\n      swap1\n      pop\n        /* \"#utility.yul\":6650:6763   */\n      swap2\n      swap1\n      pop\n      jump\t// out\n        /* \"#utility.yul\":6799:7531   */\n    tag_449:\n        /* \"#utility.yul\":6918:6921   */\n      0x00\n        /* \"#utility.yul\":6947:7001   */\n      tag_555\n        /* \"#utility.yul\":6995:7000   */\n      dup3\n        /* \"#utility.yul\":6947:7001   */\n      tag_443\n      jump\t// in\n    tag_555:\n        /* \"#utility.yul\":7017:7103   */\n      tag_556\n        /* \"#utility.yul\":7096:7102   */\n      dup2\n        /* \"#utility.yul\":7091:7094   */\n      dup6\n        /* \"#utility.yul\":7017:7103   */\n      tag_444\n      jump\t// in\n    tag_556:\n        /* \"#utility.yul\":7010:7103   */\n      swap4\n      pop\n        /* \"#utility.yul\":7127:7183   */\n      tag_557\n        /* \"#utility.yul\":7177:7182   */\n      dup4\n        /* \"#utility.yul\":7127:7183   */\n      tag_445\n      jump\t// in\n    tag_557:\n        /* \"#utility.yul\":7206:7213   */\n      dup1\n        /* \"#utility.yul\":7237:7238   */\n      0x00\n        /* \"#utility.yul\":7222:7506   */\n    tag_558:\n        /* \"#utility.yul\":7247:7253   */\n      dup4\n        /* \"#utility.yul\":7244:7245   */\n      dup2\n        /* \"#utility.yul\":7241:7254   */\n      lt\n        /* \"#utility.yul\":7222:7506   */\n      iszero\n      tag_560\n      jumpi\n        /* \"#utility.yul\":7323:7329   */\n      dup2\n        /* \"#utility.yul\":7317:7330   */\n      mload\n        /* \"#utility.yul\":7350:7413   */\n      tag_561\n        /* \"#utility.yul\":7409:7412   */\n      dup9\n        /* \"#utility.yul\":7394:7407   */\n      dup3\n        /* \"#utility.yul\":7350:7413   */\n      tag_447\n      jump\t// in\n    tag_561:\n        /* \"#utility.yul\":7343:7413   */\n      swap8\n      pop\n        /* \"#utility.yul\":7436:7496   */\n      tag_562\n        /* \"#utility.yul\":7489:7495   */\n      dup4\n        /* \"#utility.yul\":7436:7496   */\n      tag_448\n      jump\t// in\n    tag_562:\n        /* \"#utility.yul\":7426:7496   */\n      swap3\n      pop\n        /* \"#utility.yul\":7282:7506   */\n      pop\n        /* \"#utility.yul\":7269:7270   */\n      0x01\n        /* \"#utility.yul\":7266:7267   */\n      dup2\n        /* \"#utility.yul\":7262:7271   */\n      add\n        /* \"#utility.yul\":7257:7271   */\n      swap1\n      pop\n        /* \"#utility.yul\":7222:7506   */\n      jump(tag_558)\n    tag_560:\n        /* \"#utility.yul\":7226:7240   */\n      pop\n        /* \"#utility.yul\":7522:7525   */\n      dup6\n        /* \"#utility.yul\":7515:7525   */\n      swap4\n      pop\n        /* \"#utility.yul\":6923:7531   */\n      pop\n      pop\n      pop\n        /* \"#utility.yul\":6799:7531   */\n      swap3\n      swap2\n      pop\n      pop\n      jump\t// out\n        /* \"#utility.yul\":7537:7910   */\n    tag_140:\n        /* \"#utility.yul\":7680:7684   */\n      0x00\n        /* \"#utility.yul\":7718:7720   */\n      0x20\n        /* \"#utility.yul\":7707:7716   */\n      dup3\n        /* \"#utility.yul\":7703:7721   */\n      add\n        /* \"#utility.yul\":7695:7721   */\n      swap1\n      pop\n        /* \"#utility.yul\":7767:7776   */\n      dup2\n        /* \"#utility.yul\":7761:7765   */\n      dup2\n        /* \"#utility.yul\":7757:7777   */\n      sub\n        /* \"#utility.yul\":7753:7754   */\n      0x00\n        /* \"#utility.yul\":7742:7751   */\n      dup4\n        /* \"#utility.yul\":7738:7755   */\n      add\n        /* \"#utility.yul\":7731:7778   */\n      mstore\n        /* \"#utility.yul\":7795:7903   */\n      tag_564\n        /* \"#utility.yul\":7898:7902   */\n      dup2\n        /* \"#utility.yul\":7889:7895   */\n      dup5\n        /* \"#utility.yul\":7795:7903   */\n      tag_449\n      jump\t// in\n    tag_564:\n        /* \"#utility.yul\":7787:7903   */\n      swap1\n      pop\n        /* \"#utility.yul\":7537:7910   */\n      swap3\n      swap2\n      pop\n      pop\n      jump\t// out\n        /* \"#utility.yul\":7916:8245   */\n    tag_158:\n        /* \"#utility.yul\":7975:7981   */\n      0x00\n        /* \"#utility.yul\":8024:8026   */\n      0x20\n        /* \"#utility.yul\":8012:8021   */\n      dup3\n        /* \"#utility.yul\":8003:8010   */\n      dup5\n        /* \"#utility.yul\":7999:8022   */\n      sub\n        /* \"#utility.yul\":7995:8027   */\n      slt\n        /* \"#utility.yul\":7992:8111   */\n      iszero\n      tag_566\n      jumpi\n        /* \"#utility.yul\":8030:8109   */\n      tag_567\n      tag_423\n      jump\t// in\n    tag_567:\n        /* \"#utility.yul\":7992:8111   */\n    tag_566:\n        /* \"#utility.yul\":8150:8151   */\n      0x00\n        /* \"#utility.yul\":8175:8228   */\n      tag_568\n        /* \"#utility.yul\":8220:8227   */\n      dup5\n        /* \"#utility.yul\":8211:8217   */\n      dup3\n        /* \"#utility.yul\":8200:8209   */\n      dup6\n        /* \"#utility.yul\":8196:8218   */\n      add\n        /* \"#utility.yul\":8175:8228   */\n      tag_441\n      jump\t// in\n    tag_568:\n        /* \"#utility.yul\":8165:8228   */\n      swap2\n      pop\n        /* \"#utility.yul\":8121:8238   */\n      pop\n        /* \"#utility.yul\":7916:8245   */\n      swap3\n      swap2\n      pop\n      pop\n      jump\t// out\n        /* \"#utility.yul\":8251:8431   */\n    tag_450:\n        /* \"#utility.yul\":8299:8376   */\n      0x4e487b7100000000000000000000000000000000000000000000000000000000\n        /* \"#utility.yul\":8296:8297   */\n      0x00\n        /* \"#utility.yul\":8289:8377   */\n      mstore\n        /* \"#utility.yul\":8396:8400   */\n      0x11\n        /* \"#utility.yul\":8393:8394   */\n      0x04\n        /* \"#utility.yul\":8386:8401   */\n      mstore\n        /* \"#utility.yul\":8420:8424   */\n      0x24\n        /* \"#utility.yul\":8417:8418   */\n      0x00\n        /* \"#utility.yul\":8410:8425   */\n      revert\n        /* \"#utility.yul\":8437:8628   */\n    tag_168:\n        /* \"#utility.yul\":8477:8480   */\n      0x00\n        /* \"#utility.yul\":8496:8516   */\n      tag_571\n        /* \"#utility.yul\":8514:8515   */\n      dup3\n        /* \"#utility.yul\":8496:8516   */\n      tag_434\n      jump\t// in\n    tag_571:\n        /* \"#utility.yul\":8491:8516   */\n      swap2\n      pop\n        /* \"#utility.yul\":8530:8550   */\n      tag_572\n        /* \"#utility.yul\":8548:8549   */\n      dup4\n        /* \"#utility.yul\":8530:8550   */\n      tag_434\n      jump\t// in\n    tag_572:\n        /* \"#utility.yul\":8525:8550   */\n      swap3\n      pop\n        /* \"#utility.yul\":8573:8574   */\n      dup3\n        /* \"#utility.yul\":8570:8571   */\n      dup3\n        /* \"#utility.yul\":8566:8575   */\n      add\n        /* \"#utility.yul\":8559:8575   */\n      swap1\n      pop\n        /* \"#utility.yul\":8594:8597   */\n      dup1\n        /* \"#utility.yul\":8591:8592   */\n      dup3\n        /* \"#utility.yul\":8588:8598   */\n      gt\n        /* \"#utility.yul\":8585:8621   */\n      iszero\n      tag_573\n      jumpi\n        /* \"#utility.yul\":8601:8619   */\n      tag_574\n      tag_450\n      jump\t// in\n    tag_574:\n        /* \"#utility.yul\":8585:8621   */\n    tag_573:\n        /* \"#utility.yul\":8437:8628   */\n      swap3\n      swap2\n      pop\n      pop\n      jump\t// out\n        /* \"#utility.yul\":8634:8828   */\n    tag_171:\n        /* \"#utility.yul\":8674:8678   */\n      0x00\n        /* \"#utility.yul\":8694:8714   */\n      tag_576\n        /* \"#utility.yul\":8712:8713   */\n      dup3\n        /* \"#utility.yul\":8694:8714   */\n      tag_434\n      jump\t// in\n    tag_576:\n        /* \"#utility.yul\":8689:8714   */\n      swap2\n      pop\n        /* \"#utility.yul\":8728:8748   */\n      tag_577\n        /* \"#utility.yul\":8746:8747   */\n      dup4\n        /* \"#utility.yul\":8728:8748   */\n      tag_434\n      jump\t// in\n    tag_577:\n        /* \"#utility.yul\":8723:8748   */\n      swap3\n      pop\n        /* \"#utility.yul\":8772:8773   */\n      dup3\n        /* \"#utility.yul\":8769:8770   */\n      dup3\n        /* \"#utility.yul\":8765:8774   */\n      sub\n        /* \"#utility.yul\":8757:8774   */\n      swap1\n      pop\n        /* \"#utility.yul\":8796:8797   */\n      dup2\n        /* \"#utility.yul\":8790:8794   */\n      dup2\n        /* \"#utility.yul\":8787:8798   */\n      gt\n        /* \"#utility.yul\":8784:8821   */\n      iszero\n      tag_578\n      jumpi\n        /* \"#utility.yul\":8801:8819   */\n      tag_579\n      tag_450\n      jump\t// in\n    tag_579:\n        /* \"#utility.yul\":8784:8821   */\n    tag_578:\n        /* \"#utility.yul\":8634:8828   */\n      swap3\n      swap2\n      pop\n      pop\n      jump\t// out\n        /* \"#utility.yul\":8834:9166   */\n    tag_173:\n        /* \"#utility.yul\":8955:8959   */\n      0x00\n        /* \"#utility.yul\":8993:8995   */\n      0x40\n        /* \"#utility.yul\":8982:8991   */\n      dup3\n        /* \"#utility.yul\":8978:8996   */\n      add\n        /* \"#utility.yul\":8970:8996   */\n      swap1\n      pop\n        /* \"#utility.yul\":9006:9077   */\n      tag_581\n        /* \"#utility.yul\":9074:9075   */\n      0x00\n        /* \"#utility.yul\":9063:9072   */\n      dup4\n        /* \"#utility.yul\":9059:9076   */\n      add\n        /* \"#utility.yul\":9050:9056   */\n      dup6\n        /* \"#utility.yul\":9006:9077   */\n      tag_435\n      jump\t// in\n    tag_581:\n        /* \"#utility.yul\":9087:9159   */\n      tag_582\n        /* \"#utility.yul\":9155:9157   */\n      0x20\n        /* \"#utility.yul\":9144:9153   */\n      dup4\n        /* \"#utility.yul\":9140:9158   */\n      add\n        /* \"#utility.yul\":9131:9137   */\n      dup5\n        /* \"#utility.yul\":9087:9159   */\n      tag_435\n      jump\t// in\n    tag_582:\n        /* \"#utility.yul\":8834:9166   */\n      swap4\n      swap3\n      pop\n      pop\n      pop\n      jump\t// out\n        /* \"#utility.yul\":9172:9405   */\n    tag_179:\n        /* \"#utility.yul\":9211:9214   */\n      0x00\n        /* \"#utility.yul\":9234:9258   */\n      tag_584\n        /* \"#utility.yul\":9252:9257   */\n      dup3\n        /* \"#utility.yul\":9234:9258   */\n      tag_434\n      jump\t// in\n    tag_584:\n        /* \"#utility.yul\":9225:9258   */\n      swap2\n      pop\n        /* \"#utility.yul\":9280:9346   */\n      0xffffffffffffffffffffffffffffffffffffffffffffffffffffffffffffffff\n        /* \"#utility.yul\":9273:9278   */\n      dup3\n        /* \"#utility.yul\":9270:9347   */\n      sub\n        /* \"#utility.yul\":9267:9370   */\n      tag_585\n      jumpi\n        /* \"#utility.yul\":9350:9368   */\n      tag_586\n      tag_450\n      jump\t// in\n    tag_586:\n        /* \"#utility.yul\":9267:9370   */\n    tag_585:\n        /* \"#utility.yul\":9397:9398   */\n      0x01\n        /* \"#utility.yul\":9390:9395   */\n      dup3\n        /* \"#utility.yul\":9386:9399   */\n      add\n        /* \"#utility.yul\":9379:9399   */\n      swap1\n      pop\n        /* \"#utility.yul\":9172:9405   */\n      swap2\n      swap1\n      pop\n      jump\t// out\n        /* \"#utility.yul\":9411:9496   */\n    tag_451:\n        /* \"#utility.yul\":9456:9463   */\n      0x00\n        /* \"#utility.yul\":9485:9490   */\n      dup2\n        /* \"#utility.yul\":9474:9490   */\n      swap1\n      pop\n        /* \"#utility.yul\":9411:9496   */\n      swap2\n      swap1\n      pop\n      jump\t// out\n        /* \"#utility.yul\":9502:9562   */\n    tag_452:\n        /* \"#utility.yul\":9530:9533   */\n      0x00\n        /* \"#utility.yul\":9551:9556   */\n      dup2\n        /* \"#utility.yul\":9544:9556   */\n      swap1\n      pop\n        /* \"#utility.yul\":9502:9562   */\n      swap2\n      swap1\n      pop\n      jump\t// out\n        /* \"#utility.yul\":9568:9726   */\n    tag_453:\n        /* \"#utility.yul\":9626:9635   */\n      0x00\n        /* \"#utility.yul\":9659:9720   */\n      tag_590\n        /* \"#utility.yul\":9677:9719   */\n      tag_591\n        /* \"#utility.yul\":9686:9718   */\n      tag_592\n        /* \"#utility.yul\":9712:9717   */\n      dup5\n        /* \"#utility.yul\":9686:9718   */\n      tag_451\n      jump\t// in\n    tag_592:\n        /* \"#utility.yul\":9677:9719   */\n      tag_452\n      jump\t// in\n    tag_591:\n        /* \"#utility.yul\":9659:9720   */\n      tag_434\n      jump\t// in\n    tag_590:\n        /* \"#utility.yul\":9646:9720   */\n      swap1\n      pop\n        /* \"#utility.yul\":9568:9726   */\n      swap2\n      swap1\n      pop\n      jump\t// out\n        /* \"#utility.yul\":9732:9879   */\n    tag_454:\n        /* \"#utility.yul\":9827:9872   */\n      tag_594\n        /* \"#utility.yul\":9866:9871   */\n      dup2\n        /* \"#utility.yul\":9827:9872   */\n      tag_453\n      jump\t// in\n    tag_594:\n        /* \"#utility.yul\":9822:9825   */\n      dup3\n        /* \"#utility.yul\":9815:9873   */\n      mstore\n        /* \"#utility.yul\":9732:9879   */\n      pop\n      pop\n      jump\t// out\n        /* \"#utility.yul\":9885:10233   */\n    tag_202:\n        /* \"#utility.yul\":10014:10018   */\n      0x00\n        /* \"#utility.yul\":10052:10054   */\n      0x40\n        /* \"#utility.yul\":10041:10050   */\n      dup3\n        /* \"#utility.yul\":10037:10055   */\n      add\n        /* \"#utility.yul\":10029:10055   */\n      swap1\n      pop\n        /* \"#utility.yul\":10065:10144   */\n      tag_596\n        /* \"#utility.yul\":10141:10142   */\n      0x00\n        /* \"#utility.yul\":10130:10139   */\n      dup4\n        /* \"#utility.yul\":10126:10143   */\n      add\n        /* \"#utility.yul\":10117:10123   */\n      dup6\n        /* \"#utility.yul\":10065:10144   */\n      tag_454\n      jump\t// in\n    tag_596:\n        /* \"#utility.yul\":10154:10226   */\n      tag_597\n        /* \"#utility.yul\":10222:10224   */\n      0x20\n        /* \"#utility.yul\":10211:10220   */\n      dup4\n        /* \"#utility.yul\":10207:10225   */\n      add\n        /* \"#utility.yul\":10198:10204   */\n      dup5\n        /* \"#utility.yul\":10154:10226   */\n      tag_435\n      jump\t// in\n    tag_597:\n        /* \"#utility.yul\":9885:10233   */\n      swap4\n      swap3\n      pop\n      pop\n      pop\n      jump\t// out\n        /* \"#utility.yul\":10239:10419   */\n    tag_208:\n        /* \"#utility.yul\":10287:10364   */\n      0x4e487b7100000000000000000000000000000000000000000000000000000000\n        /* \"#utility.yul\":10284:10285   */\n      0x00\n        /* \"#utility.yul\":10277:10365   */\n      mstore\n        /* \"#utility.yul\":10384:10388   */\n      0x32\n        /* \"#utility.yul\":10381:10382   */\n      0x04\n        /* \"#utility.yul\":10374:10389   */\n      mstore\n        /* \"#utility.yul\":10408:10412   */\n      0x24\n        /* \"#utility.yul\":10405:10406   */\n      0x00\n        /* \"#utility.yul\":10398:10413   */\n      revert\n        /* \"#utility.yul\":10425:10605   */\n    tag_220:\n        /* \"#utility.yul\":10473:10550   */\n      0x4e487b7100000000000000000000000000000000000000000000000000000000\n        /* \"#utility.yul\":10470:10471   */\n      0x00\n        /* \"#utility.yul\":10463:10551   */\n      mstore\n        /* \"#utility.yul\":10570:10574   */\n      0x31\n        /* \"#utility.yul\":10567:10568   */\n      0x04\n        /* \"#utility.yul\":10560:10575   */\n      mstore\n        /* \"#utility.yul\":10594:10598   */\n      0x24\n        /* \"#utility.yul\":10591:10592   */\n      0x00\n        /* \"#utility.yul\":10584:10599   */\n      revert\n        /* \"#utility.yul\":10611:10716   */\n    tag_455:\n        /* \"#utility.yul\":10647:10654   */\n      0x00\n        /* \"#utility.yul\":10687:10709   */\n      0xffffffffffffffffffff\n        /* \"#utility.yul\":10680:10685   */\n      dup3\n        /* \"#utility.yul\":10676:10710   */\n      and\n        /* \"#utility.yul\":10665:10710   */\n      swap1\n      pop\n        /* \"#utility.yul\":10611:10716   */\n      swap2\n      swap1\n      pop\n      jump\t// out\n        /* \"#utility.yul\":10722:10842   */\n    tag_456:\n        /* \"#utility.yul\":10794:10817   */\n      tag_602\n        /* \"#utility.yul\":10811:10816   */\n      dup2\n        /* \"#utility.yul\":10794:10817   */\n      tag_455\n      jump\t// in\n    tag_602:\n        /* \"#utility.yul\":10787:10792   */\n      dup2\n        /* \"#utility.yul\":10784:10818   */\n      eq\n        /* \"#utility.yul\":10774:10836   */\n      tag_603\n      jumpi\n        /* \"#utility.yul\":10832:10833   */\n      0x00\n        /* \"#utility.yul\":10829:10830   */\n      dup1\n        /* \"#utility.yul\":10822:10834   */\n      revert\n        /* \"#utility.yul\":10774:10836   */\n    tag_603:\n        /* \"#utility.yul\":10722:10842   */\n      pop\n      jump\t// out\n        /* \"#utility.yul\":10848:10989   */\n    tag_457:\n        /* \"#utility.yul\":10904:10909   */\n      0x00\n        /* \"#utility.yul\":10935:10941   */\n      dup2\n        /* \"#utility.yul\":10929:10942   */\n      mload\n        /* \"#utility.yul\":10920:10942   */\n      swap1\n      pop\n        /* \"#utility.yul\":10951:10983   */\n      tag_605\n        /* \"#utility.yul\":10977:10982   */\n      dup2\n        /* \"#utility.yul\":10951:10983   */\n      tag_456\n      jump\t// in\n    tag_605:\n        /* \"#utility.yul\":10848:10989   */\n      swap3\n      swap2\n      pop\n      pop\n      jump\t// out\n        /* \"#utility.yul\":10995:11071   */\n    tag_458:\n        /* \"#utility.yul\":11031:11038   */\n      0x00\n        /* \"#utility.yul\":11060:11065   */\n      dup2\n        /* \"#utility.yul\":11049:11065   */\n      swap1\n      pop\n        /* \"#utility.yul\":10995:11071   */\n      swap2\n      swap1\n      pop\n      jump\t// out\n        /* \"#utility.yul\":11077:11197   */\n    tag_459:\n        /* \"#utility.yul\":11149:11172   */\n      tag_608\n        /* \"#utility.yul\":11166:11171   */\n      dup2\n        /* \"#utility.yul\":11149:11172   */\n      tag_458\n      jump\t// in\n    tag_608:\n        /* \"#utility.yul\":11142:11147   */\n      dup2\n        /* \"#utility.yul\":11139:11173   */\n      eq\n        /* \"#utility.yul\":11129:11191   */\n      tag_609\n      jumpi\n        /* \"#utility.yul\":11187:11188   */\n      0x00\n        /* \"#utility.yul\":11184:11185   */\n      dup1\n        /* \"#utility.yul\":11177:11189   */\n      revert\n        /* \"#utility.yul\":11129:11191   */\n    tag_609:\n        /* \"#utility.yul\":11077:11197   */\n      pop\n      jump\t// out\n        /* \"#utility.yul\":11203:11344   */\n    tag_460:\n        /* \"#utility.yul\":11259:11264   */\n      0x00\n        /* \"#utility.yul\":11290:11296   */\n      dup2\n        /* \"#utility.yul\":11284:11297   */\n      mload\n        /* \"#utility.yul\":11275:11297   */\n      swap1\n      pop\n        /* \"#utility.yul\":11306:11338   */\n      tag_611\n        /* \"#utility.yul\":11332:11337   */\n      dup2\n        /* \"#utility.yul\":11306:11338   */\n      tag_459\n      jump\t// in\n    tag_611:\n        /* \"#utility.yul\":11203:11344   */\n      swap3\n      swap2\n      pop\n      pop\n      jump\t// out\n        /* \"#utility.yul\":11350:11493   */\n    tag_461:\n        /* \"#utility.yul\":11407:11412   */\n      0x00\n        /* \"#utility.yul\":11438:11444   */\n      dup2\n        /* \"#utility.yul\":11432:11445   */\n      mload\n        /* \"#utility.yul\":11423:11445   */\n      swap1\n      pop\n        /* \"#utility.yul\":11454:11487   */\n      tag_613\n        /* \"#utility.yul\":11481:11486   */\n      dup2\n        /* \"#utility.yul\":11454:11487   */\n      tag_440\n      jump\t// in\n    tag_613:\n        /* \"#utility.yul\":11350:11493   */\n      swap3\n      swap2\n      pop\n      pop\n      jump\t// out\n        /* \"#utility.yul\":11499:12470   */\n    tag_299:\n        /* \"#utility.yul\":11602:11608   */\n      0x00\n        /* \"#utility.yul\":11610:11616   */\n      dup1\n        /* \"#utility.yul\":11618:11624   */\n      0x00\n        /* \"#utility.yul\":11626:11632   */\n      dup1\n        /* \"#utility.yul\":11634:11640   */\n      0x00\n        /* \"#utility.yul\":11683:11686   */\n      0xa0\n        /* \"#utility.yul\":11671:11680   */\n      dup7\n        /* \"#utility.yul\":11662:11669   */\n      dup9\n        /* \"#utility.yul\":11658:11681   */\n      sub\n        /* \"#utility.yul\":11654:11687   */\n      slt\n        /* \"#utility.yul\":11651:11771   */\n      iszero\n      tag_615\n      jumpi\n        /* \"#utility.yul\":11690:11769   */\n      tag_616\n      tag_423\n      jump\t// in\n    tag_616:\n        /* \"#utility.yul\":11651:11771   */\n    tag_615:\n        /* \"#utility.yul\":11810:11811   */\n      0x00\n        /* \"#utility.yul\":11835:11898   */\n      tag_617\n        /* \"#utility.yul\":11890:11897   */\n      dup9\n        /* \"#utility.yul\":11881:11887   */\n      dup3\n        /* \"#utility.yul\":11870:11879   */\n      dup10\n        /* \"#utility.yul\":11866:11888   */\n      add\n        /* \"#utility.yul\":11835:11898   */\n      tag_457\n      jump\t// in\n    tag_617:\n        /* \"#utility.yul\":11825:11898   */\n      swap6\n      pop\n        /* \"#utility.yul\":11781:11908   */\n      pop\n        /* \"#utility.yul\":11947:11949   */\n      0x20\n        /* \"#utility.yul\":11973:12036   */\n      tag_618\n        /* \"#utility.yul\":12028:12035   */\n      dup9\n        /* \"#utility.yul\":12019:12025   */\n      dup3\n        /* \"#utility.yul\":12008:12017   */\n      dup10\n        /* \"#utility.yul\":12004:12026   */\n      add\n        /* \"#utility.yul\":11973:12036   */\n      tag_460\n      jump\t// in\n    tag_618:\n        /* \"#utility.yul\":11963:12036   */\n      swap5\n      pop\n        /* \"#utility.yul\":11918:12046   */\n      pop\n        /* \"#utility.yul\":12085:12087   */\n      0x40\n        /* \"#utility.yul\":12111:12175   */\n      tag_619\n        /* \"#utility.yul\":12167:12174   */\n      dup9\n        /* \"#utility.yul\":12158:12164   */\n      dup3\n        /* \"#utility.yul\":12147:12156   */\n      dup10\n        /* \"#utility.yul\":12143:12165   */\n      add\n        /* \"#utility.yul\":12111:12175   */\n      tag_461\n      jump\t// in\n    tag_619:\n        /* \"#utility.yul\":12101:12175   */\n      swap4\n      pop\n        /* \"#utility.yul\":12056:12185   */\n      pop\n        /* \"#utility.yul\":12224:12226   */\n      0x60\n        /* \"#utility.yul\":12250:12314   */\n      tag_620\n        /* \"#utility.yul\":12306:12313   */\n      dup9\n        /* \"#utility.yul\":12297:12303   */\n      dup3\n        /* \"#utility.yul\":12286:12295   */\n      dup10\n        /* \"#utility.yul\":12282:12304   */\n      add\n        /* \"#utility.yul\":12250:12314   */\n      tag_461\n      jump\t// in\n    tag_620:\n        /* \"#utility.yul\":12240:12314   */\n      swap3\n      pop\n        /* \"#utility.yul\":12195:12324   */\n      pop\n        /* \"#utility.yul\":12363:12366   */\n      0x80\n        /* \"#utility.yul\":12390:12453   */\n      tag_621\n        /* \"#utility.yul\":12445:12452   */\n      dup9\n        /* \"#utility.yul\":12436:12442   */\n      dup3\n        /* \"#utility.yul\":12425:12434   */\n      dup10\n        /* \"#utility.yul\":12421:12443   */\n      add\n        /* \"#utility.yul\":12390:12453   */\n      tag_457\n      jump\t// in\n    tag_621:\n        /* \"#utility.yul\":12380:12453   */\n      swap2\n      pop\n        /* \"#utility.yul\":12334:12463   */\n      pop\n        /* \"#utility.yul\":11499:12470   */\n      swap3\n      swap6\n      pop\n      swap3\n      swap6\n      swap1\n      swap4\n      pop\n      jump\t// out\n        /* \"#utility.yul\":12476:12562   */\n    tag_462:\n        /* \"#utility.yul\":12511:12518   */\n      0x00\n        /* \"#utility.yul\":12551:12555   */\n      0xff\n        /* \"#utility.yul\":12544:12549   */\n      dup3\n        /* \"#utility.yul\":12540:12556   */\n      and\n        /* \"#utility.yul\":12529:12556   */\n      swap1\n      pop\n        /* \"#utility.yul\":12476:12562   */\n      swap2\n      swap1\n      pop\n      jump\t// out\n        /* \"#utility.yul\":12568:12686   */\n    tag_463:\n        /* \"#utility.yul\":12639:12661   */\n      tag_624\n        /* \"#utility.yul\":12655:12660   */\n      dup2\n        /* \"#utility.yul\":12639:12661   */\n      tag_462\n      jump\t// in\n    tag_624:\n        /* \"#utility.yul\":12632:12637   */\n      dup2\n        /* \"#utility.yul\":12629:12662   */\n      eq\n        /* \"#utility.yul\":12619:12680   */\n      tag_625\n      jumpi\n        /* \"#utility.yul\":12676:12677   */\n      0x00\n        /* \"#utility.yul\":12673:12674   */\n      dup1\n        /* \"#utility.yul\":12666:12678   */\n      revert\n        /* \"#utility.yul\":12619:12680   */\n    tag_625:\n        /* \"#utility.yul\":12568:12686   */\n      pop\n      jump\t// out\n        /* \"#utility.yul\":12692:12831   */\n    tag_464:\n        /* \"#utility.yul\":12747:12752   */\n      0x00\n        /* \"#utility.yul\":12778:12784   */\n      dup2\n        /* \"#utility.yul\":12772:12785   */\n      mload\n        /* \"#utility.yul\":12763:12785   */\n      swap1\n      pop\n        /* \"#utility.yul\":12794:12825   */\n      tag_627\n        /* \"#utility.yul\":12819:12824   */\n      dup2\n        /* \"#utility.yul\":12794:12825   */\n      tag_463\n      jump\t// in\n    tag_627:\n        /* \"#utility.yul\":12692:12831   */\n      swap3\n      swap2\n      pop\n      pop\n      jump\t// out\n        /* \"#utility.yul\":12837:13184   */\n    tag_305:\n        /* \"#utility.yul\":12905:12911   */\n      0x00\n        /* \"#utility.yul\":12954:12956   */\n      0x20\n        /* \"#utility.yul\":12942:12951   */\n      dup3\n        /* \"#utility.yul\":12933:12940   */\n      dup5\n        /* \"#utility.yul\":12929:12952   */\n      sub\n        /* \"#utility.yul\":12925:12957   */\n      slt\n        /* \"#utility.yul\":12922:13041   */\n      iszero\n      tag_629\n      jumpi\n        /* \"#utility.yul\":12960:13039   */\n      tag_630\n      tag_423\n      jump\t// in\n    tag_630:\n        /* \"#utility.yul\":12922:13041   */\n    tag_629:\n        /* \"#utility.yul\":13080:13081   */\n      0x00\n        /* \"#utility.yul\":13105:13167   */\n      tag_631\n        /* \"#utility.yul\":13159:13166   */\n      dup5\n        /* \"#utility.yul\":13150:13156   */\n      dup3\n        /* \"#utility.yul\":13139:13148   */\n      dup6\n        /* \"#utility.yul\":13135:13157   */\n      add\n        /* \"#utility.yul\":13105:13167   */\n      tag_464\n      jump\t// in\n    tag_631:\n        /* \"#utility.yul\":13095:13167   */\n      swap2\n      pop\n        /* \"#utility.yul\":13051:13177   */\n      pop\n        /* \"#utility.yul\":12837:13184   */\n      swap3\n      swap2\n      pop\n      pop\n      jump\t// out\n        /* \"#utility.yul\":13190:13292   */\n    tag_465:\n        /* \"#utility.yul\":13232:13240   */\n      0x00\n        /* \"#utility.yul\":13279:13284   */\n      dup2\n        /* \"#utility.yul\":13276:13277   */\n      0x01\n        /* \"#utility.yul\":13272:13285   */\n      shr\n        /* \"#utility.yul\":13251:13285   */\n      swap1\n      pop\n        /* \"#utility.yul\":13190:13292   */\n      swap2\n      swap1\n      pop\n      jump\t// out\n        /* \"#utility.yul\":13298:14146   */\n    tag_466:\n        /* \"#utility.yul\":13359:13364   */\n      0x00\n        /* \"#utility.yul\":13366:13370   */\n      dup1\n        /* \"#utility.yul\":13390:13396   */\n      dup3\n        /* \"#utility.yul\":13381:13396   */\n      swap2\n      pop\n        /* \"#utility.yul\":13414:13419   */\n      dup4\n        /* \"#utility.yul\":13405:13419   */\n      swap1\n      pop\n        /* \"#utility.yul\":13428:14140   */\n    tag_634:\n        /* \"#utility.yul\":13449:13450   */\n      0x01\n        /* \"#utility.yul\":13439:13447   */\n      dup6\n        /* \"#utility.yul\":13436:13451   */\n      gt\n        /* \"#utility.yul\":13428:14140   */\n      iszero\n      tag_636\n      jumpi\n        /* \"#utility.yul\":13544:13548   */\n      dup1\n        /* \"#utility.yul\":13539:13542   */\n      dup7\n        /* \"#utility.yul\":13535:13549   */\n      div\n        /* \"#utility.yul\":13529:13533   */\n      dup2\n        /* \"#utility.yul\":13526:13550   */\n      gt\n        /* \"#utility.yul\":13523:13573   */\n      iszero\n      tag_637\n      jumpi\n        /* \"#utility.yul\":13553:13571   */\n      tag_638\n      tag_450\n      jump\t// in\n    tag_638:\n        /* \"#utility.yul\":13523:13573   */\n    tag_637:\n        /* \"#utility.yul\":13603:13604   */\n      0x01\n        /* \"#utility.yul\":13593:13601   */\n      dup6\n        /* \"#utility.yul\":13589:13605   */\n      and\n        /* \"#utility.yul\":13586:14037   */\n      iszero\n      tag_639\n      jumpi\n        /* \"#utility.yul\":14018:14022   */\n      dup1\n        /* \"#utility.yul\":14011:14016   */\n      dup3\n        /* \"#utility.yul\":14007:14023   */\n      mul\n        /* \"#utility.yul\":13998:14023   */\n      swap2\n      pop\n        /* \"#utility.yul\":13586:14037   */\n    tag_639:\n        /* \"#utility.yul\":14068:14072   */\n      dup1\n        /* \"#utility.yul\":14062:14066   */\n      dup2\n        /* \"#utility.yul\":14058:14073   */\n      mul\n        /* \"#utility.yul\":14050:14073   */\n      swap1\n      pop\n        /* \"#utility.yul\":14098:14130   */\n      tag_640\n        /* \"#utility.yul\":14121:14129   */\n      dup6\n        /* \"#utility.yul\":14098:14130   */\n      tag_465\n      jump\t// in\n    tag_640:\n        /* \"#utility.yul\":14086:14130   */\n      swap5\n      pop\n        /* \"#utility.yul\":13428:14140   */\n      jump(tag_634)\n    tag_636:\n        /* \"#utility.yul\":13298:14146   */\n      swap5\n      pop\n      swap5\n      swap3\n      pop\n      pop\n      pop\n      jump\t// out\n        /* \"#utility.yul\":14152:15225   */\n    tag_467:\n        /* \"#utility.yul\":14206:14211   */\n      0x00\n        /* \"#utility.yul\":14397:14405   */\n      dup3\n        /* \"#utility.yul\":14387:14427   */\n      tag_642\n      jumpi\n        /* \"#utility.yul\":14418:14419   */\n      0x01\n        /* \"#utility.yul\":14409:14419   */\n      swap1\n      pop\n        /* \"#utility.yul\":14420:14425   */\n      jump(tag_641)\n        /* \"#utility.yul\":14387:14427   */\n    tag_642:\n        /* \"#utility.yul\":14446:14450   */\n      dup2\n        /* \"#utility.yul\":14436:14472   */\n      tag_643\n      jumpi\n        /* \"#utility.yul\":14463:14464   */\n      0x00\n        /* \"#utility.yul\":14454:14464   */\n      swap1\n      pop\n        /* \"#utility.yul\":14465:14470   */\n      jump(tag_641)\n        /* \"#utility.yul\":14436:14472   */\n    tag_643:\n        /* \"#utility.yul\":14532:14536   */\n      dup2\n        /* \"#utility.yul\":14580:14581   */\n      0x01\n        /* \"#utility.yul\":14575:14602   */\n      dup2\n      eq\n      tag_645\n      jumpi\n        /* \"#utility.yul\":14616:14617   */\n      0x02\n        /* \"#utility.yul\":14611:14802   */\n      dup2\n      eq\n      tag_646\n      jumpi\n        /* \"#utility.yul\":14525:14802   */\n      jump(tag_644)\n        /* \"#utility.yul\":14575:14602   */\n    tag_645:\n        /* \"#utility.yul\":14593:14594   */\n      0x01\n        /* \"#utility.yul\":14584:14594   */\n      swap2\n      pop\n        /* \"#utility.yul\":14595:14600   */\n      pop\n      jump(tag_641)\n        /* \"#utility.yul\":14611:14802   */\n    tag_646:\n        /* \"#utility.yul\":14656:14659   */\n      0xff\n        /* \"#utility.yul\":14646:14654   */\n      dup5\n        /* \"#utility.yul\":14643:14660   */\n      gt\n        /* \"#utility.yul\":14640:14683   */\n      iszero\n      tag_647\n      jumpi\n        /* \"#utility.yul\":14663:14681   */\n      tag_648\n      tag_450\n      jump\t// in\n    tag_648:\n        /* \"#utility.yul\":14640:14683   */\n    tag_647:\n        /* \"#utility.yul\":14712:14720   */\n      dup4\n        /* \"#utility.yul\":14709:14710   */\n      0x02\n        /* \"#utility.yul\":14705:14721   */\n      exp\n        /* \"#utility.yul\":14696:14721   */\n      swap2\n      pop\n        /* \"#utility.yul\":14747:14750   */\n      dup5\n        /* \"#utility.yul\":14740:14745   */\n      dup3\n        /* \"#utility.yul\":14737:14751   */\n      gt\n        /* \"#utility.yul\":14734:14774   */\n      iszero\n      tag_649\n      jumpi\n        /* \"#utility.yul\":14754:14772   */\n      tag_650\n      tag_450\n      jump\t// in\n    tag_650:\n        /* \"#utility.yul\":14734:14774   */\n    tag_649:\n        /* \"#utility.yul\":14787:14792   */\n      pop\n      jump(tag_641)\n        /* \"#utility.yul\":14525:14802   */\n    tag_644:\n      pop\n        /* \"#utility.yul\":14911:14913   */\n      0x20\n        /* \"#utility.yul\":14901:14909   */\n      dup4\n        /* \"#utility.yul\":14898:14914   */\n      lt\n        /* \"#utility.yul\":14892:14895   */\n      0x0133\n        /* \"#utility.yul\":14886:14890   */\n      dup4\n        /* \"#utility.yul\":14883:14896   */\n      lt\n        /* \"#utility.yul\":14879:14915   */\n      and\n        /* \"#utility.yul\":14861:14863   */\n      0x4e\n        /* \"#utility.yul\":14851:14859   */\n      dup5\n        /* \"#utility.yul\":14848:14864   */\n      lt\n        /* \"#utility.yul\":14843:14845   */\n      0x0b\n        /* \"#utility.yul\":14837:14841   */\n      dup5\n        /* \"#utility.yul\":14834:14846   */\n      lt\n        /* \"#utility.yul\":14830:14865   */\n      and\n        /* \"#utility.yul\":14814:14925   */\n      or\n        /* \"#utility.yul\":14811:15057   */\n      iszero\n      tag_651\n      jumpi\n        /* \"#utility.yul\":14967:14975   */\n      dup3\n        /* \"#utility.yul\":14961:14965   */\n      dup3\n        /* \"#utility.yul\":14957:14976   */\n      exp\n        /* \"#utility.yul\":14948:14976   */\n      swap1\n      pop\n        /* \"#utility.yul\":15002:15005   */\n      dup4\n        /* \"#utility.yul\":14995:15000   */\n      dup2\n        /* \"#utility.yul\":14992:15006   */\n      gt\n        /* \"#utility.yul\":14989:15029   */\n      iszero\n      tag_652\n      jumpi\n        /* \"#utility.yul\":15009:15027   */\n      tag_653\n      tag_450\n      jump\t// in\n    tag_653:\n        /* \"#utility.yul\":14989:15029   */\n    tag_652:\n        /* \"#utility.yul\":15042:15047   */\n      jump(tag_641)\n        /* \"#utility.yul\":14811:15057   */\n    tag_651:\n        /* \"#utility.yul\":15082:15124   */\n      tag_654\n        /* \"#utility.yul\":15120:15123   */\n      dup5\n        /* \"#utility.yul\":15110:15118   */\n      dup5\n        /* \"#utility.yul\":15104:15108   */\n      dup5\n        /* \"#utility.yul\":15101:15102   */\n      0x01\n        /* \"#utility.yul\":15082:15124   */\n      tag_466\n      jump\t// in\n    tag_654:\n        /* \"#utility.yul\":15067:15124   */\n      swap3\n      pop\n      swap1\n      pop\n        /* \"#utility.yul\":15156:15160   */\n      dup2\n        /* \"#utility.yul\":15151:15154   */\n      dup5\n        /* \"#utility.yul\":15147:15161   */\n      div\n        /* \"#utility.yul\":15140:15145   */\n      dup2\n        /* \"#utility.yul\":15137:15162   */\n      gt\n        /* \"#utility.yul\":15134:15185   */\n      iszero\n      tag_655\n      jumpi\n        /* \"#utility.yul\":15165:15183   */\n      tag_656\n      tag_450\n      jump\t// in\n    tag_656:\n        /* \"#utility.yul\":15134:15185   */\n    tag_655:\n        /* \"#utility.yul\":15214:15218   */\n      dup2\n        /* \"#utility.yul\":15207:15212   */\n      dup2\n        /* \"#utility.yul\":15203:15219   */\n      mul\n        /* \"#utility.yul\":15194:15219   */\n      swap1\n      pop\n        /* \"#utility.yul\":14152:15225   */\n    tag_641:\n      swap4\n      swap3\n      pop\n      pop\n      pop\n      jump\t// out\n        /* \"#utility.yul\":15231:15512   */\n    tag_311:\n        /* \"#utility.yul\":15289:15294   */\n      0x00\n        /* \"#utility.yul\":15313:15336   */\n      tag_658\n        /* \"#utility.yul\":15331:15335   */\n      dup3\n        /* \"#utility.yul\":15313:15336   */\n      tag_434\n      jump\t// in\n    tag_658:\n        /* \"#utility.yul\":15305:15336   */\n      swap2\n      pop\n        /* \"#utility.yul\":15357:15382   */\n      tag_659\n        /* \"#utility.yul\":15373:15381   */\n      dup4\n        /* \"#utility.yul\":15357:15382   */\n      tag_462\n      jump\t// in\n    tag_659:\n        /* \"#utility.yul\":15345:15382   */\n      swap3\n      pop\n        /* \"#utility.yul\":15401:15505   */\n      tag_660\n        /* \"#utility.yul\":15438:15504   */\n      0xffffffffffffffffffffffffffffffffffffffffffffffffffffffffffffffff\n        /* \"#utility.yul\":15428:15436   */\n      dup5\n        /* \"#utility.yul\":15422:15426   */\n      dup5\n        /* \"#utility.yul\":15401:15505   */\n      tag_467\n      jump\t// in\n    tag_660:\n        /* \"#utility.yul\":15392:15505   */\n      swap1\n      pop\n        /* \"#utility.yul\":15231:15512   */\n      swap3\n      swap2\n      pop\n      pop\n      jump\t// out\n        /* \"#utility.yul\":15518:15928   */\n    tag_314:\n        /* \"#utility.yul\":15558:15565   */\n      0x00\n        /* \"#utility.yul\":15581:15601   */\n      tag_662\n        /* \"#utility.yul\":15599:15600   */\n      dup3\n        /* \"#utility.yul\":15581:15601   */\n      tag_434\n      jump\t// in\n    tag_662:\n        /* \"#utility.yul\":15576:15601   */\n      swap2\n      pop\n        /* \"#utility.yul\":15615:15635   */\n      tag_663\n        /* \"#utility.yul\":15633:15634   */\n      dup4\n        /* \"#utility.yul\":15615:15635   */\n      tag_434\n      jump\t// in\n    tag_663:\n        /* \"#utility.yul\":15610:15635   */\n      swap3\n      pop\n        /* \"#utility.yul\":15670:15671   */\n      dup3\n        /* \"#utility.yul\":15667:15668   */\n      dup3\n        /* \"#utility.yul\":15663:15672   */\n      mul\n        /* \"#utility.yul\":15692:15722   */\n      tag_664\n        /* \"#utility.yul\":15710:15721   */\n      dup2\n        /* \"#utility.yul\":15692:15722   */\n      tag_434\n      jump\t// in\n    tag_664:\n        /* \"#utility.yul\":15681:15722   */\n      swap2\n      pop\n        /* \"#utility.yul\":15871:15872   */\n      dup3\n        /* \"#utility.yul\":15862:15869   */\n      dup3\n        /* \"#utility.yul\":15858:15873   */\n      div\n        /* \"#utility.yul\":15855:15856   */\n      dup5\n        /* \"#utility.yul\":15852:15874   */\n      eq\n        /* \"#utility.yul\":15832:15833   */\n      dup4\n        /* \"#utility.yul\":15825:15834   */\n      iszero\n        /* \"#utility.yul\":15805:15888   */\n      or\n        /* \"#utility.yul\":15782:15921   */\n      tag_665\n      jumpi\n        /* \"#utility.yul\":15901:15919   */\n      tag_666\n      tag_450\n      jump\t// in\n    tag_666:\n        /* \"#utility.yul\":15782:15921   */\n    tag_665:\n        /* \"#utility.yul\":15566:15928   */\n      pop\n        /* \"#utility.yul\":15518:15928   */\n      swap3\n      swap2\n      pop\n      pop\n      jump\t// out\n        /* \"#utility.yul\":15934:16114   */\n    tag_468:\n        /* \"#utility.yul\":15982:16059   */\n      0x4e487b7100000000000000000000000000000000000000000000000000000000\n        /* \"#utility.yul\":15979:15980   */\n      0x00\n        /* \"#utility.yul\":15972:16060   */\n      mstore\n        /* \"#utility.yul\":16079:16083   */\n      0x12\n        /* \"#utility.yul\":16076:16077   */\n      0x04\n        /* \"#utility.yul\":16069:16084   */\n      mstore\n        /* \"#utility.yul\":16103:16107   */\n      0x24\n        /* \"#utility.yul\":16100:16101   */\n      0x00\n        /* \"#utility.yul\":16093:16108   */\n      revert\n        /* \"#utility.yul\":16120:16305   */\n    tag_319:\n        /* \"#utility.yul\":16160:16161   */\n      0x00\n        /* \"#utility.yul\":16177:16197   */\n      tag_669\n        /* \"#utility.yul\":16195:16196   */\n      dup3\n        /* \"#utility.yul\":16177:16197   */\n      tag_434\n      jump\t// in\n    tag_669:\n        /* \"#utility.yul\":16172:16197   */\n      swap2\n      pop\n        /* \"#utility.yul\":16211:16231   */\n      tag_670\n        /* \"#utility.yul\":16229:16230   */\n      dup4\n        /* \"#utility.yul\":16211:16231   */\n      tag_434\n      jump\t// in\n    tag_670:\n        /* \"#utility.yul\":16206:16231   */\n      swap3\n      pop\n        /* \"#utility.yul\":16250:16251   */\n      dup3\n        /* \"#utility.yul\":16240:16275   */\n      tag_671\n      jumpi\n        /* \"#utility.yul\":16255:16273   */\n      tag_672\n      tag_468\n      jump\t// in\n    tag_672:\n        /* \"#utility.yul\":16240:16275   */\n    tag_671:\n        /* \"#utility.yul\":16297:16298   */\n      dup3\n        /* \"#utility.yul\":16294:16295   */\n      dup3\n        /* \"#utility.yul\":16290:16299   */\n      div\n        /* \"#utility.yul\":16285:16299   */\n      swap1\n      pop\n        /* \"#utility.yul\":16120:16305   */\n      swap3\n      swap2\n      pop\n      pop\n      jump\t// out\n        /* \"#utility.yul\":16311:16502   */\n    tag_339:\n        /* \"#utility.yul\":16349:16353   */\n      0x00\n        /* \"#utility.yul\":16369:16387   */\n      tag_674\n        /* \"#utility.yul\":16385:16386   */\n      dup3\n        /* \"#utility.yul\":16369:16387   */\n      tag_462\n      jump\t// in\n    tag_674:\n        /* \"#utility.yul\":16364:16387   */\n      swap2\n      pop\n        /* \"#utility.yul\":16401:16419   */\n      tag_675\n        /* \"#utility.yul\":16417:16418   */\n      dup4\n        /* \"#utility.yul\":16401:16419   */\n      tag_462\n      jump\t// in\n    tag_675:\n        /* \"#utility.yul\":16396:16419   */\n      swap3\n      pop\n        /* \"#utility.yul\":16443:16444   */\n      dup3\n        /* \"#utility.yul\":16440:16441   */\n      dup3\n        /* \"#utility.yul\":16436:16445   */\n      sub\n        /* \"#utility.yul\":16428:16445   */\n      swap1\n      pop\n        /* \"#utility.yul\":16467:16471   */\n      0xff\n        /* \"#utility.yul\":16461:16465   */\n      dup2\n        /* \"#utility.yul\":16458:16472   */\n      gt\n        /* \"#utility.yul\":16455:16495   */\n      iszero\n      tag_676\n      jumpi\n        /* \"#utility.yul\":16475:16493   */\n      tag_677\n      tag_450\n      jump\t// in\n    tag_677:\n        /* \"#utility.yul\":16455:16495   */\n    tag_676:\n        /* \"#utility.yul\":16311:16502   */\n      swap3\n      swap2\n      pop\n      pop\n      jump\t// out\n        /* \"#utility.yul\":16508:16950   */\n    tag_377:\n        /* \"#utility.yul\":16657:16661   */\n      0x00\n        /* \"#utility.yul\":16695:16697   */\n      0x60\n        /* \"#utility.yul\":16684:16693   */\n      dup3\n        /* \"#utility.yul\":16680:16698   */\n      add\n        /* \"#utility.yul\":16672:16698   */\n      swap1\n      pop\n        /* \"#utility.yul\":16708:16779   */\n      tag_679\n        /* \"#utility.yul\":16776:16777   */\n      0x00\n        /* \"#utility.yul\":16765:16774   */\n      dup4\n        /* \"#utility.yul\":16761:16778   */\n      add\n        /* \"#utility.yul\":16752:16758   */\n      dup7\n        /* \"#utility.yul\":16708:16779   */\n      tag_442\n      jump\t// in\n    tag_679:\n        /* \"#utility.yul\":16789:16861   */\n      tag_680\n        /* \"#utility.yul\":16857:16859   */\n      0x20\n        /* \"#utility.yul\":16846:16855   */\n      dup4\n        /* \"#utility.yul\":16842:16860   */\n      add\n        /* \"#utility.yul\":16833:16839   */\n      dup6\n        /* \"#utility.yul\":16789:16861   */\n      tag_442\n      jump\t// in\n    tag_680:\n        /* \"#utility.yul\":16871:16943   */\n      tag_681\n        /* \"#utility.yul\":16939:16941   */\n      0x40\n        /* \"#utility.yul\":16928:16937   */\n      dup4\n        /* \"#utility.yul\":16924:16942   */\n      add\n        /* \"#utility.yul\":16915:16921   */\n      dup5\n        /* \"#utility.yul\":16871:16943   */\n      tag_435\n      jump\t// in\n    tag_681:\n        /* \"#utility.yul\":16508:16950   */\n      swap5\n      swap4\n      pop\n      pop\n      pop\n      pop\n      jump\t// out\n        /* \"#utility.yul\":16956:17103   */\n    tag_469:\n        /* \"#utility.yul\":17057:17068   */\n      0x00\n        /* \"#utility.yul\":17094:17097   */\n      dup2\n        /* \"#utility.yul\":17079:17097   */\n      swap1\n      pop\n        /* \"#utility.yul\":16956:17103   */\n      swap3\n      swap2\n      pop\n      pop\n      jump\t// out\n        /* \"#utility.yul\":17109:17223   */\n    tag_470:\n      pop\n      jump\t// out\n        /* \"#utility.yul\":17229:17627   */\n    tag_471:\n        /* \"#utility.yul\":17388:17391   */\n      0x00\n        /* \"#utility.yul\":17409:17492   */\n      tag_685\n        /* \"#utility.yul\":17490:17491   */\n      0x00\n        /* \"#utility.yul\":17485:17488   */\n      dup4\n        /* \"#utility.yul\":17409:17492   */\n      tag_469\n      jump\t// in\n    tag_685:\n        /* \"#utility.yul\":17402:17492   */\n      swap2\n      pop\n        /* \"#utility.yul\":17501:17594   */\n      tag_686\n        /* \"#utility.yul\":17590:17593   */\n      dup3\n        /* \"#utility.yul\":17501:17594   */\n      tag_470\n      jump\t// in\n    tag_686:\n        /* \"#utility.yul\":17619:17620   */\n      0x00\n        /* \"#utility.yul\":17614:17617   */\n      dup3\n        /* \"#utility.yul\":17610:17621   */\n      add\n        /* \"#utility.yul\":17603:17621   */\n      swap1\n      pop\n        /* \"#utility.yul\":17229:17627   */\n      swap2\n      swap1\n      pop\n      jump\t// out\n        /* \"#utility.yul\":17633:18012   */\n    tag_398:\n        /* \"#utility.yul\":17817:17820   */\n      0x00\n        /* \"#utility.yul\":17839:17986   */\n      tag_688\n        /* \"#utility.yul\":17982:17985   */\n      dup3\n        /* \"#utility.yul\":17839:17986   */\n      tag_471\n      jump\t// in\n    tag_688:\n        /* \"#utility.yul\":17832:17986   */\n      swap2\n      pop\n        /* \"#utility.yul\":18003:18006   */\n      dup2\n        /* \"#utility.yul\":17996:18006   */\n      swap1\n      pop\n        /* \"#utility.yul\":17633:18012   */\n      swap2\n      swap1\n      pop\n      jump\t// out\n        /* \"#utility.yul\":18018:18350   */\n    tag_411:\n        /* \"#utility.yul\":18139:18143   */\n      0x00\n        /* \"#utility.yul\":18177:18179   */\n      0x40\n        /* \"#utility.yul\":18166:18175   */\n      dup3\n        /* \"#utility.yul\":18162:18180   */\n      add\n        /* \"#utility.yul\":18154:18180   */\n      swap1\n      pop\n        /* \"#utility.yul\":18190:18261   */\n      tag_690\n        /* \"#utility.yul\":18258:18259   */\n      0x00\n        /* \"#utility.yul\":18247:18256   */\n      dup4\n        /* \"#utility.yul\":18243:18260   */\n      add\n        /* \"#utility.yul\":18234:18240   */\n      dup6\n        /* \"#utility.yul\":18190:18261   */\n      tag_442\n      jump\t// in\n    tag_690:\n        /* \"#utility.yul\":18271:18343   */\n      tag_691\n        /* \"#utility.yul\":18339:18341   */\n      0x20\n        /* \"#utility.yul\":18328:18337   */\n      dup4\n        /* \"#utility.yul\":18324:18342   */\n      add\n        /* \"#utility.yul\":18315:18321   */\n      dup5\n        /* \"#utility.yul\":18271:18343   */\n      tag_439\n      jump\t// in\n    tag_691:\n        /* \"#utility.yul\":18018:18350   */\n      swap4\n      swap3\n      pop\n      pop\n      pop\n      jump\t// out\n        /* \"#utility.yul\":18356:18688   */\n    tag_421:\n        /* \"#utility.yul\":18477:18481   */\n      0x00\n        /* \"#utility.yul\":18515:18517   */\n      0x40\n        /* \"#utility.yul\":18504:18513   */\n      dup3\n        /* \"#utility.yul\":18500:18518   */\n      add\n        /* \"#utility.yul\":18492:18518   */\n      swap1\n      pop\n        /* \"#utility.yul\":18528:18599   */\n      tag_693\n        /* \"#utility.yul\":18596:18597   */\n      0x00\n        /* \"#utility.yul\":18585:18594   */\n      dup4\n        /* \"#utility.yul\":18581:18598   */\n      add\n        /* \"#utility.yul\":18572:18578   */\n      dup6\n        /* \"#utility.yul\":18528:18599   */\n      tag_442\n      jump\t// in\n    tag_693:\n        /* \"#utility.yul\":18609:18681   */\n      tag_694\n        /* \"#utility.yul\":18677:18679   */\n      0x20\n        /* \"#utility.yul\":18666:18675   */\n      dup4\n        /* \"#utility.yul\":18662:18680   */\n      add\n        /* \"#utility.yul\":18653:18659   */\n      dup5\n        /* \"#utility.yul\":18609:18681   */\n      tag_435\n      jump\t// in\n    tag_694:\n        /* \"#utility.yul\":18356:18688   */\n      swap4\n      swap3\n      pop\n      pop\n      pop\n      jump\t// out\n\n    auxdata: 0xa26469706673582212201a1340fcc7905c0fe5a981bd436cf7777761ce3224a107b20c4292f3acb8482564736f6c634300081a0033\n}\n",
				"bytecode": {
					"linkReferences": {},
					"object": "60c060405234801561000f575f80fd5b506040516134ac3803806134ac833981810160405281019061003191906103a3565b600180819055505f83148061004557505f82145b1561007c576040517f3f36295200000000000000000000000000000000000000000000000000000000815260040160405180910390fd5b82608081815250508160a0818152505061009e5f801b336101b360201b60201c565b506100cf7fa49807205ce4d355092ef5a8a18f56e8913cf4a201fbe287825b095693c21775336101b360201b60201c565b508060045f8073ffffffffffffffffffffffffffffffffffffffff1673ffffffffffffffffffffffffffffffffffffffff1681526020019081526020015f205f6101000a81548173ffffffffffffffffffffffffffffffffffffffff021916908373ffffffffffffffffffffffffffffffffffffffff16021790555060055f908060018154018082558091505060019003905f5260205f20015f9091909190916101000a81548173ffffffffffffffffffffffffffffffffffffffff021916908373ffffffffffffffffffffffffffffffffffffffff1602179055505050506103f3565b5f6101c483836102a860201b60201c565b61029e5760015f808581526020019081526020015f205f015f8473ffffffffffffffffffffffffffffffffffffffff1673ffffffffffffffffffffffffffffffffffffffff1681526020019081526020015f205f6101000a81548160ff02191690831515021790555061023b61030b60201b60201c565b73ffffffffffffffffffffffffffffffffffffffff168273ffffffffffffffffffffffffffffffffffffffff16847f2f8788117e7eff1d82e926ec794901d17c78024a50270940304540a733656f0d60405160405180910390a4600190506102a2565b5f90505b92915050565b5f805f8481526020019081526020015f205f015f8373ffffffffffffffffffffffffffffffffffffffff1673ffffffffffffffffffffffffffffffffffffffff1681526020019081526020015f205f9054906101000a900460ff16905092915050565b5f33905090565b5f80fd5b5f819050919050565b61032881610316565b8114610332575f80fd5b50565b5f815190506103438161031f565b92915050565b5f73ffffffffffffffffffffffffffffffffffffffff82169050919050565b5f61037282610349565b9050919050565b61038281610368565b811461038c575f80fd5b50565b5f8151905061039d81610379565b92915050565b5f805f606084860312156103ba576103b9610312565b5b5f6103c786828701610335565b93505060206103d886828701610335565b92505060406103e98682870161038f565b9150509250925092565b60805160a05161306e61043e5f395f8181610685015281816106ba015281816109690152818161099201526109ca01525f8181611545015281816121ad01526121d6015261306e5ff3fe608060405260043610610184575f3560e01c806383e397b8116100d0578063d15f58fb11610089578063d547741f11610063578063d547741f146105d5578063e62615c6146105fd578063f14210a614610639578063f6326fb31461066157610195565b8063d15f58fb14610545578063d3c7c2c71461056f578063d4fac45d1461059957610195565b806383e397b81461043957806391d14854146104635780639e281a981461049f578063a217fddf146104c7578063b2343b1c146104f1578063cac2e25f1461051b57610195565b80632f2ff15d1161013d5780635b6cca80116101175780635b6cca801461036f5780635ccf7ac4146103ab57806375151b63146103d357806375b238fc1461040f57610195565b80632f2ff15d146102f7578063338b5dea1461031f57806336568abe1461034757610195565b806301ffc9a7146101c75780630251cfa114610203578063081332371461023f5780630ccee43314610269578063248a9ca3146102935780632ba8d939146102cf57610195565b36610195576101935f3461066b565b005b6040517f2ae871a500000000000000000000000000000000000000000000000000000000815260040160405180910390fd5b3480156101d2575f80fd5b506101ed60048036038101906101e8919061265f565b610893565b6040516101fa91906126a4565b60405180910390f35b34801561020e575f80fd5b5061022960048036038101906102249190612717565b61090c565b604051610236919061275a565b60405180910390f35b34801561024a575f80fd5b5061025361095b565b604051610260919061275a565b60405180910390f35b348015610274575f80fd5b5061027d6109c8565b60405161028a919061275a565b60405180910390f35b34801561029e575f80fd5b506102b960048036038101906102b491906127a6565b6109ec565b6040516102c691906127e0565b60405180910390f35b3480156102da575f80fd5b506102f560048036038101906102f09190612717565b610a08565b005b348015610302575f80fd5b5061031d600480360381019061031891906127f9565b610ddf565b005b34801561032a575f80fd5b5061034560048036038101906103409190612861565b610e01565b005b348015610352575f80fd5b5061036d600480360381019061036891906127f9565b610fc1565b005b34801561037a575f80fd5b5061039560048036038101906103909190612717565b61103c565b6040516103a291906128ae565b60405180910390f35b3480156103b6575f80fd5b506103d160048036038101906103cc91906128c7565b6110a1565b005b3480156103de575f80fd5b506103f960048036038101906103f49190612717565b611341565b60405161040691906126a4565b60405180910390f35b34801561041a575f80fd5b506104236113d5565b60405161043091906127e0565b60405180910390f35b348015610444575f80fd5b5061044d6113f9565b60405161045a919061275a565b60405180910390f35b34801561046e575f80fd5b50610489600480360381019061048491906127f9565b611407565b60405161049691906126a4565b60405180910390f35b3480156104aa575f80fd5b506104c560048036038101906104c09190612861565b61146a565b005b3480156104d2575f80fd5b506104db611531565b6040516104e891906127e0565b60405180910390f35b3480156104fc575f80fd5b50610505611537565b604051610512919061275a565b60405180910390f35b348015610526575f80fd5b5061052f61153d565b60405161053c919061275a565b60405180910390f35b348015610550575f80fd5b50610559611543565b604051610566919061275a565b60405180910390f35b34801561057a575f80fd5b50610583611567565b60405161059091906129bc565b60405180910390f35b3480156105a4575f80fd5b506105bf60048036038101906105ba91906128c7565b6115f2565b6040516105cc919061275a565b60405180910390f35b3480156105e0575f80fd5b506105fb60048036038101906105f691906127f9565b611682565b005b348015610608575f80fd5b50610623600480360381019061061e91906128c7565b6116a4565b604051610630919061275a565b60405180910390f35b348015610644575f80fd5b5061065f600480360381019061065a91906129dc565b611742565b005b610669611798565b005b5f61067683836117ed565b90505f610681611a74565b90507f000000000000000000000000000000000000000000000000000000000000000082826106b09190612a34565b11156107205781817f00000000000000000000000000000000000000000000000000000000000000006106e39190612a67565b6040517f639847a7000000000000000000000000000000000000000000000000000000008152600401610717929190612a9a565b60405180910390fd5b5f61072b8585611b4d565b90508060025f3373ffffffffffffffffffffffffffffffffffffffff1673ffffffffffffffffffffffffffffffffffffffff1681526020019081526020015f205f8773ffffffffffffffffffffffffffffffffffffffff1673ffffffffffffffffffffffffffffffffffffffff1681526020019081526020015f205f8282546107b49190612a34565b925050819055508060035f8773ffffffffffffffffffffffffffffffffffffffff1673ffffffffffffffffffffffffffffffffffffffff1681526020019081526020015f205f8282546108079190612a34565b9250508190555060065f81548092919061082090612ac1565b91905055508473ffffffffffffffffffffffffffffffffffffffff163373ffffffffffffffffffffffffffffffffffffffff167f57bad7e3c9efecf6e1f60bbd846b999e9da4a409224287a8df09779f2330135e8686604051610884929190612a9a565b60405180910390a35050505050565b5f7f7965db0b000000000000000000000000000000000000000000000000000000007bffffffffffffffffffffffffffffffffffffffffffffffffffffffff1916827bffffffffffffffffffffffffffffffffffffffffffffffffffffffff19161480610905575061090482611c7a565b5b9050919050565b5f6109548260035f8573ffffffffffffffffffffffffffffffffffffffff1673ffffffffffffffffffffffffffffffffffffffff1681526020019081526020015f2054611ce3565b9050919050565b5f80610965611a74565b90507f00000000000000000000000000000000000000000000000000000000000000008110156109c057807f00000000000000000000000000000000000000000000000000000000000000006109bb9190612a67565b6109c2565b5f5b91505090565b7f000000000000000000000000000000000000000000000000000000000000000081565b5f805f8381526020019081526020015f20600101549050919050565b7fa49807205ce4d355092ef5a8a18f56e8913cf4a201fbe287825b095693c21775610a3281611e10565b5f73ffffffffffffffffffffffffffffffffffffffff1660045f8473ffffffffffffffffffffffffffffffffffffffff1673ffffffffffffffffffffffffffffffffffffffff1681526020019081526020015f205f9054906101000a900473ffffffffffffffffffffffffffffffffffffffff1673ffffffffffffffffffffffffffffffffffffffff1603610afe57816040517ff9968b3a000000000000000000000000000000000000000000000000000000008152600401610af591906128ae565b60405180910390fd5b5f60035f8473ffffffffffffffffffffffffffffffffffffffff1673ffffffffffffffffffffffffffffffffffffffff1681526020019081526020015f20541115610bbf575f60035f8473ffffffffffffffffffffffffffffffffffffffff1673ffffffffffffffffffffffffffffffffffffffff1681526020019081526020015f20546040517f61965c4e000000000000000000000000000000000000000000000000000000008152600401610bb6929190612b4a565b60405180910390fd5b60045f8373ffffffffffffffffffffffffffffffffffffffff1673ffffffffffffffffffffffffffffffffffffffff1681526020019081526020015f205f6101000a81549073ffffffffffffffffffffffffffffffffffffffff02191690555f5b600580549050811015610d97578273ffffffffffffffffffffffffffffffffffffffff1660058281548110610c5857610c57612b71565b5b905f5260205f20015f9054906101000a900473ffffffffffffffffffffffffffffffffffffffff1673ffffffffffffffffffffffffffffffffffffffff1603610d8a5760056001600580549050610caf9190612a67565b81548110610cc057610cbf612b71565b5b905f5260205f20015f9054906101000a900473ffffffffffffffffffffffffffffffffffffffff1660058281548110610cfc57610cfb612b71565b5b905f5260205f20015f6101000a81548173ffffffffffffffffffffffffffffffffffffffff021916908373ffffffffffffffffffffffffffffffffffffffff1602179055506005805480610d5357610d52612b9e565b5b600190038181905f5260205f20015f6101000a81549073ffffffffffffffffffffffffffffffffffffffff02191690559055610d97565b8080600101915050610c20565b508173ffffffffffffffffffffffffffffffffffffffff167f4c910b69fe65a61f7531b9c5042b2329ca7179c77290aa7e2eb3afa3c8511fd360405160405180910390a25050565b610de8826109ec565b610df181611e10565b610dfb8383611e24565b50505050565b610e09611f0d565b5f8103610e42576040517f3f36295200000000000000000000000000000000000000000000000000000000815260040160405180910390fd5b5f73ffffffffffffffffffffffffffffffffffffffff168273ffffffffffffffffffffffffffffffffffffffff1603610eb257816040517ff9968b3a000000000000000000000000000000000000000000000000000000008152600401610ea991906128ae565b60405180910390fd5b5f73ffffffffffffffffffffffffffffffffffffffff1660045f8473ffffffffffffffffffffffffffffffffffffffff1673ffffffffffffffffffffffffffffffffffffffff1681526020019081526020015f205f9054906101000a900473ffffffffffffffffffffffffffffffffffffffff1673ffffffffffffffffffffffffffffffffffffffff1603610f7e57816040517ff9968b3a000000000000000000000000000000000000000000000000000000008152600401610f7591906128ae565b60405180910390fd5b610fab3330838573ffffffffffffffffffffffffffffffffffffffff16611f53909392919063ffffffff16565b610fb5828261066b565b610fbd611fd5565b5050565b610fc9611fde565b73ffffffffffffffffffffffffffffffffffffffff168173ffffffffffffffffffffffffffffffffffffffff161461102d576040517f6697b23200000000000000000000000000000000000000000000000000000000815260040160405180910390fd5b6110378282611fe5565b505050565b5f60045f8373ffffffffffffffffffffffffffffffffffffffff1673ffffffffffffffffffffffffffffffffffffffff1681526020019081526020015f205f9054906101000a900473ffffffffffffffffffffffffffffffffffffffff169050919050565b7fa49807205ce4d355092ef5a8a18f56e8913cf4a201fbe287825b095693c217756110cb81611e10565b5f73ffffffffffffffffffffffffffffffffffffffff168373ffffffffffffffffffffffffffffffffffffffff160361113b57826040517ff9968b3a00000000000000000000000000000000000000000000000000000000815260040161113291906128ae565b60405180910390fd5b5f73ffffffffffffffffffffffffffffffffffffffff1660045f8573ffffffffffffffffffffffffffffffffffffffff1673ffffffffffffffffffffffffffffffffffffffff1681526020019081526020015f205f9054906101000a900473ffffffffffffffffffffffffffffffffffffffff1673ffffffffffffffffffffffffffffffffffffffff161461120757826040517fc2a2f4750000000000000000000000000000000000000000000000000000000081526004016111fe91906128ae565b60405180910390fd5b8160045f8573ffffffffffffffffffffffffffffffffffffffff1673ffffffffffffffffffffffffffffffffffffffff1681526020019081526020015f205f6101000a81548173ffffffffffffffffffffffffffffffffffffffff021916908373ffffffffffffffffffffffffffffffffffffffff160217905550600583908060018154018082558091505060019003905f5260205f20015f9091909190916101000a81548173ffffffffffffffffffffffffffffffffffffffff021916908373ffffffffffffffffffffffffffffffffffffffff1602179055508173ffffffffffffffffffffffffffffffffffffffff168373ffffffffffffffffffffffffffffffffffffffff167fdffbd9ded1c09446f09377de547142dcce7dc541c8b0b028142b1eba7026b9e760405160405180910390a3505050565b5f8073ffffffffffffffffffffffffffffffffffffffff1660045f8473ffffffffffffffffffffffffffffffffffffffff1673ffffffffffffffffffffffffffffffffffffffff1681526020019081526020015f205f9054906101000a900473ffffffffffffffffffffffffffffffffffffffff1673ffffffffffffffffffffffffffffffffffffffff1614159050919050565b7fa49807205ce4d355092ef5a8a18f56e8913cf4a201fbe287825b095693c2177581565b5f611402611a74565b905090565b5f805f8481526020019081526020015f205f015f8373ffffffffffffffffffffffffffffffffffffffff1673ffffffffffffffffffffffffffffffffffffffff1681526020019081526020015f205f9054906101000a900460ff16905092915050565b611472611f0d565b5f81036114ab576040517f3f36295200000000000000000000000000000000000000000000000000000000815260040160405180910390fd5b5f73ffffffffffffffffffffffffffffffffffffffff168273ffffffffffffffffffffffffffffffffffffffff160361151b57816040517ff9968b3a00000000000000000000000000000000000000000000000000000000815260040161151291906128ae565b60405180910390fd5b61152582826120ce565b61152d611fd5565b5050565b5f801b81565b60075481565b60065481565b7f000000000000000000000000000000000000000000000000000000000000000081565b606060058054806020026020016040519081016040528092919081815260200182805480156115e857602002820191905f5260205f20905b815f9054906101000a900473ffffffffffffffffffffffffffffffffffffffff1673ffffffffffffffffffffffffffffffffffffffff168152602001906001019080831161159f575b5050505050905090565b5f8060025f8573ffffffffffffffffffffffffffffffffffffffff1673ffffffffffffffffffffffffffffffffffffffff1681526020019081526020015f205f8473ffffffffffffffffffffffffffffffffffffffff1673ffffffffffffffffffffffffffffffffffffffff1681526020019081526020015f205490506116798382611ce3565b91505092915050565b61168b826109ec565b61169481611e10565b61169e8383611fe5565b50505050565b5f8060025f8573ffffffffffffffffffffffffffffffffffffffff1673ffffffffffffffffffffffffffffffffffffffff1681526020019081526020015f205f8473ffffffffffffffffffffffffffffffffffffffff1673ffffffffffffffffffffffffffffffffffffffff1681526020019081526020015f205490505f61172c8483611ce3565b905061173884826117ed565b9250505092915050565b61174a611f0d565b5f8103611783576040517f3f36295200000000000000000000000000000000000000000000000000000000815260040160405180910390fd5b61178d5f826120ce565b611795611fd5565b50565b6117a0611f0d565b5f34036117d9576040517f3f36295200000000000000000000000000000000000000000000000000000000815260040160405180910390fd5b6117e35f3461066b565b6117eb611fd5565b565b5f8060045f8573ffffffffffffffffffffffffffffffffffffffff1673ffffffffffffffffffffffffffffffffffffffff1681526020019081526020015f205f9054906101000a900473ffffffffffffffffffffffffffffffffffffffff1690505f8173ffffffffffffffffffffffffffffffffffffffff1663feaf968c6040518163ffffffff1660e01b815260040160a060405180830381865afa158015611898573d5f803e3d5ffd5b505050506040513d601f19601f820116820180604052508101906118bc9190612c51565b5050509150505f81136118fb576040517f804b984b00000000000000000000000000000000000000000000000000000000815260040160405180910390fd5b5f8073ffffffffffffffffffffffffffffffffffffffff168673ffffffffffffffffffffffffffffffffffffffff16146119a1578573ffffffffffffffffffffffffffffffffffffffff1663313ce5676040518163ffffffff1660e01b8152600401602060405180830381865afa158015611978573d5f803e3d5ffd5b505050506040513d601f19601f8201168201806040525081019061199c9190612cfe565b6119a4565b60125b90505f8373ffffffffffffffffffffffffffffffffffffffff1663313ce5676040518163ffffffff1660e01b8152600401602060405180830381865afa1580156119f0573d5f803e3d5ffd5b505050506040513d601f19601f82011682018060405250810190611a149190612cfe565b905080600a611a239190612e58565b82600a611a309190612e58565b611a3a9190612ea2565b6012600a611a489190612e58565b8488611a549190612ea2565b611a5e9190612ea2565b611a689190612f10565b94505050505092915050565b5f805f90505f5b600580549050811015611b45575f60058281548110611a9d57611a9c612b71565b5b905f5260205f20015f9054906101000a900473ffffffffffffffffffffffffffffffffffffffff1690505f60035f8373ffffffffffffffffffffffffffffffffffffffff1673ffffffffffffffffffffffffffffffffffffffff1681526020019081526020015f205490505f811115611b36575f611b1b8383611ce3565b9050611b2783826117ed565b85611b329190612a34565b9450505b50508080600101915050611a7b565b508091505090565b5f805f73ffffffffffffffffffffffffffffffffffffffff168473ffffffffffffffffffffffffffffffffffffffff1614611bf4578373ffffffffffffffffffffffffffffffffffffffff1663313ce5676040518163ffffffff1660e01b8152600401602060405180830381865afa158015611bcb573d5f803e3d5ffd5b505050506040513d601f19601f82011682018060405250810190611bef9190612cfe565b611bf7565b60125b9050600660ff168160ff161115611c3457600681611c159190612f40565b600a611c219190612e58565b83611c2c9190612f10565b915050611c74565b600660ff168160ff161015611c6f57806006611c509190612f40565b600a611c5c9190612e58565b83611c679190612ea2565b915050611c74565b829150505b92915050565b5f7f01ffc9a7000000000000000000000000000000000000000000000000000000007bffffffffffffffffffffffffffffffffffffffffffffffffffffffff1916827bffffffffffffffffffffffffffffffffffffffffffffffffffffffff1916149050919050565b5f805f73ffffffffffffffffffffffffffffffffffffffff168473ffffffffffffffffffffffffffffffffffffffff1614611d8a578373ffffffffffffffffffffffffffffffffffffffff1663313ce5676040518163ffffffff1660e01b8152600401602060405180830381865afa158015611d61573d5f803e3d5ffd5b505050506040513d601f19601f82011682018060405250810190611d859190612cfe565b611d8d565b60125b9050600660ff168160ff161115611dca57600681611dab9190612f40565b600a611db79190612e58565b83611dc29190612ea2565b915050611e0a565b600660ff168160ff161015611e0557806006611de69190612f40565b600a611df29190612e58565b83611dfd9190612f10565b915050611e0a565b829150505b92915050565b611e2181611e1c611fde565b61249b565b50565b5f611e2f8383611407565b611f035760015f808581526020019081526020015f205f015f8473ffffffffffffffffffffffffffffffffffffffff1673ffffffffffffffffffffffffffffffffffffffff1681526020019081526020015f205f6101000a81548160ff021916908315150217905550611ea0611fde565b73ffffffffffffffffffffffffffffffffffffffff168273ffffffffffffffffffffffffffffffffffffffff16847f2f8788117e7eff1d82e926ec794901d17c78024a50270940304540a733656f0d60405160405180910390a460019050611f07565b5f90505b92915050565b600260015403611f49576040517f3ee5aeb500000000000000000000000000000000000000000000000000000000815260040160405180910390fd5b6002600181905550565b611fcf848573ffffffffffffffffffffffffffffffffffffffff166323b872dd868686604051602401611f8893929190612f74565b604051602081830303815290604052915060e01b6020820180517bffffffffffffffffffffffffffffffffffffffffffffffffffffffff83818316178352505050506124ec565b50505050565b60018081905550565b5f33905090565b5f611ff08383611407565b156120c4575f805f8581526020019081526020015f205f015f8473ffffffffffffffffffffffffffffffffffffffff1673ffffffffffffffffffffffffffffffffffffffff1681526020019081526020015f205f6101000a81548160ff021916908315150217905550612061611fde565b73ffffffffffffffffffffffffffffffffffffffff168273ffffffffffffffffffffffffffffffffffffffff16847ff6391f5c32d9c69d2a47ea670b442974b53935d1edc7fd64eb21e047a839171b60405160405180910390a4600190506120c8565b5f90505b92915050565b5f6120d98383611b4d565b90505f60025f3373ffffffffffffffffffffffffffffffffffffffff1673ffffffffffffffffffffffffffffffffffffffff1681526020019081526020015f205f8573ffffffffffffffffffffffffffffffffffffffff1673ffffffffffffffffffffffffffffffffffffffff1681526020019081526020015f205490508082111561219e5781816040517f61965c4e000000000000000000000000000000000000000000000000000000008152600401612195929190612a9a565b60405180910390fd5b5f6121a985856117ed565b90507f000000000000000000000000000000000000000000000000000000000000000081111561223257807f00000000000000000000000000000000000000000000000000000000000000006040517f2d05fcba000000000000000000000000000000000000000000000000000000008152600401612229929190612a9a565b60405180910390fd5b8260025f3373ffffffffffffffffffffffffffffffffffffffff1673ffffffffffffffffffffffffffffffffffffffff1681526020019081526020015f205f8773ffffffffffffffffffffffffffffffffffffffff1673ffffffffffffffffffffffffffffffffffffffff1681526020019081526020015f205f8282546122b99190612a67565b925050819055508260035f8773ffffffffffffffffffffffffffffffffffffffff1673ffffffffffffffffffffffffffffffffffffffff1681526020019081526020015f205f82825461230c9190612a67565b9250508190555060075f81548092919061232590612ac1565b91905055505f73ffffffffffffffffffffffffffffffffffffffff168573ffffffffffffffffffffffffffffffffffffffff1603612401575f3373ffffffffffffffffffffffffffffffffffffffff168560405161238290612fd6565b5f6040518083038185875af1925050503d805f81146123bc576040519150601f19603f3d011682016040523d82523d5f602084013e6123c1565b606091505b50509050806123fb576040517ee35d8600000000000000000000000000000000000000000000000000000000815260040160405180910390fd5b5061242d565b61242c33858773ffffffffffffffffffffffffffffffffffffffff166125879092919063ffffffff16565b5b8473ffffffffffffffffffffffffffffffffffffffff163373ffffffffffffffffffffffffffffffffffffffff167fde1d532173c6de1e3937c7af1cb92745c738980729f53ac451a725f929f3b798868460405161248c929190612a9a565b60405180910390a35050505050565b6124a58282611407565b6124e85780826040517fe2517d3f0000000000000000000000000000000000000000000000000000000081526004016124df929190612fea565b60405180910390fd5b5050565b5f8060205f8451602086015f885af18061250b576040513d5f823e3d81fd5b3d92505f519150505f821461252457600181141561253f565b5f8473ffffffffffffffffffffffffffffffffffffffff163b145b1561258157836040517f5274afe700000000000000000000000000000000000000000000000000000000815260040161257891906128ae565b60405180910390fd5b50505050565b612601838473ffffffffffffffffffffffffffffffffffffffff1663a9059cbb85856040516024016125ba929190613011565b604051602081830303815290604052915060e01b6020820180517bffffffffffffffffffffffffffffffffffffffffffffffffffffffff83818316178352505050506124ec565b505050565b5f80fd5b5f7fffffffff0000000000000000000000000000000000000000000000000000000082169050919050565b61263e8161260a565b8114612648575f80fd5b50565b5f8135905061265981612635565b92915050565b5f6020828403121561267457612673612606565b5b5f6126818482850161264b565b91505092915050565b5f8115159050919050565b61269e8161268a565b82525050565b5f6020820190506126b75f830184612695565b92915050565b5f73ffffffffffffffffffffffffffffffffffffffff82169050919050565b5f6126e6826126bd565b9050919050565b6126f6816126dc565b8114612700575f80fd5b50565b5f81359050612711816126ed565b92915050565b5f6020828403121561272c5761272b612606565b5b5f61273984828501612703565b91505092915050565b5f819050919050565b61275481612742565b82525050565b5f60208201905061276d5f83018461274b565b92915050565b5f819050919050565b61278581612773565b811461278f575f80fd5b50565b5f813590506127a08161277c565b92915050565b5f602082840312156127bb576127ba612606565b5b5f6127c884828501612792565b91505092915050565b6127da81612773565b82525050565b5f6020820190506127f35f8301846127d1565b92915050565b5f806040838503121561280f5761280e612606565b5b5f61281c85828601612792565b925050602061282d85828601612703565b9150509250929050565b61284081612742565b811461284a575f80fd5b50565b5f8135905061285b81612837565b92915050565b5f806040838503121561287757612876612606565b5b5f61288485828601612703565b92505060206128958582860161284d565b9150509250929050565b6128a8816126dc565b82525050565b5f6020820190506128c15f83018461289f565b92915050565b5f80604083850312156128dd576128dc612606565b5b5f6128ea85828601612703565b92505060206128fb85828601612703565b9150509250929050565b5f81519050919050565b5f82825260208201905092915050565b5f819050602082019050919050565b612937816126dc565b82525050565b5f612948838361292e565b60208301905092915050565b5f602082019050919050565b5f61296a82612905565b612974818561290f565b935061297f8361291f565b805f5b838110156129af578151612996888261293d565b97506129a183612954565b925050600181019050612982565b5085935050505092915050565b5f6020820190508181035f8301526129d48184612960565b905092915050565b5f602082840312156129f1576129f0612606565b5b5f6129fe8482850161284d565b91505092915050565b7f4e487b71000000000000000000000000000000000000000000000000000000005f52601160045260245ffd5b5f612a3e82612742565b9150612a4983612742565b9250828201905080821115612a6157612a60612a07565b5b92915050565b5f612a7182612742565b9150612a7c83612742565b9250828203905081811115612a9457612a93612a07565b5b92915050565b5f604082019050612aad5f83018561274b565b612aba602083018461274b565b9392505050565b5f612acb82612742565b91507fffffffffffffffffffffffffffffffffffffffffffffffffffffffffffffffff8203612afd57612afc612a07565b5b600182019050919050565b5f819050919050565b5f819050919050565b5f612b34612b2f612b2a84612b08565b612b11565b612742565b9050919050565b612b4481612b1a565b82525050565b5f604082019050612b5d5f830185612b3b565b612b6a602083018461274b565b9392505050565b7f4e487b71000000000000000000000000000000000000000000000000000000005f52603260045260245ffd5b7f4e487b71000000000000000000000000000000000000000000000000000000005f52603160045260245ffd5b5f69ffffffffffffffffffff82169050919050565b612be981612bcb565b8114612bf3575f80fd5b50565b5f81519050612c0481612be0565b92915050565b5f819050919050565b612c1c81612c0a565b8114612c26575f80fd5b50565b5f81519050612c3781612c13565b92915050565b5f81519050612c4b81612837565b92915050565b5f805f805f60a08688031215612c6a57612c69612606565b5b5f612c7788828901612bf6565b9550506020612c8888828901612c29565b9450506040612c9988828901612c3d565b9350506060612caa88828901612c3d565b9250506080612cbb88828901612bf6565b9150509295509295909350565b5f60ff82169050919050565b612cdd81612cc8565b8114612ce7575f80fd5b50565b5f81519050612cf881612cd4565b92915050565b5f60208284031215612d1357612d12612606565b5b5f612d2084828501612cea565b91505092915050565b5f8160011c9050919050565b5f808291508390505b6001851115612d7e57808604811115612d5a57612d59612a07565b5b6001851615612d695780820291505b8081029050612d7785612d29565b9450612d3e565b94509492505050565b5f82612d965760019050612e51565b81612da3575f9050612e51565b8160018114612db95760028114612dc357612df2565b6001915050612e51565b60ff841115612dd557612dd4612a07565b5b8360020a915084821115612dec57612deb612a07565b5b50612e51565b5060208310610133831016604e8410600b8410161715612e275782820a905083811115612e2257612e21612a07565b5b612e51565b612e348484846001612d35565b92509050818404811115612e4b57612e4a612a07565b5b81810290505b9392505050565b5f612e6282612742565b9150612e6d83612cc8565b9250612e9a7fffffffffffffffffffffffffffffffffffffffffffffffffffffffffffffffff8484612d87565b905092915050565b5f612eac82612742565b9150612eb783612742565b9250828202612ec581612742565b91508282048414831517612edc57612edb612a07565b5b5092915050565b7f4e487b71000000000000000000000000000000000000000000000000000000005f52601260045260245ffd5b5f612f1a82612742565b9150612f2583612742565b925082612f3557612f34612ee3565b5b828204905092915050565b5f612f4a82612cc8565b9150612f5583612cc8565b9250828203905060ff811115612f6e57612f6d612a07565b5b92915050565b5f606082019050612f875f83018661289f565b612f94602083018561289f565b612fa1604083018461274b565b949350505050565b5f81905092915050565b50565b5f612fc15f83612fa9565b9150612fcc82612fb3565b5f82019050919050565b5f612fe082612fb6565b9150819050919050565b5f604082019050612ffd5f83018561289f565b61300a60208301846127d1565b9392505050565b5f6040820190506130245f83018561289f565b613031602083018461274b565b939250505056fea26469706673582212201a1340fcc7905c0fe5a981bd436cf7777761ce3224a107b20c4292f3acb8482564736f6c634300081a0033",
					"opcodes": "PUSH1 0xC0 PUSH1 0x40 MSTORE CALLVALUE DUP1 ISZERO PUSH2 0xF JUMPI PUSH0 DUP1 REVERT JUMPDEST POP PUSH1 0x40 MLOAD PUSH2 0x34AC CODESIZE SUB DUP1 PUSH2 0x34AC DUP4 CODECOPY DUP2 DUP2 ADD PUSH1 0x40 MSTORE DUP2 ADD SWAP1 PUSH2 0x31 SWAP2 SWAP1 PUSH2 0x3A3 JUMP JUMPDEST PUSH1 0x1 DUP1 DUP2 SWAP1 SSTORE POP PUSH0 DUP4 EQ DUP1 PUSH2 0x45 JUMPI POP PUSH0 DUP3 EQ JUMPDEST ISZERO PUSH2 0x7C JUMPI PUSH1 0x40 MLOAD PUSH32 0x3F36295200000000000000000000000000000000000000000000000000000000 DUP2 MSTORE PUSH1 0x4 ADD PUSH1 0x40 MLOAD DUP1 SWAP2 SUB SWAP1 REVERT JUMPDEST DUP3 PUSH1 0x80 DUP2 DUP2 MSTORE POP POP DUP2 PUSH1 0xA0 DUP2 DUP2 MSTORE POP POP PUSH2 0x9E PUSH0 DUP1 SHL CALLER PUSH2 0x1B3 PUSH1 0x20 SHL PUSH1 0x20 SHR JUMP JUMPDEST POP PUSH2 0xCF PUSH32 0xA49807205CE4D355092EF5A8A18F56E8913CF4A201FBE287825B095693C21775 CALLER PUSH2 0x1B3 PUSH1 0x20 SHL PUSH1 0x20 SHR JUMP JUMPDEST POP DUP1 PUSH1 0x4 PUSH0 DUP1 PUSH20 0xFFFFFFFFFFFFFFFFFFFFFFFFFFFFFFFFFFFFFFFF AND PUSH20 0xFFFFFFFFFFFFFFFFFFFFFFFFFFFFFFFFFFFFFFFF AND DUP2 MSTORE PUSH1 0x20 ADD SWAP1 DUP2 MSTORE PUSH1 0x20 ADD PUSH0 KECCAK256 PUSH0 PUSH2 0x100 EXP DUP2 SLOAD DUP2 PUSH20 0xFFFFFFFFFFFFFFFFFFFFFFFFFFFFFFFFFFFFFFFF MUL NOT AND SWAP1 DUP4 PUSH20 0xFFFFFFFFFFFFFFFFFFFFFFFFFFFFFFFFFFFFFFFF AND MUL OR SWAP1 SSTORE POP PUSH1 0x5 PUSH0 SWAP1 DUP1 PUSH1 0x1 DUP2 SLOAD ADD DUP1 DUP3 SSTORE DUP1 SWAP2 POP POP PUSH1 0x1 SWAP1 SUB SWAP1 PUSH0 MSTORE PUSH1 0x20 PUSH0 KECCAK256 ADD PUSH0 SWAP1 SWAP2 SWAP1 SWAP2 SWAP1 SWAP2 PUSH2 0x100 EXP DUP2 SLOAD DUP2 PUSH20 0xFFFFFFFFFFFFFFFFFFFFFFFFFFFFFFFFFFFFFFFF MUL NOT AND SWAP1 DUP4 PUSH20 0xFFFFFFFFFFFFFFFFFFFFFFFFFFFFFFFFFFFFFFFF AND MUL OR SWAP1 SSTORE POP POP POP POP PUSH2 0x3F3 JUMP JUMPDEST PUSH0 PUSH2 0x1C4 DUP4 DUP4 PUSH2 0x2A8 PUSH1 0x20 SHL PUSH1 0x20 SHR JUMP JUMPDEST PUSH2 0x29E JUMPI PUSH1 0x1 PUSH0 DUP1 DUP6 DUP2 MSTORE PUSH1 0x20 ADD SWAP1 DUP2 MSTORE PUSH1 0x20 ADD PUSH0 KECCAK256 PUSH0 ADD PUSH0 DUP5 PUSH20 0xFFFFFFFFFFFFFFFFFFFFFFFFFFFFFFFFFFFFFFFF AND PUSH20 0xFFFFFFFFFFFFFFFFFFFFFFFFFFFFFFFFFFFFFFFF AND DUP2 MSTORE PUSH1 0x20 ADD SWAP1 DUP2 MSTORE PUSH1 0x20 ADD PUSH0 KECCAK256 PUSH0 PUSH2 0x100 EXP DUP2 SLOAD DUP2 PUSH1 0xFF MUL NOT AND SWAP1 DUP4 ISZERO ISZERO MUL OR SWAP1 SSTORE POP PUSH2 0x23B PUSH2 0x30B PUSH1 0x20 SHL PUSH1 0x20 SHR JUMP JUMPDEST PUSH20 0xFFFFFFFFFFFFFFFFFFFFFFFFFFFFFFFFFFFFFFFF AND DUP3 PUSH20 0xFFFFFFFFFFFFFFFFFFFFFFFFFFFFFFFFFFFFFFFF AND DUP5 PUSH32 0x2F8788117E7EFF1D82E926EC794901D17C78024A50270940304540A733656F0D PUSH1 0x40 MLOAD PUSH1 0x40 MLOAD DUP1 SWAP2 SUB SWAP1 LOG4 PUSH1 0x1 SWAP1 POP PUSH2 0x2A2 JUMP JUMPDEST PUSH0 SWAP1 POP JUMPDEST SWAP3 SWAP2 POP POP JUMP JUMPDEST PUSH0 DUP1 PUSH0 DUP5 DUP2 MSTORE PUSH1 0x20 ADD SWAP1 DUP2 MSTORE PUSH1 0x20 ADD PUSH0 KECCAK256 PUSH0 ADD PUSH0 DUP4 PUSH20 0xFFFFFFFFFFFFFFFFFFFFFFFFFFFFFFFFFFFFFFFF AND PUSH20 0xFFFFFFFFFFFFFFFFFFFFFFFFFFFFFFFFFFFFFFFF AND DUP2 MSTORE PUSH1 0x20 ADD SWAP1 DUP2 MSTORE PUSH1 0x20 ADD PUSH0 KECCAK256 PUSH0 SWAP1 SLOAD SWAP1 PUSH2 0x100 EXP SWAP1 DIV PUSH1 0xFF AND SWAP1 POP SWAP3 SWAP2 POP POP JUMP JUMPDEST PUSH0 CALLER SWAP1 POP SWAP1 JUMP JUMPDEST PUSH0 DUP1 REVERT JUMPDEST PUSH0 DUP2 SWAP1 POP SWAP2 SWAP1 POP JUMP JUMPDEST PUSH2 0x328 DUP2 PUSH2 0x316 JUMP JUMPDEST DUP2 EQ PUSH2 0x332 JUMPI PUSH0 DUP1 REVERT JUMPDEST POP JUMP JUMPDEST PUSH0 DUP2 MLOAD SWAP1 POP PUSH2 0x343 DUP2 PUSH2 0x31F JUMP JUMPDEST SWAP3 SWAP2 POP POP JUMP JUMPDEST PUSH0 PUSH20 0xFFFFFFFFFFFFFFFFFFFFFFFFFFFFFFFFFFFFFFFF DUP3 AND SWAP1 POP SWAP2 SWAP1 POP JUMP JUMPDEST PUSH0 PUSH2 0x372 DUP3 PUSH2 0x349 JUMP JUMPDEST SWAP1 POP SWAP2 SWAP1 POP JUMP JUMPDEST PUSH2 0x382 DUP2 PUSH2 0x368 JUMP JUMPDEST DUP2 EQ PUSH2 0x38C JUMPI PUSH0 DUP1 REVERT JUMPDEST POP JUMP JUMPDEST PUSH0 DUP2 MLOAD SWAP1 POP PUSH2 0x39D DUP2 PUSH2 0x379 JUMP JUMPDEST SWAP3 SWAP2 POP POP JUMP JUMPDEST PUSH0 DUP1 PUSH0 PUSH1 0x60 DUP5 DUP7 SUB SLT ISZERO PUSH2 0x3BA JUMPI PUSH2 0x3B9 PUSH2 0x312 JUMP JUMPDEST JUMPDEST PUSH0 PUSH2 0x3C7 DUP7 DUP3 DUP8 ADD PUSH2 0x335 JUMP JUMPDEST SWAP4 POP POP PUSH1 0x20 PUSH2 0x3D8 DUP7 DUP3 DUP8 ADD PUSH2 0x335 JUMP JUMPDEST SWAP3 POP POP PUSH1 0x40 PUSH2 0x3E9 DUP7 DUP3 DUP8 ADD PUSH2 0x38F JUMP JUMPDEST SWAP2 POP POP SWAP3 POP SWAP3 POP SWAP3 JUMP JUMPDEST PUSH1 0x80 MLOAD PUSH1 0xA0 MLOAD PUSH2 0x306E PUSH2 0x43E PUSH0 CODECOPY PUSH0 DUP2 DUP2 PUSH2 0x685 ADD MSTORE DUP2 DUP2 PUSH2 0x6BA ADD MSTORE DUP2 DUP2 PUSH2 0x969 ADD MSTORE DUP2 DUP2 PUSH2 0x992 ADD MSTORE PUSH2 0x9CA ADD MSTORE PUSH0 DUP2 DUP2 PUSH2 0x1545 ADD MSTORE DUP2 DUP2 PUSH2 0x21AD ADD MSTORE PUSH2 0x21D6 ADD MSTORE PUSH2 0x306E PUSH0 RETURN INVALID PUSH1 0x80 PUSH1 0x40 MSTORE PUSH1 0x4 CALLDATASIZE LT PUSH2 0x184 JUMPI PUSH0 CALLDATALOAD PUSH1 0xE0 SHR DUP1 PUSH4 0x83E397B8 GT PUSH2 0xD0 JUMPI DUP1 PUSH4 0xD15F58FB GT PUSH2 0x89 JUMPI DUP1 PUSH4 0xD547741F GT PUSH2 0x63 JUMPI DUP1 PUSH4 0xD547741F EQ PUSH2 0x5D5 JUMPI DUP1 PUSH4 0xE62615C6 EQ PUSH2 0x5FD JUMPI DUP1 PUSH4 0xF14210A6 EQ PUSH2 0x639 JUMPI DUP1 PUSH4 0xF6326FB3 EQ PUSH2 0x661 JUMPI PUSH2 0x195 JUMP JUMPDEST DUP1 PUSH4 0xD15F58FB EQ PUSH2 0x545 JUMPI DUP1 PUSH4 0xD3C7C2C7 EQ PUSH2 0x56F JUMPI DUP1 PUSH4 0xD4FAC45D EQ PUSH2 0x599 JUMPI PUSH2 0x195 JUMP JUMPDEST DUP1 PUSH4 0x83E397B8 EQ PUSH2 0x439 JUMPI DUP1 PUSH4 0x91D14854 EQ PUSH2 0x463 JUMPI DUP1 PUSH4 0x9E281A98 EQ PUSH2 0x49F JUMPI DUP1 PUSH4 0xA217FDDF EQ PUSH2 0x4C7 JUMPI DUP1 PUSH4 0xB2343B1C EQ PUSH2 0x4F1 JUMPI DUP1 PUSH4 0xCAC2E25F EQ PUSH2 0x51B JUMPI PUSH2 0x195 JUMP JUMPDEST DUP1 PUSH4 0x2F2FF15D GT PUSH2 0x13D JUMPI DUP1 PUSH4 0x5B6CCA80 GT PUSH2 0x117 JUMPI DUP1 PUSH4 0x5B6CCA80 EQ PUSH2 0x36F JUMPI DUP1 PUSH4 0x5CCF7AC4 EQ PUSH2 0x3AB JUMPI DUP1 PUSH4 0x75151B63 EQ PUSH2 0x3D3 JUMPI DUP1 PUSH4 0x75B238FC EQ PUSH2 0x40F JUMPI PUSH2 0x195 JUMP JUMPDEST DUP1 PUSH4 0x2F2FF15D EQ PUSH2 0x2F7 JUMPI DUP1 PUSH4 0x338B5DEA EQ PUSH2 0x31F JUMPI DUP1 PUSH4 0x36568ABE EQ PUSH2 0x347 JUMPI PUSH2 0x195 JUMP JUMPDEST DUP1 PUSH4 0x1FFC9A7 EQ PUSH2 0x1C7 JUMPI DUP1 PUSH4 0x251CFA1 EQ PUSH2 0x203 JUMPI DUP1 PUSH4 0x8133237 EQ PUSH2 0x23F JUMPI DUP1 PUSH4 0xCCEE433 EQ PUSH2 0x269 JUMPI DUP1 PUSH4 0x248A9CA3 EQ PUSH2 0x293 JUMPI DUP1 PUSH4 0x2BA8D939 EQ PUSH2 0x2CF JUMPI PUSH2 0x195 JUMP JUMPDEST CALLDATASIZE PUSH2 0x195 JUMPI PUSH2 0x193 PUSH0 CALLVALUE PUSH2 0x66B JUMP JUMPDEST STOP JUMPDEST PUSH1 0x40 MLOAD PUSH32 0x2AE871A500000000000000000000000000000000000000000000000000000000 DUP2 MSTORE PUSH1 0x4 ADD PUSH1 0x40 MLOAD DUP1 SWAP2 SUB SWAP1 REVERT JUMPDEST CALLVALUE DUP1 ISZERO PUSH2 0x1D2 JUMPI PUSH0 DUP1 REVERT JUMPDEST POP PUSH2 0x1ED PUSH1 0x4 DUP1 CALLDATASIZE SUB DUP2 ADD SWAP1 PUSH2 0x1E8 SWAP2 SWAP1 PUSH2 0x265F JUMP JUMPDEST PUSH2 0x893 JUMP JUMPDEST PUSH1 0x40 MLOAD PUSH2 0x1FA SWAP2 SWAP1 PUSH2 0x26A4 JUMP JUMPDEST PUSH1 0x40 MLOAD DUP1 SWAP2 SUB SWAP1 RETURN JUMPDEST CALLVALUE DUP1 ISZERO PUSH2 0x20E JUMPI PUSH0 DUP1 REVERT JUMPDEST POP PUSH2 0x229 PUSH1 0x4 DUP1 CALLDATASIZE SUB DUP2 ADD SWAP1 PUSH2 0x224 SWAP2 SWAP1 PUSH2 0x2717 JUMP JUMPDEST PUSH2 0x90C JUMP JUMPDEST PUSH1 0x40 MLOAD PUSH2 0x236 SWAP2 SWAP1 PUSH2 0x275A JUMP JUMPDEST PUSH1 0x40 MLOAD DUP1 SWAP2 SUB SWAP1 RETURN JUMPDEST CALLVALUE DUP1 ISZERO PUSH2 0x24A JUMPI PUSH0 DUP1 REVERT JUMPDEST POP PUSH2 0x253 PUSH2 0x95B JUMP JUMPDEST PUSH1 0x40 MLOAD PUSH2 0x260 SWAP2 SWAP1 PUSH2 0x275A JUMP JUMPDEST PUSH1 0x40 MLOAD DUP1 SWAP2 SUB SWAP1 RETURN JUMPDEST CALLVALUE DUP1 ISZERO PUSH2 0x274 JUMPI PUSH0 DUP1 REVERT JUMPDEST POP PUSH2 0x27D PUSH2 0x9C8 JUMP JUMPDEST PUSH1 0x40 MLOAD PUSH2 0x28A SWAP2 SWAP1 PUSH2 0x275A JUMP JUMPDEST PUSH1 0x40 MLOAD DUP1 SWAP2 SUB SWAP1 RETURN JUMPDEST CALLVALUE DUP1 ISZERO PUSH2 0x29E JUMPI PUSH0 DUP1 REVERT JUMPDEST POP PUSH2 0x2B9 PUSH1 0x4 DUP1 CALLDATASIZE SUB DUP2 ADD SWAP1 PUSH2 0x2B4 SWAP2 SWAP1 PUSH2 0x27A6 JUMP JUMPDEST PUSH2 0x9EC JUMP JUMPDEST PUSH1 0x40 MLOAD PUSH2 0x2C6 SWAP2 SWAP1 PUSH2 0x27E0 JUMP JUMPDEST PUSH1 0x40 MLOAD DUP1 SWAP2 SUB SWAP1 RETURN JUMPDEST CALLVALUE DUP1 ISZERO PUSH2 0x2DA JUMPI PUSH0 DUP1 REVERT JUMPDEST POP PUSH2 0x2F5 PUSH1 0x4 DUP1 CALLDATASIZE SUB DUP2 ADD SWAP1 PUSH2 0x2F0 SWAP2 SWAP1 PUSH2 0x2717 JUMP JUMPDEST PUSH2 0xA08 JUMP JUMPDEST STOP JUMPDEST CALLVALUE DUP1 ISZERO PUSH2 0x302 JUMPI PUSH0 DUP1 REVERT JUMPDEST POP PUSH2 0x31D PUSH1 0x4 DUP1 CALLDATASIZE SUB DUP2 ADD SWAP1 PUSH2 0x318 SWAP2 SWAP1 PUSH2 0x27F9 JUMP JUMPDEST PUSH2 0xDDF JUMP JUMPDEST STOP JUMPDEST CALLVALUE DUP1 ISZERO PUSH2 0x32A JUMPI PUSH0 DUP1 REVERT JUMPDEST POP PUSH2 0x345 PUSH1 0x4 DUP1 CALLDATASIZE SUB DUP2 ADD SWAP1 PUSH2 0x340 SWAP2 SWAP1 PUSH2 0x2861 JUMP JUMPDEST PUSH2 0xE01 JUMP JUMPDEST STOP JUMPDEST CALLVALUE DUP1 ISZERO PUSH2 0x352 JUMPI PUSH0 DUP1 REVERT JUMPDEST POP PUSH2 0x36D PUSH1 0x4 DUP1 CALLDATASIZE SUB DUP2 ADD SWAP1 PUSH2 0x368 SWAP2 SWAP1 PUSH2 0x27F9 JUMP JUMPDEST PUSH2 0xFC1 JUMP JUMPDEST STOP JUMPDEST CALLVALUE DUP1 ISZERO PUSH2 0x37A JUMPI PUSH0 DUP1 REVERT JUMPDEST POP PUSH2 0x395 PUSH1 0x4 DUP1 CALLDATASIZE SUB DUP2 ADD SWAP1 PUSH2 0x390 SWAP2 SWAP1 PUSH2 0x2717 JUMP JUMPDEST PUSH2 0x103C JUMP JUMPDEST PUSH1 0x40 MLOAD PUSH2 0x3A2 SWAP2 SWAP1 PUSH2 0x28AE JUMP JUMPDEST PUSH1 0x40 MLOAD DUP1 SWAP2 SUB SWAP1 RETURN JUMPDEST CALLVALUE DUP1 ISZERO PUSH2 0x3B6 JUMPI PUSH0 DUP1 REVERT JUMPDEST POP PUSH2 0x3D1 PUSH1 0x4 DUP1 CALLDATASIZE SUB DUP2 ADD SWAP1 PUSH2 0x3CC SWAP2 SWAP1 PUSH2 0x28C7 JUMP JUMPDEST PUSH2 0x10A1 JUMP JUMPDEST STOP JUMPDEST CALLVALUE DUP1 ISZERO PUSH2 0x3DE JUMPI PUSH0 DUP1 REVERT JUMPDEST POP PUSH2 0x3F9 PUSH1 0x4 DUP1 CALLDATASIZE SUB DUP2 ADD SWAP1 PUSH2 0x3F4 SWAP2 SWAP1 PUSH2 0x2717 JUMP JUMPDEST PUSH2 0x1341 JUMP JUMPDEST PUSH1 0x40 MLOAD PUSH2 0x406 SWAP2 SWAP1 PUSH2 0x26A4 JUMP JUMPDEST PUSH1 0x40 MLOAD DUP1 SWAP2 SUB SWAP1 RETURN JUMPDEST CALLVALUE DUP1 ISZERO PUSH2 0x41A JUMPI PUSH0 DUP1 REVERT JUMPDEST POP PUSH2 0x423 PUSH2 0x13D5 JUMP JUMPDEST PUSH1 0x40 MLOAD PUSH2 0x430 SWAP2 SWAP1 PUSH2 0x27E0 JUMP JUMPDEST PUSH1 0x40 MLOAD DUP1 SWAP2 SUB SWAP1 RETURN JUMPDEST CALLVALUE DUP1 ISZERO PUSH2 0x444 JUMPI PUSH0 DUP1 REVERT JUMPDEST POP PUSH2 0x44D PUSH2 0x13F9 JUMP JUMPDEST PUSH1 0x40 MLOAD PUSH2 0x45A SWAP2 SWAP1 PUSH2 0x275A JUMP JUMPDEST PUSH1 0x40 MLOAD DUP1 SWAP2 SUB SWAP1 RETURN JUMPDEST CALLVALUE DUP1 ISZERO PUSH2 0x46E JUMPI PUSH0 DUP1 REVERT JUMPDEST POP PUSH2 0x489 PUSH1 0x4 DUP1 CALLDATASIZE SUB DUP2 ADD SWAP1 PUSH2 0x484 SWAP2 SWAP1 PUSH2 0x27F9 JUMP JUMPDEST PUSH2 0x1407 JUMP JUMPDEST PUSH1 0x40 MLOAD PUSH2 0x496 SWAP2 SWAP1 PUSH2 0x26A4 JUMP JUMPDEST PUSH1 0x40 MLOAD DUP1 SWAP2 SUB SWAP1 RETURN JUMPDEST CALLVALUE DUP1 ISZERO PUSH2 0x4AA JUMPI PUSH0 DUP1 REVERT JUMPDEST POP PUSH2 0x4C5 PUSH1 0x4 DUP1 CALLDATASIZE SUB DUP2 ADD SWAP1 PUSH2 0x4C0 SWAP2 SWAP1 PUSH2 0x2861 JUMP JUMPDEST PUSH2 0x146A JUMP JUMPDEST STOP JUMPDEST CALLVALUE DUP1 ISZERO PUSH2 0x4D2 JUMPI PUSH0 DUP1 REVERT JUMPDEST POP PUSH2 0x4DB PUSH2 0x1531 JUMP JUMPDEST PUSH1 0x40 MLOAD PUSH2 0x4E8 SWAP2 SWAP1 PUSH2 0x27E0 JUMP JUMPDEST PUSH1 0x40 MLOAD DUP1 SWAP2 SUB SWAP1 RETURN JUMPDEST CALLVALUE DUP1 ISZERO PUSH2 0x4FC JUMPI PUSH0 DUP1 REVERT JUMPDEST POP PUSH2 0x505 PUSH2 0x1537 JUMP JUMPDEST PUSH1 0x40 MLOAD PUSH2 0x512 SWAP2 SWAP1 PUSH2 0x275A JUMP JUMPDEST PUSH1 0x40 MLOAD DUP1 SWAP2 SUB SWAP1 RETURN JUMPDEST CALLVALUE DUP1 ISZERO PUSH2 0x526 JUMPI PUSH0 DUP1 REVERT JUMPDEST POP PUSH2 0x52F PUSH2 0x153D JUMP JUMPDEST PUSH1 0x40 MLOAD PUSH2 0x53C SWAP2 SWAP1 PUSH2 0x275A JUMP JUMPDEST PUSH1 0x40 MLOAD DUP1 SWAP2 SUB SWAP1 RETURN JUMPDEST CALLVALUE DUP1 ISZERO PUSH2 0x550 JUMPI PUSH0 DUP1 REVERT JUMPDEST POP PUSH2 0x559 PUSH2 0x1543 JUMP JUMPDEST PUSH1 0x40 MLOAD PUSH2 0x566 SWAP2 SWAP1 PUSH2 0x275A JUMP JUMPDEST PUSH1 0x40 MLOAD DUP1 SWAP2 SUB SWAP1 RETURN JUMPDEST CALLVALUE DUP1 ISZERO PUSH2 0x57A JUMPI PUSH0 DUP1 REVERT JUMPDEST POP PUSH2 0x583 PUSH2 0x1567 JUMP JUMPDEST PUSH1 0x40 MLOAD PUSH2 0x590 SWAP2 SWAP1 PUSH2 0x29BC JUMP JUMPDEST PUSH1 0x40 MLOAD DUP1 SWAP2 SUB SWAP1 RETURN JUMPDEST CALLVALUE DUP1 ISZERO PUSH2 0x5A4 JUMPI PUSH0 DUP1 REVERT JUMPDEST POP PUSH2 0x5BF PUSH1 0x4 DUP1 CALLDATASIZE SUB DUP2 ADD SWAP1 PUSH2 0x5BA SWAP2 SWAP1 PUSH2 0x28C7 JUMP JUMPDEST PUSH2 0x15F2 JUMP JUMPDEST PUSH1 0x40 MLOAD PUSH2 0x5CC SWAP2 SWAP1 PUSH2 0x275A JUMP JUMPDEST PUSH1 0x40 MLOAD DUP1 SWAP2 SUB SWAP1 RETURN JUMPDEST CALLVALUE DUP1 ISZERO PUSH2 0x5E0 JUMPI PUSH0 DUP1 REVERT JUMPDEST POP PUSH2 0x5FB PUSH1 0x4 DUP1 CALLDATASIZE SUB DUP2 ADD SWAP1 PUSH2 0x5F6 SWAP2 SWAP1 PUSH2 0x27F9 JUMP JUMPDEST PUSH2 0x1682 JUMP JUMPDEST STOP JUMPDEST CALLVALUE DUP1 ISZERO PUSH2 0x608 JUMPI PUSH0 DUP1 REVERT JUMPDEST POP PUSH2 0x623 PUSH1 0x4 DUP1 CALLDATASIZE SUB DUP2 ADD SWAP1 PUSH2 0x61E SWAP2 SWAP1 PUSH2 0x28C7 JUMP JUMPDEST PUSH2 0x16A4 JUMP JUMPDEST PUSH1 0x40 MLOAD PUSH2 0x630 SWAP2 SWAP1 PUSH2 0x275A JUMP JUMPDEST PUSH1 0x40 MLOAD DUP1 SWAP2 SUB SWAP1 RETURN JUMPDEST CALLVALUE DUP1 ISZERO PUSH2 0x644 JUMPI PUSH0 DUP1 REVERT JUMPDEST POP PUSH2 0x65F PUSH1 0x4 DUP1 CALLDATASIZE SUB DUP2 ADD SWAP1 PUSH2 0x65A SWAP2 SWAP1 PUSH2 0x29DC JUMP JUMPDEST PUSH2 0x1742 JUMP JUMPDEST STOP JUMPDEST PUSH2 0x669 PUSH2 0x1798 JUMP JUMPDEST STOP JUMPDEST PUSH0 PUSH2 0x676 DUP4 DUP4 PUSH2 0x17ED JUMP JUMPDEST SWAP1 POP PUSH0 PUSH2 0x681 PUSH2 0x1A74 JUMP JUMPDEST SWAP1 POP PUSH32 0x0 DUP3 DUP3 PUSH2 0x6B0 SWAP2 SWAP1 PUSH2 0x2A34 JUMP JUMPDEST GT ISZERO PUSH2 0x720 JUMPI DUP2 DUP2 PUSH32 0x0 PUSH2 0x6E3 SWAP2 SWAP1 PUSH2 0x2A67 JUMP JUMPDEST PUSH1 0x40 MLOAD PUSH32 0x639847A700000000000000000000000000000000000000000000000000000000 DUP2 MSTORE PUSH1 0x4 ADD PUSH2 0x717 SWAP3 SWAP2 SWAP1 PUSH2 0x2A9A JUMP JUMPDEST PUSH1 0x40 MLOAD DUP1 SWAP2 SUB SWAP1 REVERT JUMPDEST PUSH0 PUSH2 0x72B DUP6 DUP6 PUSH2 0x1B4D JUMP JUMPDEST SWAP1 POP DUP1 PUSH1 0x2 PUSH0 CALLER PUSH20 0xFFFFFFFFFFFFFFFFFFFFFFFFFFFFFFFFFFFFFFFF AND PUSH20 0xFFFFFFFFFFFFFFFFFFFFFFFFFFFFFFFFFFFFFFFF AND DUP2 MSTORE PUSH1 0x20 ADD SWAP1 DUP2 MSTORE PUSH1 0x20 ADD PUSH0 KECCAK256 PUSH0 DUP8 PUSH20 0xFFFFFFFFFFFFFFFFFFFFFFFFFFFFFFFFFFFFFFFF AND PUSH20 0xFFFFFFFFFFFFFFFFFFFFFFFFFFFFFFFFFFFFFFFF AND DUP2 MSTORE PUSH1 0x20 ADD SWAP1 DUP2 MSTORE PUSH1 0x20 ADD PUSH0 KECCAK256 PUSH0 DUP3 DUP3 SLOAD PUSH2 0x7B4 SWAP2 SWAP1 PUSH2 0x2A34 JUMP JUMPDEST SWAP3 POP POP DUP2 SWAP1 SSTORE POP DUP1 PUSH1 0x3 PUSH0 DUP8 PUSH20 0xFFFFFFFFFFFFFFFFFFFFFFFFFFFFFFFFFFFFFFFF AND PUSH20 0xFFFFFFFFFFFFFFFFFFFFFFFFFFFFFFFFFFFFFFFF AND DUP2 MSTORE PUSH1 0x20 ADD SWAP1 DUP2 MSTORE PUSH1 0x20 ADD PUSH0 KECCAK256 PUSH0 DUP3 DUP3 SLOAD PUSH2 0x807 SWAP2 SWAP1 PUSH2 0x2A34 JUMP JUMPDEST SWAP3 POP POP DUP2 SWAP1 SSTORE POP PUSH1 0x6 PUSH0 DUP2 SLOAD DUP1 SWAP3 SWAP2 SWAP1 PUSH2 0x820 SWAP1 PUSH2 0x2AC1 JUMP JUMPDEST SWAP2 SWAP1 POP SSTORE POP DUP5 PUSH20 0xFFFFFFFFFFFFFFFFFFFFFFFFFFFFFFFFFFFFFFFF AND CALLER PUSH20 0xFFFFFFFFFFFFFFFFFFFFFFFFFFFFFFFFFFFFFFFF AND PUSH32 0x57BAD7E3C9EFECF6E1F60BBD846B999E9DA4A409224287A8DF09779F2330135E DUP7 DUP7 PUSH1 0x40 MLOAD PUSH2 0x884 SWAP3 SWAP2 SWAP1 PUSH2 0x2A9A JUMP JUMPDEST PUSH1 0x40 MLOAD DUP1 SWAP2 SUB SWAP1 LOG3 POP POP POP POP POP JUMP JUMPDEST PUSH0 PUSH32 0x7965DB0B00000000000000000000000000000000000000000000000000000000 PUSH28 0xFFFFFFFFFFFFFFFFFFFFFFFFFFFFFFFFFFFFFFFFFFFFFFFFFFFFFFFF NOT AND DUP3 PUSH28 0xFFFFFFFFFFFFFFFFFFFFFFFFFFFFFFFFFFFFFFFFFFFFFFFFFFFFFFFF NOT AND EQ DUP1 PUSH2 0x905 JUMPI POP PUSH2 0x904 DUP3 PUSH2 0x1C7A JUMP JUMPDEST JUMPDEST SWAP1 POP SWAP2 SWAP1 POP JUMP JUMPDEST PUSH0 PUSH2 0x954 DUP3 PUSH1 0x3 PUSH0 DUP6 PUSH20 0xFFFFFFFFFFFFFFFFFFFFFFFFFFFFFFFFFFFFFFFF AND PUSH20 0xFFFFFFFFFFFFFFFFFFFFFFFFFFFFFFFFFFFFFFFF AND DUP2 MSTORE PUSH1 0x20 ADD SWAP1 DUP2 MSTORE PUSH1 0x20 ADD PUSH0 KECCAK256 SLOAD PUSH2 0x1CE3 JUMP JUMPDEST SWAP1 POP SWAP2 SWAP1 POP JUMP JUMPDEST PUSH0 DUP1 PUSH2 0x965 PUSH2 0x1A74 JUMP JUMPDEST SWAP1 POP PUSH32 0x0 DUP2 LT ISZERO PUSH2 0x9C0 JUMPI DUP1 PUSH32 0x0 PUSH2 0x9BB SWAP2 SWAP1 PUSH2 0x2A67 JUMP JUMPDEST PUSH2 0x9C2 JUMP JUMPDEST PUSH0 JUMPDEST SWAP2 POP POP SWAP1 JUMP JUMPDEST PUSH32 0x0 DUP2 JUMP JUMPDEST PUSH0 DUP1 PUSH0 DUP4 DUP2 MSTORE PUSH1 0x20 ADD SWAP1 DUP2 MSTORE PUSH1 0x20 ADD PUSH0 KECCAK256 PUSH1 0x1 ADD SLOAD SWAP1 POP SWAP2 SWAP1 POP JUMP JUMPDEST PUSH32 0xA49807205CE4D355092EF5A8A18F56E8913CF4A201FBE287825B095693C21775 PUSH2 0xA32 DUP2 PUSH2 0x1E10 JUMP JUMPDEST PUSH0 PUSH20 0xFFFFFFFFFFFFFFFFFFFFFFFFFFFFFFFFFFFFFFFF AND PUSH1 0x4 PUSH0 DUP5 PUSH20 0xFFFFFFFFFFFFFFFFFFFFFFFFFFFFFFFFFFFFFFFF AND PUSH20 0xFFFFFFFFFFFFFFFFFFFFFFFFFFFFFFFFFFFFFFFF AND DUP2 MSTORE PUSH1 0x20 ADD SWAP1 DUP2 MSTORE PUSH1 0x20 ADD PUSH0 KECCAK256 PUSH0 SWAP1 SLOAD SWAP1 PUSH2 0x100 EXP SWAP1 DIV PUSH20 0xFFFFFFFFFFFFFFFFFFFFFFFFFFFFFFFFFFFFFFFF AND PUSH20 0xFFFFFFFFFFFFFFFFFFFFFFFFFFFFFFFFFFFFFFFF AND SUB PUSH2 0xAFE JUMPI DUP2 PUSH1 0x40 MLOAD PUSH32 0xF9968B3A00000000000000000000000000000000000000000000000000000000 DUP2 MSTORE PUSH1 0x4 ADD PUSH2 0xAF5 SWAP2 SWAP1 PUSH2 0x28AE JUMP JUMPDEST PUSH1 0x40 MLOAD DUP1 SWAP2 SUB SWAP1 REVERT JUMPDEST PUSH0 PUSH1 0x3 PUSH0 DUP5 PUSH20 0xFFFFFFFFFFFFFFFFFFFFFFFFFFFFFFFFFFFFFFFF AND PUSH20 0xFFFFFFFFFFFFFFFFFFFFFFFFFFFFFFFFFFFFFFFF AND DUP2 MSTORE PUSH1 0x20 ADD SWAP1 DUP2 MSTORE PUSH1 0x20 ADD PUSH0 KECCAK256 SLOAD GT ISZERO PUSH2 0xBBF JUMPI PUSH0 PUSH1 0x3 PUSH0 DUP5 PUSH20 0xFFFFFFFFFFFFFFFFFFFFFFFFFFFFFFFFFFFFFFFF AND PUSH20 0xFFFFFFFFFFFFFFFFFFFFFFFFFFFFFFFFFFFFFFFF AND DUP2 MSTORE PUSH1 0x20 ADD SWAP1 DUP2 MSTORE PUSH1 0x20 ADD PUSH0 KECCAK256 SLOAD PUSH1 0x40 MLOAD PUSH32 0x61965C4E00000000000000000000000000000000000000000000000000000000 DUP2 MSTORE PUSH1 0x4 ADD PUSH2 0xBB6 SWAP3 SWAP2 SWAP1 PUSH2 0x2B4A JUMP JUMPDEST PUSH1 0x40 MLOAD DUP1 SWAP2 SUB SWAP1 REVERT JUMPDEST PUSH1 0x4 PUSH0 DUP4 PUSH20 0xFFFFFFFFFFFFFFFFFFFFFFFFFFFFFFFFFFFFFFFF AND PUSH20 0xFFFFFFFFFFFFFFFFFFFFFFFFFFFFFFFFFFFFFFFF AND DUP2 MSTORE PUSH1 0x20 ADD SWAP1 DUP2 MSTORE PUSH1 0x20 ADD PUSH0 KECCAK256 PUSH0 PUSH2 0x100 EXP DUP2 SLOAD SWAP1 PUSH20 0xFFFFFFFFFFFFFFFFFFFFFFFFFFFFFFFFFFFFFFFF MUL NOT AND SWAP1 SSTORE PUSH0 JUMPDEST PUSH1 0x5 DUP1 SLOAD SWAP1 POP DUP2 LT ISZERO PUSH2 0xD97 JUMPI DUP3 PUSH20 0xFFFFFFFFFFFFFFFFFFFFFFFFFFFFFFFFFFFFFFFF AND PUSH1 0x5 DUP3 DUP2 SLOAD DUP2 LT PUSH2 0xC58 JUMPI PUSH2 0xC57 PUSH2 0x2B71 JUMP JUMPDEST JUMPDEST SWAP1 PUSH0 MSTORE PUSH1 0x20 PUSH0 KECCAK256 ADD PUSH0 SWAP1 SLOAD SWAP1 PUSH2 0x100 EXP SWAP1 DIV PUSH20 0xFFFFFFFFFFFFFFFFFFFFFFFFFFFFFFFFFFFFFFFF AND PUSH20 0xFFFFFFFFFFFFFFFFFFFFFFFFFFFFFFFFFFFFFFFF AND SUB PUSH2 0xD8A JUMPI PUSH1 0x5 PUSH1 0x1 PUSH1 0x5 DUP1 SLOAD SWAP1 POP PUSH2 0xCAF SWAP2 SWAP1 PUSH2 0x2A67 JUMP JUMPDEST DUP2 SLOAD DUP2 LT PUSH2 0xCC0 JUMPI PUSH2 0xCBF PUSH2 0x2B71 JUMP JUMPDEST JUMPDEST SWAP1 PUSH0 MSTORE PUSH1 0x20 PUSH0 KECCAK256 ADD PUSH0 SWAP1 SLOAD SWAP1 PUSH2 0x100 EXP SWAP1 DIV PUSH20 0xFFFFFFFFFFFFFFFFFFFFFFFFFFFFFFFFFFFFFFFF AND PUSH1 0x5 DUP3 DUP2 SLOAD DUP2 LT PUSH2 0xCFC JUMPI PUSH2 0xCFB PUSH2 0x2B71 JUMP JUMPDEST JUMPDEST SWAP1 PUSH0 MSTORE PUSH1 0x20 PUSH0 KECCAK256 ADD PUSH0 PUSH2 0x100 EXP DUP2 SLOAD DUP2 PUSH20 0xFFFFFFFFFFFFFFFFFFFFFFFFFFFFFFFFFFFFFFFF MUL NOT AND SWAP1 DUP4 PUSH20 0xFFFFFFFFFFFFFFFFFFFFFFFFFFFFFFFFFFFFFFFF AND MUL OR SWAP1 SSTORE POP PUSH1 0x5 DUP1 SLOAD DUP1 PUSH2 0xD53 JUMPI PUSH2 0xD52 PUSH2 0x2B9E JUMP JUMPDEST JUMPDEST PUSH1 0x1 SWAP1 SUB DUP2 DUP2 SWAP1 PUSH0 MSTORE PUSH1 0x20 PUSH0 KECCAK256 ADD PUSH0 PUSH2 0x100 EXP DUP2 SLOAD SWAP1 PUSH20 0xFFFFFFFFFFFFFFFFFFFFFFFFFFFFFFFFFFFFFFFF MUL NOT AND SWAP1 SSTORE SWAP1 SSTORE PUSH2 0xD97 JUMP JUMPDEST DUP1 DUP1 PUSH1 0x1 ADD SWAP2 POP POP PUSH2 0xC20 JUMP JUMPDEST POP DUP2 PUSH20 0xFFFFFFFFFFFFFFFFFFFFFFFFFFFFFFFFFFFFFFFF AND PUSH32 0x4C910B69FE65A61F7531B9C5042B2329CA7179C77290AA7E2EB3AFA3C8511FD3 PUSH1 0x40 MLOAD PUSH1 0x40 MLOAD DUP1 SWAP2 SUB SWAP1 LOG2 POP POP JUMP JUMPDEST PUSH2 0xDE8 DUP3 PUSH2 0x9EC JUMP JUMPDEST PUSH2 0xDF1 DUP2 PUSH2 0x1E10 JUMP JUMPDEST PUSH2 0xDFB DUP4 DUP4 PUSH2 0x1E24 JUMP JUMPDEST POP POP POP POP JUMP JUMPDEST PUSH2 0xE09 PUSH2 0x1F0D JUMP JUMPDEST PUSH0 DUP2 SUB PUSH2 0xE42 JUMPI PUSH1 0x40 MLOAD PUSH32 0x3F36295200000000000000000000000000000000000000000000000000000000 DUP2 MSTORE PUSH1 0x4 ADD PUSH1 0x40 MLOAD DUP1 SWAP2 SUB SWAP1 REVERT JUMPDEST PUSH0 PUSH20 0xFFFFFFFFFFFFFFFFFFFFFFFFFFFFFFFFFFFFFFFF AND DUP3 PUSH20 0xFFFFFFFFFFFFFFFFFFFFFFFFFFFFFFFFFFFFFFFF AND SUB PUSH2 0xEB2 JUMPI DUP2 PUSH1 0x40 MLOAD PUSH32 0xF9968B3A00000000000000000000000000000000000000000000000000000000 DUP2 MSTORE PUSH1 0x4 ADD PUSH2 0xEA9 SWAP2 SWAP1 PUSH2 0x28AE JUMP JUMPDEST PUSH1 0x40 MLOAD DUP1 SWAP2 SUB SWAP1 REVERT JUMPDEST PUSH0 PUSH20 0xFFFFFFFFFFFFFFFFFFFFFFFFFFFFFFFFFFFFFFFF AND PUSH1 0x4 PUSH0 DUP5 PUSH20 0xFFFFFFFFFFFFFFFFFFFFFFFFFFFFFFFFFFFFFFFF AND PUSH20 0xFFFFFFFFFFFFFFFFFFFFFFFFFFFFFFFFFFFFFFFF AND DUP2 MSTORE PUSH1 0x20 ADD SWAP1 DUP2 MSTORE PUSH1 0x20 ADD PUSH0 KECCAK256 PUSH0 SWAP1 SLOAD SWAP1 PUSH2 0x100 EXP SWAP1 DIV PUSH20 0xFFFFFFFFFFFFFFFFFFFFFFFFFFFFFFFFFFFFFFFF AND PUSH20 0xFFFFFFFFFFFFFFFFFFFFFFFFFFFFFFFFFFFFFFFF AND SUB PUSH2 0xF7E JUMPI DUP2 PUSH1 0x40 MLOAD PUSH32 0xF9968B3A00000000000000000000000000000000000000000000000000000000 DUP2 MSTORE PUSH1 0x4 ADD PUSH2 0xF75 SWAP2 SWAP1 PUSH2 0x28AE JUMP JUMPDEST PUSH1 0x40 MLOAD DUP1 SWAP2 SUB SWAP1 REVERT JUMPDEST PUSH2 0xFAB CALLER ADDRESS DUP4 DUP6 PUSH20 0xFFFFFFFFFFFFFFFFFFFFFFFFFFFFFFFFFFFFFFFF AND PUSH2 0x1F53 SWAP1 SWAP4 SWAP3 SWAP2 SWAP1 PUSH4 0xFFFFFFFF AND JUMP JUMPDEST PUSH2 0xFB5 DUP3 DUP3 PUSH2 0x66B JUMP JUMPDEST PUSH2 0xFBD PUSH2 0x1FD5 JUMP JUMPDEST POP POP JUMP JUMPDEST PUSH2 0xFC9 PUSH2 0x1FDE JUMP JUMPDEST PUSH20 0xFFFFFFFFFFFFFFFFFFFFFFFFFFFFFFFFFFFFFFFF AND DUP2 PUSH20 0xFFFFFFFFFFFFFFFFFFFFFFFFFFFFFFFFFFFFFFFF AND EQ PUSH2 0x102D JUMPI PUSH1 0x40 MLOAD PUSH32 0x6697B23200000000000000000000000000000000000000000000000000000000 DUP2 MSTORE PUSH1 0x4 ADD PUSH1 0x40 MLOAD DUP1 SWAP2 SUB SWAP1 REVERT JUMPDEST PUSH2 0x1037 DUP3 DUP3 PUSH2 0x1FE5 JUMP JUMPDEST POP POP POP JUMP JUMPDEST PUSH0 PUSH1 0x4 PUSH0 DUP4 PUSH20 0xFFFFFFFFFFFFFFFFFFFFFFFFFFFFFFFFFFFFFFFF AND PUSH20 0xFFFFFFFFFFFFFFFFFFFFFFFFFFFFFFFFFFFFFFFF AND DUP2 MSTORE PUSH1 0x20 ADD SWAP1 DUP2 MSTORE PUSH1 0x20 ADD PUSH0 KECCAK256 PUSH0 SWAP1 SLOAD SWAP1 PUSH2 0x100 EXP SWAP1 DIV PUSH20 0xFFFFFFFFFFFFFFFFFFFFFFFFFFFFFFFFFFFFFFFF AND SWAP1 POP SWAP2 SWAP1 POP JUMP JUMPDEST PUSH32 0xA49807205CE4D355092EF5A8A18F56E8913CF4A201FBE287825B095693C21775 PUSH2 0x10CB DUP2 PUSH2 0x1E10 JUMP JUMPDEST PUSH0 PUSH20 0xFFFFFFFFFFFFFFFFFFFFFFFFFFFFFFFFFFFFFFFF AND DUP4 PUSH20 0xFFFFFFFFFFFFFFFFFFFFFFFFFFFFFFFFFFFFFFFF AND SUB PUSH2 0x113B JUMPI DUP3 PUSH1 0x40 MLOAD PUSH32 0xF9968B3A00000000000000000000000000000000000000000000000000000000 DUP2 MSTORE PUSH1 0x4 ADD PUSH2 0x1132 SWAP2 SWAP1 PUSH2 0x28AE JUMP JUMPDEST PUSH1 0x40 MLOAD DUP1 SWAP2 SUB SWAP1 REVERT JUMPDEST PUSH0 PUSH20 0xFFFFFFFFFFFFFFFFFFFFFFFFFFFFFFFFFFFFFFFF AND PUSH1 0x4 PUSH0 DUP6 PUSH20 0xFFFFFFFFFFFFFFFFFFFFFFFFFFFFFFFFFFFFFFFF AND PUSH20 0xFFFFFFFFFFFFFFFFFFFFFFFFFFFFFFFFFFFFFFFF AND DUP2 MSTORE PUSH1 0x20 ADD SWAP1 DUP2 MSTORE PUSH1 0x20 ADD PUSH0 KECCAK256 PUSH0 SWAP1 SLOAD SWAP1 PUSH2 0x100 EXP SWAP1 DIV PUSH20 0xFFFFFFFFFFFFFFFFFFFFFFFFFFFFFFFFFFFFFFFF AND PUSH20 0xFFFFFFFFFFFFFFFFFFFFFFFFFFFFFFFFFFFFFFFF AND EQ PUSH2 0x1207 JUMPI DUP3 PUSH1 0x40 MLOAD PUSH32 0xC2A2F47500000000000000000000000000000000000000000000000000000000 DUP2 MSTORE PUSH1 0x4 ADD PUSH2 0x11FE SWAP2 SWAP1 PUSH2 0x28AE JUMP JUMPDEST PUSH1 0x40 MLOAD DUP1 SWAP2 SUB SWAP1 REVERT JUMPDEST DUP2 PUSH1 0x4 PUSH0 DUP6 PUSH20 0xFFFFFFFFFFFFFFFFFFFFFFFFFFFFFFFFFFFFFFFF AND PUSH20 0xFFFFFFFFFFFFFFFFFFFFFFFFFFFFFFFFFFFFFFFF AND DUP2 MSTORE PUSH1 0x20 ADD SWAP1 DUP2 MSTORE PUSH1 0x20 ADD PUSH0 KECCAK256 PUSH0 PUSH2 0x100 EXP DUP2 SLOAD DUP2 PUSH20 0xFFFFFFFFFFFFFFFFFFFFFFFFFFFFFFFFFFFFFFFF MUL NOT AND SWAP1 DUP4 PUSH20 0xFFFFFFFFFFFFFFFFFFFFFFFFFFFFFFFFFFFFFFFF AND MUL OR SWAP1 SSTORE POP PUSH1 0x5 DUP4 SWAP1 DUP1 PUSH1 0x1 DUP2 SLOAD ADD DUP1 DUP3 SSTORE DUP1 SWAP2 POP POP PUSH1 0x1 SWAP1 SUB SWAP1 PUSH0 MSTORE PUSH1 0x20 PUSH0 KECCAK256 ADD PUSH0 SWAP1 SWAP2 SWAP1 SWAP2 SWAP1 SWAP2 PUSH2 0x100 EXP DUP2 SLOAD DUP2 PUSH20 0xFFFFFFFFFFFFFFFFFFFFFFFFFFFFFFFFFFFFFFFF MUL NOT AND SWAP1 DUP4 PUSH20 0xFFFFFFFFFFFFFFFFFFFFFFFFFFFFFFFFFFFFFFFF AND MUL OR SWAP1 SSTORE POP DUP2 PUSH20 0xFFFFFFFFFFFFFFFFFFFFFFFFFFFFFFFFFFFFFFFF AND DUP4 PUSH20 0xFFFFFFFFFFFFFFFFFFFFFFFFFFFFFFFFFFFFFFFF AND PUSH32 0xDFFBD9DED1C09446F09377DE547142DCCE7DC541C8B0B028142B1EBA7026B9E7 PUSH1 0x40 MLOAD PUSH1 0x40 MLOAD DUP1 SWAP2 SUB SWAP1 LOG3 POP POP POP JUMP JUMPDEST PUSH0 DUP1 PUSH20 0xFFFFFFFFFFFFFFFFFFFFFFFFFFFFFFFFFFFFFFFF AND PUSH1 0x4 PUSH0 DUP5 PUSH20 0xFFFFFFFFFFFFFFFFFFFFFFFFFFFFFFFFFFFFFFFF AND PUSH20 0xFFFFFFFFFFFFFFFFFFFFFFFFFFFFFFFFFFFFFFFF AND DUP2 MSTORE PUSH1 0x20 ADD SWAP1 DUP2 MSTORE PUSH1 0x20 ADD PUSH0 KECCAK256 PUSH0 SWAP1 SLOAD SWAP1 PUSH2 0x100 EXP SWAP1 DIV PUSH20 0xFFFFFFFFFFFFFFFFFFFFFFFFFFFFFFFFFFFFFFFF AND PUSH20 0xFFFFFFFFFFFFFFFFFFFFFFFFFFFFFFFFFFFFFFFF AND EQ ISZERO SWAP1 POP SWAP2 SWAP1 POP JUMP JUMPDEST PUSH32 0xA49807205CE4D355092EF5A8A18F56E8913CF4A201FBE287825B095693C21775 DUP2 JUMP JUMPDEST PUSH0 PUSH2 0x1402 PUSH2 0x1A74 JUMP JUMPDEST SWAP1 POP SWAP1 JUMP JUMPDEST PUSH0 DUP1 PUSH0 DUP5 DUP2 MSTORE PUSH1 0x20 ADD SWAP1 DUP2 MSTORE PUSH1 0x20 ADD PUSH0 KECCAK256 PUSH0 ADD PUSH0 DUP4 PUSH20 0xFFFFFFFFFFFFFFFFFFFFFFFFFFFFFFFFFFFFFFFF AND PUSH20 0xFFFFFFFFFFFFFFFFFFFFFFFFFFFFFFFFFFFFFFFF AND DUP2 MSTORE PUSH1 0x20 ADD SWAP1 DUP2 MSTORE PUSH1 0x20 ADD PUSH0 KECCAK256 PUSH0 SWAP1 SLOAD SWAP1 PUSH2 0x100 EXP SWAP1 DIV PUSH1 0xFF AND SWAP1 POP SWAP3 SWAP2 POP POP JUMP JUMPDEST PUSH2 0x1472 PUSH2 0x1F0D JUMP JUMPDEST PUSH0 DUP2 SUB PUSH2 0x14AB JUMPI PUSH1 0x40 MLOAD PUSH32 0x3F36295200000000000000000000000000000000000000000000000000000000 DUP2 MSTORE PUSH1 0x4 ADD PUSH1 0x40 MLOAD DUP1 SWAP2 SUB SWAP1 REVERT JUMPDEST PUSH0 PUSH20 0xFFFFFFFFFFFFFFFFFFFFFFFFFFFFFFFFFFFFFFFF AND DUP3 PUSH20 0xFFFFFFFFFFFFFFFFFFFFFFFFFFFFFFFFFFFFFFFF AND SUB PUSH2 0x151B JUMPI DUP2 PUSH1 0x40 MLOAD PUSH32 0xF9968B3A00000000000000000000000000000000000000000000000000000000 DUP2 MSTORE PUSH1 0x4 ADD PUSH2 0x1512 SWAP2 SWAP1 PUSH2 0x28AE JUMP JUMPDEST PUSH1 0x40 MLOAD DUP1 SWAP2 SUB SWAP1 REVERT JUMPDEST PUSH2 0x1525 DUP3 DUP3 PUSH2 0x20CE JUMP JUMPDEST PUSH2 0x152D PUSH2 0x1FD5 JUMP JUMPDEST POP POP JUMP JUMPDEST PUSH0 DUP1 SHL DUP2 JUMP JUMPDEST PUSH1 0x7 SLOAD DUP2 JUMP JUMPDEST PUSH1 0x6 SLOAD DUP2 JUMP JUMPDEST PUSH32 0x0 DUP2 JUMP JUMPDEST PUSH1 0x60 PUSH1 0x5 DUP1 SLOAD DUP1 PUSH1 0x20 MUL PUSH1 0x20 ADD PUSH1 0x40 MLOAD SWAP1 DUP2 ADD PUSH1 0x40 MSTORE DUP1 SWAP3 SWAP2 SWAP1 DUP2 DUP2 MSTORE PUSH1 0x20 ADD DUP3 DUP1 SLOAD DUP1 ISZERO PUSH2 0x15E8 JUMPI PUSH1 0x20 MUL DUP3 ADD SWAP2 SWAP1 PUSH0 MSTORE PUSH1 0x20 PUSH0 KECCAK256 SWAP1 JUMPDEST DUP2 PUSH0 SWAP1 SLOAD SWAP1 PUSH2 0x100 EXP SWAP1 DIV PUSH20 0xFFFFFFFFFFFFFFFFFFFFFFFFFFFFFFFFFFFFFFFF AND PUSH20 0xFFFFFFFFFFFFFFFFFFFFFFFFFFFFFFFFFFFFFFFF AND DUP2 MSTORE PUSH1 0x20 ADD SWAP1 PUSH1 0x1 ADD SWAP1 DUP1 DUP4 GT PUSH2 0x159F JUMPI JUMPDEST POP POP POP POP POP SWAP1 POP SWAP1 JUMP JUMPDEST PUSH0 DUP1 PUSH1 0x2 PUSH0 DUP6 PUSH20 0xFFFFFFFFFFFFFFFFFFFFFFFFFFFFFFFFFFFFFFFF AND PUSH20 0xFFFFFFFFFFFFFFFFFFFFFFFFFFFFFFFFFFFFFFFF AND DUP2 MSTORE PUSH1 0x20 ADD SWAP1 DUP2 MSTORE PUSH1 0x20 ADD PUSH0 KECCAK256 PUSH0 DUP5 PUSH20 0xFFFFFFFFFFFFFFFFFFFFFFFFFFFFFFFFFFFFFFFF AND PUSH20 0xFFFFFFFFFFFFFFFFFFFFFFFFFFFFFFFFFFFFFFFF AND DUP2 MSTORE PUSH1 0x20 ADD SWAP1 DUP2 MSTORE PUSH1 0x20 ADD PUSH0 KECCAK256 SLOAD SWAP1 POP PUSH2 0x1679 DUP4 DUP3 PUSH2 0x1CE3 JUMP JUMPDEST SWAP2 POP POP SWAP3 SWAP2 POP POP JUMP JUMPDEST PUSH2 0x168B DUP3 PUSH2 0x9EC JUMP JUMPDEST PUSH2 0x1694 DUP2 PUSH2 0x1E10 JUMP JUMPDEST PUSH2 0x169E DUP4 DUP4 PUSH2 0x1FE5 JUMP JUMPDEST POP POP POP POP JUMP JUMPDEST PUSH0 DUP1 PUSH1 0x2 PUSH0 DUP6 PUSH20 0xFFFFFFFFFFFFFFFFFFFFFFFFFFFFFFFFFFFFFFFF AND PUSH20 0xFFFFFFFFFFFFFFFFFFFFFFFFFFFFFFFFFFFFFFFF AND DUP2 MSTORE PUSH1 0x20 ADD SWAP1 DUP2 MSTORE PUSH1 0x20 ADD PUSH0 KECCAK256 PUSH0 DUP5 PUSH20 0xFFFFFFFFFFFFFFFFFFFFFFFFFFFFFFFFFFFFFFFF AND PUSH20 0xFFFFFFFFFFFFFFFFFFFFFFFFFFFFFFFFFFFFFFFF AND DUP2 MSTORE PUSH1 0x20 ADD SWAP1 DUP2 MSTORE PUSH1 0x20 ADD PUSH0 KECCAK256 SLOAD SWAP1 POP PUSH0 PUSH2 0x172C DUP5 DUP4 PUSH2 0x1CE3 JUMP JUMPDEST SWAP1 POP PUSH2 0x1738 DUP5 DUP3 PUSH2 0x17ED JUMP JUMPDEST SWAP3 POP POP POP SWAP3 SWAP2 POP POP JUMP JUMPDEST PUSH2 0x174A PUSH2 0x1F0D JUMP JUMPDEST PUSH0 DUP2 SUB PUSH2 0x1783 JUMPI PUSH1 0x40 MLOAD PUSH32 0x3F36295200000000000000000000000000000000000000000000000000000000 DUP2 MSTORE PUSH1 0x4 ADD PUSH1 0x40 MLOAD DUP1 SWAP2 SUB SWAP1 REVERT JUMPDEST PUSH2 0x178D PUSH0 DUP3 PUSH2 0x20CE JUMP JUMPDEST PUSH2 0x1795 PUSH2 0x1FD5 JUMP JUMPDEST POP JUMP JUMPDEST PUSH2 0x17A0 PUSH2 0x1F0D JUMP JUMPDEST PUSH0 CALLVALUE SUB PUSH2 0x17D9 JUMPI PUSH1 0x40 MLOAD PUSH32 0x3F36295200000000000000000000000000000000000000000000000000000000 DUP2 MSTORE PUSH1 0x4 ADD PUSH1 0x40 MLOAD DUP1 SWAP2 SUB SWAP1 REVERT JUMPDEST PUSH2 0x17E3 PUSH0 CALLVALUE PUSH2 0x66B JUMP JUMPDEST PUSH2 0x17EB PUSH2 0x1FD5 JUMP JUMPDEST JUMP JUMPDEST PUSH0 DUP1 PUSH1 0x4 PUSH0 DUP6 PUSH20 0xFFFFFFFFFFFFFFFFFFFFFFFFFFFFFFFFFFFFFFFF AND PUSH20 0xFFFFFFFFFFFFFFFFFFFFFFFFFFFFFFFFFFFFFFFF AND DUP2 MSTORE PUSH1 0x20 ADD SWAP1 DUP2 MSTORE PUSH1 0x20 ADD PUSH0 KECCAK256 PUSH0 SWAP1 SLOAD SWAP1 PUSH2 0x100 EXP SWAP1 DIV PUSH20 0xFFFFFFFFFFFFFFFFFFFFFFFFFFFFFFFFFFFFFFFF AND SWAP1 POP PUSH0 DUP2 PUSH20 0xFFFFFFFFFFFFFFFFFFFFFFFFFFFFFFFFFFFFFFFF AND PUSH4 0xFEAF968C PUSH1 0x40 MLOAD DUP2 PUSH4 0xFFFFFFFF AND PUSH1 0xE0 SHL DUP2 MSTORE PUSH1 0x4 ADD PUSH1 0xA0 PUSH1 0x40 MLOAD DUP1 DUP4 SUB DUP2 DUP7 GAS STATICCALL ISZERO DUP1 ISZERO PUSH2 0x1898 JUMPI RETURNDATASIZE PUSH0 DUP1 RETURNDATACOPY RETURNDATASIZE PUSH0 REVERT JUMPDEST POP POP POP POP PUSH1 0x40 MLOAD RETURNDATASIZE PUSH1 0x1F NOT PUSH1 0x1F DUP3 ADD AND DUP3 ADD DUP1 PUSH1 0x40 MSTORE POP DUP2 ADD SWAP1 PUSH2 0x18BC SWAP2 SWAP1 PUSH2 0x2C51 JUMP JUMPDEST POP POP POP SWAP2 POP POP PUSH0 DUP2 SGT PUSH2 0x18FB JUMPI PUSH1 0x40 MLOAD PUSH32 0x804B984B00000000000000000000000000000000000000000000000000000000 DUP2 MSTORE PUSH1 0x4 ADD PUSH1 0x40 MLOAD DUP1 SWAP2 SUB SWAP1 REVERT JUMPDEST PUSH0 DUP1 PUSH20 0xFFFFFFFFFFFFFFFFFFFFFFFFFFFFFFFFFFFFFFFF AND DUP7 PUSH20 0xFFFFFFFFFFFFFFFFFFFFFFFFFFFFFFFFFFFFFFFF AND EQ PUSH2 0x19A1 JUMPI DUP6 PUSH20 0xFFFFFFFFFFFFFFFFFFFFFFFFFFFFFFFFFFFFFFFF AND PUSH4 0x313CE567 PUSH1 0x40 MLOAD DUP2 PUSH4 0xFFFFFFFF AND PUSH1 0xE0 SHL DUP2 MSTORE PUSH1 0x4 ADD PUSH1 0x20 PUSH1 0x40 MLOAD DUP1 DUP4 SUB DUP2 DUP7 GAS STATICCALL ISZERO DUP1 ISZERO PUSH2 0x1978 JUMPI RETURNDATASIZE PUSH0 DUP1 RETURNDATACOPY RETURNDATASIZE PUSH0 REVERT JUMPDEST POP POP POP POP PUSH1 0x40 MLOAD RETURNDATASIZE PUSH1 0x1F NOT PUSH1 0x1F DUP3 ADD AND DUP3 ADD DUP1 PUSH1 0x40 MSTORE POP DUP2 ADD SWAP1 PUSH2 0x199C SWAP2 SWAP1 PUSH2 0x2CFE JUMP JUMPDEST PUSH2 0x19A4 JUMP JUMPDEST PUSH1 0x12 JUMPDEST SWAP1 POP PUSH0 DUP4 PUSH20 0xFFFFFFFFFFFFFFFFFFFFFFFFFFFFFFFFFFFFFFFF AND PUSH4 0x313CE567 PUSH1 0x40 MLOAD DUP2 PUSH4 0xFFFFFFFF AND PUSH1 0xE0 SHL DUP2 MSTORE PUSH1 0x4 ADD PUSH1 0x20 PUSH1 0x40 MLOAD DUP1 DUP4 SUB DUP2 DUP7 GAS STATICCALL ISZERO DUP1 ISZERO PUSH2 0x19F0 JUMPI RETURNDATASIZE PUSH0 DUP1 RETURNDATACOPY RETURNDATASIZE PUSH0 REVERT JUMPDEST POP POP POP POP PUSH1 0x40 MLOAD RETURNDATASIZE PUSH1 0x1F NOT PUSH1 0x1F DUP3 ADD AND DUP3 ADD DUP1 PUSH1 0x40 MSTORE POP DUP2 ADD SWAP1 PUSH2 0x1A14 SWAP2 SWAP1 PUSH2 0x2CFE JUMP JUMPDEST SWAP1 POP DUP1 PUSH1 0xA PUSH2 0x1A23 SWAP2 SWAP1 PUSH2 0x2E58 JUMP JUMPDEST DUP3 PUSH1 0xA PUSH2 0x1A30 SWAP2 SWAP1 PUSH2 0x2E58 JUMP JUMPDEST PUSH2 0x1A3A SWAP2 SWAP1 PUSH2 0x2EA2 JUMP JUMPDEST PUSH1 0x12 PUSH1 0xA PUSH2 0x1A48 SWAP2 SWAP1 PUSH2 0x2E58 JUMP JUMPDEST DUP5 DUP9 PUSH2 0x1A54 SWAP2 SWAP1 PUSH2 0x2EA2 JUMP JUMPDEST PUSH2 0x1A5E SWAP2 SWAP1 PUSH2 0x2EA2 JUMP JUMPDEST PUSH2 0x1A68 SWAP2 SWAP1 PUSH2 0x2F10 JUMP JUMPDEST SWAP5 POP POP POP POP POP SWAP3 SWAP2 POP POP JUMP JUMPDEST PUSH0 DUP1 PUSH0 SWAP1 POP PUSH0 JUMPDEST PUSH1 0x5 DUP1 SLOAD SWAP1 POP DUP2 LT ISZERO PUSH2 0x1B45 JUMPI PUSH0 PUSH1 0x5 DUP3 DUP2 SLOAD DUP2 LT PUSH2 0x1A9D JUMPI PUSH2 0x1A9C PUSH2 0x2B71 JUMP JUMPDEST JUMPDEST SWAP1 PUSH0 MSTORE PUSH1 0x20 PUSH0 KECCAK256 ADD PUSH0 SWAP1 SLOAD SWAP1 PUSH2 0x100 EXP SWAP1 DIV PUSH20 0xFFFFFFFFFFFFFFFFFFFFFFFFFFFFFFFFFFFFFFFF AND SWAP1 POP PUSH0 PUSH1 0x3 PUSH0 DUP4 PUSH20 0xFFFFFFFFFFFFFFFFFFFFFFFFFFFFFFFFFFFFFFFF AND PUSH20 0xFFFFFFFFFFFFFFFFFFFFFFFFFFFFFFFFFFFFFFFF AND DUP2 MSTORE PUSH1 0x20 ADD SWAP1 DUP2 MSTORE PUSH1 0x20 ADD PUSH0 KECCAK256 SLOAD SWAP1 POP PUSH0 DUP2 GT ISZERO PUSH2 0x1B36 JUMPI PUSH0 PUSH2 0x1B1B DUP4 DUP4 PUSH2 0x1CE3 JUMP JUMPDEST SWAP1 POP PUSH2 0x1B27 DUP4 DUP3 PUSH2 0x17ED JUMP JUMPDEST DUP6 PUSH2 0x1B32 SWAP2 SWAP1 PUSH2 0x2A34 JUMP JUMPDEST SWAP5 POP POP JUMPDEST POP POP DUP1 DUP1 PUSH1 0x1 ADD SWAP2 POP POP PUSH2 0x1A7B JUMP JUMPDEST POP DUP1 SWAP2 POP POP SWAP1 JUMP JUMPDEST PUSH0 DUP1 PUSH0 PUSH20 0xFFFFFFFFFFFFFFFFFFFFFFFFFFFFFFFFFFFFFFFF AND DUP5 PUSH20 0xFFFFFFFFFFFFFFFFFFFFFFFFFFFFFFFFFFFFFFFF AND EQ PUSH2 0x1BF4 JUMPI DUP4 PUSH20 0xFFFFFFFFFFFFFFFFFFFFFFFFFFFFFFFFFFFFFFFF AND PUSH4 0x313CE567 PUSH1 0x40 MLOAD DUP2 PUSH4 0xFFFFFFFF AND PUSH1 0xE0 SHL DUP2 MSTORE PUSH1 0x4 ADD PUSH1 0x20 PUSH1 0x40 MLOAD DUP1 DUP4 SUB DUP2 DUP7 GAS STATICCALL ISZERO DUP1 ISZERO PUSH2 0x1BCB JUMPI RETURNDATASIZE PUSH0 DUP1 RETURNDATACOPY RETURNDATASIZE PUSH0 REVERT JUMPDEST POP POP POP POP PUSH1 0x40 MLOAD RETURNDATASIZE PUSH1 0x1F NOT PUSH1 0x1F DUP3 ADD AND DUP3 ADD DUP1 PUSH1 0x40 MSTORE POP DUP2 ADD SWAP1 PUSH2 0x1BEF SWAP2 SWAP1 PUSH2 0x2CFE JUMP JUMPDEST PUSH2 0x1BF7 JUMP JUMPDEST PUSH1 0x12 JUMPDEST SWAP1 POP PUSH1 0x6 PUSH1 0xFF AND DUP2 PUSH1 0xFF AND GT ISZERO PUSH2 0x1C34 JUMPI PUSH1 0x6 DUP2 PUSH2 0x1C15 SWAP2 SWAP1 PUSH2 0x2F40 JUMP JUMPDEST PUSH1 0xA PUSH2 0x1C21 SWAP2 SWAP1 PUSH2 0x2E58 JUMP JUMPDEST DUP4 PUSH2 0x1C2C SWAP2 SWAP1 PUSH2 0x2F10 JUMP JUMPDEST SWAP2 POP POP PUSH2 0x1C74 JUMP JUMPDEST PUSH1 0x6 PUSH1 0xFF AND DUP2 PUSH1 0xFF AND LT ISZERO PUSH2 0x1C6F JUMPI DUP1 PUSH1 0x6 PUSH2 0x1C50 SWAP2 SWAP1 PUSH2 0x2F40 JUMP JUMPDEST PUSH1 0xA PUSH2 0x1C5C SWAP2 SWAP1 PUSH2 0x2E58 JUMP JUMPDEST DUP4 PUSH2 0x1C67 SWAP2 SWAP1 PUSH2 0x2EA2 JUMP JUMPDEST SWAP2 POP POP PUSH2 0x1C74 JUMP JUMPDEST DUP3 SWAP2 POP POP JUMPDEST SWAP3 SWAP2 POP POP JUMP JUMPDEST PUSH0 PUSH32 0x1FFC9A700000000000000000000000000000000000000000000000000000000 PUSH28 0xFFFFFFFFFFFFFFFFFFFFFFFFFFFFFFFFFFFFFFFFFFFFFFFFFFFFFFFF NOT AND DUP3 PUSH28 0xFFFFFFFFFFFFFFFFFFFFFFFFFFFFFFFFFFFFFFFFFFFFFFFFFFFFFFFF NOT AND EQ SWAP1 POP SWAP2 SWAP1 POP JUMP JUMPDEST PUSH0 DUP1 PUSH0 PUSH20 0xFFFFFFFFFFFFFFFFFFFFFFFFFFFFFFFFFFFFFFFF AND DUP5 PUSH20 0xFFFFFFFFFFFFFFFFFFFFFFFFFFFFFFFFFFFFFFFF AND EQ PUSH2 0x1D8A JUMPI DUP4 PUSH20 0xFFFFFFFFFFFFFFFFFFFFFFFFFFFFFFFFFFFFFFFF AND PUSH4 0x313CE567 PUSH1 0x40 MLOAD DUP2 PUSH4 0xFFFFFFFF AND PUSH1 0xE0 SHL DUP2 MSTORE PUSH1 0x4 ADD PUSH1 0x20 PUSH1 0x40 MLOAD DUP1 DUP4 SUB DUP2 DUP7 GAS STATICCALL ISZERO DUP1 ISZERO PUSH2 0x1D61 JUMPI RETURNDATASIZE PUSH0 DUP1 RETURNDATACOPY RETURNDATASIZE PUSH0 REVERT JUMPDEST POP POP POP POP PUSH1 0x40 MLOAD RETURNDATASIZE PUSH1 0x1F NOT PUSH1 0x1F DUP3 ADD AND DUP3 ADD DUP1 PUSH1 0x40 MSTORE POP DUP2 ADD SWAP1 PUSH2 0x1D85 SWAP2 SWAP1 PUSH2 0x2CFE JUMP JUMPDEST PUSH2 0x1D8D JUMP JUMPDEST PUSH1 0x12 JUMPDEST SWAP1 POP PUSH1 0x6 PUSH1 0xFF AND DUP2 PUSH1 0xFF AND GT ISZERO PUSH2 0x1DCA JUMPI PUSH1 0x6 DUP2 PUSH2 0x1DAB SWAP2 SWAP1 PUSH2 0x2F40 JUMP JUMPDEST PUSH1 0xA PUSH2 0x1DB7 SWAP2 SWAP1 PUSH2 0x2E58 JUMP JUMPDEST DUP4 PUSH2 0x1DC2 SWAP2 SWAP1 PUSH2 0x2EA2 JUMP JUMPDEST SWAP2 POP POP PUSH2 0x1E0A JUMP JUMPDEST PUSH1 0x6 PUSH1 0xFF AND DUP2 PUSH1 0xFF AND LT ISZERO PUSH2 0x1E05 JUMPI DUP1 PUSH1 0x6 PUSH2 0x1DE6 SWAP2 SWAP1 PUSH2 0x2F40 JUMP JUMPDEST PUSH1 0xA PUSH2 0x1DF2 SWAP2 SWAP1 PUSH2 0x2E58 JUMP JUMPDEST DUP4 PUSH2 0x1DFD SWAP2 SWAP1 PUSH2 0x2F10 JUMP JUMPDEST SWAP2 POP POP PUSH2 0x1E0A JUMP JUMPDEST DUP3 SWAP2 POP POP JUMPDEST SWAP3 SWAP2 POP POP JUMP JUMPDEST PUSH2 0x1E21 DUP2 PUSH2 0x1E1C PUSH2 0x1FDE JUMP JUMPDEST PUSH2 0x249B JUMP JUMPDEST POP JUMP JUMPDEST PUSH0 PUSH2 0x1E2F DUP4 DUP4 PUSH2 0x1407 JUMP JUMPDEST PUSH2 0x1F03 JUMPI PUSH1 0x1 PUSH0 DUP1 DUP6 DUP2 MSTORE PUSH1 0x20 ADD SWAP1 DUP2 MSTORE PUSH1 0x20 ADD PUSH0 KECCAK256 PUSH0 ADD PUSH0 DUP5 PUSH20 0xFFFFFFFFFFFFFFFFFFFFFFFFFFFFFFFFFFFFFFFF AND PUSH20 0xFFFFFFFFFFFFFFFFFFFFFFFFFFFFFFFFFFFFFFFF AND DUP2 MSTORE PUSH1 0x20 ADD SWAP1 DUP2 MSTORE PUSH1 0x20 ADD PUSH0 KECCAK256 PUSH0 PUSH2 0x100 EXP DUP2 SLOAD DUP2 PUSH1 0xFF MUL NOT AND SWAP1 DUP4 ISZERO ISZERO MUL OR SWAP1 SSTORE POP PUSH2 0x1EA0 PUSH2 0x1FDE JUMP JUMPDEST PUSH20 0xFFFFFFFFFFFFFFFFFFFFFFFFFFFFFFFFFFFFFFFF AND DUP3 PUSH20 0xFFFFFFFFFFFFFFFFFFFFFFFFFFFFFFFFFFFFFFFF AND DUP5 PUSH32 0x2F8788117E7EFF1D82E926EC794901D17C78024A50270940304540A733656F0D PUSH1 0x40 MLOAD PUSH1 0x40 MLOAD DUP1 SWAP2 SUB SWAP1 LOG4 PUSH1 0x1 SWAP1 POP PUSH2 0x1F07 JUMP JUMPDEST PUSH0 SWAP1 POP JUMPDEST SWAP3 SWAP2 POP POP JUMP JUMPDEST PUSH1 0x2 PUSH1 0x1 SLOAD SUB PUSH2 0x1F49 JUMPI PUSH1 0x40 MLOAD PUSH32 0x3EE5AEB500000000000000000000000000000000000000000000000000000000 DUP2 MSTORE PUSH1 0x4 ADD PUSH1 0x40 MLOAD DUP1 SWAP2 SUB SWAP1 REVERT JUMPDEST PUSH1 0x2 PUSH1 0x1 DUP2 SWAP1 SSTORE POP JUMP JUMPDEST PUSH2 0x1FCF DUP5 DUP6 PUSH20 0xFFFFFFFFFFFFFFFFFFFFFFFFFFFFFFFFFFFFFFFF AND PUSH4 0x23B872DD DUP7 DUP7 DUP7 PUSH1 0x40 MLOAD PUSH1 0x24 ADD PUSH2 0x1F88 SWAP4 SWAP3 SWAP2 SWAP1 PUSH2 0x2F74 JUMP JUMPDEST PUSH1 0x40 MLOAD PUSH1 0x20 DUP2 DUP4 SUB SUB DUP2 MSTORE SWAP1 PUSH1 0x40 MSTORE SWAP2 POP PUSH1 0xE0 SHL PUSH1 0x20 DUP3 ADD DUP1 MLOAD PUSH28 0xFFFFFFFFFFFFFFFFFFFFFFFFFFFFFFFFFFFFFFFFFFFFFFFFFFFFFFFF DUP4 DUP2 DUP4 AND OR DUP4 MSTORE POP POP POP POP PUSH2 0x24EC JUMP JUMPDEST POP POP POP POP JUMP JUMPDEST PUSH1 0x1 DUP1 DUP2 SWAP1 SSTORE POP JUMP JUMPDEST PUSH0 CALLER SWAP1 POP SWAP1 JUMP JUMPDEST PUSH0 PUSH2 0x1FF0 DUP4 DUP4 PUSH2 0x1407 JUMP JUMPDEST ISZERO PUSH2 0x20C4 JUMPI PUSH0 DUP1 PUSH0 DUP6 DUP2 MSTORE PUSH1 0x20 ADD SWAP1 DUP2 MSTORE PUSH1 0x20 ADD PUSH0 KECCAK256 PUSH0 ADD PUSH0 DUP5 PUSH20 0xFFFFFFFFFFFFFFFFFFFFFFFFFFFFFFFFFFFFFFFF AND PUSH20 0xFFFFFFFFFFFFFFFFFFFFFFFFFFFFFFFFFFFFFFFF AND DUP2 MSTORE PUSH1 0x20 ADD SWAP1 DUP2 MSTORE PUSH1 0x20 ADD PUSH0 KECCAK256 PUSH0 PUSH2 0x100 EXP DUP2 SLOAD DUP2 PUSH1 0xFF MUL NOT AND SWAP1 DUP4 ISZERO ISZERO MUL OR SWAP1 SSTORE POP PUSH2 0x2061 PUSH2 0x1FDE JUMP JUMPDEST PUSH20 0xFFFFFFFFFFFFFFFFFFFFFFFFFFFFFFFFFFFFFFFF AND DUP3 PUSH20 0xFFFFFFFFFFFFFFFFFFFFFFFFFFFFFFFFFFFFFFFF AND DUP5 PUSH32 0xF6391F5C32D9C69D2A47EA670B442974B53935D1EDC7FD64EB21E047A839171B PUSH1 0x40 MLOAD PUSH1 0x40 MLOAD DUP1 SWAP2 SUB SWAP1 LOG4 PUSH1 0x1 SWAP1 POP PUSH2 0x20C8 JUMP JUMPDEST PUSH0 SWAP1 POP JUMPDEST SWAP3 SWAP2 POP POP JUMP JUMPDEST PUSH0 PUSH2 0x20D9 DUP4 DUP4 PUSH2 0x1B4D JUMP JUMPDEST SWAP1 POP PUSH0 PUSH1 0x2 PUSH0 CALLER PUSH20 0xFFFFFFFFFFFFFFFFFFFFFFFFFFFFFFFFFFFFFFFF AND PUSH20 0xFFFFFFFFFFFFFFFFFFFFFFFFFFFFFFFFFFFFFFFF AND DUP2 MSTORE PUSH1 0x20 ADD SWAP1 DUP2 MSTORE PUSH1 0x20 ADD PUSH0 KECCAK256 PUSH0 DUP6 PUSH20 0xFFFFFFFFFFFFFFFFFFFFFFFFFFFFFFFFFFFFFFFF AND PUSH20 0xFFFFFFFFFFFFFFFFFFFFFFFFFFFFFFFFFFFFFFFF AND DUP2 MSTORE PUSH1 0x20 ADD SWAP1 DUP2 MSTORE PUSH1 0x20 ADD PUSH0 KECCAK256 SLOAD SWAP1 POP DUP1 DUP3 GT ISZERO PUSH2 0x219E JUMPI DUP2 DUP2 PUSH1 0x40 MLOAD PUSH32 0x61965C4E00000000000000000000000000000000000000000000000000000000 DUP2 MSTORE PUSH1 0x4 ADD PUSH2 0x2195 SWAP3 SWAP2 SWAP1 PUSH2 0x2A9A JUMP JUMPDEST PUSH1 0x40 MLOAD DUP1 SWAP2 SUB SWAP1 REVERT JUMPDEST PUSH0 PUSH2 0x21A9 DUP6 DUP6 PUSH2 0x17ED JUMP JUMPDEST SWAP1 POP PUSH32 0x0 DUP2 GT ISZERO PUSH2 0x2232 JUMPI DUP1 PUSH32 0x0 PUSH1 0x40 MLOAD PUSH32 0x2D05FCBA00000000000000000000000000000000000000000000000000000000 DUP2 MSTORE PUSH1 0x4 ADD PUSH2 0x2229 SWAP3 SWAP2 SWAP1 PUSH2 0x2A9A JUMP JUMPDEST PUSH1 0x40 MLOAD DUP1 SWAP2 SUB SWAP1 REVERT JUMPDEST DUP3 PUSH1 0x2 PUSH0 CALLER PUSH20 0xFFFFFFFFFFFFFFFFFFFFFFFFFFFFFFFFFFFFFFFF AND PUSH20 0xFFFFFFFFFFFFFFFFFFFFFFFFFFFFFFFFFFFFFFFF AND DUP2 MSTORE PUSH1 0x20 ADD SWAP1 DUP2 MSTORE PUSH1 0x20 ADD PUSH0 KECCAK256 PUSH0 DUP8 PUSH20 0xFFFFFFFFFFFFFFFFFFFFFFFFFFFFFFFFFFFFFFFF AND PUSH20 0xFFFFFFFFFFFFFFFFFFFFFFFFFFFFFFFFFFFFFFFF AND DUP2 MSTORE PUSH1 0x20 ADD SWAP1 DUP2 MSTORE PUSH1 0x20 ADD PUSH0 KECCAK256 PUSH0 DUP3 DUP3 SLOAD PUSH2 0x22B9 SWAP2 SWAP1 PUSH2 0x2A67 JUMP JUMPDEST SWAP3 POP POP DUP2 SWAP1 SSTORE POP DUP3 PUSH1 0x3 PUSH0 DUP8 PUSH20 0xFFFFFFFFFFFFFFFFFFFFFFFFFFFFFFFFFFFFFFFF AND PUSH20 0xFFFFFFFFFFFFFFFFFFFFFFFFFFFFFFFFFFFFFFFF AND DUP2 MSTORE PUSH1 0x20 ADD SWAP1 DUP2 MSTORE PUSH1 0x20 ADD PUSH0 KECCAK256 PUSH0 DUP3 DUP3 SLOAD PUSH2 0x230C SWAP2 SWAP1 PUSH2 0x2A67 JUMP JUMPDEST SWAP3 POP POP DUP2 SWAP1 SSTORE POP PUSH1 0x7 PUSH0 DUP2 SLOAD DUP1 SWAP3 SWAP2 SWAP1 PUSH2 0x2325 SWAP1 PUSH2 0x2AC1 JUMP JUMPDEST SWAP2 SWAP1 POP SSTORE POP PUSH0 PUSH20 0xFFFFFFFFFFFFFFFFFFFFFFFFFFFFFFFFFFFFFFFF AND DUP6 PUSH20 0xFFFFFFFFFFFFFFFFFFFFFFFFFFFFFFFFFFFFFFFF AND SUB PUSH2 0x2401 JUMPI PUSH0 CALLER PUSH20 0xFFFFFFFFFFFFFFFFFFFFFFFFFFFFFFFFFFFFFFFF AND DUP6 PUSH1 0x40 MLOAD PUSH2 0x2382 SWAP1 PUSH2 0x2FD6 JUMP JUMPDEST PUSH0 PUSH1 0x40 MLOAD DUP1 DUP4 SUB DUP2 DUP6 DUP8 GAS CALL SWAP3 POP POP POP RETURNDATASIZE DUP1 PUSH0 DUP2 EQ PUSH2 0x23BC JUMPI PUSH1 0x40 MLOAD SWAP2 POP PUSH1 0x1F NOT PUSH1 0x3F RETURNDATASIZE ADD AND DUP3 ADD PUSH1 0x40 MSTORE RETURNDATASIZE DUP3 MSTORE RETURNDATASIZE PUSH0 PUSH1 0x20 DUP5 ADD RETURNDATACOPY PUSH2 0x23C1 JUMP JUMPDEST PUSH1 0x60 SWAP2 POP JUMPDEST POP POP SWAP1 POP DUP1 PUSH2 0x23FB JUMPI PUSH1 0x40 MLOAD PUSH31 0xE35D8600000000000000000000000000000000000000000000000000000000 DUP2 MSTORE PUSH1 0x4 ADD PUSH1 0x40 MLOAD DUP1 SWAP2 SUB SWAP1 REVERT JUMPDEST POP PUSH2 0x242D JUMP JUMPDEST PUSH2 0x242C CALLER DUP6 DUP8 PUSH20 0xFFFFFFFFFFFFFFFFFFFFFFFFFFFFFFFFFFFFFFFF AND PUSH2 0x2587 SWAP1 SWAP3 SWAP2 SWAP1 PUSH4 0xFFFFFFFF AND JUMP JUMPDEST JUMPDEST DUP5 PUSH20 0xFFFFFFFFFFFFFFFFFFFFFFFFFFFFFFFFFFFFFFFF AND CALLER PUSH20 0xFFFFFFFFFFFFFFFFFFFFFFFFFFFFFFFFFFFFFFFF AND PUSH32 0xDE1D532173C6DE1E3937C7AF1CB92745C738980729F53AC451A725F929F3B798 DUP7 DUP5 PUSH1 0x40 MLOAD PUSH2 0x248C SWAP3 SWAP2 SWAP1 PUSH2 0x2A9A JUMP JUMPDEST PUSH1 0x40 MLOAD DUP1 SWAP2 SUB SWAP1 LOG3 POP POP POP POP POP JUMP JUMPDEST PUSH2 0x24A5 DUP3 DUP3 PUSH2 0x1407 JUMP JUMPDEST PUSH2 0x24E8 JUMPI DUP1 DUP3 PUSH1 0x40 MLOAD PUSH32 0xE2517D3F00000000000000000000000000000000000000000000000000000000 DUP2 MSTORE PUSH1 0x4 ADD PUSH2 0x24DF SWAP3 SWAP2 SWAP1 PUSH2 0x2FEA JUMP JUMPDEST PUSH1 0x40 MLOAD DUP1 SWAP2 SUB SWAP1 REVERT JUMPDEST POP POP JUMP JUMPDEST PUSH0 DUP1 PUSH1 0x20 PUSH0 DUP5 MLOAD PUSH1 0x20 DUP7 ADD PUSH0 DUP9 GAS CALL DUP1 PUSH2 0x250B JUMPI PUSH1 0x40 MLOAD RETURNDATASIZE PUSH0 DUP3 RETURNDATACOPY RETURNDATASIZE DUP2 REVERT JUMPDEST RETURNDATASIZE SWAP3 POP PUSH0 MLOAD SWAP2 POP POP PUSH0 DUP3 EQ PUSH2 0x2524 JUMPI PUSH1 0x1 DUP2 EQ ISZERO PUSH2 0x253F JUMP JUMPDEST PUSH0 DUP5 PUSH20 0xFFFFFFFFFFFFFFFFFFFFFFFFFFFFFFFFFFFFFFFF AND EXTCODESIZE EQ JUMPDEST ISZERO PUSH2 0x2581 JUMPI DUP4 PUSH1 0x40 MLOAD PUSH32 0x5274AFE700000000000000000000000000000000000000000000000000000000 DUP2 MSTORE PUSH1 0x4 ADD PUSH2 0x2578 SWAP2 SWAP1 PUSH2 0x28AE JUMP JUMPDEST PUSH1 0x40 MLOAD DUP1 SWAP2 SUB SWAP1 REVERT JUMPDEST POP POP POP POP JUMP JUMPDEST PUSH2 0x2601 DUP4 DUP5 PUSH20 0xFFFFFFFFFFFFFFFFFFFFFFFFFFFFFFFFFFFFFFFF AND PUSH4 0xA9059CBB DUP6 DUP6 PUSH1 0x40 MLOAD PUSH1 0x24 ADD PUSH2 0x25BA SWAP3 SWAP2 SWAP1 PUSH2 0x3011 JUMP JUMPDEST PUSH1 0x40 MLOAD PUSH1 0x20 DUP2 DUP4 SUB SUB DUP2 MSTORE SWAP1 PUSH1 0x40 MSTORE SWAP2 POP PUSH1 0xE0 SHL PUSH1 0x20 DUP3 ADD DUP1 MLOAD PUSH28 0xFFFFFFFFFFFFFFFFFFFFFFFFFFFFFFFFFFFFFFFFFFFFFFFFFFFFFFFF DUP4 DUP2 DUP4 AND OR DUP4 MSTORE POP POP POP POP PUSH2 0x24EC JUMP JUMPDEST POP POP POP JUMP JUMPDEST PUSH0 DUP1 REVERT JUMPDEST PUSH0 PUSH32 0xFFFFFFFF00000000000000000000000000000000000000000000000000000000 DUP3 AND SWAP1 POP SWAP2 SWAP1 POP JUMP JUMPDEST PUSH2 0x263E DUP2 PUSH2 0x260A JUMP JUMPDEST DUP2 EQ PUSH2 0x2648 JUMPI PUSH0 DUP1 REVERT JUMPDEST POP JUMP JUMPDEST PUSH0 DUP2 CALLDATALOAD SWAP1 POP PUSH2 0x2659 DUP2 PUSH2 0x2635 JUMP JUMPDEST SWAP3 SWAP2 POP POP JUMP JUMPDEST PUSH0 PUSH1 0x20 DUP3 DUP5 SUB SLT ISZERO PUSH2 0x2674 JUMPI PUSH2 0x2673 PUSH2 0x2606 JUMP JUMPDEST JUMPDEST PUSH0 PUSH2 0x2681 DUP5 DUP3 DUP6 ADD PUSH2 0x264B JUMP JUMPDEST SWAP2 POP POP SWAP3 SWAP2 POP POP JUMP JUMPDEST PUSH0 DUP2 ISZERO ISZERO SWAP1 POP SWAP2 SWAP1 POP JUMP JUMPDEST PUSH2 0x269E DUP2 PUSH2 0x268A JUMP JUMPDEST DUP3 MSTORE POP POP JUMP JUMPDEST PUSH0 PUSH1 0x20 DUP3 ADD SWAP1 POP PUSH2 0x26B7 PUSH0 DUP4 ADD DUP5 PUSH2 0x2695 JUMP JUMPDEST SWAP3 SWAP2 POP POP JUMP JUMPDEST PUSH0 PUSH20 0xFFFFFFFFFFFFFFFFFFFFFFFFFFFFFFFFFFFFFFFF DUP3 AND SWAP1 POP SWAP2 SWAP1 POP JUMP JUMPDEST PUSH0 PUSH2 0x26E6 DUP3 PUSH2 0x26BD JUMP JUMPDEST SWAP1 POP SWAP2 SWAP1 POP JUMP JUMPDEST PUSH2 0x26F6 DUP2 PUSH2 0x26DC JUMP JUMPDEST DUP2 EQ PUSH2 0x2700 JUMPI PUSH0 DUP1 REVERT JUMPDEST POP JUMP JUMPDEST PUSH0 DUP2 CALLDATALOAD SWAP1 POP PUSH2 0x2711 DUP2 PUSH2 0x26ED JUMP JUMPDEST SWAP3 SWAP2 POP POP JUMP JUMPDEST PUSH0 PUSH1 0x20 DUP3 DUP5 SUB SLT ISZERO PUSH2 0x272C JUMPI PUSH2 0x272B PUSH2 0x2606 JUMP JUMPDEST JUMPDEST PUSH0 PUSH2 0x2739 DUP5 DUP3 DUP6 ADD PUSH2 0x2703 JUMP JUMPDEST SWAP2 POP POP SWAP3 SWAP2 POP POP JUMP JUMPDEST PUSH0 DUP2 SWAP1 POP SWAP2 SWAP1 POP JUMP JUMPDEST PUSH2 0x2754 DUP2 PUSH2 0x2742 JUMP JUMPDEST DUP3 MSTORE POP POP JUMP JUMPDEST PUSH0 PUSH1 0x20 DUP3 ADD SWAP1 POP PUSH2 0x276D PUSH0 DUP4 ADD DUP5 PUSH2 0x274B JUMP JUMPDEST SWAP3 SWAP2 POP POP JUMP JUMPDEST PUSH0 DUP2 SWAP1 POP SWAP2 SWAP1 POP JUMP JUMPDEST PUSH2 0x2785 DUP2 PUSH2 0x2773 JUMP JUMPDEST DUP2 EQ PUSH2 0x278F JUMPI PUSH0 DUP1 REVERT JUMPDEST POP JUMP JUMPDEST PUSH0 DUP2 CALLDATALOAD SWAP1 POP PUSH2 0x27A0 DUP2 PUSH2 0x277C JUMP JUMPDEST SWAP3 SWAP2 POP POP JUMP JUMPDEST PUSH0 PUSH1 0x20 DUP3 DUP5 SUB SLT ISZERO PUSH2 0x27BB JUMPI PUSH2 0x27BA PUSH2 0x2606 JUMP JUMPDEST JUMPDEST PUSH0 PUSH2 0x27C8 DUP5 DUP3 DUP6 ADD PUSH2 0x2792 JUMP JUMPDEST SWAP2 POP POP SWAP3 SWAP2 POP POP JUMP JUMPDEST PUSH2 0x27DA DUP2 PUSH2 0x2773 JUMP JUMPDEST DUP3 MSTORE POP POP JUMP JUMPDEST PUSH0 PUSH1 0x20 DUP3 ADD SWAP1 POP PUSH2 0x27F3 PUSH0 DUP4 ADD DUP5 PUSH2 0x27D1 JUMP JUMPDEST SWAP3 SWAP2 POP POP JUMP JUMPDEST PUSH0 DUP1 PUSH1 0x40 DUP4 DUP6 SUB SLT ISZERO PUSH2 0x280F JUMPI PUSH2 0x280E PUSH2 0x2606 JUMP JUMPDEST JUMPDEST PUSH0 PUSH2 0x281C DUP6 DUP3 DUP7 ADD PUSH2 0x2792 JUMP JUMPDEST SWAP3 POP POP PUSH1 0x20 PUSH2 0x282D DUP6 DUP3 DUP7 ADD PUSH2 0x2703 JUMP JUMPDEST SWAP2 POP POP SWAP3 POP SWAP3 SWAP1 POP JUMP JUMPDEST PUSH2 0x2840 DUP2 PUSH2 0x2742 JUMP JUMPDEST DUP2 EQ PUSH2 0x284A JUMPI PUSH0 DUP1 REVERT JUMPDEST POP JUMP JUMPDEST PUSH0 DUP2 CALLDATALOAD SWAP1 POP PUSH2 0x285B DUP2 PUSH2 0x2837 JUMP JUMPDEST SWAP3 SWAP2 POP POP JUMP JUMPDEST PUSH0 DUP1 PUSH1 0x40 DUP4 DUP6 SUB SLT ISZERO PUSH2 0x2877 JUMPI PUSH2 0x2876 PUSH2 0x2606 JUMP JUMPDEST JUMPDEST PUSH0 PUSH2 0x2884 DUP6 DUP3 DUP7 ADD PUSH2 0x2703 JUMP JUMPDEST SWAP3 POP POP PUSH1 0x20 PUSH2 0x2895 DUP6 DUP3 DUP7 ADD PUSH2 0x284D JUMP JUMPDEST SWAP2 POP POP SWAP3 POP SWAP3 SWAP1 POP JUMP JUMPDEST PUSH2 0x28A8 DUP2 PUSH2 0x26DC JUMP JUMPDEST DUP3 MSTORE POP POP JUMP JUMPDEST PUSH0 PUSH1 0x20 DUP3 ADD SWAP1 POP PUSH2 0x28C1 PUSH0 DUP4 ADD DUP5 PUSH2 0x289F JUMP JUMPDEST SWAP3 SWAP2 POP POP JUMP JUMPDEST PUSH0 DUP1 PUSH1 0x40 DUP4 DUP6 SUB SLT ISZERO PUSH2 0x28DD JUMPI PUSH2 0x28DC PUSH2 0x2606 JUMP JUMPDEST JUMPDEST PUSH0 PUSH2 0x28EA DUP6 DUP3 DUP7 ADD PUSH2 0x2703 JUMP JUMPDEST SWAP3 POP POP PUSH1 0x20 PUSH2 0x28FB DUP6 DUP3 DUP7 ADD PUSH2 0x2703 JUMP JUMPDEST SWAP2 POP POP SWAP3 POP SWAP3 SWAP1 POP JUMP JUMPDEST PUSH0 DUP2 MLOAD SWAP1 POP SWAP2 SWAP1 POP JUMP JUMPDEST PUSH0 DUP3 DUP3 MSTORE PUSH1 0x20 DUP3 ADD SWAP1 POP SWAP3 SWAP2 POP POP JUMP JUMPDEST PUSH0 DUP2 SWAP1 POP PUSH1 0x20 DUP3 ADD SWAP1 POP SWAP2 SWAP1 POP JUMP JUMPDEST PUSH2 0x2937 DUP2 PUSH2 0x26DC JUMP JUMPDEST DUP3 MSTORE POP POP JUMP JUMPDEST PUSH0 PUSH2 0x2948 DUP4 DUP4 PUSH2 0x292E JUMP JUMPDEST PUSH1 0x20 DUP4 ADD SWAP1 POP SWAP3 SWAP2 POP POP JUMP JUMPDEST PUSH0 PUSH1 0x20 DUP3 ADD SWAP1 POP SWAP2 SWAP1 POP JUMP JUMPDEST PUSH0 PUSH2 0x296A DUP3 PUSH2 0x2905 JUMP JUMPDEST PUSH2 0x2974 DUP2 DUP6 PUSH2 0x290F JUMP JUMPDEST SWAP4 POP PUSH2 0x297F DUP4 PUSH2 0x291F JUMP JUMPDEST DUP1 PUSH0 JUMPDEST DUP4 DUP2 LT ISZERO PUSH2 0x29AF JUMPI DUP2 MLOAD PUSH2 0x2996 DUP9 DUP3 PUSH2 0x293D JUMP JUMPDEST SWAP8 POP PUSH2 0x29A1 DUP4 PUSH2 0x2954 JUMP JUMPDEST SWAP3 POP POP PUSH1 0x1 DUP2 ADD SWAP1 POP PUSH2 0x2982 JUMP JUMPDEST POP DUP6 SWAP4 POP POP POP POP SWAP3 SWAP2 POP POP JUMP JUMPDEST PUSH0 PUSH1 0x20 DUP3 ADD SWAP1 POP DUP2 DUP2 SUB PUSH0 DUP4 ADD MSTORE PUSH2 0x29D4 DUP2 DUP5 PUSH2 0x2960 JUMP JUMPDEST SWAP1 POP SWAP3 SWAP2 POP POP JUMP JUMPDEST PUSH0 PUSH1 0x20 DUP3 DUP5 SUB SLT ISZERO PUSH2 0x29F1 JUMPI PUSH2 0x29F0 PUSH2 0x2606 JUMP JUMPDEST JUMPDEST PUSH0 PUSH2 0x29FE DUP5 DUP3 DUP6 ADD PUSH2 0x284D JUMP JUMPDEST SWAP2 POP POP SWAP3 SWAP2 POP POP JUMP JUMPDEST PUSH32 0x4E487B7100000000000000000000000000000000000000000000000000000000 PUSH0 MSTORE PUSH1 0x11 PUSH1 0x4 MSTORE PUSH1 0x24 PUSH0 REVERT JUMPDEST PUSH0 PUSH2 0x2A3E DUP3 PUSH2 0x2742 JUMP JUMPDEST SWAP2 POP PUSH2 0x2A49 DUP4 PUSH2 0x2742 JUMP JUMPDEST SWAP3 POP DUP3 DUP3 ADD SWAP1 POP DUP1 DUP3 GT ISZERO PUSH2 0x2A61 JUMPI PUSH2 0x2A60 PUSH2 0x2A07 JUMP JUMPDEST JUMPDEST SWAP3 SWAP2 POP POP JUMP JUMPDEST PUSH0 PUSH2 0x2A71 DUP3 PUSH2 0x2742 JUMP JUMPDEST SWAP2 POP PUSH2 0x2A7C DUP4 PUSH2 0x2742 JUMP JUMPDEST SWAP3 POP DUP3 DUP3 SUB SWAP1 POP DUP2 DUP2 GT ISZERO PUSH2 0x2A94 JUMPI PUSH2 0x2A93 PUSH2 0x2A07 JUMP JUMPDEST JUMPDEST SWAP3 SWAP2 POP POP JUMP JUMPDEST PUSH0 PUSH1 0x40 DUP3 ADD SWAP1 POP PUSH2 0x2AAD PUSH0 DUP4 ADD DUP6 PUSH2 0x274B JUMP JUMPDEST PUSH2 0x2ABA PUSH1 0x20 DUP4 ADD DUP5 PUSH2 0x274B JUMP JUMPDEST SWAP4 SWAP3 POP POP POP JUMP JUMPDEST PUSH0 PUSH2 0x2ACB DUP3 PUSH2 0x2742 JUMP JUMPDEST SWAP2 POP PUSH32 0xFFFFFFFFFFFFFFFFFFFFFFFFFFFFFFFFFFFFFFFFFFFFFFFFFFFFFFFFFFFFFFFF DUP3 SUB PUSH2 0x2AFD JUMPI PUSH2 0x2AFC PUSH2 0x2A07 JUMP JUMPDEST JUMPDEST PUSH1 0x1 DUP3 ADD SWAP1 POP SWAP2 SWAP1 POP JUMP JUMPDEST PUSH0 DUP2 SWAP1 POP SWAP2 SWAP1 POP JUMP JUMPDEST PUSH0 DUP2 SWAP1 POP SWAP2 SWAP1 POP JUMP JUMPDEST PUSH0 PUSH2 0x2B34 PUSH2 0x2B2F PUSH2 0x2B2A DUP5 PUSH2 0x2B08 JUMP JUMPDEST PUSH2 0x2B11 JUMP JUMPDEST PUSH2 0x2742 JUMP JUMPDEST SWAP1 POP SWAP2 SWAP1 POP JUMP JUMPDEST PUSH2 0x2B44 DUP2 PUSH2 0x2B1A JUMP JUMPDEST DUP3 MSTORE POP POP JUMP JUMPDEST PUSH0 PUSH1 0x40 DUP3 ADD SWAP1 POP PUSH2 0x2B5D PUSH0 DUP4 ADD DUP6 PUSH2 0x2B3B JUMP JUMPDEST PUSH2 0x2B6A PUSH1 0x20 DUP4 ADD DUP5 PUSH2 0x274B JUMP JUMPDEST SWAP4 SWAP3 POP POP POP JUMP JUMPDEST PUSH32 0x4E487B7100000000000000000000000000000000000000000000000000000000 PUSH0 MSTORE PUSH1 0x32 PUSH1 0x4 MSTORE PUSH1 0x24 PUSH0 REVERT JUMPDEST PUSH32 0x4E487B7100000000000000000000000000000000000000000000000000000000 PUSH0 MSTORE PUSH1 0x31 PUSH1 0x4 MSTORE PUSH1 0x24 PUSH0 REVERT JUMPDEST PUSH0 PUSH10 0xFFFFFFFFFFFFFFFFFFFF DUP3 AND SWAP1 POP SWAP2 SWAP1 POP JUMP JUMPDEST PUSH2 0x2BE9 DUP2 PUSH2 0x2BCB JUMP JUMPDEST DUP2 EQ PUSH2 0x2BF3 JUMPI PUSH0 DUP1 REVERT JUMPDEST POP JUMP JUMPDEST PUSH0 DUP2 MLOAD SWAP1 POP PUSH2 0x2C04 DUP2 PUSH2 0x2BE0 JUMP JUMPDEST SWAP3 SWAP2 POP POP JUMP JUMPDEST PUSH0 DUP2 SWAP1 POP SWAP2 SWAP1 POP JUMP JUMPDEST PUSH2 0x2C1C DUP2 PUSH2 0x2C0A JUMP JUMPDEST DUP2 EQ PUSH2 0x2C26 JUMPI PUSH0 DUP1 REVERT JUMPDEST POP JUMP JUMPDEST PUSH0 DUP2 MLOAD SWAP1 POP PUSH2 0x2C37 DUP2 PUSH2 0x2C13 JUMP JUMPDEST SWAP3 SWAP2 POP POP JUMP JUMPDEST PUSH0 DUP2 MLOAD SWAP1 POP PUSH2 0x2C4B DUP2 PUSH2 0x2837 JUMP JUMPDEST SWAP3 SWAP2 POP POP JUMP JUMPDEST PUSH0 DUP1 PUSH0 DUP1 PUSH0 PUSH1 0xA0 DUP7 DUP9 SUB SLT ISZERO PUSH2 0x2C6A JUMPI PUSH2 0x2C69 PUSH2 0x2606 JUMP JUMPDEST JUMPDEST PUSH0 PUSH2 0x2C77 DUP9 DUP3 DUP10 ADD PUSH2 0x2BF6 JUMP JUMPDEST SWAP6 POP POP PUSH1 0x20 PUSH2 0x2C88 DUP9 DUP3 DUP10 ADD PUSH2 0x2C29 JUMP JUMPDEST SWAP5 POP POP PUSH1 0x40 PUSH2 0x2C99 DUP9 DUP3 DUP10 ADD PUSH2 0x2C3D JUMP JUMPDEST SWAP4 POP POP PUSH1 0x60 PUSH2 0x2CAA DUP9 DUP3 DUP10 ADD PUSH2 0x2C3D JUMP JUMPDEST SWAP3 POP POP PUSH1 0x80 PUSH2 0x2CBB DUP9 DUP3 DUP10 ADD PUSH2 0x2BF6 JUMP JUMPDEST SWAP2 POP POP SWAP3 SWAP6 POP SWAP3 SWAP6 SWAP1 SWAP4 POP JUMP JUMPDEST PUSH0 PUSH1 0xFF DUP3 AND SWAP1 POP SWAP2 SWAP1 POP JUMP JUMPDEST PUSH2 0x2CDD DUP2 PUSH2 0x2CC8 JUMP JUMPDEST DUP2 EQ PUSH2 0x2CE7 JUMPI PUSH0 DUP1 REVERT JUMPDEST POP JUMP JUMPDEST PUSH0 DUP2 MLOAD SWAP1 POP PUSH2 0x2CF8 DUP2 PUSH2 0x2CD4 JUMP JUMPDEST SWAP3 SWAP2 POP POP JUMP JUMPDEST PUSH0 PUSH1 0x20 DUP3 DUP5 SUB SLT ISZERO PUSH2 0x2D13 JUMPI PUSH2 0x2D12 PUSH2 0x2606 JUMP JUMPDEST JUMPDEST PUSH0 PUSH2 0x2D20 DUP5 DUP3 DUP6 ADD PUSH2 0x2CEA JUMP JUMPDEST SWAP2 POP POP SWAP3 SWAP2 POP POP JUMP JUMPDEST PUSH0 DUP2 PUSH1 0x1 SHR SWAP1 POP SWAP2 SWAP1 POP JUMP JUMPDEST PUSH0 DUP1 DUP3 SWAP2 POP DUP4 SWAP1 POP JUMPDEST PUSH1 0x1 DUP6 GT ISZERO PUSH2 0x2D7E JUMPI DUP1 DUP7 DIV DUP2 GT ISZERO PUSH2 0x2D5A JUMPI PUSH2 0x2D59 PUSH2 0x2A07 JUMP JUMPDEST JUMPDEST PUSH1 0x1 DUP6 AND ISZERO PUSH2 0x2D69 JUMPI DUP1 DUP3 MUL SWAP2 POP JUMPDEST DUP1 DUP2 MUL SWAP1 POP PUSH2 0x2D77 DUP6 PUSH2 0x2D29 JUMP JUMPDEST SWAP5 POP PUSH2 0x2D3E JUMP JUMPDEST SWAP5 POP SWAP5 SWAP3 POP POP POP JUMP JUMPDEST PUSH0 DUP3 PUSH2 0x2D96 JUMPI PUSH1 0x1 SWAP1 POP PUSH2 0x2E51 JUMP JUMPDEST DUP2 PUSH2 0x2DA3 JUMPI PUSH0 SWAP1 POP PUSH2 0x2E51 JUMP JUMPDEST DUP2 PUSH1 0x1 DUP2 EQ PUSH2 0x2DB9 JUMPI PUSH1 0x2 DUP2 EQ PUSH2 0x2DC3 JUMPI PUSH2 0x2DF2 JUMP JUMPDEST PUSH1 0x1 SWAP2 POP POP PUSH2 0x2E51 JUMP JUMPDEST PUSH1 0xFF DUP5 GT ISZERO PUSH2 0x2DD5 JUMPI PUSH2 0x2DD4 PUSH2 0x2A07 JUMP JUMPDEST JUMPDEST DUP4 PUSH1 0x2 EXP SWAP2 POP DUP5 DUP3 GT ISZERO PUSH2 0x2DEC JUMPI PUSH2 0x2DEB PUSH2 0x2A07 JUMP JUMPDEST JUMPDEST POP PUSH2 0x2E51 JUMP JUMPDEST POP PUSH1 0x20 DUP4 LT PUSH2 0x133 DUP4 LT AND PUSH1 0x4E DUP5 LT PUSH1 0xB DUP5 LT AND OR ISZERO PUSH2 0x2E27 JUMPI DUP3 DUP3 EXP SWAP1 POP DUP4 DUP2 GT ISZERO PUSH2 0x2E22 JUMPI PUSH2 0x2E21 PUSH2 0x2A07 JUMP JUMPDEST JUMPDEST PUSH2 0x2E51 JUMP JUMPDEST PUSH2 0x2E34 DUP5 DUP5 DUP5 PUSH1 0x1 PUSH2 0x2D35 JUMP JUMPDEST SWAP3 POP SWAP1 POP DUP2 DUP5 DIV DUP2 GT ISZERO PUSH2 0x2E4B JUMPI PUSH2 0x2E4A PUSH2 0x2A07 JUMP JUMPDEST JUMPDEST DUP2 DUP2 MUL SWAP1 POP JUMPDEST SWAP4 SWAP3 POP POP POP JUMP JUMPDEST PUSH0 PUSH2 0x2E62 DUP3 PUSH2 0x2742 JUMP JUMPDEST SWAP2 POP PUSH2 0x2E6D DUP4 PUSH2 0x2CC8 JUMP JUMPDEST SWAP3 POP PUSH2 0x2E9A PUSH32 0xFFFFFFFFFFFFFFFFFFFFFFFFFFFFFFFFFFFFFFFFFFFFFFFFFFFFFFFFFFFFFFFF DUP5 DUP5 PUSH2 0x2D87 JUMP JUMPDEST SWAP1 POP SWAP3 SWAP2 POP POP JUMP JUMPDEST PUSH0 PUSH2 0x2EAC DUP3 PUSH2 0x2742 JUMP JUMPDEST SWAP2 POP PUSH2 0x2EB7 DUP4 PUSH2 0x2742 JUMP JUMPDEST SWAP3 POP DUP3 DUP3 MUL PUSH2 0x2EC5 DUP2 PUSH2 0x2742 JUMP JUMPDEST SWAP2 POP DUP3 DUP3 DIV DUP5 EQ DUP4 ISZERO OR PUSH2 0x2EDC JUMPI PUSH2 0x2EDB PUSH2 0x2A07 JUMP JUMPDEST JUMPDEST POP SWAP3 SWAP2 POP POP JUMP JUMPDEST PUSH32 0x4E487B7100000000000000000000000000000000000000000000000000000000 PUSH0 MSTORE PUSH1 0x12 PUSH1 0x4 MSTORE PUSH1 0x24 PUSH0 REVERT JUMPDEST PUSH0 PUSH2 0x2F1A DUP3 PUSH2 0x2742 JUMP JUMPDEST SWAP2 POP PUSH2 0x2F25 DUP4 PUSH2 0x2742 JUMP JUMPDEST SWAP3 POP DUP3 PUSH2 0x2F35 JUMPI PUSH2 0x2F34 PUSH2 0x2EE3 JUMP JUMPDEST JUMPDEST DUP3 DUP3 DIV SWAP1 POP SWAP3 SWAP2 POP POP JUMP JUMPDEST PUSH0 PUSH2 0x2F4A DUP3 PUSH2 0x2CC8 JUMP JUMPDEST SWAP2 POP PUSH2 0x2F55 DUP4 PUSH2 0x2CC8 JUMP JUMPDEST SWAP3 POP DUP3 DUP3 SUB SWAP1 POP PUSH1 0xFF DUP2 GT ISZERO PUSH2 0x2F6E JUMPI PUSH2 0x2F6D PUSH2 0x2A07 JUMP JUMPDEST JUMPDEST SWAP3 SWAP2 POP POP JUMP JUMPDEST PUSH0 PUSH1 0x60 DUP3 ADD SWAP1 POP PUSH2 0x2F87 PUSH0 DUP4 ADD DUP7 PUSH2 0x289F JUMP JUMPDEST PUSH2 0x2F94 PUSH1 0x20 DUP4 ADD DUP6 PUSH2 0x289F JUMP JUMPDEST PUSH2 0x2FA1 PUSH1 0x40 DUP4 ADD DUP5 PUSH2 0x274B JUMP JUMPDEST SWAP5 SWAP4 POP POP POP POP JUMP JUMPDEST PUSH0 DUP2 SWAP1 POP SWAP3 SWAP2 POP POP JUMP JUMPDEST POP JUMP JUMPDEST PUSH0 PUSH2 0x2FC1 PUSH0 DUP4 PUSH2 0x2FA9 JUMP JUMPDEST SWAP2 POP PUSH2 0x2FCC DUP3 PUSH2 0x2FB3 JUMP JUMPDEST PUSH0 DUP3 ADD SWAP1 POP SWAP2 SWAP1 POP JUMP JUMPDEST PUSH0 PUSH2 0x2FE0 DUP3 PUSH2 0x2FB6 JUMP JUMPDEST SWAP2 POP DUP2 SWAP1 POP SWAP2 SWAP1 POP JUMP JUMPDEST PUSH0 PUSH1 0x40 DUP3 ADD SWAP1 POP PUSH2 0x2FFD PUSH0 DUP4 ADD DUP6 PUSH2 0x289F JUMP JUMPDEST PUSH2 0x300A PUSH1 0x20 DUP4 ADD DUP5 PUSH2 0x27D1 JUMP JUMPDEST SWAP4 SWAP3 POP POP POP JUMP JUMPDEST PUSH0 PUSH1 0x40 DUP3 ADD SWAP1 POP PUSH2 0x3024 PUSH0 DUP4 ADD DUP6 PUSH2 0x289F JUMP JUMPDEST PUSH2 0x3031 PUSH1 0x20 DUP4 ADD DUP5 PUSH2 0x274B JUMP JUMPDEST SWAP4 SWAP3 POP POP POP JUMP INVALID LOG2 PUSH5 0x6970667358 0x22 SLT KECCAK256 BYTE SGT BLOCKHASH 0xFC 0xC7 SWAP1 TLOAD 0xF 0xE5 0xA9 DUP2 0xBD NUMBER PUSH13 0xF7777761CE3224A107B20C4292 RETURN 0xAC 0xB8 BASEFEE 0x25 PUSH5 0x736F6C6343 STOP ADDMOD BYTE STOP CALLER "
				},
				"gasEstimates": {
					"creation": {
						"codeDepositCost": "2479600",
						"executionCost": "infinite",
						"totalCost": "infinite"
					},
					"external": {
						"": "285",
						"ADMIN_ROLE()": "436",
						"DEFAULT_ADMIN_ROLE()": "419",
						"addTokenSupport(address,address)": "infinite",
						"depositETH()": "infinite",
						"depositToken(address,uint256)": "infinite",
						"getAvailableBankCapUSD()": "infinite",
						"getBalance(address,address)": "infinite",
						"getBalanceUSD(address,address)": "infinite",
						"getPriceFeed(address)": "infinite",
						"getRoleAdmin(bytes32)": "infinite",
						"getSupportedTokens()": "infinite",
						"getTotalDeposits(address)": "infinite",
						"getTotalDepositsUSD()": "infinite",
						"grantRole(bytes32,address)": "infinite",
						"hasRole(bytes32,address)": "3167",
						"i_bankCapUSD()": "infinite",
						"i_withdrawalThresholdUSD()": "infinite",
						"isTokenSupported(address)": "2980",
						"removeTokenSupport(address)": "infinite",
						"renounceRole(bytes32,address)": "infinite",
						"revokeRole(bytes32,address)": "infinite",
						"s_depositCount()": "2558",
						"s_withdrawalCount()": "2536",
						"supportsInterface(bytes4)": "741",
						"withdrawETH(uint256)": "infinite",
						"withdrawToken(address,uint256)": "infinite"
					},
					"internal": {
						"_denormalizeFromUSDC(address,uint256)": "infinite",
						"_deposit(address,uint256)": "infinite",
						"_getTotalDepositsUSD()": "infinite",
						"_getUSDValue(address,uint256)": "infinite",
						"_normalizeToUSDC(address,uint256)": "infinite",
						"_withdraw(address,uint256)": "infinite"
					}
				},
				"methodIdentifiers": {
					"ADMIN_ROLE()": "75b238fc",
					"DEFAULT_ADMIN_ROLE()": "a217fddf",
					"addTokenSupport(address,address)": "5ccf7ac4",
					"depositETH()": "f6326fb3",
					"depositToken(address,uint256)": "338b5dea",
					"getAvailableBankCapUSD()": "08133237",
					"getBalance(address,address)": "d4fac45d",
					"getBalanceUSD(address,address)": "e62615c6",
					"getPriceFeed(address)": "5b6cca80",
					"getRoleAdmin(bytes32)": "248a9ca3",
					"getSupportedTokens()": "d3c7c2c7",
					"getTotalDeposits(address)": "0251cfa1",
					"getTotalDepositsUSD()": "83e397b8",
					"grantRole(bytes32,address)": "2f2ff15d",
					"hasRole(bytes32,address)": "91d14854",
					"i_bankCapUSD()": "0ccee433",
					"i_withdrawalThresholdUSD()": "d15f58fb",
					"isTokenSupported(address)": "75151b63",
					"removeTokenSupport(address)": "2ba8d939",
					"renounceRole(bytes32,address)": "36568abe",
					"revokeRole(bytes32,address)": "d547741f",
					"s_depositCount()": "cac2e25f",
					"s_withdrawalCount()": "b2343b1c",
					"supportsInterface(bytes4)": "01ffc9a7",
					"withdrawETH(uint256)": "f14210a6",
					"withdrawToken(address,uint256)": "9e281a98"
				}
			},
			"storageLayout": {
				"storage": [
					{
						"astId": 73,
						"contract": "src/kipu-bank-v2.sol:KipuBankV2",
						"label": "_roles",
						"offset": 0,
						"slot": "0",
						"type": "t_mapping(t_bytes32,t_struct(RoleData)68_storage)"
					},
					{
						"astId": 1098,
						"contract": "src/kipu-bank-v2.sol:KipuBankV2",
						"label": "_status",
						"offset": 0,
						"slot": "1",
						"type": "t_uint256"
					},
					{
						"astId": 1241,
						"contract": "src/kipu-bank-v2.sol:KipuBankV2",
						"label": "s_deposits",
						"offset": 0,
						"slot": "2",
						"type": "t_mapping(t_address,t_mapping(t_address,t_uint256))"
					},
					{
						"astId": 1246,
						"contract": "src/kipu-bank-v2.sol:KipuBankV2",
						"label": "s_totalDeposits",
						"offset": 0,
						"slot": "3",
						"type": "t_mapping(t_address,t_uint256)"
					},
					{
						"astId": 1252,
						"contract": "src/kipu-bank-v2.sol:KipuBankV2",
						"label": "s_priceFeeds",
						"offset": 0,
						"slot": "4",
						"type": "t_mapping(t_address,t_contract(AggregatorV3Interface)45)"
					},
					{
						"astId": 1256,
						"contract": "src/kipu-bank-v2.sol:KipuBankV2",
						"label": "s_supportedTokens",
						"offset": 0,
						"slot": "5",
						"type": "t_array(t_address)dyn_storage"
					},
					{
						"astId": 1259,
						"contract": "src/kipu-bank-v2.sol:KipuBankV2",
						"label": "s_depositCount",
						"offset": 0,
						"slot": "6",
						"type": "t_uint256"
					},
					{
						"astId": 1262,
						"contract": "src/kipu-bank-v2.sol:KipuBankV2",
						"label": "s_withdrawalCount",
						"offset": 0,
						"slot": "7",
						"type": "t_uint256"
					}
				],
				"types": {
					"t_address": {
						"encoding": "inplace",
						"label": "address",
						"numberOfBytes": "20"
					},
					"t_array(t_address)dyn_storage": {
						"base": "t_address",
						"encoding": "dynamic_array",
						"label": "address[]",
						"numberOfBytes": "32"
					},
					"t_bool": {
						"encoding": "inplace",
						"label": "bool",
						"numberOfBytes": "1"
					},
					"t_bytes32": {
						"encoding": "inplace",
						"label": "bytes32",
						"numberOfBytes": "32"
					},
					"t_contract(AggregatorV3Interface)45": {
						"encoding": "inplace",
						"label": "contract AggregatorV3Interface",
						"numberOfBytes": "20"
					},
					"t_mapping(t_address,t_bool)": {
						"encoding": "mapping",
						"key": "t_address",
						"label": "mapping(address => bool)",
						"numberOfBytes": "32",
						"value": "t_bool"
					},
					"t_mapping(t_address,t_contract(AggregatorV3Interface)45)": {
						"encoding": "mapping",
						"key": "t_address",
						"label": "mapping(address => contract AggregatorV3Interface)",
						"numberOfBytes": "32",
						"value": "t_contract(AggregatorV3Interface)45"
					},
					"t_mapping(t_address,t_mapping(t_address,t_uint256))": {
						"encoding": "mapping",
						"key": "t_address",
						"label": "mapping(address => mapping(address => uint256))",
						"numberOfBytes": "32",
						"value": "t_mapping(t_address,t_uint256)"
					},
					"t_mapping(t_address,t_uint256)": {
						"encoding": "mapping",
						"key": "t_address",
						"label": "mapping(address => uint256)",
						"numberOfBytes": "32",
						"value": "t_uint256"
					},
					"t_mapping(t_bytes32,t_struct(RoleData)68_storage)": {
						"encoding": "mapping",
						"key": "t_bytes32",
						"label": "mapping(bytes32 => struct AccessControl.RoleData)",
						"numberOfBytes": "32",
						"value": "t_struct(RoleData)68_storage"
					},
					"t_struct(RoleData)68_storage": {
						"encoding": "inplace",
						"label": "struct AccessControl.RoleData",
						"members": [
							{
								"astId": 65,
								"contract": "src/kipu-bank-v2.sol:KipuBankV2",
								"label": "hasRole",
								"offset": 0,
								"slot": "0",
								"type": "t_mapping(t_address,t_bool)"
							},
							{
								"astId": 67,
								"contract": "src/kipu-bank-v2.sol:KipuBankV2",
								"label": "adminRole",
								"offset": 0,
								"slot": "1",
								"type": "t_bytes32"
							}
						],
						"numberOfBytes": "64"
					},
					"t_uint256": {
						"encoding": "inplace",
						"label": "uint256",
						"numberOfBytes": "32"
					}
				}
			},
			"userdoc": {
				"errors": {
					"KipuBank__BankCapExceeded(uint256,uint256)": [
						{
							"notice": "Se excede el cap global del banco (en USD)."
						}
					],
					"KipuBank__ETHTransferFailed()": [
						{
							"notice": "Falló el envío de ETH nativo."
						}
					],
					"KipuBank__InsufficientBalance(uint256,uint256)": [
						{
							"notice": "Saldo insuficiente para retirar."
						}
					],
					"KipuBank__InvalidPriceData()": [
						{
							"notice": "El oráculo devolvió precio inválido (<= 0) o datos corruptos."
						}
					],
					"KipuBank__TokenAlreadySupported(address)": [
						{
							"notice": "Token ya estaba habilitado."
						}
					],
					"KipuBank__TokenNotSupported(address)": [
						{
							"notice": "Token no soportado (no tiene feed configurado o es inválido)."
						}
					],
					"KipuBank__TransferFailed()": [
						{
							"notice": "Transferencia fallida (genérico)."
						}
					],
					"KipuBank__WithdrawalThresholdExceeded(uint256,uint256)": [
						{
							"notice": "Se excede el umbral de retiro por transacción (en USD)."
						}
					],
					"KipuBank__ZeroAmount()": [
						{
							"notice": "Monto igual a cero."
						}
					]
				},
				"events": {
					"DepositMade(address,address,uint256,uint256)": {
						"notice": "Se emite cuando un usuario deposita."
					},
					"TokenAdded(address,address)": {
						"notice": "Se emite al habilitar un token ERC-20."
					},
					"TokenRemoved(address)": {
						"notice": "Se emite al deshabilitar un token ERC-20."
					},
					"WithdrawalMade(address,address,uint256,uint256)": {
						"notice": "Se emite cuando un usuario retira."
					}
				},
				"kind": "user",
				"methods": {
					"ADMIN_ROLE()": {
						"notice": "Rol de administrador: puede agregar/quitar tokens y administrar parámetros."
					},
					"addTokenSupport(address,address)": {
						"notice": "Habilita soporte para un nuevo token ERC-20."
					},
					"constructor": {
						"notice": "Inicializa el banco con umbral de retiro y cap global en USD."
					},
					"depositETH()": {
						"notice": "Deposita ETH nativo (address(0))."
					},
					"depositToken(address,uint256)": {
						"notice": "Deposita un token ERC-20 habilitado."
					},
					"getAvailableBankCapUSD()": {
						"notice": "Devuelve la capacidad disponible del banco en USD(18) (cap - total actual)."
					},
					"getBalance(address,address)": {
						"notice": "Devuelve el saldo del usuario en decimales nativos del token."
					},
					"getBalanceUSD(address,address)": {
						"notice": "Devuelve el saldo del usuario en USD(18)."
					},
					"getPriceFeed(address)": {
						"notice": "Devuelve la dirección del oráculo TOKEN/USD para un token."
					},
					"getSupportedTokens()": {
						"notice": "Lista de tokens soportados actualmente (incluye ETH)."
					},
					"getTotalDeposits(address)": {
						"notice": "Devuelve el total depositado para un token (en decimales nativos)."
					},
					"getTotalDepositsUSD()": {
						"notice": "Devuelve el total global de depósitos en USD(18) sumando todos los tokens."
					},
					"i_bankCapUSD()": {
						"notice": "Tope (cap) global del banco en USD (18 decimales). Suma total de depósitos."
					},
					"i_withdrawalThresholdUSD()": {
						"notice": "Umbral máximo de retiro por transacción en USD (18 decimales)."
					},
					"isTokenSupported(address)": {
						"notice": "Indica si un token está soportado (tiene oráculo configurado)."
					},
					"removeTokenSupport(address)": {
						"notice": "Deshabilita un token (debe no tener depósitos pendientes)."
					},
					"s_depositCount()": {
						"notice": "Métricas: número total de depósitos realizados."
					},
					"s_withdrawalCount()": {
						"notice": "Métricas: número total de retiros realizados."
					},
					"withdrawETH(uint256)": {
						"notice": "Retira ETH de tu saldo."
					},
					"withdrawToken(address,uint256)": {
						"notice": "Retira tokens ERC-20 de tu saldo."
					}
				},
				"version": 1
			}
		}
	}
}